{"contracts/Domains.sol":{"Domains":{"abi":[{"inputs":[{"internalType":"string","name":"_tld","type":"string"}],"stateMutability":"payable","type":"constructor"},{"anonymous":false,"inputs":[{"indexed":true,"internalType":"address","name":"owner","type":"address"},{"indexed":true,"internalType":"address","name":"approved","type":"address"},{"indexed":true,"internalType":"uint256","name":"tokenId","type":"uint256"}],"name":"Approval","type":"event"},{"anonymous":false,"inputs":[{"indexed":true,"internalType":"address","name":"owner","type":"address"},{"indexed":true,"internalType":"address","name":"operator","type":"address"},{"indexed":false,"internalType":"bool","name":"approved","type":"bool"}],"name":"ApprovalForAll","type":"event"},{"anonymous":false,"inputs":[{"indexed":true,"internalType":"address","name":"from","type":"address"},{"indexed":true,"internalType":"address","name":"to","type":"address"},{"indexed":true,"internalType":"uint256","name":"tokenId","type":"uint256"}],"name":"Transfer","type":"event"},{"inputs":[{"internalType":"address","name":"to","type":"address"},{"internalType":"uint256","name":"tokenId","type":"uint256"}],"name":"approve","outputs":[],"stateMutability":"nonpayable","type":"function"},{"inputs":[{"internalType":"address","name":"owner","type":"address"}],"name":"balanceOf","outputs":[{"internalType":"uint256","name":"","type":"uint256"}],"stateMutability":"view","type":"function"},{"inputs":[{"internalType":"string","name":"","type":"string"}],"name":"domains","outputs":[{"internalType":"address","name":"","type":"address"}],"stateMutability":"view","type":"function"},{"inputs":[{"internalType":"string","name":"name","type":"string"}],"name":"getAddress","outputs":[{"internalType":"address","name":"","type":"address"}],"stateMutability":"view","type":"function"},{"inputs":[{"internalType":"uint256","name":"tokenId","type":"uint256"}],"name":"getApproved","outputs":[{"internalType":"address","name":"","type":"address"}],"stateMutability":"view","type":"function"},{"inputs":[{"internalType":"string","name":"name","type":"string"}],"name":"getRecord","outputs":[{"internalType":"string","name":"","type":"string"}],"stateMutability":"view","type":"function"},{"inputs":[{"internalType":"address","name":"owner","type":"address"},{"internalType":"address","name":"operator","type":"address"}],"name":"isApprovedForAll","outputs":[{"internalType":"bool","name":"","type":"bool"}],"stateMutability":"view","type":"function"},{"inputs":[],"name":"isOwner","outputs":[{"internalType":"bool","name":"","type":"bool"}],"stateMutability":"view","type":"function"},{"inputs":[],"name":"name","outputs":[{"internalType":"string","name":"","type":"string"}],"stateMutability":"view","type":"function"},{"inputs":[],"name":"owner","outputs":[{"internalType":"address payable","name":"","type":"address"}],"stateMutability":"view","type":"function"},{"inputs":[{"internalType":"uint256","name":"tokenId","type":"uint256"}],"name":"ownerOf","outputs":[{"internalType":"address","name":"","type":"address"}],"stateMutability":"view","type":"function"},{"inputs":[{"internalType":"string","name":"name","type":"string"}],"name":"price","outputs":[{"internalType":"uint256","name":"","type":"uint256"}],"stateMutability":"pure","type":"function"},{"inputs":[{"internalType":"string","name":"","type":"string"}],"name":"records","outputs":[{"internalType":"string","name":"","type":"string"}],"stateMutability":"view","type":"function"},{"inputs":[{"internalType":"string","name":"name","type":"string"}],"name":"register","outputs":[],"stateMutability":"payable","type":"function"},{"inputs":[{"internalType":"address","name":"from","type":"address"},{"internalType":"address","name":"to","type":"address"},{"internalType":"uint256","name":"tokenId","type":"uint256"}],"name":"safeTransferFrom","outputs":[],"stateMutability":"nonpayable","type":"function"},{"inputs":[{"internalType":"address","name":"from","type":"address"},{"internalType":"address","name":"to","type":"address"},{"internalType":"uint256","name":"tokenId","type":"uint256"},{"internalType":"bytes","name":"data","type":"bytes"}],"name":"safeTransferFrom","outputs":[],"stateMutability":"nonpayable","type":"function"},{"inputs":[{"internalType":"address","name":"operator","type":"address"},{"internalType":"bool","name":"approved","type":"bool"}],"name":"setApprovalForAll","outputs":[],"stateMutability":"nonpayable","type":"function"},{"inputs":[{"internalType":"string","name":"name","type":"string"},{"internalType":"string","name":"record","type":"string"}],"name":"setRecord","outputs":[],"stateMutability":"nonpayable","type":"function"},{"inputs":[{"internalType":"bytes4","name":"interfaceId","type":"bytes4"}],"name":"supportsInterface","outputs":[{"internalType":"bool","name":"","type":"bool"}],"stateMutability":"view","type":"function"},{"inputs":[],"name":"symbol","outputs":[{"internalType":"string","name":"","type":"string"}],"stateMutability":"view","type":"function"},{"inputs":[],"name":"tld","outputs":[{"internalType":"string","name":"","type":"string"}],"stateMutability":"view","type":"function"},{"inputs":[{"internalType":"uint256","name":"tokenId","type":"uint256"}],"name":"tokenURI","outputs":[{"internalType":"string","name":"","type":"string"}],"stateMutability":"view","type":"function"},{"inputs":[{"internalType":"address","name":"from","type":"address"},{"internalType":"address","name":"to","type":"address"},{"internalType":"uint256","name":"tokenId","type":"uint256"}],"name":"transferFrom","outputs":[],"stateMutability":"nonpayable","type":"function"},{"inputs":[],"name":"withdraw","outputs":[],"stateMutability":"nonpayable","type":"function"}],"evm":{"bytecode":{"linkReferences":{},"object":"6080604052604051806108a0016040528061086b815260200162004ef761086b9139600990816200003191906200051f565b506040518060400160405280600d81526020017f3c2f746578743e3c2f7376673e00000000000000000000000000000000000000815250600a90816200007891906200051f565b50604051620057623803806200576283398181016040528101906200009e91906200076a565b6040518060400160405280601281526020017f4e696e6a61204e616d65205365727669636500000000000000000000000000008152506040518060400160405280600381526020017f4e4e53000000000000000000000000000000000000000000000000000000000081525081600090816200011b91906200051f565b5080600190816200012d91906200051f565b50505033600d60006101000a81548173ffffffffffffffffffffffffffffffffffffffff021916908373ffffffffffffffffffffffffffffffffffffffff16021790555080600890816200018291906200051f565b50620001cf6040518060400160405280601881526020017f2573206e616d652073657276696365206465706c6f796564000000000000000081525082620001d660201b620016281760201c565b5062000848565b620002788282604051602401620001ef9291906200080d565b6040516020818303038152906040527f4b5c4277000000000000000000000000000000000000000000000000000000007bffffffffffffffffffffffffffffffffffffffffffffffffffffffff19166020820180517bffffffffffffffffffffffffffffffffffffffffffffffffffffffff83818316178352505050506200027c60201b60201c565b5050565b60008151905060006a636f6e736f6c652e6c6f679050602083016000808483855afa5050505050565b600081519050919050565b7f4e487b7100000000000000000000000000000000000000000000000000000000600052604160045260246000fd5b7f4e487b7100000000000000000000000000000000000000000000000000000000600052602260045260246000fd5b600060028204905060018216806200032757607f821691505b6020821081036200033d576200033c620002df565b5b50919050565b60008190508160005260206000209050919050565b60006020601f8301049050919050565b600082821b905092915050565b600060088302620003a77fffffffffffffffffffffffffffffffffffffffffffffffffffffffffffffffff8262000368565b620003b3868362000368565b95508019841693508086168417925050509392505050565b6000819050919050565b6000819050919050565b600062000400620003fa620003f484620003cb565b620003d5565b620003cb565b9050919050565b6000819050919050565b6200041c83620003df565b620004346200042b8262000407565b84845462000375565b825550505050565b600090565b6200044b6200043c565b6200045881848462000411565b505050565b5b8181101562000480576200047460008262000441565b6001810190506200045e565b5050565b601f821115620004cf57620004998162000343565b620004a48462000358565b81016020851015620004b4578190505b620004cc620004c38562000358565b8301826200045d565b50505b505050565b600082821c905092915050565b6000620004f460001984600802620004d4565b1980831691505092915050565b60006200050f8383620004e1565b9150826002028217905092915050565b6200052a82620002a5565b67ffffffffffffffff811115620005465762000545620002b0565b5b6200055282546200030e565b6200055f82828562000484565b600060209050601f83116001811462000597576000841562000582578287015190505b6200058e858262000501565b865550620005fe565b601f198416620005a78662000343565b60005b82811015620005d157848901518255600182019150602085019450602081019050620005aa565b86831015620005f15784890151620005ed601f891682620004e1565b8355505b6001600288020188555050505b505050505050565b6000604051905090565b600080fd5b600080fd5b600080fd5b600080fd5b6000601f19601f8301169050919050565b620006408262000624565b810181811067ffffffffffffffff82111715620006625762000661620002b0565b5b80604052505050565b60006200067762000606565b905062000685828262000635565b919050565b600067ffffffffffffffff821115620006a857620006a7620002b0565b5b620006b38262000624565b9050602081019050919050565b60005b83811015620006e0578082015181840152602081019050620006c3565b60008484015250505050565b600062000703620006fd846200068a565b6200066b565b9050828152602081018484840111156200072257620007216200061f565b5b6200072f848285620006c0565b509392505050565b600082601f8301126200074f576200074e6200061a565b5b815162000761848260208601620006ec565b91505092915050565b60006020828403121562000783576200078262000610565b5b600082015167ffffffffffffffff811115620007a457620007a362000615565b5b620007b28482850162000737565b91505092915050565b600082825260208201905092915050565b6000620007d982620002a5565b620007e58185620007bb565b9350620007f7818560208601620006c0565b620008028162000624565b840191505092915050565b60006040820190508181036000830152620008298185620007cc565b905081810360208301526200083f8184620007cc565b90509392505050565b61469f80620008586000396000f3fe60806040526004361061014b5760003560e01c806370a08231116100b6578063bf40fac11161006f578063bf40fac1146104b6578063c1880a98146104f3578063c87b56dd1461051c578063e985e9c514610559578063f2c298be14610596578063fe2c6198146105b25761014b565b806370a08231146103a65780638da5cb5b146103e35780638f32d59b1461040e57806395d89b4114610439578063a22cb46514610464578063b88d4fde1461048d5761014b565b8063264492351161010857806326449235146102845780632d551432146102c15780633ccfd60b146102ec57806342842e0e14610303578063541e771d1461032c5780636352211e146103695761014b565b806301ffc9a71461015057806306fdde031461018d578063081812fc146101b8578063095ea7b3146101f557806311dd88451461021e57806323b872dd1461025b575b600080fd5b34801561015c57600080fd5b5061017760048036038101906101729190612b93565b6105ef565b6040516101849190612bdb565b60405180910390f35b34801561019957600080fd5b506101a26106d1565b6040516101af9190612c86565b60405180910390f35b3480156101c457600080fd5b506101df60048036038101906101da9190612cde565b610763565b6040516101ec9190612d4c565b60405180910390f35b34801561020157600080fd5b5061021c60048036038101906102179190612d93565b6107a9565b005b34801561022a57600080fd5b5061024560048036038101906102409190612e38565b6108c0565b6040516102529190612c86565b60405180910390f35b34801561026757600080fd5b50610282600480360381019061027d9190612e85565b610973565b005b34801561029057600080fd5b506102ab60048036038101906102a69190613008565b6109d3565b6040516102b89190612d4c565b60405180910390f35b3480156102cd57600080fd5b506102d6610a1c565b6040516102e39190612c86565b60405180910390f35b3480156102f857600080fd5b50610301610aaa565b005b34801561030f57600080fd5b5061032a60048036038101906103259190612e85565b610b70565b005b34801561033857600080fd5b50610353600480360381019061034e9190613008565b610b90565b6040516103609190612c86565b60405180910390f35b34801561037557600080fd5b50610390600480360381019061038b9190612cde565b610c46565b60405161039d9190612d4c565b60405180910390f35b3480156103b257600080fd5b506103cd60048036038101906103c89190613051565b610ccc565b6040516103da919061308d565b60405180910390f35b3480156103ef57600080fd5b506103f8610d83565b60405161040591906130c9565b60405180910390f35b34801561041a57600080fd5b50610423610da9565b6040516104309190612bdb565b60405180910390f35b34801561044557600080fd5b5061044e610e01565b60405161045b9190612c86565b60405180910390f35b34801561047057600080fd5b5061048b60048036038101906104869190613110565b610e93565b005b34801561049957600080fd5b506104b460048036038101906104af91906131f1565b610ea9565b005b3480156104c257600080fd5b506104dd60048036038101906104d89190612e38565b610f0b565b6040516104ea9190612d4c565b60405180910390f35b3480156104ff57600080fd5b5061051a60048036038101906105159190613274565b610f56565b005b34801561052857600080fd5b50610543600480360381019061053e9190612cde565b611004565b6040516105509190612c86565b60405180910390f35b34801561056557600080fd5b50610580600480360381019061057b91906132f5565b611116565b60405161058d9190612bdb565b60405180910390f35b6105b060048036038101906105ab9190612e38565b6111aa565b005b3480156105be57600080fd5b506105d960048036038101906105d49190612e38565b61158b565b6040516105e6919061308d565b60405180910390f35b60007f80ac58cd000000000000000000000000000000000000000000000000000000007bffffffffffffffffffffffffffffffffffffffffffffffffffffffff1916827bffffffffffffffffffffffffffffffffffffffffffffffffffffffff191614806106ba57507f5b5e139f000000000000000000000000000000000000000000000000000000007bffffffffffffffffffffffffffffffffffffffffffffffffffffffff1916827bffffffffffffffffffffffffffffffffffffffffffffffffffffffff1916145b806106ca57506106c9826116c4565b5b9050919050565b6060600080546106e090613364565b80601f016020809104026020016040519081016040528092919081815260200182805461070c90613364565b80156107595780601f1061072e57610100808354040283529160200191610759565b820191906000526020600020905b81548152906001019060200180831161073c57829003601f168201915b5050505050905090565b600061076e8261172e565b6004600083815260200190815260200160002060009054906101000a900473ffffffffffffffffffffffffffffffffffffffff169050919050565b60006107b482610c46565b90508073ffffffffffffffffffffffffffffffffffffffff168373ffffffffffffffffffffffffffffffffffffffff1603610824576040517f08c379a000000000000000000000000000000000000000000000000000000000815260040161081b90613407565b60405180910390fd5b8073ffffffffffffffffffffffffffffffffffffffff16610843611779565b73ffffffffffffffffffffffffffffffffffffffff16148061087257506108718161086c611779565b611116565b5b6108b1576040517f08c379a00000000000000000000000000000000000000000000000000000000081526004016108a890613499565b60405180910390fd5b6108bb8383611781565b505050565b6060600c83836040516108d49291906134e9565b908152602001604051809103902080546108ed90613364565b80601f016020809104026020016040519081016040528092919081815260200182805461091990613364565b80156109665780601f1061093b57610100808354040283529160200191610966565b820191906000526020600020905b81548152906001019060200180831161094957829003601f168201915b5050505050905092915050565b61098461097e611779565b8261183a565b6109c3576040517f08c379a00000000000000000000000000000000000000000000000000000000081526004016109ba90613574565b60405180910390fd5b6109ce8383836118cf565b505050565b600b818051602081018201805184825260208301602085012081835280955050505050506000915054906101000a900473ffffffffffffffffffffffffffffffffffffffff1681565b60088054610a2990613364565b80601f0160208091040260200160405190810160405280929190818152602001828054610a5590613364565b8015610aa25780601f10610a7757610100808354040283529160200191610aa2565b820191906000526020600020905b815481529060010190602001808311610a8557829003601f168201915b505050505081565b610ab2610da9565b610abb57600080fd5b600047905060003373ffffffffffffffffffffffffffffffffffffffff1682604051610ae6906135c5565b60006040518083038185875af1925050503d8060008114610b23576040519150601f19603f3d011682016040523d82523d6000602084013e610b28565b606091505b5050905080610b6c576040517f08c379a0000000000000000000000000000000000000000000000000000000008152600401610b6390613626565b60405180910390fd5b5050565b610b8b83838360405180602001604052806000815250610ea9565b505050565b600c818051602081018201805184825260208301602085012081835280955050505050506000915090508054610bc590613364565b80601f0160208091040260200160405190810160405280929190818152602001828054610bf190613364565b8015610c3e5780601f10610c1357610100808354040283529160200191610c3e565b820191906000526020600020905b815481529060010190602001808311610c2157829003601f168201915b505050505081565b600080610c5283611bc8565b9050600073ffffffffffffffffffffffffffffffffffffffff168173ffffffffffffffffffffffffffffffffffffffff1603610cc3576040517f08c379a0000000000000000000000000000000000000000000000000000000008152600401610cba90613692565b60405180910390fd5b80915050919050565b60008073ffffffffffffffffffffffffffffffffffffffff168273ffffffffffffffffffffffffffffffffffffffff1603610d3c576040517f08c379a0000000000000000000000000000000000000000000000000000000008152600401610d3390613724565b60405180910390fd5b600360008373ffffffffffffffffffffffffffffffffffffffff1673ffffffffffffffffffffffffffffffffffffffff168152602001908152602001600020549050919050565b600d60009054906101000a900473ffffffffffffffffffffffffffffffffffffffff1681565b6000600d60009054906101000a900473ffffffffffffffffffffffffffffffffffffffff1673ffffffffffffffffffffffffffffffffffffffff163373ffffffffffffffffffffffffffffffffffffffff1614905090565b606060018054610e1090613364565b80601f0160208091040260200160405190810160405280929190818152602001828054610e3c90613364565b8015610e895780601f10610e5e57610100808354040283529160200191610e89565b820191906000526020600020905b815481529060010190602001808311610e6c57829003601f168201915b5050505050905090565b610ea5610e9e611779565b8383611c05565b5050565b610eba610eb4611779565b8361183a565b610ef9576040517f08c379a0000000000000000000000000000000000000000000000000000000008152600401610ef090613574565b60405180910390fd5b610f0584848484611d71565b50505050565b6000600b8383604051610f1f9291906134e9565b908152602001604051809103902060009054906101000a900473ffffffffffffffffffffffffffffffffffffffff16905092915050565b3373ffffffffffffffffffffffffffffffffffffffff16600b8585604051610f7f9291906134e9565b908152602001604051809103902060009054906101000a900473ffffffffffffffffffffffffffffffffffffffff1673ffffffffffffffffffffffffffffffffffffffff1614610fce57600080fd5b8181600c8686604051610fe29291906134e9565b90815260200160405180910390209182610ffd9291906138fb565b5050505050565b606061100f8261172e565b600060066000848152602001908152602001600020805461102f90613364565b80601f016020809104026020016040519081016040528092919081815260200182805461105b90613364565b80156110a85780601f1061107d576101008083540402835291602001916110a8565b820191906000526020600020905b81548152906001019060200180831161108b57829003601f168201915b5050505050905060006110b9611dcd565b905060008151036110ce578192505050611111565b6000825111156111035780826040516020016110eb9291906139fc565b60405160208183030381529060405292505050611111565b61110c84611de4565b925050505b919050565b6000600560008473ffffffffffffffffffffffffffffffffffffffff1673ffffffffffffffffffffffffffffffffffffffff16815260200190815260200160002060008373ffffffffffffffffffffffffffffffffffffffff1673ffffffffffffffffffffffffffffffffffffffff16815260200190815260200160002060009054906101000a900460ff16905092915050565b600073ffffffffffffffffffffffffffffffffffffffff16600b83836040516111d49291906134e9565b908152602001604051809103902060009054906101000a900473ffffffffffffffffffffffffffffffffffffffff1673ffffffffffffffffffffffffffffffffffffffff161461122357600080fd5b600061122f838361158b565b905080341015611274576040517f08c379a000000000000000000000000000000000000000000000000000000000815260040161126b90613a6c565b60405180910390fd5b60008383600860405160200161128c93929190613b5b565b60405160208183030381529060405290506000600982600a6040516020016112b693929190613b8c565b604051602081830303815290604052905060006112d36007611e4c565b9050600061132487878080601f016020809104026020016040519081016040528093929190818152602001838380828437600081840152601f19601f82011690508083019250505050505050611e5a565b905060006113318261200f565b90506114256040518060600160405280603181526020016145c06031913989898080601f016020809104026020016040519081016040528093929190818152602001838380828437600081840152601f19601f82011690508083019250505050505050600880546113a190613364565b80601f01602080910402602001604051908101604052809291908181526020018280546113cd90613364565b801561141a5780601f106113ef5761010080835404028352916020019161141a565b820191906000526020600020905b8154815290600101906020018083116113fd57829003601f168201915b5050505050866120dd565b600061145b866114348761217f565b8460405160200161144793929190613d39565b60405160208183030381529060405261217f565b90506000816040516020016114709190613de2565b60405160208183030381529060405290506114a2604051806060016040528060398152602001614587603991396122e2565b6114e16040518060400160405280600e81526020017f46696e616c20746f6b656e55524900000000000000000000000000000000000081525082611628565b6115026040518060600160405280603981526020016145f1603991396122e2565b61150c338661237b565b6115168582612399565b33600b8b8b6040516115299291906134e9565b908152602001604051809103902060006101000a81548173ffffffffffffffffffffffffffffffffffffffff021916908373ffffffffffffffffffffffffffffffffffffffff16021790555061157f6007612406565b50505050505050505050565b6000806115db84848080601f016020809104026020016040519081016040528093929190818152602001838380828437600081840152601f19601f82011690508083019250505050505050611e5a565b9050600081116115ea57600080fd5b60038103611603576706f05b59d3b20000915050611622565b60048103611615576003915050611622565b67016345785d8a00009150505b92915050565b6116c0828260405160240161163e929190613e04565b6040516020818303038152906040527f4b5c4277000000000000000000000000000000000000000000000000000000007bffffffffffffffffffffffffffffffffffffffffffffffffffffffff19166020820180517bffffffffffffffffffffffffffffffffffffffffffffffffffffffff838183161783525050505061241c565b5050565b60007f01ffc9a7000000000000000000000000000000000000000000000000000000007bffffffffffffffffffffffffffffffffffffffffffffffffffffffff1916827bffffffffffffffffffffffffffffffffffffffffffffffffffffffff1916149050919050565b61173781612445565b611776576040517f08c379a000000000000000000000000000000000000000000000000000000000815260040161176d90613692565b60405180910390fd5b50565b600033905090565b816004600083815260200190815260200160002060006101000a81548173ffffffffffffffffffffffffffffffffffffffff021916908373ffffffffffffffffffffffffffffffffffffffff160217905550808273ffffffffffffffffffffffffffffffffffffffff166117f483610c46565b73ffffffffffffffffffffffffffffffffffffffff167f8c5be1e5ebec7d5bd14f71427d1e84f3dd0314c0f7b2291e5b200ac8c7c3b92560405160405180910390a45050565b60008061184683610c46565b90508073ffffffffffffffffffffffffffffffffffffffff168473ffffffffffffffffffffffffffffffffffffffff16148061188857506118878185611116565b5b806118c657508373ffffffffffffffffffffffffffffffffffffffff166118ae84610763565b73ffffffffffffffffffffffffffffffffffffffff16145b91505092915050565b8273ffffffffffffffffffffffffffffffffffffffff166118ef82610c46565b73ffffffffffffffffffffffffffffffffffffffff1614611945576040517f08c379a000000000000000000000000000000000000000000000000000000000815260040161193c90613ead565b60405180910390fd5b600073ffffffffffffffffffffffffffffffffffffffff168273ffffffffffffffffffffffffffffffffffffffff16036119b4576040517f08c379a00000000000000000000000000000000000000000000000000000000081526004016119ab90613f3f565b60405180910390fd5b6119c18383836001612486565b8273ffffffffffffffffffffffffffffffffffffffff166119e182610c46565b73ffffffffffffffffffffffffffffffffffffffff1614611a37576040517f08c379a0000000000000000000000000000000000000000000000000000000008152600401611a2e90613ead565b60405180910390fd5b6004600082815260200190815260200160002060006101000a81549073ffffffffffffffffffffffffffffffffffffffff02191690556001600360008573ffffffffffffffffffffffffffffffffffffffff1673ffffffffffffffffffffffffffffffffffffffff168152602001908152602001600020600082825403925050819055506001600360008473ffffffffffffffffffffffffffffffffffffffff1673ffffffffffffffffffffffffffffffffffffffff16815260200190815260200160002060008282540192505081905550816002600083815260200190815260200160002060006101000a81548173ffffffffffffffffffffffffffffffffffffffff021916908373ffffffffffffffffffffffffffffffffffffffff160217905550808273ffffffffffffffffffffffffffffffffffffffff168473ffffffffffffffffffffffffffffffffffffffff167fddf252ad1be2c89b69c2b068fc378daa952ba7f163c4a11628f55a4df523b3ef60405160405180910390a4611bc383838360016125ac565b505050565b60006002600083815260200190815260200160002060009054906101000a900473ffffffffffffffffffffffffffffffffffffffff169050919050565b8173ffffffffffffffffffffffffffffffffffffffff168373ffffffffffffffffffffffffffffffffffffffff1603611c73576040517f08c379a0000000000000000000000000000000000000000000000000000000008152600401611c6a90613fab565b60405180910390fd5b80600560008573ffffffffffffffffffffffffffffffffffffffff1673ffffffffffffffffffffffffffffffffffffffff16815260200190815260200160002060008473ffffffffffffffffffffffffffffffffffffffff1673ffffffffffffffffffffffffffffffffffffffff16815260200190815260200160002060006101000a81548160ff0219169083151502179055508173ffffffffffffffffffffffffffffffffffffffff168373ffffffffffffffffffffffffffffffffffffffff167f17307eab39ab6107e8899845ad3d59bd9653f200f220920489ca2b5937696c3183604051611d649190612bdb565b60405180910390a3505050565b611d7c8484846118cf565b611d88848484846125b2565b611dc7576040517f08c379a0000000000000000000000000000000000000000000000000000000008152600401611dbe9061403d565b60405180910390fd5b50505050565b606060405180602001604052806000815250905090565b6060611def8261172e565b6000611df9611dcd565b90506000815111611e195760405180602001604052806000815250611e44565b80611e238461200f565b604051602001611e349291906139fc565b6040516020818303038152906040525b915050919050565b600081600001549050919050565b60008060008084519050600092505b80821015612004576000858381518110611e8657611e8561405d565b5b602001015160f81c60f81b9050608060f81b817effffffffffffffffffffffffffffffffffffffffffffffffffffffffffffff19161015611ed557600183611ece91906140bb565b9250611ff0565b60e060f81b817effffffffffffffffffffffffffffffffffffffffffffffffffffffffffffff19161015611f1757600283611f1091906140bb565b9250611fef565b60f060f81b817effffffffffffffffffffffffffffffffffffffffffffffffffffffffffffff19161015611f5957600383611f5291906140bb565b9250611fee565b60f8801b817effffffffffffffffffffffffffffffffffffffffffffffffffffffffffffff19161015611f9a57600483611f9391906140bb565b9250611fed565b60fc60f81b817effffffffffffffffffffffffffffffffffffffffffffffffffffffffffffff19161015611fdc57600583611fd591906140bb565b9250611fec565b600683611fe991906140bb565b92505b5b5b5b5b508280611ffc906140ef565b935050611e69565b829350505050919050565b60606000600161201e84612739565b01905060008167ffffffffffffffff81111561203d5761203c612edd565b5b6040519080825280601f01601f19166020018201604052801561206f5781602001600182028036833780820191505090505b509050600082602001820190505b6001156120d2578080600190039150507f3031323334353637383961626364656600000000000000000000000000000000600a86061a8153600a85816120c6576120c5614137565b5b0494506000850361207d575b819350505050919050565b612179848484846040516024016120f79493929190614166565b6040516020818303038152906040527f8eafb02b000000000000000000000000000000000000000000000000000000007bffffffffffffffffffffffffffffffffffffffffffffffffffffffff19166020820180517bffffffffffffffffffffffffffffffffffffffffffffffffffffffff838183161783525050505061241c565b50505050565b606060008251036121a1576040518060200160405280600081525090506122dd565b600060405180606001604052806040815260200161462a60409139905060006003600285516121d091906140bb565b6121da91906141c0565b60046121e691906141f1565b67ffffffffffffffff8111156121ff576121fe612edd565b5b6040519080825280601f01601f1916602001820160405280156122315781602001600182028036833780820191505090505b509050600182016020820185865187015b8082101561229d576003820191508151603f8160121c168501518453600184019350603f81600c1c168501518453600184019350603f8160061c168501518453600184019350603f8116850151845360018401935050612242565b50506003865106600181146122b957600281146122cc576122d4565b603d6001830353603d60028303536122d4565b603d60018303535b50505080925050505b919050565b612378816040516024016122f69190612c86565b6040516020818303038152906040527f41304fac000000000000000000000000000000000000000000000000000000007bffffffffffffffffffffffffffffffffffffffffffffffffffffffff19166020820180517bffffffffffffffffffffffffffffffffffffffffffffffffffffffff838183161783525050505061241c565b50565b61239582826040518060200160405280600081525061288c565b5050565b6123a282612445565b6123e1576040517f08c379a00000000000000000000000000000000000000000000000000000000081526004016123d8906142a5565b60405180910390fd5b8060066000848152602001908152602001600020908161240191906142c5565b505050565b6001816000016000828254019250508190555050565b60008151905060006a636f6e736f6c652e6c6f679050602083016000808483855afa5050505050565b60008073ffffffffffffffffffffffffffffffffffffffff1661246783611bc8565b73ffffffffffffffffffffffffffffffffffffffff1614159050919050565b60018111156125a657600073ffffffffffffffffffffffffffffffffffffffff168473ffffffffffffffffffffffffffffffffffffffff161461251a5780600360008673ffffffffffffffffffffffffffffffffffffffff1673ffffffffffffffffffffffffffffffffffffffff16815260200190815260200160002060008282546125129190614397565b925050819055505b600073ffffffffffffffffffffffffffffffffffffffff168373ffffffffffffffffffffffffffffffffffffffff16146125a55780600360008573ffffffffffffffffffffffffffffffffffffffff1673ffffffffffffffffffffffffffffffffffffffff168152602001908152602001600020600082825461259d91906140bb565b925050819055505b5b50505050565b50505050565b60006125d38473ffffffffffffffffffffffffffffffffffffffff166128e7565b1561272c578373ffffffffffffffffffffffffffffffffffffffff1663150b7a026125fc611779565b8786866040518563ffffffff1660e01b815260040161261e9493929190614420565b6020604051808303816000875af192505050801561265a57506040513d601f19601f820116820180604052508101906126579190614481565b60015b6126dc573d806000811461268a576040519150601f19603f3d011682016040523d82523d6000602084013e61268f565b606091505b5060008151036126d4576040517f08c379a00000000000000000000000000000000000000000000000000000000081526004016126cb9061403d565b60405180910390fd5b805181602001fd5b63150b7a0260e01b7bffffffffffffffffffffffffffffffffffffffffffffffffffffffff1916817bffffffffffffffffffffffffffffffffffffffffffffffffffffffff191614915050612731565b600190505b949350505050565b600080600090507a184f03e93ff9f4daa797ed6e38ed64bf6a1f0100000000000000008310612797577a184f03e93ff9f4daa797ed6e38ed64bf6a1f010000000000000000838161278d5761278c614137565b5b0492506040810190505b6d04ee2d6d415b85acef810000000083106127d4576d04ee2d6d415b85acef810000000083816127ca576127c9614137565b5b0492506020810190505b662386f26fc10000831061280357662386f26fc1000083816127f9576127f8614137565b5b0492506010810190505b6305f5e100831061282c576305f5e100838161282257612821614137565b5b0492506008810190505b612710831061285157612710838161284757612846614137565b5b0492506004810190505b60648310612874576064838161286a57612869614137565b5b0492506002810190505b600a8310612883576001810190505b80915050919050565b612896838361290a565b6128a360008484846125b2565b6128e2576040517f08c379a00000000000000000000000000000000000000000000000000000000081526004016128d99061403d565b60405180910390fd5b505050565b6000808273ffffffffffffffffffffffffffffffffffffffff163b119050919050565b600073ffffffffffffffffffffffffffffffffffffffff168273ffffffffffffffffffffffffffffffffffffffff1603612979576040517f08c379a0000000000000000000000000000000000000000000000000000000008152600401612970906144fa565b60405180910390fd5b61298281612445565b156129c2576040517f08c379a00000000000000000000000000000000000000000000000000000000081526004016129b990614566565b60405180910390fd5b6129d0600083836001612486565b6129d981612445565b15612a19576040517f08c379a0000000000000000000000000000000000000000000000000000000008152600401612a1090614566565b60405180910390fd5b6001600360008473ffffffffffffffffffffffffffffffffffffffff1673ffffffffffffffffffffffffffffffffffffffff16815260200190815260200160002060008282540192505081905550816002600083815260200190815260200160002060006101000a81548173ffffffffffffffffffffffffffffffffffffffff021916908373ffffffffffffffffffffffffffffffffffffffff160217905550808273ffffffffffffffffffffffffffffffffffffffff16600073ffffffffffffffffffffffffffffffffffffffff167fddf252ad1be2c89b69c2b068fc378daa952ba7f163c4a11628f55a4df523b3ef60405160405180910390a4612b236000838360016125ac565b5050565b6000604051905090565b600080fd5b600080fd5b60007fffffffff0000000000000000000000000000000000000000000000000000000082169050919050565b612b7081612b3b565b8114612b7b57600080fd5b50565b600081359050612b8d81612b67565b92915050565b600060208284031215612ba957612ba8612b31565b5b6000612bb784828501612b7e565b91505092915050565b60008115159050919050565b612bd581612bc0565b82525050565b6000602082019050612bf06000830184612bcc565b92915050565b600081519050919050565b600082825260208201905092915050565b60005b83811015612c30578082015181840152602081019050612c15565b60008484015250505050565b6000601f19601f8301169050919050565b6000612c5882612bf6565b612c628185612c01565b9350612c72818560208601612c12565b612c7b81612c3c565b840191505092915050565b60006020820190508181036000830152612ca08184612c4d565b905092915050565b6000819050919050565b612cbb81612ca8565b8114612cc657600080fd5b50565b600081359050612cd881612cb2565b92915050565b600060208284031215612cf457612cf3612b31565b5b6000612d0284828501612cc9565b91505092915050565b600073ffffffffffffffffffffffffffffffffffffffff82169050919050565b6000612d3682612d0b565b9050919050565b612d4681612d2b565b82525050565b6000602082019050612d616000830184612d3d565b92915050565b612d7081612d2b565b8114612d7b57600080fd5b50565b600081359050612d8d81612d67565b92915050565b60008060408385031215612daa57612da9612b31565b5b6000612db885828601612d7e565b9250506020612dc985828601612cc9565b9150509250929050565b600080fd5b600080fd5b600080fd5b60008083601f840112612df857612df7612dd3565b5b8235905067ffffffffffffffff811115612e1557612e14612dd8565b5b602083019150836001820283011115612e3157612e30612ddd565b5b9250929050565b60008060208385031215612e4f57612e4e612b31565b5b600083013567ffffffffffffffff811115612e6d57612e6c612b36565b5b612e7985828601612de2565b92509250509250929050565b600080600060608486031215612e9e57612e9d612b31565b5b6000612eac86828701612d7e565b9350506020612ebd86828701612d7e565b9250506040612ece86828701612cc9565b9150509250925092565b600080fd5b7f4e487b7100000000000000000000000000000000000000000000000000000000600052604160045260246000fd5b612f1582612c3c565b810181811067ffffffffffffffff82111715612f3457612f33612edd565b5b80604052505050565b6000612f47612b27565b9050612f538282612f0c565b919050565b600067ffffffffffffffff821115612f7357612f72612edd565b5b612f7c82612c3c565b9050602081019050919050565b82818337600083830152505050565b6000612fab612fa684612f58565b612f3d565b905082815260208101848484011115612fc757612fc6612ed8565b5b612fd2848285612f89565b509392505050565b600082601f830112612fef57612fee612dd3565b5b8135612fff848260208601612f98565b91505092915050565b60006020828403121561301e5761301d612b31565b5b600082013567ffffffffffffffff81111561303c5761303b612b36565b5b61304884828501612fda565b91505092915050565b60006020828403121561306757613066612b31565b5b600061307584828501612d7e565b91505092915050565b61308781612ca8565b82525050565b60006020820190506130a2600083018461307e565b92915050565b60006130b382612d0b565b9050919050565b6130c3816130a8565b82525050565b60006020820190506130de60008301846130ba565b92915050565b6130ed81612bc0565b81146130f857600080fd5b50565b60008135905061310a816130e4565b92915050565b6000806040838503121561312757613126612b31565b5b600061313585828601612d7e565b9250506020613146858286016130fb565b9150509250929050565b600067ffffffffffffffff82111561316b5761316a612edd565b5b61317482612c3c565b9050602081019050919050565b600061319461318f84613150565b612f3d565b9050828152602081018484840111156131b0576131af612ed8565b5b6131bb848285612f89565b509392505050565b600082601f8301126131d8576131d7612dd3565b5b81356131e8848260208601613181565b91505092915050565b6000806000806080858703121561320b5761320a612b31565b5b600061321987828801612d7e565b945050602061322a87828801612d7e565b935050604061323b87828801612cc9565b925050606085013567ffffffffffffffff81111561325c5761325b612b36565b5b613268878288016131c3565b91505092959194509250565b6000806000806040858703121561328e5761328d612b31565b5b600085013567ffffffffffffffff8111156132ac576132ab612b36565b5b6132b887828801612de2565b9450945050602085013567ffffffffffffffff8111156132db576132da612b36565b5b6132e787828801612de2565b925092505092959194509250565b6000806040838503121561330c5761330b612b31565b5b600061331a85828601612d7e565b925050602061332b85828601612d7e565b9150509250929050565b7f4e487b7100000000000000000000000000000000000000000000000000000000600052602260045260246000fd5b6000600282049050600182168061337c57607f821691505b60208210810361338f5761338e613335565b5b50919050565b7f4552433732313a20617070726f76616c20746f2063757272656e74206f776e6560008201527f7200000000000000000000000000000000000000000000000000000000000000602082015250565b60006133f1602183612c01565b91506133fc82613395565b604082019050919050565b60006020820190508181036000830152613420816133e4565b9050919050565b7f4552433732313a20617070726f76652063616c6c6572206973206e6f7420746f60008201527f6b656e206f776e6572206f7220617070726f76656420666f7220616c6c000000602082015250565b6000613483603d83612c01565b915061348e82613427565b604082019050919050565b600060208201905081810360008301526134b281613476565b9050919050565b600081905092915050565b60006134d083856134b9565b93506134dd838584612f89565b82840190509392505050565b60006134f68284866134c4565b91508190509392505050565b7f4552433732313a2063616c6c6572206973206e6f7420746f6b656e206f776e6560008201527f72206f7220617070726f76656400000000000000000000000000000000000000602082015250565b600061355e602d83612c01565b915061356982613502565b604082019050919050565b6000602082019050818103600083015261358d81613551565b9050919050565b600081905092915050565b50565b60006135af600083613594565b91506135ba8261359f565b600082019050919050565b60006135d0826135a2565b9150819050919050565b7f4661696c656420746f207769746864726177204d617469630000000000000000600082015250565b6000613610601883612c01565b915061361b826135da565b602082019050919050565b6000602082019050818103600083015261363f81613603565b9050919050565b7f4552433732313a20696e76616c696420746f6b656e2049440000000000000000600082015250565b600061367c601883612c01565b915061368782613646565b602082019050919050565b600060208201905081810360008301526136ab8161366f565b9050919050565b7f4552433732313a2061646472657373207a65726f206973206e6f74206120766160008201527f6c6964206f776e65720000000000000000000000000000000000000000000000602082015250565b600061370e602983612c01565b9150613719826136b2565b604082019050919050565b6000602082019050818103600083015261373d81613701565b9050919050565b600082905092915050565b60008190508160005260206000209050919050565b60006020601f8301049050919050565b600082821b905092915050565b6000600883026137b17fffffffffffffffffffffffffffffffffffffffffffffffffffffffffffffffff82613774565b6137bb8683613774565b95508019841693508086168417925050509392505050565b6000819050919050565b60006137f86137f36137ee84612ca8565b6137d3565b612ca8565b9050919050565b6000819050919050565b613812836137dd565b61382661381e826137ff565b848454613781565b825550505050565b600090565b61383b61382e565b613846818484613809565b505050565b5b8181101561386a5761385f600082613833565b60018101905061384c565b5050565b601f8211156138af576138808161374f565b61388984613764565b81016020851015613898578190505b6138ac6138a485613764565b83018261384b565b50505b505050565b600082821c905092915050565b60006138d2600019846008026138b4565b1980831691505092915050565b60006138eb83836138c1565b9150826002028217905092915050565b6139058383613744565b67ffffffffffffffff81111561391e5761391d612edd565b5b6139288254613364565b61393382828561386e565b6000601f8311600181146139625760008415613950578287013590505b61395a85826138df565b8655506139c2565b601f1984166139708661374f565b60005b8281101561399857848901358255600182019150602085019450602081019050613973565b868310156139b557848901356139b1601f8916826138c1565b8355505b6001600288020188555050505b50505050505050565b60006139d682612bf6565b6139e081856134b9565b93506139f0818560208601612c12565b80840191505092915050565b6000613a0882856139cb565b9150613a1482846139cb565b91508190509392505050565b7f4e6f7420656e6f756768204d6174696320706169640000000000000000000000600082015250565b6000613a56601583612c01565b9150613a6182613a20565b602082019050919050565b60006020820190508181036000830152613a8581613a49565b9050919050565b7f2e00000000000000000000000000000000000000000000000000000000000000600082015250565b6000613ac26001836134b9565b9150613acd82613a8c565b600182019050919050565b60008154613ae581613364565b613aef81866134b9565b94506001821660008114613b0a5760018114613b1f57613b52565b60ff1983168652811515820286019350613b52565b613b288561374f565b60005b83811015613b4a57815481890152600182019150602081019050613b2b565b838801955050505b50505092915050565b6000613b688285876134c4565b9150613b7382613ab5565b9150613b7f8284613ad8565b9150819050949350505050565b6000613b988286613ad8565b9150613ba482856139cb565b9150613bb08284613ad8565b9150819050949350505050565b7f7b226e616d65223a202200000000000000000000000000000000000000000000600082015250565b6000613bf3600a836134b9565b9150613bfe82613bbd565b600a82019050919050565b7f222c20226465736372697074696f6e223a20224120646f6d61696e206f6e207460008201527f6865204e696e6a61206e616d652073657276696365222c2022696d616765223a60208201527f2022646174613a696d6167652f7376672b786d6c3b6261736536342c00000000604082015250565b6000613c8b605c836134b9565b9150613c9682613c09565b605c82019050919050565b7f222c226c656e677468223a220000000000000000000000000000000000000000600082015250565b6000613cd7600c836134b9565b9150613ce282613ca1565b600c82019050919050565b7f227d000000000000000000000000000000000000000000000000000000000000600082015250565b6000613d236002836134b9565b9150613d2e82613ced565b600282019050919050565b6000613d4482613be6565b9150613d5082866139cb565b9150613d5b82613c7e565b9150613d6782856139cb565b9150613d7282613cca565b9150613d7e82846139cb565b9150613d8982613d16565b9150819050949350505050565b7f646174613a6170706c69636174696f6e2f6a736f6e3b6261736536342c000000600082015250565b6000613dcc601d836134b9565b9150613dd782613d96565b601d82019050919050565b6000613ded82613dbf565b9150613df982846139cb565b915081905092915050565b60006040820190508181036000830152613e1e8185612c4d565b90508181036020830152613e328184612c4d565b90509392505050565b7f4552433732313a207472616e736665722066726f6d20696e636f72726563742060008201527f6f776e6572000000000000000000000000000000000000000000000000000000602082015250565b6000613e97602583612c01565b9150613ea282613e3b565b604082019050919050565b60006020820190508181036000830152613ec681613e8a565b9050919050565b7f4552433732313a207472616e7366657220746f20746865207a65726f2061646460008201527f7265737300000000000000000000000000000000000000000000000000000000602082015250565b6000613f29602483612c01565b9150613f3482613ecd565b604082019050919050565b60006020820190508181036000830152613f5881613f1c565b9050919050565b7f4552433732313a20617070726f766520746f2063616c6c657200000000000000600082015250565b6000613f95601983612c01565b9150613fa082613f5f565b602082019050919050565b60006020820190508181036000830152613fc481613f88565b9050919050565b7f4552433732313a207472616e7366657220746f206e6f6e20455243373231526560008201527f63656976657220696d706c656d656e7465720000000000000000000000000000602082015250565b6000614027603283612c01565b915061403282613fcb565b604082019050919050565b600060208201905081810360008301526140568161401a565b9050919050565b7f4e487b7100000000000000000000000000000000000000000000000000000000600052603260045260246000fd5b7f4e487b7100000000000000000000000000000000000000000000000000000000600052601160045260246000fd5b60006140c682612ca8565b91506140d183612ca8565b92508282019050808211156140e9576140e861408c565b5b92915050565b60006140fa82612ca8565b91507fffffffffffffffffffffffffffffffffffffffffffffffffffffffffffffffff820361412c5761412b61408c565b5b600182019050919050565b7f4e487b7100000000000000000000000000000000000000000000000000000000600052601260045260246000fd5b600060808201905081810360008301526141808187612c4d565b905081810360208301526141948186612c4d565b905081810360408301526141a88185612c4d565b90506141b7606083018461307e565b95945050505050565b60006141cb82612ca8565b91506141d683612ca8565b9250826141e6576141e5614137565b5b828204905092915050565b60006141fc82612ca8565b915061420783612ca8565b925082820261421581612ca8565b9150828204841483151761422c5761422b61408c565b5b5092915050565b7f45524337323155524953746f726167653a2055524920736574206f66206e6f6e60008201527f6578697374656e7420746f6b656e000000000000000000000000000000000000602082015250565b600061428f602e83612c01565b915061429a82614233565b604082019050919050565b600060208201905081810360008301526142be81614282565b9050919050565b6142ce82612bf6565b67ffffffffffffffff8111156142e7576142e6612edd565b5b6142f18254613364565b6142fc82828561386e565b600060209050601f83116001811461432f576000841561431d578287015190505b61432785826138df565b86555061438f565b601f19841661433d8661374f565b60005b8281101561436557848901518255600182019150602085019450602081019050614340565b86831015614382578489015161437e601f8916826138c1565b8355505b6001600288020188555050505b505050505050565b60006143a282612ca8565b91506143ad83612ca8565b92508282039050818111156143c5576143c461408c565b5b92915050565b600081519050919050565b600082825260208201905092915050565b60006143f2826143cb565b6143fc81856143d6565b935061440c818560208601612c12565b61441581612c3c565b840191505092915050565b60006080820190506144356000830187612d3d565b6144426020830186612d3d565b61444f604083018561307e565b818103606083015261446181846143e7565b905095945050505050565b60008151905061447b81612b67565b92915050565b60006020828403121561449757614496612b31565b5b60006144a58482850161446c565b91505092915050565b7f4552433732313a206d696e7420746f20746865207a65726f2061646472657373600082015250565b60006144e4602083612c01565b91506144ef826144ae565b602082019050919050565b60006020820190508181036000830152614513816144d7565b9050919050565b7f4552433732313a20746f6b656e20616c7265616479206d696e74656400000000600082015250565b6000614550601c83612c01565b915061455b8261451a565b602082019050919050565b6000602082019050818103600083015261457f81614543565b905091905056fe0a2d2d2d2d2d2d2d2d2d2d2d2d2d2d2d2d2d2d2d2d2d2d2d2d2d2d2d2d2d2d2d2d2d2d2d2d2d2d2d2d2d2d2d2d2d2d2d2d2d2d2d2d2d2d2d2d5265676973746572696e672025732e2573206f6e2074686520636f6e7472616374207769746820746f6b656e49442025642d2d2d2d2d2d2d2d2d2d2d2d2d2d2d2d2d2d2d2d2d2d2d2d2d2d2d2d2d2d2d2d2d2d2d2d2d2d2d2d2d2d2d2d2d2d2d2d2d2d2d2d2d2d2d2d0a4142434445464748494a4b4c4d4e4f505152535455565758595a6162636465666768696a6b6c6d6e6f707172737475767778797a303132333435363738392b2fa2646970667358221220f11509523454663a6a8d8405c47ae4731066a217ca9bea3964497949bc959e4b64736f6c634300081100333c73766720786d6c6e733d22687474703a2f2f7777772e77332e6f72672f323030302f737667222077696474683d2232373022206865696768743d22323730222066696c6c3d226e6f6e65223e3c706174682066696c6c3d2275726c282342292220643d224d302030683237307632373048307a222f3e3c646566733e3c66696c7465722069643d22412220636f6c6f722d696e746572706f6c6174696f6e2d66696c746572733d2273524742222066696c746572556e6974733d227573657253706163654f6e55736522206865696768743d22323730222077696474683d22323730223e3c666544726f70536861646f772064783d2230222064793d22312220737464446576696174696f6e3d22322220666c6f6f642d6f7061636974793d222e323235222077696474683d223230302522206865696768743d2232303025222f3e3c2f66696c7465723e3c2f646566733e3c7061746820643d224d37322e3836332034322e393439632d2e3636382d2e3338372d312e3432362d2e35392d322e3139372d2e3539732d312e3532392e3230342d322e3139372e35396c2d31302e30383120362e3033322d362e383520332e3933342d31302e30383120362e303332632d2e3636382e3338372d312e3432362e35392d322e3139372e3539732d312e3532392d2e3230342d322e3139372d2e35396c2d382e3031332d342e37323161342e353220342e35322030203020312d312e3538392d312e363136632d2e3338342d2e3636352d2e3539342d312e3431382d2e3630382d322e313837762d392e3331632d2e3031332d2e3737352e3138352d312e3533382e3537322d322e32303861342e323520342e323520302030203120312e3632352d312e3539356c372e3838342d342e3539632e3636382d2e33383720312e3432362d2e353920322e3139372d2e353973312e3532392e32303420322e3139372e35396c372e38383420342e353961342e353220342e353220302030203120312e35383920312e363136632e3338342e3636352e35393420312e3431382e36303820322e31383776362e3033326c362e38352d342e303635762d362e303332632e3031332d2e3737352d2e3138352d312e3533382d2e3537322d322e32303861342e323520342e32352030203020302d312e3632352d312e3539354c34312e3435362032342e3539632d2e3636382d2e3338372d312e3432362d2e35392d322e3139372d2e3539732d312e3532392e3230342d322e3139372e35396c2d31342e38363420382e36353561342e323520342e32352030203020302d312e36323520312e353935632d2e3338372e36372d2e35383520312e3433342d2e35373220322e3230387631372e343431632d2e3031332e3737352e31383520312e3533382e35373220322e32303861342e323520342e323520302030203020312e36323520312e3539356c31342e38363420382e363535632e3636382e33383720312e3432362e353920322e3139372e353973312e3532392d2e32303420322e3139372d2e35396c31302e3038312d352e39303120362e38352d342e3036352031302e3038312d352e393031632e3636382d2e33383720312e3432362d2e353920322e3139372d2e353973312e3532392e32303420322e3139372e35396c372e38383420342e353961342e353220342e353220302030203120312e35383920312e363136632e3338342e3636352e35393420312e3431382e36303820322e31383776392e333131632e3031332e3737352d2e31383520312e3533382d2e35373220322e32303861342e323520342e32352030203020312d312e36323520312e3539356c2d372e38383420342e373231632d2e3636382e3338372d312e3432362e35392d322e3139372e3539732d312e3532392d2e3230342d322e3139372d2e35396c2d372e3838342d342e353961342e353220342e35322030203020312d312e3538392d312e363136632d2e3338352d2e3636352d2e3539342d312e3431382d2e3630382d322e313837762d362e3033326c2d362e383520342e30363576362e303332632d2e3031332e3737352e31383520312e3533382e35373220322e32303861342e323520342e323520302030203020312e36323520312e3539356c31342e38363420382e363535632e3636382e33383720312e3432362e353920322e3139372e353973312e3532392d2e32303420322e3139372d2e35396c31342e3836342d382e363535632e3635372d2e33393420312e3230342d2e393520312e3538392d312e363136732e3539342d312e3431382e3630392d322e3138375635352e353338632e3031332d2e3737352d2e3138352d312e3533382d2e3537322d322e32303861342e323520342e32352030203020302d312e3632352d312e3539356c2d31342e3939332d382e3738367a222066696c6c3d2223666666222f3e3c646566733e3c6c696e6561724772616469656e742069643d2242222078313d2230222079313d2230222078323d22323730222079323d2232373022206772616469656e74556e6974733d227573657253706163654f6e557365223e3c73746f702073746f702d636f6c6f723d2223636235656565222f3e3c73746f70206f66667365743d2231222073746f702d636f6c6f723d2223306364376534222073746f702d6f7061636974793d222e3939222f3e3c2f6c696e6561724772616469656e743e3c2f646566733e3c7465787420783d2233322e352220793d223233312220666f6e742d73697a653d223237222066696c6c3d2223666666222066696c7465723d2275726c282341292220666f6e742d66616d696c793d22506c7573204a616b617274612053616e732c44656a6156752053616e732c4e6f746f20436f6c6f7220456d6f6a692c4170706c6520436f6c6f7220456d6f6a692c73616e732d73657269662220666f6e742d7765696768743d22626f6c64223e","opcodes":"PUSH1 0x80 PUSH1 0x40 MSTORE PUSH1 0x40 MLOAD DUP1 PUSH2 0x8A0 ADD PUSH1 0x40 MSTORE DUP1 PUSH2 0x86B DUP2 MSTORE PUSH1 0x20 ADD PUSH3 0x4EF7 PUSH2 0x86B SWAP2 CODECOPY PUSH1 0x9 SWAP1 DUP2 PUSH3 0x31 SWAP2 SWAP1 PUSH3 0x51F JUMP JUMPDEST POP PUSH1 0x40 MLOAD DUP1 PUSH1 0x40 ADD PUSH1 0x40 MSTORE DUP1 PUSH1 0xD DUP2 MSTORE PUSH1 0x20 ADD PUSH32 0x3C2F746578743E3C2F7376673E00000000000000000000000000000000000000 DUP2 MSTORE POP PUSH1 0xA SWAP1 DUP2 PUSH3 0x78 SWAP2 SWAP1 PUSH3 0x51F JUMP JUMPDEST POP PUSH1 0x40 MLOAD PUSH3 0x5762 CODESIZE SUB DUP1 PUSH3 0x5762 DUP4 CODECOPY DUP2 DUP2 ADD PUSH1 0x40 MSTORE DUP2 ADD SWAP1 PUSH3 0x9E SWAP2 SWAP1 PUSH3 0x76A JUMP JUMPDEST PUSH1 0x40 MLOAD DUP1 PUSH1 0x40 ADD PUSH1 0x40 MSTORE DUP1 PUSH1 0x12 DUP2 MSTORE PUSH1 0x20 ADD PUSH32 0x4E696E6A61204E616D6520536572766963650000000000000000000000000000 DUP2 MSTORE POP PUSH1 0x40 MLOAD DUP1 PUSH1 0x40 ADD PUSH1 0x40 MSTORE DUP1 PUSH1 0x3 DUP2 MSTORE PUSH1 0x20 ADD PUSH32 0x4E4E530000000000000000000000000000000000000000000000000000000000 DUP2 MSTORE POP DUP2 PUSH1 0x0 SWAP1 DUP2 PUSH3 0x11B SWAP2 SWAP1 PUSH3 0x51F JUMP JUMPDEST POP DUP1 PUSH1 0x1 SWAP1 DUP2 PUSH3 0x12D SWAP2 SWAP1 PUSH3 0x51F JUMP JUMPDEST POP POP POP CALLER PUSH1 0xD PUSH1 0x0 PUSH2 0x100 EXP DUP2 SLOAD DUP2 PUSH20 0xFFFFFFFFFFFFFFFFFFFFFFFFFFFFFFFFFFFFFFFF MUL NOT AND SWAP1 DUP4 PUSH20 0xFFFFFFFFFFFFFFFFFFFFFFFFFFFFFFFFFFFFFFFF AND MUL OR SWAP1 SSTORE POP DUP1 PUSH1 0x8 SWAP1 DUP2 PUSH3 0x182 SWAP2 SWAP1 PUSH3 0x51F JUMP JUMPDEST POP PUSH3 0x1CF PUSH1 0x40 MLOAD DUP1 PUSH1 0x40 ADD PUSH1 0x40 MSTORE DUP1 PUSH1 0x18 DUP2 MSTORE PUSH1 0x20 ADD PUSH32 0x2573206E616D652073657276696365206465706C6F7965640000000000000000 DUP2 MSTORE POP DUP3 PUSH3 0x1D6 PUSH1 0x20 SHL PUSH3 0x1628 OR PUSH1 0x20 SHR JUMP JUMPDEST POP PUSH3 0x848 JUMP JUMPDEST PUSH3 0x278 DUP3 DUP3 PUSH1 0x40 MLOAD PUSH1 0x24 ADD PUSH3 0x1EF SWAP3 SWAP2 SWAP1 PUSH3 0x80D JUMP JUMPDEST PUSH1 0x40 MLOAD PUSH1 0x20 DUP2 DUP4 SUB SUB DUP2 MSTORE SWAP1 PUSH1 0x40 MSTORE PUSH32 0x4B5C427700000000000000000000000000000000000000000000000000000000 PUSH28 0xFFFFFFFFFFFFFFFFFFFFFFFFFFFFFFFFFFFFFFFFFFFFFFFFFFFFFFFF NOT AND PUSH1 0x20 DUP3 ADD DUP1 MLOAD PUSH28 0xFFFFFFFFFFFFFFFFFFFFFFFFFFFFFFFFFFFFFFFFFFFFFFFFFFFFFFFF DUP4 DUP2 DUP4 AND OR DUP4 MSTORE POP POP POP POP PUSH3 0x27C PUSH1 0x20 SHL PUSH1 0x20 SHR JUMP JUMPDEST POP POP JUMP JUMPDEST PUSH1 0x0 DUP2 MLOAD SWAP1 POP PUSH1 0x0 PUSH11 0x636F6E736F6C652E6C6F67 SWAP1 POP PUSH1 0x20 DUP4 ADD PUSH1 0x0 DUP1 DUP5 DUP4 DUP6 GAS STATICCALL POP POP POP POP POP JUMP JUMPDEST PUSH1 0x0 DUP2 MLOAD SWAP1 POP SWAP2 SWAP1 POP JUMP JUMPDEST PUSH32 0x4E487B7100000000000000000000000000000000000000000000000000000000 PUSH1 0x0 MSTORE PUSH1 0x41 PUSH1 0x4 MSTORE PUSH1 0x24 PUSH1 0x0 REVERT JUMPDEST PUSH32 0x4E487B7100000000000000000000000000000000000000000000000000000000 PUSH1 0x0 MSTORE PUSH1 0x22 PUSH1 0x4 MSTORE PUSH1 0x24 PUSH1 0x0 REVERT JUMPDEST PUSH1 0x0 PUSH1 0x2 DUP3 DIV SWAP1 POP PUSH1 0x1 DUP3 AND DUP1 PUSH3 0x327 JUMPI PUSH1 0x7F DUP3 AND SWAP2 POP JUMPDEST PUSH1 0x20 DUP3 LT DUP2 SUB PUSH3 0x33D JUMPI PUSH3 0x33C PUSH3 0x2DF JUMP JUMPDEST JUMPDEST POP SWAP2 SWAP1 POP JUMP JUMPDEST PUSH1 0x0 DUP2 SWAP1 POP DUP2 PUSH1 0x0 MSTORE PUSH1 0x20 PUSH1 0x0 KECCAK256 SWAP1 POP SWAP2 SWAP1 POP JUMP JUMPDEST PUSH1 0x0 PUSH1 0x20 PUSH1 0x1F DUP4 ADD DIV SWAP1 POP SWAP2 SWAP1 POP JUMP JUMPDEST PUSH1 0x0 DUP3 DUP3 SHL SWAP1 POP SWAP3 SWAP2 POP POP JUMP JUMPDEST PUSH1 0x0 PUSH1 0x8 DUP4 MUL PUSH3 0x3A7 PUSH32 0xFFFFFFFFFFFFFFFFFFFFFFFFFFFFFFFFFFFFFFFFFFFFFFFFFFFFFFFFFFFFFFFF DUP3 PUSH3 0x368 JUMP JUMPDEST PUSH3 0x3B3 DUP7 DUP4 PUSH3 0x368 JUMP JUMPDEST SWAP6 POP DUP1 NOT DUP5 AND SWAP4 POP DUP1 DUP7 AND DUP5 OR SWAP3 POP POP POP SWAP4 SWAP3 POP POP POP JUMP JUMPDEST PUSH1 0x0 DUP2 SWAP1 POP SWAP2 SWAP1 POP JUMP JUMPDEST PUSH1 0x0 DUP2 SWAP1 POP SWAP2 SWAP1 POP JUMP JUMPDEST PUSH1 0x0 PUSH3 0x400 PUSH3 0x3FA PUSH3 0x3F4 DUP5 PUSH3 0x3CB JUMP JUMPDEST PUSH3 0x3D5 JUMP JUMPDEST PUSH3 0x3CB JUMP JUMPDEST SWAP1 POP SWAP2 SWAP1 POP JUMP JUMPDEST PUSH1 0x0 DUP2 SWAP1 POP SWAP2 SWAP1 POP JUMP JUMPDEST PUSH3 0x41C DUP4 PUSH3 0x3DF JUMP JUMPDEST PUSH3 0x434 PUSH3 0x42B DUP3 PUSH3 0x407 JUMP JUMPDEST DUP5 DUP5 SLOAD PUSH3 0x375 JUMP JUMPDEST DUP3 SSTORE POP POP POP POP JUMP JUMPDEST PUSH1 0x0 SWAP1 JUMP JUMPDEST PUSH3 0x44B PUSH3 0x43C JUMP JUMPDEST PUSH3 0x458 DUP2 DUP5 DUP5 PUSH3 0x411 JUMP JUMPDEST POP POP POP JUMP JUMPDEST JUMPDEST DUP2 DUP2 LT ISZERO PUSH3 0x480 JUMPI PUSH3 0x474 PUSH1 0x0 DUP3 PUSH3 0x441 JUMP JUMPDEST PUSH1 0x1 DUP2 ADD SWAP1 POP PUSH3 0x45E JUMP JUMPDEST POP POP JUMP JUMPDEST PUSH1 0x1F DUP3 GT ISZERO PUSH3 0x4CF JUMPI PUSH3 0x499 DUP2 PUSH3 0x343 JUMP JUMPDEST PUSH3 0x4A4 DUP5 PUSH3 0x358 JUMP JUMPDEST DUP2 ADD PUSH1 0x20 DUP6 LT ISZERO PUSH3 0x4B4 JUMPI DUP2 SWAP1 POP JUMPDEST PUSH3 0x4CC PUSH3 0x4C3 DUP6 PUSH3 0x358 JUMP JUMPDEST DUP4 ADD DUP3 PUSH3 0x45D JUMP JUMPDEST POP POP JUMPDEST POP POP POP JUMP JUMPDEST PUSH1 0x0 DUP3 DUP3 SHR SWAP1 POP SWAP3 SWAP2 POP POP JUMP JUMPDEST PUSH1 0x0 PUSH3 0x4F4 PUSH1 0x0 NOT DUP5 PUSH1 0x8 MUL PUSH3 0x4D4 JUMP JUMPDEST NOT DUP1 DUP4 AND SWAP2 POP POP SWAP3 SWAP2 POP POP JUMP JUMPDEST PUSH1 0x0 PUSH3 0x50F DUP4 DUP4 PUSH3 0x4E1 JUMP JUMPDEST SWAP2 POP DUP3 PUSH1 0x2 MUL DUP3 OR SWAP1 POP SWAP3 SWAP2 POP POP JUMP JUMPDEST PUSH3 0x52A DUP3 PUSH3 0x2A5 JUMP JUMPDEST PUSH8 0xFFFFFFFFFFFFFFFF DUP2 GT ISZERO PUSH3 0x546 JUMPI PUSH3 0x545 PUSH3 0x2B0 JUMP JUMPDEST JUMPDEST PUSH3 0x552 DUP3 SLOAD PUSH3 0x30E JUMP JUMPDEST PUSH3 0x55F DUP3 DUP3 DUP6 PUSH3 0x484 JUMP JUMPDEST PUSH1 0x0 PUSH1 0x20 SWAP1 POP PUSH1 0x1F DUP4 GT PUSH1 0x1 DUP2 EQ PUSH3 0x597 JUMPI PUSH1 0x0 DUP5 ISZERO PUSH3 0x582 JUMPI DUP3 DUP8 ADD MLOAD SWAP1 POP JUMPDEST PUSH3 0x58E DUP6 DUP3 PUSH3 0x501 JUMP JUMPDEST DUP7 SSTORE POP PUSH3 0x5FE JUMP JUMPDEST PUSH1 0x1F NOT DUP5 AND PUSH3 0x5A7 DUP7 PUSH3 0x343 JUMP JUMPDEST PUSH1 0x0 JUMPDEST DUP3 DUP2 LT ISZERO PUSH3 0x5D1 JUMPI DUP5 DUP10 ADD MLOAD DUP3 SSTORE PUSH1 0x1 DUP3 ADD SWAP2 POP PUSH1 0x20 DUP6 ADD SWAP5 POP PUSH1 0x20 DUP2 ADD SWAP1 POP PUSH3 0x5AA JUMP JUMPDEST DUP7 DUP4 LT ISZERO PUSH3 0x5F1 JUMPI DUP5 DUP10 ADD MLOAD PUSH3 0x5ED PUSH1 0x1F DUP10 AND DUP3 PUSH3 0x4E1 JUMP JUMPDEST DUP4 SSTORE POP JUMPDEST PUSH1 0x1 PUSH1 0x2 DUP9 MUL ADD DUP9 SSTORE POP POP POP JUMPDEST POP POP POP POP POP POP JUMP JUMPDEST PUSH1 0x0 PUSH1 0x40 MLOAD SWAP1 POP SWAP1 JUMP JUMPDEST PUSH1 0x0 DUP1 REVERT JUMPDEST PUSH1 0x0 DUP1 REVERT JUMPDEST PUSH1 0x0 DUP1 REVERT JUMPDEST PUSH1 0x0 DUP1 REVERT JUMPDEST PUSH1 0x0 PUSH1 0x1F NOT PUSH1 0x1F DUP4 ADD AND SWAP1 POP SWAP2 SWAP1 POP JUMP JUMPDEST PUSH3 0x640 DUP3 PUSH3 0x624 JUMP JUMPDEST DUP2 ADD DUP2 DUP2 LT PUSH8 0xFFFFFFFFFFFFFFFF DUP3 GT OR ISZERO PUSH3 0x662 JUMPI PUSH3 0x661 PUSH3 0x2B0 JUMP JUMPDEST JUMPDEST DUP1 PUSH1 0x40 MSTORE POP POP POP JUMP JUMPDEST PUSH1 0x0 PUSH3 0x677 PUSH3 0x606 JUMP JUMPDEST SWAP1 POP PUSH3 0x685 DUP3 DUP3 PUSH3 0x635 JUMP JUMPDEST SWAP2 SWAP1 POP JUMP JUMPDEST PUSH1 0x0 PUSH8 0xFFFFFFFFFFFFFFFF DUP3 GT ISZERO PUSH3 0x6A8 JUMPI PUSH3 0x6A7 PUSH3 0x2B0 JUMP JUMPDEST JUMPDEST PUSH3 0x6B3 DUP3 PUSH3 0x624 JUMP JUMPDEST SWAP1 POP PUSH1 0x20 DUP2 ADD SWAP1 POP SWAP2 SWAP1 POP JUMP JUMPDEST PUSH1 0x0 JUMPDEST DUP4 DUP2 LT ISZERO PUSH3 0x6E0 JUMPI DUP1 DUP3 ADD MLOAD DUP2 DUP5 ADD MSTORE PUSH1 0x20 DUP2 ADD SWAP1 POP PUSH3 0x6C3 JUMP JUMPDEST PUSH1 0x0 DUP5 DUP5 ADD MSTORE POP POP POP POP JUMP JUMPDEST PUSH1 0x0 PUSH3 0x703 PUSH3 0x6FD DUP5 PUSH3 0x68A JUMP JUMPDEST PUSH3 0x66B JUMP JUMPDEST SWAP1 POP DUP3 DUP2 MSTORE PUSH1 0x20 DUP2 ADD DUP5 DUP5 DUP5 ADD GT ISZERO PUSH3 0x722 JUMPI PUSH3 0x721 PUSH3 0x61F JUMP JUMPDEST JUMPDEST PUSH3 0x72F DUP5 DUP3 DUP6 PUSH3 0x6C0 JUMP JUMPDEST POP SWAP4 SWAP3 POP POP POP JUMP JUMPDEST PUSH1 0x0 DUP3 PUSH1 0x1F DUP4 ADD SLT PUSH3 0x74F JUMPI PUSH3 0x74E PUSH3 0x61A JUMP JUMPDEST JUMPDEST DUP2 MLOAD PUSH3 0x761 DUP5 DUP3 PUSH1 0x20 DUP7 ADD PUSH3 0x6EC JUMP JUMPDEST SWAP2 POP POP SWAP3 SWAP2 POP POP JUMP JUMPDEST PUSH1 0x0 PUSH1 0x20 DUP3 DUP5 SUB SLT ISZERO PUSH3 0x783 JUMPI PUSH3 0x782 PUSH3 0x610 JUMP JUMPDEST JUMPDEST PUSH1 0x0 DUP3 ADD MLOAD PUSH8 0xFFFFFFFFFFFFFFFF DUP2 GT ISZERO PUSH3 0x7A4 JUMPI PUSH3 0x7A3 PUSH3 0x615 JUMP JUMPDEST JUMPDEST PUSH3 0x7B2 DUP5 DUP3 DUP6 ADD PUSH3 0x737 JUMP JUMPDEST SWAP2 POP POP SWAP3 SWAP2 POP POP JUMP JUMPDEST PUSH1 0x0 DUP3 DUP3 MSTORE PUSH1 0x20 DUP3 ADD SWAP1 POP SWAP3 SWAP2 POP POP JUMP JUMPDEST PUSH1 0x0 PUSH3 0x7D9 DUP3 PUSH3 0x2A5 JUMP JUMPDEST PUSH3 0x7E5 DUP2 DUP6 PUSH3 0x7BB JUMP JUMPDEST SWAP4 POP PUSH3 0x7F7 DUP2 DUP6 PUSH1 0x20 DUP7 ADD PUSH3 0x6C0 JUMP JUMPDEST PUSH3 0x802 DUP2 PUSH3 0x624 JUMP JUMPDEST DUP5 ADD SWAP2 POP POP SWAP3 SWAP2 POP POP JUMP JUMPDEST PUSH1 0x0 PUSH1 0x40 DUP3 ADD SWAP1 POP DUP2 DUP2 SUB PUSH1 0x0 DUP4 ADD MSTORE PUSH3 0x829 DUP2 DUP6 PUSH3 0x7CC JUMP JUMPDEST SWAP1 POP DUP2 DUP2 SUB PUSH1 0x20 DUP4 ADD MSTORE PUSH3 0x83F DUP2 DUP5 PUSH3 0x7CC JUMP JUMPDEST SWAP1 POP SWAP4 SWAP3 POP POP POP JUMP JUMPDEST PUSH2 0x469F DUP1 PUSH3 0x858 PUSH1 0x0 CODECOPY PUSH1 0x0 RETURN INVALID PUSH1 0x80 PUSH1 0x40 MSTORE PUSH1 0x4 CALLDATASIZE LT PUSH2 0x14B JUMPI PUSH1 0x0 CALLDATALOAD PUSH1 0xE0 SHR DUP1 PUSH4 0x70A08231 GT PUSH2 0xB6 JUMPI DUP1 PUSH4 0xBF40FAC1 GT PUSH2 0x6F JUMPI DUP1 PUSH4 0xBF40FAC1 EQ PUSH2 0x4B6 JUMPI DUP1 PUSH4 0xC1880A98 EQ PUSH2 0x4F3 JUMPI DUP1 PUSH4 0xC87B56DD EQ PUSH2 0x51C JUMPI DUP1 PUSH4 0xE985E9C5 EQ PUSH2 0x559 JUMPI DUP1 PUSH4 0xF2C298BE EQ PUSH2 0x596 JUMPI DUP1 PUSH4 0xFE2C6198 EQ PUSH2 0x5B2 JUMPI PUSH2 0x14B JUMP JUMPDEST DUP1 PUSH4 0x70A08231 EQ PUSH2 0x3A6 JUMPI DUP1 PUSH4 0x8DA5CB5B EQ PUSH2 0x3E3 JUMPI DUP1 PUSH4 0x8F32D59B EQ PUSH2 0x40E JUMPI DUP1 PUSH4 0x95D89B41 EQ PUSH2 0x439 JUMPI DUP1 PUSH4 0xA22CB465 EQ PUSH2 0x464 JUMPI DUP1 PUSH4 0xB88D4FDE EQ PUSH2 0x48D JUMPI PUSH2 0x14B JUMP JUMPDEST DUP1 PUSH4 0x26449235 GT PUSH2 0x108 JUMPI DUP1 PUSH4 0x26449235 EQ PUSH2 0x284 JUMPI DUP1 PUSH4 0x2D551432 EQ PUSH2 0x2C1 JUMPI DUP1 PUSH4 0x3CCFD60B EQ PUSH2 0x2EC JUMPI DUP1 PUSH4 0x42842E0E EQ PUSH2 0x303 JUMPI DUP1 PUSH4 0x541E771D EQ PUSH2 0x32C JUMPI DUP1 PUSH4 0x6352211E EQ PUSH2 0x369 JUMPI PUSH2 0x14B JUMP JUMPDEST DUP1 PUSH4 0x1FFC9A7 EQ PUSH2 0x150 JUMPI DUP1 PUSH4 0x6FDDE03 EQ PUSH2 0x18D JUMPI DUP1 PUSH4 0x81812FC EQ PUSH2 0x1B8 JUMPI DUP1 PUSH4 0x95EA7B3 EQ PUSH2 0x1F5 JUMPI DUP1 PUSH4 0x11DD8845 EQ PUSH2 0x21E JUMPI DUP1 PUSH4 0x23B872DD EQ PUSH2 0x25B JUMPI JUMPDEST PUSH1 0x0 DUP1 REVERT JUMPDEST CALLVALUE DUP1 ISZERO PUSH2 0x15C JUMPI PUSH1 0x0 DUP1 REVERT JUMPDEST POP PUSH2 0x177 PUSH1 0x4 DUP1 CALLDATASIZE SUB DUP2 ADD SWAP1 PUSH2 0x172 SWAP2 SWAP1 PUSH2 0x2B93 JUMP JUMPDEST PUSH2 0x5EF JUMP JUMPDEST PUSH1 0x40 MLOAD PUSH2 0x184 SWAP2 SWAP1 PUSH2 0x2BDB JUMP JUMPDEST PUSH1 0x40 MLOAD DUP1 SWAP2 SUB SWAP1 RETURN JUMPDEST CALLVALUE DUP1 ISZERO PUSH2 0x199 JUMPI PUSH1 0x0 DUP1 REVERT JUMPDEST POP PUSH2 0x1A2 PUSH2 0x6D1 JUMP JUMPDEST PUSH1 0x40 MLOAD PUSH2 0x1AF SWAP2 SWAP1 PUSH2 0x2C86 JUMP JUMPDEST PUSH1 0x40 MLOAD DUP1 SWAP2 SUB SWAP1 RETURN JUMPDEST CALLVALUE DUP1 ISZERO PUSH2 0x1C4 JUMPI PUSH1 0x0 DUP1 REVERT JUMPDEST POP PUSH2 0x1DF PUSH1 0x4 DUP1 CALLDATASIZE SUB DUP2 ADD SWAP1 PUSH2 0x1DA SWAP2 SWAP1 PUSH2 0x2CDE JUMP JUMPDEST PUSH2 0x763 JUMP JUMPDEST PUSH1 0x40 MLOAD PUSH2 0x1EC SWAP2 SWAP1 PUSH2 0x2D4C JUMP JUMPDEST PUSH1 0x40 MLOAD DUP1 SWAP2 SUB SWAP1 RETURN JUMPDEST CALLVALUE DUP1 ISZERO PUSH2 0x201 JUMPI PUSH1 0x0 DUP1 REVERT JUMPDEST POP PUSH2 0x21C PUSH1 0x4 DUP1 CALLDATASIZE SUB DUP2 ADD SWAP1 PUSH2 0x217 SWAP2 SWAP1 PUSH2 0x2D93 JUMP JUMPDEST PUSH2 0x7A9 JUMP JUMPDEST STOP JUMPDEST CALLVALUE DUP1 ISZERO PUSH2 0x22A JUMPI PUSH1 0x0 DUP1 REVERT JUMPDEST POP PUSH2 0x245 PUSH1 0x4 DUP1 CALLDATASIZE SUB DUP2 ADD SWAP1 PUSH2 0x240 SWAP2 SWAP1 PUSH2 0x2E38 JUMP JUMPDEST PUSH2 0x8C0 JUMP JUMPDEST PUSH1 0x40 MLOAD PUSH2 0x252 SWAP2 SWAP1 PUSH2 0x2C86 JUMP JUMPDEST PUSH1 0x40 MLOAD DUP1 SWAP2 SUB SWAP1 RETURN JUMPDEST CALLVALUE DUP1 ISZERO PUSH2 0x267 JUMPI PUSH1 0x0 DUP1 REVERT JUMPDEST POP PUSH2 0x282 PUSH1 0x4 DUP1 CALLDATASIZE SUB DUP2 ADD SWAP1 PUSH2 0x27D SWAP2 SWAP1 PUSH2 0x2E85 JUMP JUMPDEST PUSH2 0x973 JUMP JUMPDEST STOP JUMPDEST CALLVALUE DUP1 ISZERO PUSH2 0x290 JUMPI PUSH1 0x0 DUP1 REVERT JUMPDEST POP PUSH2 0x2AB PUSH1 0x4 DUP1 CALLDATASIZE SUB DUP2 ADD SWAP1 PUSH2 0x2A6 SWAP2 SWAP1 PUSH2 0x3008 JUMP JUMPDEST PUSH2 0x9D3 JUMP JUMPDEST PUSH1 0x40 MLOAD PUSH2 0x2B8 SWAP2 SWAP1 PUSH2 0x2D4C JUMP JUMPDEST PUSH1 0x40 MLOAD DUP1 SWAP2 SUB SWAP1 RETURN JUMPDEST CALLVALUE DUP1 ISZERO PUSH2 0x2CD JUMPI PUSH1 0x0 DUP1 REVERT JUMPDEST POP PUSH2 0x2D6 PUSH2 0xA1C JUMP JUMPDEST PUSH1 0x40 MLOAD PUSH2 0x2E3 SWAP2 SWAP1 PUSH2 0x2C86 JUMP JUMPDEST PUSH1 0x40 MLOAD DUP1 SWAP2 SUB SWAP1 RETURN JUMPDEST CALLVALUE DUP1 ISZERO PUSH2 0x2F8 JUMPI PUSH1 0x0 DUP1 REVERT JUMPDEST POP PUSH2 0x301 PUSH2 0xAAA JUMP JUMPDEST STOP JUMPDEST CALLVALUE DUP1 ISZERO PUSH2 0x30F JUMPI PUSH1 0x0 DUP1 REVERT JUMPDEST POP PUSH2 0x32A PUSH1 0x4 DUP1 CALLDATASIZE SUB DUP2 ADD SWAP1 PUSH2 0x325 SWAP2 SWAP1 PUSH2 0x2E85 JUMP JUMPDEST PUSH2 0xB70 JUMP JUMPDEST STOP JUMPDEST CALLVALUE DUP1 ISZERO PUSH2 0x338 JUMPI PUSH1 0x0 DUP1 REVERT JUMPDEST POP PUSH2 0x353 PUSH1 0x4 DUP1 CALLDATASIZE SUB DUP2 ADD SWAP1 PUSH2 0x34E SWAP2 SWAP1 PUSH2 0x3008 JUMP JUMPDEST PUSH2 0xB90 JUMP JUMPDEST PUSH1 0x40 MLOAD PUSH2 0x360 SWAP2 SWAP1 PUSH2 0x2C86 JUMP JUMPDEST PUSH1 0x40 MLOAD DUP1 SWAP2 SUB SWAP1 RETURN JUMPDEST CALLVALUE DUP1 ISZERO PUSH2 0x375 JUMPI PUSH1 0x0 DUP1 REVERT JUMPDEST POP PUSH2 0x390 PUSH1 0x4 DUP1 CALLDATASIZE SUB DUP2 ADD SWAP1 PUSH2 0x38B SWAP2 SWAP1 PUSH2 0x2CDE JUMP JUMPDEST PUSH2 0xC46 JUMP JUMPDEST PUSH1 0x40 MLOAD PUSH2 0x39D SWAP2 SWAP1 PUSH2 0x2D4C JUMP JUMPDEST PUSH1 0x40 MLOAD DUP1 SWAP2 SUB SWAP1 RETURN JUMPDEST CALLVALUE DUP1 ISZERO PUSH2 0x3B2 JUMPI PUSH1 0x0 DUP1 REVERT JUMPDEST POP PUSH2 0x3CD PUSH1 0x4 DUP1 CALLDATASIZE SUB DUP2 ADD SWAP1 PUSH2 0x3C8 SWAP2 SWAP1 PUSH2 0x3051 JUMP JUMPDEST PUSH2 0xCCC JUMP JUMPDEST PUSH1 0x40 MLOAD PUSH2 0x3DA SWAP2 SWAP1 PUSH2 0x308D JUMP JUMPDEST PUSH1 0x40 MLOAD DUP1 SWAP2 SUB SWAP1 RETURN JUMPDEST CALLVALUE DUP1 ISZERO PUSH2 0x3EF JUMPI PUSH1 0x0 DUP1 REVERT JUMPDEST POP PUSH2 0x3F8 PUSH2 0xD83 JUMP JUMPDEST PUSH1 0x40 MLOAD PUSH2 0x405 SWAP2 SWAP1 PUSH2 0x30C9 JUMP JUMPDEST PUSH1 0x40 MLOAD DUP1 SWAP2 SUB SWAP1 RETURN JUMPDEST CALLVALUE DUP1 ISZERO PUSH2 0x41A JUMPI PUSH1 0x0 DUP1 REVERT JUMPDEST POP PUSH2 0x423 PUSH2 0xDA9 JUMP JUMPDEST PUSH1 0x40 MLOAD PUSH2 0x430 SWAP2 SWAP1 PUSH2 0x2BDB JUMP JUMPDEST PUSH1 0x40 MLOAD DUP1 SWAP2 SUB SWAP1 RETURN JUMPDEST CALLVALUE DUP1 ISZERO PUSH2 0x445 JUMPI PUSH1 0x0 DUP1 REVERT JUMPDEST POP PUSH2 0x44E PUSH2 0xE01 JUMP JUMPDEST PUSH1 0x40 MLOAD PUSH2 0x45B SWAP2 SWAP1 PUSH2 0x2C86 JUMP JUMPDEST PUSH1 0x40 MLOAD DUP1 SWAP2 SUB SWAP1 RETURN JUMPDEST CALLVALUE DUP1 ISZERO PUSH2 0x470 JUMPI PUSH1 0x0 DUP1 REVERT JUMPDEST POP PUSH2 0x48B PUSH1 0x4 DUP1 CALLDATASIZE SUB DUP2 ADD SWAP1 PUSH2 0x486 SWAP2 SWAP1 PUSH2 0x3110 JUMP JUMPDEST PUSH2 0xE93 JUMP JUMPDEST STOP JUMPDEST CALLVALUE DUP1 ISZERO PUSH2 0x499 JUMPI PUSH1 0x0 DUP1 REVERT JUMPDEST POP PUSH2 0x4B4 PUSH1 0x4 DUP1 CALLDATASIZE SUB DUP2 ADD SWAP1 PUSH2 0x4AF SWAP2 SWAP1 PUSH2 0x31F1 JUMP JUMPDEST PUSH2 0xEA9 JUMP JUMPDEST STOP JUMPDEST CALLVALUE DUP1 ISZERO PUSH2 0x4C2 JUMPI PUSH1 0x0 DUP1 REVERT JUMPDEST POP PUSH2 0x4DD PUSH1 0x4 DUP1 CALLDATASIZE SUB DUP2 ADD SWAP1 PUSH2 0x4D8 SWAP2 SWAP1 PUSH2 0x2E38 JUMP JUMPDEST PUSH2 0xF0B JUMP JUMPDEST PUSH1 0x40 MLOAD PUSH2 0x4EA SWAP2 SWAP1 PUSH2 0x2D4C JUMP JUMPDEST PUSH1 0x40 MLOAD DUP1 SWAP2 SUB SWAP1 RETURN JUMPDEST CALLVALUE DUP1 ISZERO PUSH2 0x4FF JUMPI PUSH1 0x0 DUP1 REVERT JUMPDEST POP PUSH2 0x51A PUSH1 0x4 DUP1 CALLDATASIZE SUB DUP2 ADD SWAP1 PUSH2 0x515 SWAP2 SWAP1 PUSH2 0x3274 JUMP JUMPDEST PUSH2 0xF56 JUMP JUMPDEST STOP JUMPDEST CALLVALUE DUP1 ISZERO PUSH2 0x528 JUMPI PUSH1 0x0 DUP1 REVERT JUMPDEST POP PUSH2 0x543 PUSH1 0x4 DUP1 CALLDATASIZE SUB DUP2 ADD SWAP1 PUSH2 0x53E SWAP2 SWAP1 PUSH2 0x2CDE JUMP JUMPDEST PUSH2 0x1004 JUMP JUMPDEST PUSH1 0x40 MLOAD PUSH2 0x550 SWAP2 SWAP1 PUSH2 0x2C86 JUMP JUMPDEST PUSH1 0x40 MLOAD DUP1 SWAP2 SUB SWAP1 RETURN JUMPDEST CALLVALUE DUP1 ISZERO PUSH2 0x565 JUMPI PUSH1 0x0 DUP1 REVERT JUMPDEST POP PUSH2 0x580 PUSH1 0x4 DUP1 CALLDATASIZE SUB DUP2 ADD SWAP1 PUSH2 0x57B SWAP2 SWAP1 PUSH2 0x32F5 JUMP JUMPDEST PUSH2 0x1116 JUMP JUMPDEST PUSH1 0x40 MLOAD PUSH2 0x58D SWAP2 SWAP1 PUSH2 0x2BDB JUMP JUMPDEST PUSH1 0x40 MLOAD DUP1 SWAP2 SUB SWAP1 RETURN JUMPDEST PUSH2 0x5B0 PUSH1 0x4 DUP1 CALLDATASIZE SUB DUP2 ADD SWAP1 PUSH2 0x5AB SWAP2 SWAP1 PUSH2 0x2E38 JUMP JUMPDEST PUSH2 0x11AA JUMP JUMPDEST STOP JUMPDEST CALLVALUE DUP1 ISZERO PUSH2 0x5BE JUMPI PUSH1 0x0 DUP1 REVERT JUMPDEST POP PUSH2 0x5D9 PUSH1 0x4 DUP1 CALLDATASIZE SUB DUP2 ADD SWAP1 PUSH2 0x5D4 SWAP2 SWAP1 PUSH2 0x2E38 JUMP JUMPDEST PUSH2 0x158B JUMP JUMPDEST PUSH1 0x40 MLOAD PUSH2 0x5E6 SWAP2 SWAP1 PUSH2 0x308D JUMP JUMPDEST PUSH1 0x40 MLOAD DUP1 SWAP2 SUB SWAP1 RETURN JUMPDEST PUSH1 0x0 PUSH32 0x80AC58CD00000000000000000000000000000000000000000000000000000000 PUSH28 0xFFFFFFFFFFFFFFFFFFFFFFFFFFFFFFFFFFFFFFFFFFFFFFFFFFFFFFFF NOT AND DUP3 PUSH28 0xFFFFFFFFFFFFFFFFFFFFFFFFFFFFFFFFFFFFFFFFFFFFFFFFFFFFFFFF NOT AND EQ DUP1 PUSH2 0x6BA JUMPI POP PUSH32 0x5B5E139F00000000000000000000000000000000000000000000000000000000 PUSH28 0xFFFFFFFFFFFFFFFFFFFFFFFFFFFFFFFFFFFFFFFFFFFFFFFFFFFFFFFF NOT AND DUP3 PUSH28 0xFFFFFFFFFFFFFFFFFFFFFFFFFFFFFFFFFFFFFFFFFFFFFFFFFFFFFFFF NOT AND EQ JUMPDEST DUP1 PUSH2 0x6CA JUMPI POP PUSH2 0x6C9 DUP3 PUSH2 0x16C4 JUMP JUMPDEST JUMPDEST SWAP1 POP SWAP2 SWAP1 POP JUMP JUMPDEST PUSH1 0x60 PUSH1 0x0 DUP1 SLOAD PUSH2 0x6E0 SWAP1 PUSH2 0x3364 JUMP JUMPDEST DUP1 PUSH1 0x1F ADD PUSH1 0x20 DUP1 SWAP2 DIV MUL PUSH1 0x20 ADD PUSH1 0x40 MLOAD SWAP1 DUP2 ADD PUSH1 0x40 MSTORE DUP1 SWAP3 SWAP2 SWAP1 DUP2 DUP2 MSTORE PUSH1 0x20 ADD DUP3 DUP1 SLOAD PUSH2 0x70C SWAP1 PUSH2 0x3364 JUMP JUMPDEST DUP1 ISZERO PUSH2 0x759 JUMPI DUP1 PUSH1 0x1F LT PUSH2 0x72E JUMPI PUSH2 0x100 DUP1 DUP4 SLOAD DIV MUL DUP4 MSTORE SWAP2 PUSH1 0x20 ADD SWAP2 PUSH2 0x759 JUMP JUMPDEST DUP3 ADD SWAP2 SWAP1 PUSH1 0x0 MSTORE PUSH1 0x20 PUSH1 0x0 KECCAK256 SWAP1 JUMPDEST DUP2 SLOAD DUP2 MSTORE SWAP1 PUSH1 0x1 ADD SWAP1 PUSH1 0x20 ADD DUP1 DUP4 GT PUSH2 0x73C JUMPI DUP3 SWAP1 SUB PUSH1 0x1F AND DUP3 ADD SWAP2 JUMPDEST POP POP POP POP POP SWAP1 POP SWAP1 JUMP JUMPDEST PUSH1 0x0 PUSH2 0x76E DUP3 PUSH2 0x172E JUMP JUMPDEST PUSH1 0x4 PUSH1 0x0 DUP4 DUP2 MSTORE PUSH1 0x20 ADD SWAP1 DUP2 MSTORE PUSH1 0x20 ADD PUSH1 0x0 KECCAK256 PUSH1 0x0 SWAP1 SLOAD SWAP1 PUSH2 0x100 EXP SWAP1 DIV PUSH20 0xFFFFFFFFFFFFFFFFFFFFFFFFFFFFFFFFFFFFFFFF AND SWAP1 POP SWAP2 SWAP1 POP JUMP JUMPDEST PUSH1 0x0 PUSH2 0x7B4 DUP3 PUSH2 0xC46 JUMP JUMPDEST SWAP1 POP DUP1 PUSH20 0xFFFFFFFFFFFFFFFFFFFFFFFFFFFFFFFFFFFFFFFF AND DUP4 PUSH20 0xFFFFFFFFFFFFFFFFFFFFFFFFFFFFFFFFFFFFFFFF AND SUB PUSH2 0x824 JUMPI PUSH1 0x40 MLOAD PUSH32 0x8C379A000000000000000000000000000000000000000000000000000000000 DUP2 MSTORE PUSH1 0x4 ADD PUSH2 0x81B SWAP1 PUSH2 0x3407 JUMP JUMPDEST PUSH1 0x40 MLOAD DUP1 SWAP2 SUB SWAP1 REVERT JUMPDEST DUP1 PUSH20 0xFFFFFFFFFFFFFFFFFFFFFFFFFFFFFFFFFFFFFFFF AND PUSH2 0x843 PUSH2 0x1779 JUMP JUMPDEST PUSH20 0xFFFFFFFFFFFFFFFFFFFFFFFFFFFFFFFFFFFFFFFF AND EQ DUP1 PUSH2 0x872 JUMPI POP PUSH2 0x871 DUP2 PUSH2 0x86C PUSH2 0x1779 JUMP JUMPDEST PUSH2 0x1116 JUMP JUMPDEST JUMPDEST PUSH2 0x8B1 JUMPI PUSH1 0x40 MLOAD PUSH32 0x8C379A000000000000000000000000000000000000000000000000000000000 DUP2 MSTORE PUSH1 0x4 ADD PUSH2 0x8A8 SWAP1 PUSH2 0x3499 JUMP JUMPDEST PUSH1 0x40 MLOAD DUP1 SWAP2 SUB SWAP1 REVERT JUMPDEST PUSH2 0x8BB DUP4 DUP4 PUSH2 0x1781 JUMP JUMPDEST POP POP POP JUMP JUMPDEST PUSH1 0x60 PUSH1 0xC DUP4 DUP4 PUSH1 0x40 MLOAD PUSH2 0x8D4 SWAP3 SWAP2 SWAP1 PUSH2 0x34E9 JUMP JUMPDEST SWAP1 DUP2 MSTORE PUSH1 0x20 ADD PUSH1 0x40 MLOAD DUP1 SWAP2 SUB SWAP1 KECCAK256 DUP1 SLOAD PUSH2 0x8ED SWAP1 PUSH2 0x3364 JUMP JUMPDEST DUP1 PUSH1 0x1F ADD PUSH1 0x20 DUP1 SWAP2 DIV MUL PUSH1 0x20 ADD PUSH1 0x40 MLOAD SWAP1 DUP2 ADD PUSH1 0x40 MSTORE DUP1 SWAP3 SWAP2 SWAP1 DUP2 DUP2 MSTORE PUSH1 0x20 ADD DUP3 DUP1 SLOAD PUSH2 0x919 SWAP1 PUSH2 0x3364 JUMP JUMPDEST DUP1 ISZERO PUSH2 0x966 JUMPI DUP1 PUSH1 0x1F LT PUSH2 0x93B JUMPI PUSH2 0x100 DUP1 DUP4 SLOAD DIV MUL DUP4 MSTORE SWAP2 PUSH1 0x20 ADD SWAP2 PUSH2 0x966 JUMP JUMPDEST DUP3 ADD SWAP2 SWAP1 PUSH1 0x0 MSTORE PUSH1 0x20 PUSH1 0x0 KECCAK256 SWAP1 JUMPDEST DUP2 SLOAD DUP2 MSTORE SWAP1 PUSH1 0x1 ADD SWAP1 PUSH1 0x20 ADD DUP1 DUP4 GT PUSH2 0x949 JUMPI DUP3 SWAP1 SUB PUSH1 0x1F AND DUP3 ADD SWAP2 JUMPDEST POP POP POP POP POP SWAP1 POP SWAP3 SWAP2 POP POP JUMP JUMPDEST PUSH2 0x984 PUSH2 0x97E PUSH2 0x1779 JUMP JUMPDEST DUP3 PUSH2 0x183A JUMP JUMPDEST PUSH2 0x9C3 JUMPI PUSH1 0x40 MLOAD PUSH32 0x8C379A000000000000000000000000000000000000000000000000000000000 DUP2 MSTORE PUSH1 0x4 ADD PUSH2 0x9BA SWAP1 PUSH2 0x3574 JUMP JUMPDEST PUSH1 0x40 MLOAD DUP1 SWAP2 SUB SWAP1 REVERT JUMPDEST PUSH2 0x9CE DUP4 DUP4 DUP4 PUSH2 0x18CF JUMP JUMPDEST POP POP POP JUMP JUMPDEST PUSH1 0xB DUP2 DUP1 MLOAD PUSH1 0x20 DUP2 ADD DUP3 ADD DUP1 MLOAD DUP5 DUP3 MSTORE PUSH1 0x20 DUP4 ADD PUSH1 0x20 DUP6 ADD KECCAK256 DUP2 DUP4 MSTORE DUP1 SWAP6 POP POP POP POP POP POP PUSH1 0x0 SWAP2 POP SLOAD SWAP1 PUSH2 0x100 EXP SWAP1 DIV PUSH20 0xFFFFFFFFFFFFFFFFFFFFFFFFFFFFFFFFFFFFFFFF AND DUP2 JUMP JUMPDEST PUSH1 0x8 DUP1 SLOAD PUSH2 0xA29 SWAP1 PUSH2 0x3364 JUMP JUMPDEST DUP1 PUSH1 0x1F ADD PUSH1 0x20 DUP1 SWAP2 DIV MUL PUSH1 0x20 ADD PUSH1 0x40 MLOAD SWAP1 DUP2 ADD PUSH1 0x40 MSTORE DUP1 SWAP3 SWAP2 SWAP1 DUP2 DUP2 MSTORE PUSH1 0x20 ADD DUP3 DUP1 SLOAD PUSH2 0xA55 SWAP1 PUSH2 0x3364 JUMP JUMPDEST DUP1 ISZERO PUSH2 0xAA2 JUMPI DUP1 PUSH1 0x1F LT PUSH2 0xA77 JUMPI PUSH2 0x100 DUP1 DUP4 SLOAD DIV MUL DUP4 MSTORE SWAP2 PUSH1 0x20 ADD SWAP2 PUSH2 0xAA2 JUMP JUMPDEST DUP3 ADD SWAP2 SWAP1 PUSH1 0x0 MSTORE PUSH1 0x20 PUSH1 0x0 KECCAK256 SWAP1 JUMPDEST DUP2 SLOAD DUP2 MSTORE SWAP1 PUSH1 0x1 ADD SWAP1 PUSH1 0x20 ADD DUP1 DUP4 GT PUSH2 0xA85 JUMPI DUP3 SWAP1 SUB PUSH1 0x1F AND DUP3 ADD SWAP2 JUMPDEST POP POP POP POP POP DUP2 JUMP JUMPDEST PUSH2 0xAB2 PUSH2 0xDA9 JUMP JUMPDEST PUSH2 0xABB JUMPI PUSH1 0x0 DUP1 REVERT JUMPDEST PUSH1 0x0 SELFBALANCE SWAP1 POP PUSH1 0x0 CALLER PUSH20 0xFFFFFFFFFFFFFFFFFFFFFFFFFFFFFFFFFFFFFFFF AND DUP3 PUSH1 0x40 MLOAD PUSH2 0xAE6 SWAP1 PUSH2 0x35C5 JUMP JUMPDEST PUSH1 0x0 PUSH1 0x40 MLOAD DUP1 DUP4 SUB DUP2 DUP6 DUP8 GAS CALL SWAP3 POP POP POP RETURNDATASIZE DUP1 PUSH1 0x0 DUP2 EQ PUSH2 0xB23 JUMPI PUSH1 0x40 MLOAD SWAP2 POP PUSH1 0x1F NOT PUSH1 0x3F RETURNDATASIZE ADD AND DUP3 ADD PUSH1 0x40 MSTORE RETURNDATASIZE DUP3 MSTORE RETURNDATASIZE PUSH1 0x0 PUSH1 0x20 DUP5 ADD RETURNDATACOPY PUSH2 0xB28 JUMP JUMPDEST PUSH1 0x60 SWAP2 POP JUMPDEST POP POP SWAP1 POP DUP1 PUSH2 0xB6C JUMPI PUSH1 0x40 MLOAD PUSH32 0x8C379A000000000000000000000000000000000000000000000000000000000 DUP2 MSTORE PUSH1 0x4 ADD PUSH2 0xB63 SWAP1 PUSH2 0x3626 JUMP JUMPDEST PUSH1 0x40 MLOAD DUP1 SWAP2 SUB SWAP1 REVERT JUMPDEST POP POP JUMP JUMPDEST PUSH2 0xB8B DUP4 DUP4 DUP4 PUSH1 0x40 MLOAD DUP1 PUSH1 0x20 ADD PUSH1 0x40 MSTORE DUP1 PUSH1 0x0 DUP2 MSTORE POP PUSH2 0xEA9 JUMP JUMPDEST POP POP POP JUMP JUMPDEST PUSH1 0xC DUP2 DUP1 MLOAD PUSH1 0x20 DUP2 ADD DUP3 ADD DUP1 MLOAD DUP5 DUP3 MSTORE PUSH1 0x20 DUP4 ADD PUSH1 0x20 DUP6 ADD KECCAK256 DUP2 DUP4 MSTORE DUP1 SWAP6 POP POP POP POP POP POP PUSH1 0x0 SWAP2 POP SWAP1 POP DUP1 SLOAD PUSH2 0xBC5 SWAP1 PUSH2 0x3364 JUMP JUMPDEST DUP1 PUSH1 0x1F ADD PUSH1 0x20 DUP1 SWAP2 DIV MUL PUSH1 0x20 ADD PUSH1 0x40 MLOAD SWAP1 DUP2 ADD PUSH1 0x40 MSTORE DUP1 SWAP3 SWAP2 SWAP1 DUP2 DUP2 MSTORE PUSH1 0x20 ADD DUP3 DUP1 SLOAD PUSH2 0xBF1 SWAP1 PUSH2 0x3364 JUMP JUMPDEST DUP1 ISZERO PUSH2 0xC3E JUMPI DUP1 PUSH1 0x1F LT PUSH2 0xC13 JUMPI PUSH2 0x100 DUP1 DUP4 SLOAD DIV MUL DUP4 MSTORE SWAP2 PUSH1 0x20 ADD SWAP2 PUSH2 0xC3E JUMP JUMPDEST DUP3 ADD SWAP2 SWAP1 PUSH1 0x0 MSTORE PUSH1 0x20 PUSH1 0x0 KECCAK256 SWAP1 JUMPDEST DUP2 SLOAD DUP2 MSTORE SWAP1 PUSH1 0x1 ADD SWAP1 PUSH1 0x20 ADD DUP1 DUP4 GT PUSH2 0xC21 JUMPI DUP3 SWAP1 SUB PUSH1 0x1F AND DUP3 ADD SWAP2 JUMPDEST POP POP POP POP POP DUP2 JUMP JUMPDEST PUSH1 0x0 DUP1 PUSH2 0xC52 DUP4 PUSH2 0x1BC8 JUMP JUMPDEST SWAP1 POP PUSH1 0x0 PUSH20 0xFFFFFFFFFFFFFFFFFFFFFFFFFFFFFFFFFFFFFFFF AND DUP2 PUSH20 0xFFFFFFFFFFFFFFFFFFFFFFFFFFFFFFFFFFFFFFFF AND SUB PUSH2 0xCC3 JUMPI PUSH1 0x40 MLOAD PUSH32 0x8C379A000000000000000000000000000000000000000000000000000000000 DUP2 MSTORE PUSH1 0x4 ADD PUSH2 0xCBA SWAP1 PUSH2 0x3692 JUMP JUMPDEST PUSH1 0x40 MLOAD DUP1 SWAP2 SUB SWAP1 REVERT JUMPDEST DUP1 SWAP2 POP POP SWAP2 SWAP1 POP JUMP JUMPDEST PUSH1 0x0 DUP1 PUSH20 0xFFFFFFFFFFFFFFFFFFFFFFFFFFFFFFFFFFFFFFFF AND DUP3 PUSH20 0xFFFFFFFFFFFFFFFFFFFFFFFFFFFFFFFFFFFFFFFF AND SUB PUSH2 0xD3C JUMPI PUSH1 0x40 MLOAD PUSH32 0x8C379A000000000000000000000000000000000000000000000000000000000 DUP2 MSTORE PUSH1 0x4 ADD PUSH2 0xD33 SWAP1 PUSH2 0x3724 JUMP JUMPDEST PUSH1 0x40 MLOAD DUP1 SWAP2 SUB SWAP1 REVERT JUMPDEST PUSH1 0x3 PUSH1 0x0 DUP4 PUSH20 0xFFFFFFFFFFFFFFFFFFFFFFFFFFFFFFFFFFFFFFFF AND PUSH20 0xFFFFFFFFFFFFFFFFFFFFFFFFFFFFFFFFFFFFFFFF AND DUP2 MSTORE PUSH1 0x20 ADD SWAP1 DUP2 MSTORE PUSH1 0x20 ADD PUSH1 0x0 KECCAK256 SLOAD SWAP1 POP SWAP2 SWAP1 POP JUMP JUMPDEST PUSH1 0xD PUSH1 0x0 SWAP1 SLOAD SWAP1 PUSH2 0x100 EXP SWAP1 DIV PUSH20 0xFFFFFFFFFFFFFFFFFFFFFFFFFFFFFFFFFFFFFFFF AND DUP2 JUMP JUMPDEST PUSH1 0x0 PUSH1 0xD PUSH1 0x0 SWAP1 SLOAD SWAP1 PUSH2 0x100 EXP SWAP1 DIV PUSH20 0xFFFFFFFFFFFFFFFFFFFFFFFFFFFFFFFFFFFFFFFF AND PUSH20 0xFFFFFFFFFFFFFFFFFFFFFFFFFFFFFFFFFFFFFFFF AND CALLER PUSH20 0xFFFFFFFFFFFFFFFFFFFFFFFFFFFFFFFFFFFFFFFF AND EQ SWAP1 POP SWAP1 JUMP JUMPDEST PUSH1 0x60 PUSH1 0x1 DUP1 SLOAD PUSH2 0xE10 SWAP1 PUSH2 0x3364 JUMP JUMPDEST DUP1 PUSH1 0x1F ADD PUSH1 0x20 DUP1 SWAP2 DIV MUL PUSH1 0x20 ADD PUSH1 0x40 MLOAD SWAP1 DUP2 ADD PUSH1 0x40 MSTORE DUP1 SWAP3 SWAP2 SWAP1 DUP2 DUP2 MSTORE PUSH1 0x20 ADD DUP3 DUP1 SLOAD PUSH2 0xE3C SWAP1 PUSH2 0x3364 JUMP JUMPDEST DUP1 ISZERO PUSH2 0xE89 JUMPI DUP1 PUSH1 0x1F LT PUSH2 0xE5E JUMPI PUSH2 0x100 DUP1 DUP4 SLOAD DIV MUL DUP4 MSTORE SWAP2 PUSH1 0x20 ADD SWAP2 PUSH2 0xE89 JUMP JUMPDEST DUP3 ADD SWAP2 SWAP1 PUSH1 0x0 MSTORE PUSH1 0x20 PUSH1 0x0 KECCAK256 SWAP1 JUMPDEST DUP2 SLOAD DUP2 MSTORE SWAP1 PUSH1 0x1 ADD SWAP1 PUSH1 0x20 ADD DUP1 DUP4 GT PUSH2 0xE6C JUMPI DUP3 SWAP1 SUB PUSH1 0x1F AND DUP3 ADD SWAP2 JUMPDEST POP POP POP POP POP SWAP1 POP SWAP1 JUMP JUMPDEST PUSH2 0xEA5 PUSH2 0xE9E PUSH2 0x1779 JUMP JUMPDEST DUP4 DUP4 PUSH2 0x1C05 JUMP JUMPDEST POP POP JUMP JUMPDEST PUSH2 0xEBA PUSH2 0xEB4 PUSH2 0x1779 JUMP JUMPDEST DUP4 PUSH2 0x183A JUMP JUMPDEST PUSH2 0xEF9 JUMPI PUSH1 0x40 MLOAD PUSH32 0x8C379A000000000000000000000000000000000000000000000000000000000 DUP2 MSTORE PUSH1 0x4 ADD PUSH2 0xEF0 SWAP1 PUSH2 0x3574 JUMP JUMPDEST PUSH1 0x40 MLOAD DUP1 SWAP2 SUB SWAP1 REVERT JUMPDEST PUSH2 0xF05 DUP5 DUP5 DUP5 DUP5 PUSH2 0x1D71 JUMP JUMPDEST POP POP POP POP JUMP JUMPDEST PUSH1 0x0 PUSH1 0xB DUP4 DUP4 PUSH1 0x40 MLOAD PUSH2 0xF1F SWAP3 SWAP2 SWAP1 PUSH2 0x34E9 JUMP JUMPDEST SWAP1 DUP2 MSTORE PUSH1 0x20 ADD PUSH1 0x40 MLOAD DUP1 SWAP2 SUB SWAP1 KECCAK256 PUSH1 0x0 SWAP1 SLOAD SWAP1 PUSH2 0x100 EXP SWAP1 DIV PUSH20 0xFFFFFFFFFFFFFFFFFFFFFFFFFFFFFFFFFFFFFFFF AND SWAP1 POP SWAP3 SWAP2 POP POP JUMP JUMPDEST CALLER PUSH20 0xFFFFFFFFFFFFFFFFFFFFFFFFFFFFFFFFFFFFFFFF AND PUSH1 0xB DUP6 DUP6 PUSH1 0x40 MLOAD PUSH2 0xF7F SWAP3 SWAP2 SWAP1 PUSH2 0x34E9 JUMP JUMPDEST SWAP1 DUP2 MSTORE PUSH1 0x20 ADD PUSH1 0x40 MLOAD DUP1 SWAP2 SUB SWAP1 KECCAK256 PUSH1 0x0 SWAP1 SLOAD SWAP1 PUSH2 0x100 EXP SWAP1 DIV PUSH20 0xFFFFFFFFFFFFFFFFFFFFFFFFFFFFFFFFFFFFFFFF AND PUSH20 0xFFFFFFFFFFFFFFFFFFFFFFFFFFFFFFFFFFFFFFFF AND EQ PUSH2 0xFCE JUMPI PUSH1 0x0 DUP1 REVERT JUMPDEST DUP2 DUP2 PUSH1 0xC DUP7 DUP7 PUSH1 0x40 MLOAD PUSH2 0xFE2 SWAP3 SWAP2 SWAP1 PUSH2 0x34E9 JUMP JUMPDEST SWAP1 DUP2 MSTORE PUSH1 0x20 ADD PUSH1 0x40 MLOAD DUP1 SWAP2 SUB SWAP1 KECCAK256 SWAP2 DUP3 PUSH2 0xFFD SWAP3 SWAP2 SWAP1 PUSH2 0x38FB JUMP JUMPDEST POP POP POP POP POP JUMP JUMPDEST PUSH1 0x60 PUSH2 0x100F DUP3 PUSH2 0x172E JUMP JUMPDEST PUSH1 0x0 PUSH1 0x6 PUSH1 0x0 DUP5 DUP2 MSTORE PUSH1 0x20 ADD SWAP1 DUP2 MSTORE PUSH1 0x20 ADD PUSH1 0x0 KECCAK256 DUP1 SLOAD PUSH2 0x102F SWAP1 PUSH2 0x3364 JUMP JUMPDEST DUP1 PUSH1 0x1F ADD PUSH1 0x20 DUP1 SWAP2 DIV MUL PUSH1 0x20 ADD PUSH1 0x40 MLOAD SWAP1 DUP2 ADD PUSH1 0x40 MSTORE DUP1 SWAP3 SWAP2 SWAP1 DUP2 DUP2 MSTORE PUSH1 0x20 ADD DUP3 DUP1 SLOAD PUSH2 0x105B SWAP1 PUSH2 0x3364 JUMP JUMPDEST DUP1 ISZERO PUSH2 0x10A8 JUMPI DUP1 PUSH1 0x1F LT PUSH2 0x107D JUMPI PUSH2 0x100 DUP1 DUP4 SLOAD DIV MUL DUP4 MSTORE SWAP2 PUSH1 0x20 ADD SWAP2 PUSH2 0x10A8 JUMP JUMPDEST DUP3 ADD SWAP2 SWAP1 PUSH1 0x0 MSTORE PUSH1 0x20 PUSH1 0x0 KECCAK256 SWAP1 JUMPDEST DUP2 SLOAD DUP2 MSTORE SWAP1 PUSH1 0x1 ADD SWAP1 PUSH1 0x20 ADD DUP1 DUP4 GT PUSH2 0x108B JUMPI DUP3 SWAP1 SUB PUSH1 0x1F AND DUP3 ADD SWAP2 JUMPDEST POP POP POP POP POP SWAP1 POP PUSH1 0x0 PUSH2 0x10B9 PUSH2 0x1DCD JUMP JUMPDEST SWAP1 POP PUSH1 0x0 DUP2 MLOAD SUB PUSH2 0x10CE JUMPI DUP2 SWAP3 POP POP POP PUSH2 0x1111 JUMP JUMPDEST PUSH1 0x0 DUP3 MLOAD GT ISZERO PUSH2 0x1103 JUMPI DUP1 DUP3 PUSH1 0x40 MLOAD PUSH1 0x20 ADD PUSH2 0x10EB SWAP3 SWAP2 SWAP1 PUSH2 0x39FC JUMP JUMPDEST PUSH1 0x40 MLOAD PUSH1 0x20 DUP2 DUP4 SUB SUB DUP2 MSTORE SWAP1 PUSH1 0x40 MSTORE SWAP3 POP POP POP PUSH2 0x1111 JUMP JUMPDEST PUSH2 0x110C DUP5 PUSH2 0x1DE4 JUMP JUMPDEST SWAP3 POP POP POP JUMPDEST SWAP2 SWAP1 POP JUMP JUMPDEST PUSH1 0x0 PUSH1 0x5 PUSH1 0x0 DUP5 PUSH20 0xFFFFFFFFFFFFFFFFFFFFFFFFFFFFFFFFFFFFFFFF AND PUSH20 0xFFFFFFFFFFFFFFFFFFFFFFFFFFFFFFFFFFFFFFFF AND DUP2 MSTORE PUSH1 0x20 ADD SWAP1 DUP2 MSTORE PUSH1 0x20 ADD PUSH1 0x0 KECCAK256 PUSH1 0x0 DUP4 PUSH20 0xFFFFFFFFFFFFFFFFFFFFFFFFFFFFFFFFFFFFFFFF AND PUSH20 0xFFFFFFFFFFFFFFFFFFFFFFFFFFFFFFFFFFFFFFFF AND DUP2 MSTORE PUSH1 0x20 ADD SWAP1 DUP2 MSTORE PUSH1 0x20 ADD PUSH1 0x0 KECCAK256 PUSH1 0x0 SWAP1 SLOAD SWAP1 PUSH2 0x100 EXP SWAP1 DIV PUSH1 0xFF AND SWAP1 POP SWAP3 SWAP2 POP POP JUMP JUMPDEST PUSH1 0x0 PUSH20 0xFFFFFFFFFFFFFFFFFFFFFFFFFFFFFFFFFFFFFFFF AND PUSH1 0xB DUP4 DUP4 PUSH1 0x40 MLOAD PUSH2 0x11D4 SWAP3 SWAP2 SWAP1 PUSH2 0x34E9 JUMP JUMPDEST SWAP1 DUP2 MSTORE PUSH1 0x20 ADD PUSH1 0x40 MLOAD DUP1 SWAP2 SUB SWAP1 KECCAK256 PUSH1 0x0 SWAP1 SLOAD SWAP1 PUSH2 0x100 EXP SWAP1 DIV PUSH20 0xFFFFFFFFFFFFFFFFFFFFFFFFFFFFFFFFFFFFFFFF AND PUSH20 0xFFFFFFFFFFFFFFFFFFFFFFFFFFFFFFFFFFFFFFFF AND EQ PUSH2 0x1223 JUMPI PUSH1 0x0 DUP1 REVERT JUMPDEST PUSH1 0x0 PUSH2 0x122F DUP4 DUP4 PUSH2 0x158B JUMP JUMPDEST SWAP1 POP DUP1 CALLVALUE LT ISZERO PUSH2 0x1274 JUMPI PUSH1 0x40 MLOAD PUSH32 0x8C379A000000000000000000000000000000000000000000000000000000000 DUP2 MSTORE PUSH1 0x4 ADD PUSH2 0x126B SWAP1 PUSH2 0x3A6C JUMP JUMPDEST PUSH1 0x40 MLOAD DUP1 SWAP2 SUB SWAP1 REVERT JUMPDEST PUSH1 0x0 DUP4 DUP4 PUSH1 0x8 PUSH1 0x40 MLOAD PUSH1 0x20 ADD PUSH2 0x128C SWAP4 SWAP3 SWAP2 SWAP1 PUSH2 0x3B5B JUMP JUMPDEST PUSH1 0x40 MLOAD PUSH1 0x20 DUP2 DUP4 SUB SUB DUP2 MSTORE SWAP1 PUSH1 0x40 MSTORE SWAP1 POP PUSH1 0x0 PUSH1 0x9 DUP3 PUSH1 0xA PUSH1 0x40 MLOAD PUSH1 0x20 ADD PUSH2 0x12B6 SWAP4 SWAP3 SWAP2 SWAP1 PUSH2 0x3B8C JUMP JUMPDEST PUSH1 0x40 MLOAD PUSH1 0x20 DUP2 DUP4 SUB SUB DUP2 MSTORE SWAP1 PUSH1 0x40 MSTORE SWAP1 POP PUSH1 0x0 PUSH2 0x12D3 PUSH1 0x7 PUSH2 0x1E4C JUMP JUMPDEST SWAP1 POP PUSH1 0x0 PUSH2 0x1324 DUP8 DUP8 DUP1 DUP1 PUSH1 0x1F ADD PUSH1 0x20 DUP1 SWAP2 DIV MUL PUSH1 0x20 ADD PUSH1 0x40 MLOAD SWAP1 DUP2 ADD PUSH1 0x40 MSTORE DUP1 SWAP4 SWAP3 SWAP2 SWAP1 DUP2 DUP2 MSTORE PUSH1 0x20 ADD DUP4 DUP4 DUP1 DUP3 DUP5 CALLDATACOPY PUSH1 0x0 DUP2 DUP5 ADD MSTORE PUSH1 0x1F NOT PUSH1 0x1F DUP3 ADD AND SWAP1 POP DUP1 DUP4 ADD SWAP3 POP POP POP POP POP POP POP PUSH2 0x1E5A JUMP JUMPDEST SWAP1 POP PUSH1 0x0 PUSH2 0x1331 DUP3 PUSH2 0x200F JUMP JUMPDEST SWAP1 POP PUSH2 0x1425 PUSH1 0x40 MLOAD DUP1 PUSH1 0x60 ADD PUSH1 0x40 MSTORE DUP1 PUSH1 0x31 DUP2 MSTORE PUSH1 0x20 ADD PUSH2 0x45C0 PUSH1 0x31 SWAP2 CODECOPY DUP10 DUP10 DUP1 DUP1 PUSH1 0x1F ADD PUSH1 0x20 DUP1 SWAP2 DIV MUL PUSH1 0x20 ADD PUSH1 0x40 MLOAD SWAP1 DUP2 ADD PUSH1 0x40 MSTORE DUP1 SWAP4 SWAP3 SWAP2 SWAP1 DUP2 DUP2 MSTORE PUSH1 0x20 ADD DUP4 DUP4 DUP1 DUP3 DUP5 CALLDATACOPY PUSH1 0x0 DUP2 DUP5 ADD MSTORE PUSH1 0x1F NOT PUSH1 0x1F DUP3 ADD AND SWAP1 POP DUP1 DUP4 ADD SWAP3 POP POP POP POP POP POP POP PUSH1 0x8 DUP1 SLOAD PUSH2 0x13A1 SWAP1 PUSH2 0x3364 JUMP JUMPDEST DUP1 PUSH1 0x1F ADD PUSH1 0x20 DUP1 SWAP2 DIV MUL PUSH1 0x20 ADD PUSH1 0x40 MLOAD SWAP1 DUP2 ADD PUSH1 0x40 MSTORE DUP1 SWAP3 SWAP2 SWAP1 DUP2 DUP2 MSTORE PUSH1 0x20 ADD DUP3 DUP1 SLOAD PUSH2 0x13CD SWAP1 PUSH2 0x3364 JUMP JUMPDEST DUP1 ISZERO PUSH2 0x141A JUMPI DUP1 PUSH1 0x1F LT PUSH2 0x13EF JUMPI PUSH2 0x100 DUP1 DUP4 SLOAD DIV MUL DUP4 MSTORE SWAP2 PUSH1 0x20 ADD SWAP2 PUSH2 0x141A JUMP JUMPDEST DUP3 ADD SWAP2 SWAP1 PUSH1 0x0 MSTORE PUSH1 0x20 PUSH1 0x0 KECCAK256 SWAP1 JUMPDEST DUP2 SLOAD DUP2 MSTORE SWAP1 PUSH1 0x1 ADD SWAP1 PUSH1 0x20 ADD DUP1 DUP4 GT PUSH2 0x13FD JUMPI DUP3 SWAP1 SUB PUSH1 0x1F AND DUP3 ADD SWAP2 JUMPDEST POP POP POP POP POP DUP7 PUSH2 0x20DD JUMP JUMPDEST PUSH1 0x0 PUSH2 0x145B DUP7 PUSH2 0x1434 DUP8 PUSH2 0x217F JUMP JUMPDEST DUP5 PUSH1 0x40 MLOAD PUSH1 0x20 ADD PUSH2 0x1447 SWAP4 SWAP3 SWAP2 SWAP1 PUSH2 0x3D39 JUMP JUMPDEST PUSH1 0x40 MLOAD PUSH1 0x20 DUP2 DUP4 SUB SUB DUP2 MSTORE SWAP1 PUSH1 0x40 MSTORE PUSH2 0x217F JUMP JUMPDEST SWAP1 POP PUSH1 0x0 DUP2 PUSH1 0x40 MLOAD PUSH1 0x20 ADD PUSH2 0x1470 SWAP2 SWAP1 PUSH2 0x3DE2 JUMP JUMPDEST PUSH1 0x40 MLOAD PUSH1 0x20 DUP2 DUP4 SUB SUB DUP2 MSTORE SWAP1 PUSH1 0x40 MSTORE SWAP1 POP PUSH2 0x14A2 PUSH1 0x40 MLOAD DUP1 PUSH1 0x60 ADD PUSH1 0x40 MSTORE DUP1 PUSH1 0x39 DUP2 MSTORE PUSH1 0x20 ADD PUSH2 0x4587 PUSH1 0x39 SWAP2 CODECOPY PUSH2 0x22E2 JUMP JUMPDEST PUSH2 0x14E1 PUSH1 0x40 MLOAD DUP1 PUSH1 0x40 ADD PUSH1 0x40 MSTORE DUP1 PUSH1 0xE DUP2 MSTORE PUSH1 0x20 ADD PUSH32 0x46696E616C20746F6B656E555249000000000000000000000000000000000000 DUP2 MSTORE POP DUP3 PUSH2 0x1628 JUMP JUMPDEST PUSH2 0x1502 PUSH1 0x40 MLOAD DUP1 PUSH1 0x60 ADD PUSH1 0x40 MSTORE DUP1 PUSH1 0x39 DUP2 MSTORE PUSH1 0x20 ADD PUSH2 0x45F1 PUSH1 0x39 SWAP2 CODECOPY PUSH2 0x22E2 JUMP JUMPDEST PUSH2 0x150C CALLER DUP7 PUSH2 0x237B JUMP JUMPDEST PUSH2 0x1516 DUP6 DUP3 PUSH2 0x2399 JUMP JUMPDEST CALLER PUSH1 0xB DUP12 DUP12 PUSH1 0x40 MLOAD PUSH2 0x1529 SWAP3 SWAP2 SWAP1 PUSH2 0x34E9 JUMP JUMPDEST SWAP1 DUP2 MSTORE PUSH1 0x20 ADD PUSH1 0x40 MLOAD DUP1 SWAP2 SUB SWAP1 KECCAK256 PUSH1 0x0 PUSH2 0x100 EXP DUP2 SLOAD DUP2 PUSH20 0xFFFFFFFFFFFFFFFFFFFFFFFFFFFFFFFFFFFFFFFF MUL NOT AND SWAP1 DUP4 PUSH20 0xFFFFFFFFFFFFFFFFFFFFFFFFFFFFFFFFFFFFFFFF AND MUL OR SWAP1 SSTORE POP PUSH2 0x157F PUSH1 0x7 PUSH2 0x2406 JUMP JUMPDEST POP POP POP POP POP POP POP POP POP POP JUMP JUMPDEST PUSH1 0x0 DUP1 PUSH2 0x15DB DUP5 DUP5 DUP1 DUP1 PUSH1 0x1F ADD PUSH1 0x20 DUP1 SWAP2 DIV MUL PUSH1 0x20 ADD PUSH1 0x40 MLOAD SWAP1 DUP2 ADD PUSH1 0x40 MSTORE DUP1 SWAP4 SWAP3 SWAP2 SWAP1 DUP2 DUP2 MSTORE PUSH1 0x20 ADD DUP4 DUP4 DUP1 DUP3 DUP5 CALLDATACOPY PUSH1 0x0 DUP2 DUP5 ADD MSTORE PUSH1 0x1F NOT PUSH1 0x1F DUP3 ADD AND SWAP1 POP DUP1 DUP4 ADD SWAP3 POP POP POP POP POP POP POP PUSH2 0x1E5A JUMP JUMPDEST SWAP1 POP PUSH1 0x0 DUP2 GT PUSH2 0x15EA JUMPI PUSH1 0x0 DUP1 REVERT JUMPDEST PUSH1 0x3 DUP2 SUB PUSH2 0x1603 JUMPI PUSH8 0x6F05B59D3B20000 SWAP2 POP POP PUSH2 0x1622 JUMP JUMPDEST PUSH1 0x4 DUP2 SUB PUSH2 0x1615 JUMPI PUSH1 0x3 SWAP2 POP POP PUSH2 0x1622 JUMP JUMPDEST PUSH8 0x16345785D8A0000 SWAP2 POP POP JUMPDEST SWAP3 SWAP2 POP POP JUMP JUMPDEST PUSH2 0x16C0 DUP3 DUP3 PUSH1 0x40 MLOAD PUSH1 0x24 ADD PUSH2 0x163E SWAP3 SWAP2 SWAP1 PUSH2 0x3E04 JUMP JUMPDEST PUSH1 0x40 MLOAD PUSH1 0x20 DUP2 DUP4 SUB SUB DUP2 MSTORE SWAP1 PUSH1 0x40 MSTORE PUSH32 0x4B5C427700000000000000000000000000000000000000000000000000000000 PUSH28 0xFFFFFFFFFFFFFFFFFFFFFFFFFFFFFFFFFFFFFFFFFFFFFFFFFFFFFFFF NOT AND PUSH1 0x20 DUP3 ADD DUP1 MLOAD PUSH28 0xFFFFFFFFFFFFFFFFFFFFFFFFFFFFFFFFFFFFFFFFFFFFFFFFFFFFFFFF DUP4 DUP2 DUP4 AND OR DUP4 MSTORE POP POP POP POP PUSH2 0x241C JUMP JUMPDEST POP POP JUMP JUMPDEST PUSH1 0x0 PUSH32 0x1FFC9A700000000000000000000000000000000000000000000000000000000 PUSH28 0xFFFFFFFFFFFFFFFFFFFFFFFFFFFFFFFFFFFFFFFFFFFFFFFFFFFFFFFF NOT AND DUP3 PUSH28 0xFFFFFFFFFFFFFFFFFFFFFFFFFFFFFFFFFFFFFFFFFFFFFFFFFFFFFFFF NOT AND EQ SWAP1 POP SWAP2 SWAP1 POP JUMP JUMPDEST PUSH2 0x1737 DUP2 PUSH2 0x2445 JUMP JUMPDEST PUSH2 0x1776 JUMPI PUSH1 0x40 MLOAD PUSH32 0x8C379A000000000000000000000000000000000000000000000000000000000 DUP2 MSTORE PUSH1 0x4 ADD PUSH2 0x176D SWAP1 PUSH2 0x3692 JUMP JUMPDEST PUSH1 0x40 MLOAD DUP1 SWAP2 SUB SWAP1 REVERT JUMPDEST POP JUMP JUMPDEST PUSH1 0x0 CALLER SWAP1 POP SWAP1 JUMP JUMPDEST DUP2 PUSH1 0x4 PUSH1 0x0 DUP4 DUP2 MSTORE PUSH1 0x20 ADD SWAP1 DUP2 MSTORE PUSH1 0x20 ADD PUSH1 0x0 KECCAK256 PUSH1 0x0 PUSH2 0x100 EXP DUP2 SLOAD DUP2 PUSH20 0xFFFFFFFFFFFFFFFFFFFFFFFFFFFFFFFFFFFFFFFF MUL NOT AND SWAP1 DUP4 PUSH20 0xFFFFFFFFFFFFFFFFFFFFFFFFFFFFFFFFFFFFFFFF AND MUL OR SWAP1 SSTORE POP DUP1 DUP3 PUSH20 0xFFFFFFFFFFFFFFFFFFFFFFFFFFFFFFFFFFFFFFFF AND PUSH2 0x17F4 DUP4 PUSH2 0xC46 JUMP JUMPDEST PUSH20 0xFFFFFFFFFFFFFFFFFFFFFFFFFFFFFFFFFFFFFFFF AND PUSH32 0x8C5BE1E5EBEC7D5BD14F71427D1E84F3DD0314C0F7B2291E5B200AC8C7C3B925 PUSH1 0x40 MLOAD PUSH1 0x40 MLOAD DUP1 SWAP2 SUB SWAP1 LOG4 POP POP JUMP JUMPDEST PUSH1 0x0 DUP1 PUSH2 0x1846 DUP4 PUSH2 0xC46 JUMP JUMPDEST SWAP1 POP DUP1 PUSH20 0xFFFFFFFFFFFFFFFFFFFFFFFFFFFFFFFFFFFFFFFF AND DUP5 PUSH20 0xFFFFFFFFFFFFFFFFFFFFFFFFFFFFFFFFFFFFFFFF AND EQ DUP1 PUSH2 0x1888 JUMPI POP PUSH2 0x1887 DUP2 DUP6 PUSH2 0x1116 JUMP JUMPDEST JUMPDEST DUP1 PUSH2 0x18C6 JUMPI POP DUP4 PUSH20 0xFFFFFFFFFFFFFFFFFFFFFFFFFFFFFFFFFFFFFFFF AND PUSH2 0x18AE DUP5 PUSH2 0x763 JUMP JUMPDEST PUSH20 0xFFFFFFFFFFFFFFFFFFFFFFFFFFFFFFFFFFFFFFFF AND EQ JUMPDEST SWAP2 POP POP SWAP3 SWAP2 POP POP JUMP JUMPDEST DUP3 PUSH20 0xFFFFFFFFFFFFFFFFFFFFFFFFFFFFFFFFFFFFFFFF AND PUSH2 0x18EF DUP3 PUSH2 0xC46 JUMP JUMPDEST PUSH20 0xFFFFFFFFFFFFFFFFFFFFFFFFFFFFFFFFFFFFFFFF AND EQ PUSH2 0x1945 JUMPI PUSH1 0x40 MLOAD PUSH32 0x8C379A000000000000000000000000000000000000000000000000000000000 DUP2 MSTORE PUSH1 0x4 ADD PUSH2 0x193C SWAP1 PUSH2 0x3EAD JUMP JUMPDEST PUSH1 0x40 MLOAD DUP1 SWAP2 SUB SWAP1 REVERT JUMPDEST PUSH1 0x0 PUSH20 0xFFFFFFFFFFFFFFFFFFFFFFFFFFFFFFFFFFFFFFFF AND DUP3 PUSH20 0xFFFFFFFFFFFFFFFFFFFFFFFFFFFFFFFFFFFFFFFF AND SUB PUSH2 0x19B4 JUMPI PUSH1 0x40 MLOAD PUSH32 0x8C379A000000000000000000000000000000000000000000000000000000000 DUP2 MSTORE PUSH1 0x4 ADD PUSH2 0x19AB SWAP1 PUSH2 0x3F3F JUMP JUMPDEST PUSH1 0x40 MLOAD DUP1 SWAP2 SUB SWAP1 REVERT JUMPDEST PUSH2 0x19C1 DUP4 DUP4 DUP4 PUSH1 0x1 PUSH2 0x2486 JUMP JUMPDEST DUP3 PUSH20 0xFFFFFFFFFFFFFFFFFFFFFFFFFFFFFFFFFFFFFFFF AND PUSH2 0x19E1 DUP3 PUSH2 0xC46 JUMP JUMPDEST PUSH20 0xFFFFFFFFFFFFFFFFFFFFFFFFFFFFFFFFFFFFFFFF AND EQ PUSH2 0x1A37 JUMPI PUSH1 0x40 MLOAD PUSH32 0x8C379A000000000000000000000000000000000000000000000000000000000 DUP2 MSTORE PUSH1 0x4 ADD PUSH2 0x1A2E SWAP1 PUSH2 0x3EAD JUMP JUMPDEST PUSH1 0x40 MLOAD DUP1 SWAP2 SUB SWAP1 REVERT JUMPDEST PUSH1 0x4 PUSH1 0x0 DUP3 DUP2 MSTORE PUSH1 0x20 ADD SWAP1 DUP2 MSTORE PUSH1 0x20 ADD PUSH1 0x0 KECCAK256 PUSH1 0x0 PUSH2 0x100 EXP DUP2 SLOAD SWAP1 PUSH20 0xFFFFFFFFFFFFFFFFFFFFFFFFFFFFFFFFFFFFFFFF MUL NOT AND SWAP1 SSTORE PUSH1 0x1 PUSH1 0x3 PUSH1 0x0 DUP6 PUSH20 0xFFFFFFFFFFFFFFFFFFFFFFFFFFFFFFFFFFFFFFFF AND PUSH20 0xFFFFFFFFFFFFFFFFFFFFFFFFFFFFFFFFFFFFFFFF AND DUP2 MSTORE PUSH1 0x20 ADD SWAP1 DUP2 MSTORE PUSH1 0x20 ADD PUSH1 0x0 KECCAK256 PUSH1 0x0 DUP3 DUP3 SLOAD SUB SWAP3 POP POP DUP2 SWAP1 SSTORE POP PUSH1 0x1 PUSH1 0x3 PUSH1 0x0 DUP5 PUSH20 0xFFFFFFFFFFFFFFFFFFFFFFFFFFFFFFFFFFFFFFFF AND PUSH20 0xFFFFFFFFFFFFFFFFFFFFFFFFFFFFFFFFFFFFFFFF AND DUP2 MSTORE PUSH1 0x20 ADD SWAP1 DUP2 MSTORE PUSH1 0x20 ADD PUSH1 0x0 KECCAK256 PUSH1 0x0 DUP3 DUP3 SLOAD ADD SWAP3 POP POP DUP2 SWAP1 SSTORE POP DUP2 PUSH1 0x2 PUSH1 0x0 DUP4 DUP2 MSTORE PUSH1 0x20 ADD SWAP1 DUP2 MSTORE PUSH1 0x20 ADD PUSH1 0x0 KECCAK256 PUSH1 0x0 PUSH2 0x100 EXP DUP2 SLOAD DUP2 PUSH20 0xFFFFFFFFFFFFFFFFFFFFFFFFFFFFFFFFFFFFFFFF MUL NOT AND SWAP1 DUP4 PUSH20 0xFFFFFFFFFFFFFFFFFFFFFFFFFFFFFFFFFFFFFFFF AND MUL OR SWAP1 SSTORE POP DUP1 DUP3 PUSH20 0xFFFFFFFFFFFFFFFFFFFFFFFFFFFFFFFFFFFFFFFF AND DUP5 PUSH20 0xFFFFFFFFFFFFFFFFFFFFFFFFFFFFFFFFFFFFFFFF AND PUSH32 0xDDF252AD1BE2C89B69C2B068FC378DAA952BA7F163C4A11628F55A4DF523B3EF PUSH1 0x40 MLOAD PUSH1 0x40 MLOAD DUP1 SWAP2 SUB SWAP1 LOG4 PUSH2 0x1BC3 DUP4 DUP4 DUP4 PUSH1 0x1 PUSH2 0x25AC JUMP JUMPDEST POP POP POP JUMP JUMPDEST PUSH1 0x0 PUSH1 0x2 PUSH1 0x0 DUP4 DUP2 MSTORE PUSH1 0x20 ADD SWAP1 DUP2 MSTORE PUSH1 0x20 ADD PUSH1 0x0 KECCAK256 PUSH1 0x0 SWAP1 SLOAD SWAP1 PUSH2 0x100 EXP SWAP1 DIV PUSH20 0xFFFFFFFFFFFFFFFFFFFFFFFFFFFFFFFFFFFFFFFF AND SWAP1 POP SWAP2 SWAP1 POP JUMP JUMPDEST DUP2 PUSH20 0xFFFFFFFFFFFFFFFFFFFFFFFFFFFFFFFFFFFFFFFF AND DUP4 PUSH20 0xFFFFFFFFFFFFFFFFFFFFFFFFFFFFFFFFFFFFFFFF AND SUB PUSH2 0x1C73 JUMPI PUSH1 0x40 MLOAD PUSH32 0x8C379A000000000000000000000000000000000000000000000000000000000 DUP2 MSTORE PUSH1 0x4 ADD PUSH2 0x1C6A SWAP1 PUSH2 0x3FAB JUMP JUMPDEST PUSH1 0x40 MLOAD DUP1 SWAP2 SUB SWAP1 REVERT JUMPDEST DUP1 PUSH1 0x5 PUSH1 0x0 DUP6 PUSH20 0xFFFFFFFFFFFFFFFFFFFFFFFFFFFFFFFFFFFFFFFF AND PUSH20 0xFFFFFFFFFFFFFFFFFFFFFFFFFFFFFFFFFFFFFFFF AND DUP2 MSTORE PUSH1 0x20 ADD SWAP1 DUP2 MSTORE PUSH1 0x20 ADD PUSH1 0x0 KECCAK256 PUSH1 0x0 DUP5 PUSH20 0xFFFFFFFFFFFFFFFFFFFFFFFFFFFFFFFFFFFFFFFF AND PUSH20 0xFFFFFFFFFFFFFFFFFFFFFFFFFFFFFFFFFFFFFFFF AND DUP2 MSTORE PUSH1 0x20 ADD SWAP1 DUP2 MSTORE PUSH1 0x20 ADD PUSH1 0x0 KECCAK256 PUSH1 0x0 PUSH2 0x100 EXP DUP2 SLOAD DUP2 PUSH1 0xFF MUL NOT AND SWAP1 DUP4 ISZERO ISZERO MUL OR SWAP1 SSTORE POP DUP2 PUSH20 0xFFFFFFFFFFFFFFFFFFFFFFFFFFFFFFFFFFFFFFFF AND DUP4 PUSH20 0xFFFFFFFFFFFFFFFFFFFFFFFFFFFFFFFFFFFFFFFF AND PUSH32 0x17307EAB39AB6107E8899845AD3D59BD9653F200F220920489CA2B5937696C31 DUP4 PUSH1 0x40 MLOAD PUSH2 0x1D64 SWAP2 SWAP1 PUSH2 0x2BDB JUMP JUMPDEST PUSH1 0x40 MLOAD DUP1 SWAP2 SUB SWAP1 LOG3 POP POP POP JUMP JUMPDEST PUSH2 0x1D7C DUP5 DUP5 DUP5 PUSH2 0x18CF JUMP JUMPDEST PUSH2 0x1D88 DUP5 DUP5 DUP5 DUP5 PUSH2 0x25B2 JUMP JUMPDEST PUSH2 0x1DC7 JUMPI PUSH1 0x40 MLOAD PUSH32 0x8C379A000000000000000000000000000000000000000000000000000000000 DUP2 MSTORE PUSH1 0x4 ADD PUSH2 0x1DBE SWAP1 PUSH2 0x403D JUMP JUMPDEST PUSH1 0x40 MLOAD DUP1 SWAP2 SUB SWAP1 REVERT JUMPDEST POP POP POP POP JUMP JUMPDEST PUSH1 0x60 PUSH1 0x40 MLOAD DUP1 PUSH1 0x20 ADD PUSH1 0x40 MSTORE DUP1 PUSH1 0x0 DUP2 MSTORE POP SWAP1 POP SWAP1 JUMP JUMPDEST PUSH1 0x60 PUSH2 0x1DEF DUP3 PUSH2 0x172E JUMP JUMPDEST PUSH1 0x0 PUSH2 0x1DF9 PUSH2 0x1DCD JUMP JUMPDEST SWAP1 POP PUSH1 0x0 DUP2 MLOAD GT PUSH2 0x1E19 JUMPI PUSH1 0x40 MLOAD DUP1 PUSH1 0x20 ADD PUSH1 0x40 MSTORE DUP1 PUSH1 0x0 DUP2 MSTORE POP PUSH2 0x1E44 JUMP JUMPDEST DUP1 PUSH2 0x1E23 DUP5 PUSH2 0x200F JUMP JUMPDEST PUSH1 0x40 MLOAD PUSH1 0x20 ADD PUSH2 0x1E34 SWAP3 SWAP2 SWAP1 PUSH2 0x39FC JUMP JUMPDEST PUSH1 0x40 MLOAD PUSH1 0x20 DUP2 DUP4 SUB SUB DUP2 MSTORE SWAP1 PUSH1 0x40 MSTORE JUMPDEST SWAP2 POP POP SWAP2 SWAP1 POP JUMP JUMPDEST PUSH1 0x0 DUP2 PUSH1 0x0 ADD SLOAD SWAP1 POP SWAP2 SWAP1 POP JUMP JUMPDEST PUSH1 0x0 DUP1 PUSH1 0x0 DUP1 DUP5 MLOAD SWAP1 POP PUSH1 0x0 SWAP3 POP JUMPDEST DUP1 DUP3 LT ISZERO PUSH2 0x2004 JUMPI PUSH1 0x0 DUP6 DUP4 DUP2 MLOAD DUP2 LT PUSH2 0x1E86 JUMPI PUSH2 0x1E85 PUSH2 0x405D JUMP JUMPDEST JUMPDEST PUSH1 0x20 ADD ADD MLOAD PUSH1 0xF8 SHR PUSH1 0xF8 SHL SWAP1 POP PUSH1 0x80 PUSH1 0xF8 SHL DUP2 PUSH31 0xFFFFFFFFFFFFFFFFFFFFFFFFFFFFFFFFFFFFFFFFFFFFFFFFFFFFFFFFFFFFFF NOT AND LT ISZERO PUSH2 0x1ED5 JUMPI PUSH1 0x1 DUP4 PUSH2 0x1ECE SWAP2 SWAP1 PUSH2 0x40BB JUMP JUMPDEST SWAP3 POP PUSH2 0x1FF0 JUMP JUMPDEST PUSH1 0xE0 PUSH1 0xF8 SHL DUP2 PUSH31 0xFFFFFFFFFFFFFFFFFFFFFFFFFFFFFFFFFFFFFFFFFFFFFFFFFFFFFFFFFFFFFF NOT AND LT ISZERO PUSH2 0x1F17 JUMPI PUSH1 0x2 DUP4 PUSH2 0x1F10 SWAP2 SWAP1 PUSH2 0x40BB JUMP JUMPDEST SWAP3 POP PUSH2 0x1FEF JUMP JUMPDEST PUSH1 0xF0 PUSH1 0xF8 SHL DUP2 PUSH31 0xFFFFFFFFFFFFFFFFFFFFFFFFFFFFFFFFFFFFFFFFFFFFFFFFFFFFFFFFFFFFFF NOT AND LT ISZERO PUSH2 0x1F59 JUMPI PUSH1 0x3 DUP4 PUSH2 0x1F52 SWAP2 SWAP1 PUSH2 0x40BB JUMP JUMPDEST SWAP3 POP PUSH2 0x1FEE JUMP JUMPDEST PUSH1 0xF8 DUP1 SHL DUP2 PUSH31 0xFFFFFFFFFFFFFFFFFFFFFFFFFFFFFFFFFFFFFFFFFFFFFFFFFFFFFFFFFFFFFF NOT AND LT ISZERO PUSH2 0x1F9A JUMPI PUSH1 0x4 DUP4 PUSH2 0x1F93 SWAP2 SWAP1 PUSH2 0x40BB JUMP JUMPDEST SWAP3 POP PUSH2 0x1FED JUMP JUMPDEST PUSH1 0xFC PUSH1 0xF8 SHL DUP2 PUSH31 0xFFFFFFFFFFFFFFFFFFFFFFFFFFFFFFFFFFFFFFFFFFFFFFFFFFFFFFFFFFFFFF NOT AND LT ISZERO PUSH2 0x1FDC JUMPI PUSH1 0x5 DUP4 PUSH2 0x1FD5 SWAP2 SWAP1 PUSH2 0x40BB JUMP JUMPDEST SWAP3 POP PUSH2 0x1FEC JUMP JUMPDEST PUSH1 0x6 DUP4 PUSH2 0x1FE9 SWAP2 SWAP1 PUSH2 0x40BB JUMP JUMPDEST SWAP3 POP JUMPDEST JUMPDEST JUMPDEST JUMPDEST JUMPDEST POP DUP3 DUP1 PUSH2 0x1FFC SWAP1 PUSH2 0x40EF JUMP JUMPDEST SWAP4 POP POP PUSH2 0x1E69 JUMP JUMPDEST DUP3 SWAP4 POP POP POP POP SWAP2 SWAP1 POP JUMP JUMPDEST PUSH1 0x60 PUSH1 0x0 PUSH1 0x1 PUSH2 0x201E DUP5 PUSH2 0x2739 JUMP JUMPDEST ADD SWAP1 POP PUSH1 0x0 DUP2 PUSH8 0xFFFFFFFFFFFFFFFF DUP2 GT ISZERO PUSH2 0x203D JUMPI PUSH2 0x203C PUSH2 0x2EDD JUMP JUMPDEST JUMPDEST PUSH1 0x40 MLOAD SWAP1 DUP1 DUP3 MSTORE DUP1 PUSH1 0x1F ADD PUSH1 0x1F NOT AND PUSH1 0x20 ADD DUP3 ADD PUSH1 0x40 MSTORE DUP1 ISZERO PUSH2 0x206F JUMPI DUP2 PUSH1 0x20 ADD PUSH1 0x1 DUP3 MUL DUP1 CALLDATASIZE DUP4 CALLDATACOPY DUP1 DUP3 ADD SWAP2 POP POP SWAP1 POP JUMPDEST POP SWAP1 POP PUSH1 0x0 DUP3 PUSH1 0x20 ADD DUP3 ADD SWAP1 POP JUMPDEST PUSH1 0x1 ISZERO PUSH2 0x20D2 JUMPI DUP1 DUP1 PUSH1 0x1 SWAP1 SUB SWAP2 POP POP PUSH32 0x3031323334353637383961626364656600000000000000000000000000000000 PUSH1 0xA DUP7 MOD BYTE DUP2 MSTORE8 PUSH1 0xA DUP6 DUP2 PUSH2 0x20C6 JUMPI PUSH2 0x20C5 PUSH2 0x4137 JUMP JUMPDEST JUMPDEST DIV SWAP5 POP PUSH1 0x0 DUP6 SUB PUSH2 0x207D JUMPI JUMPDEST DUP2 SWAP4 POP POP POP POP SWAP2 SWAP1 POP JUMP JUMPDEST PUSH2 0x2179 DUP5 DUP5 DUP5 DUP5 PUSH1 0x40 MLOAD PUSH1 0x24 ADD PUSH2 0x20F7 SWAP5 SWAP4 SWAP3 SWAP2 SWAP1 PUSH2 0x4166 JUMP JUMPDEST PUSH1 0x40 MLOAD PUSH1 0x20 DUP2 DUP4 SUB SUB DUP2 MSTORE SWAP1 PUSH1 0x40 MSTORE PUSH32 0x8EAFB02B00000000000000000000000000000000000000000000000000000000 PUSH28 0xFFFFFFFFFFFFFFFFFFFFFFFFFFFFFFFFFFFFFFFFFFFFFFFFFFFFFFFF NOT AND PUSH1 0x20 DUP3 ADD DUP1 MLOAD PUSH28 0xFFFFFFFFFFFFFFFFFFFFFFFFFFFFFFFFFFFFFFFFFFFFFFFFFFFFFFFF DUP4 DUP2 DUP4 AND OR DUP4 MSTORE POP POP POP POP PUSH2 0x241C JUMP JUMPDEST POP POP POP POP JUMP JUMPDEST PUSH1 0x60 PUSH1 0x0 DUP3 MLOAD SUB PUSH2 0x21A1 JUMPI PUSH1 0x40 MLOAD DUP1 PUSH1 0x20 ADD PUSH1 0x40 MSTORE DUP1 PUSH1 0x0 DUP2 MSTORE POP SWAP1 POP PUSH2 0x22DD JUMP JUMPDEST PUSH1 0x0 PUSH1 0x40 MLOAD DUP1 PUSH1 0x60 ADD PUSH1 0x40 MSTORE DUP1 PUSH1 0x40 DUP2 MSTORE PUSH1 0x20 ADD PUSH2 0x462A PUSH1 0x40 SWAP2 CODECOPY SWAP1 POP PUSH1 0x0 PUSH1 0x3 PUSH1 0x2 DUP6 MLOAD PUSH2 0x21D0 SWAP2 SWAP1 PUSH2 0x40BB JUMP JUMPDEST PUSH2 0x21DA SWAP2 SWAP1 PUSH2 0x41C0 JUMP JUMPDEST PUSH1 0x4 PUSH2 0x21E6 SWAP2 SWAP1 PUSH2 0x41F1 JUMP JUMPDEST PUSH8 0xFFFFFFFFFFFFFFFF DUP2 GT ISZERO PUSH2 0x21FF JUMPI PUSH2 0x21FE PUSH2 0x2EDD JUMP JUMPDEST JUMPDEST PUSH1 0x40 MLOAD SWAP1 DUP1 DUP3 MSTORE DUP1 PUSH1 0x1F ADD PUSH1 0x1F NOT AND PUSH1 0x20 ADD DUP3 ADD PUSH1 0x40 MSTORE DUP1 ISZERO PUSH2 0x2231 JUMPI DUP2 PUSH1 0x20 ADD PUSH1 0x1 DUP3 MUL DUP1 CALLDATASIZE DUP4 CALLDATACOPY DUP1 DUP3 ADD SWAP2 POP POP SWAP1 POP JUMPDEST POP SWAP1 POP PUSH1 0x1 DUP3 ADD PUSH1 0x20 DUP3 ADD DUP6 DUP7 MLOAD DUP8 ADD JUMPDEST DUP1 DUP3 LT ISZERO PUSH2 0x229D JUMPI PUSH1 0x3 DUP3 ADD SWAP2 POP DUP2 MLOAD PUSH1 0x3F DUP2 PUSH1 0x12 SHR AND DUP6 ADD MLOAD DUP5 MSTORE8 PUSH1 0x1 DUP5 ADD SWAP4 POP PUSH1 0x3F DUP2 PUSH1 0xC SHR AND DUP6 ADD MLOAD DUP5 MSTORE8 PUSH1 0x1 DUP5 ADD SWAP4 POP PUSH1 0x3F DUP2 PUSH1 0x6 SHR AND DUP6 ADD MLOAD DUP5 MSTORE8 PUSH1 0x1 DUP5 ADD SWAP4 POP PUSH1 0x3F DUP2 AND DUP6 ADD MLOAD DUP5 MSTORE8 PUSH1 0x1 DUP5 ADD SWAP4 POP POP PUSH2 0x2242 JUMP JUMPDEST POP POP PUSH1 0x3 DUP7 MLOAD MOD PUSH1 0x1 DUP2 EQ PUSH2 0x22B9 JUMPI PUSH1 0x2 DUP2 EQ PUSH2 0x22CC JUMPI PUSH2 0x22D4 JUMP JUMPDEST PUSH1 0x3D PUSH1 0x1 DUP4 SUB MSTORE8 PUSH1 0x3D PUSH1 0x2 DUP4 SUB MSTORE8 PUSH2 0x22D4 JUMP JUMPDEST PUSH1 0x3D PUSH1 0x1 DUP4 SUB MSTORE8 JUMPDEST POP POP POP DUP1 SWAP3 POP POP POP JUMPDEST SWAP2 SWAP1 POP JUMP JUMPDEST PUSH2 0x2378 DUP2 PUSH1 0x40 MLOAD PUSH1 0x24 ADD PUSH2 0x22F6 SWAP2 SWAP1 PUSH2 0x2C86 JUMP JUMPDEST PUSH1 0x40 MLOAD PUSH1 0x20 DUP2 DUP4 SUB SUB DUP2 MSTORE SWAP1 PUSH1 0x40 MSTORE PUSH32 0x41304FAC00000000000000000000000000000000000000000000000000000000 PUSH28 0xFFFFFFFFFFFFFFFFFFFFFFFFFFFFFFFFFFFFFFFFFFFFFFFFFFFFFFFF NOT AND PUSH1 0x20 DUP3 ADD DUP1 MLOAD PUSH28 0xFFFFFFFFFFFFFFFFFFFFFFFFFFFFFFFFFFFFFFFFFFFFFFFFFFFFFFFF DUP4 DUP2 DUP4 AND OR DUP4 MSTORE POP POP POP POP PUSH2 0x241C JUMP JUMPDEST POP JUMP JUMPDEST PUSH2 0x2395 DUP3 DUP3 PUSH1 0x40 MLOAD DUP1 PUSH1 0x20 ADD PUSH1 0x40 MSTORE DUP1 PUSH1 0x0 DUP2 MSTORE POP PUSH2 0x288C JUMP JUMPDEST POP POP JUMP JUMPDEST PUSH2 0x23A2 DUP3 PUSH2 0x2445 JUMP JUMPDEST PUSH2 0x23E1 JUMPI PUSH1 0x40 MLOAD PUSH32 0x8C379A000000000000000000000000000000000000000000000000000000000 DUP2 MSTORE PUSH1 0x4 ADD PUSH2 0x23D8 SWAP1 PUSH2 0x42A5 JUMP JUMPDEST PUSH1 0x40 MLOAD DUP1 SWAP2 SUB SWAP1 REVERT JUMPDEST DUP1 PUSH1 0x6 PUSH1 0x0 DUP5 DUP2 MSTORE PUSH1 0x20 ADD SWAP1 DUP2 MSTORE PUSH1 0x20 ADD PUSH1 0x0 KECCAK256 SWAP1 DUP2 PUSH2 0x2401 SWAP2 SWAP1 PUSH2 0x42C5 JUMP JUMPDEST POP POP POP JUMP JUMPDEST PUSH1 0x1 DUP2 PUSH1 0x0 ADD PUSH1 0x0 DUP3 DUP3 SLOAD ADD SWAP3 POP POP DUP2 SWAP1 SSTORE POP POP JUMP JUMPDEST PUSH1 0x0 DUP2 MLOAD SWAP1 POP PUSH1 0x0 PUSH11 0x636F6E736F6C652E6C6F67 SWAP1 POP PUSH1 0x20 DUP4 ADD PUSH1 0x0 DUP1 DUP5 DUP4 DUP6 GAS STATICCALL POP POP POP POP POP JUMP JUMPDEST PUSH1 0x0 DUP1 PUSH20 0xFFFFFFFFFFFFFFFFFFFFFFFFFFFFFFFFFFFFFFFF AND PUSH2 0x2467 DUP4 PUSH2 0x1BC8 JUMP JUMPDEST PUSH20 0xFFFFFFFFFFFFFFFFFFFFFFFFFFFFFFFFFFFFFFFF AND EQ ISZERO SWAP1 POP SWAP2 SWAP1 POP JUMP JUMPDEST PUSH1 0x1 DUP2 GT ISZERO PUSH2 0x25A6 JUMPI PUSH1 0x0 PUSH20 0xFFFFFFFFFFFFFFFFFFFFFFFFFFFFFFFFFFFFFFFF AND DUP5 PUSH20 0xFFFFFFFFFFFFFFFFFFFFFFFFFFFFFFFFFFFFFFFF AND EQ PUSH2 0x251A JUMPI DUP1 PUSH1 0x3 PUSH1 0x0 DUP7 PUSH20 0xFFFFFFFFFFFFFFFFFFFFFFFFFFFFFFFFFFFFFFFF AND PUSH20 0xFFFFFFFFFFFFFFFFFFFFFFFFFFFFFFFFFFFFFFFF AND DUP2 MSTORE PUSH1 0x20 ADD SWAP1 DUP2 MSTORE PUSH1 0x20 ADD PUSH1 0x0 KECCAK256 PUSH1 0x0 DUP3 DUP3 SLOAD PUSH2 0x2512 SWAP2 SWAP1 PUSH2 0x4397 JUMP JUMPDEST SWAP3 POP POP DUP2 SWAP1 SSTORE POP JUMPDEST PUSH1 0x0 PUSH20 0xFFFFFFFFFFFFFFFFFFFFFFFFFFFFFFFFFFFFFFFF AND DUP4 PUSH20 0xFFFFFFFFFFFFFFFFFFFFFFFFFFFFFFFFFFFFFFFF AND EQ PUSH2 0x25A5 JUMPI DUP1 PUSH1 0x3 PUSH1 0x0 DUP6 PUSH20 0xFFFFFFFFFFFFFFFFFFFFFFFFFFFFFFFFFFFFFFFF AND PUSH20 0xFFFFFFFFFFFFFFFFFFFFFFFFFFFFFFFFFFFFFFFF AND DUP2 MSTORE PUSH1 0x20 ADD SWAP1 DUP2 MSTORE PUSH1 0x20 ADD PUSH1 0x0 KECCAK256 PUSH1 0x0 DUP3 DUP3 SLOAD PUSH2 0x259D SWAP2 SWAP1 PUSH2 0x40BB JUMP JUMPDEST SWAP3 POP POP DUP2 SWAP1 SSTORE POP JUMPDEST JUMPDEST POP POP POP POP JUMP JUMPDEST POP POP POP POP JUMP JUMPDEST PUSH1 0x0 PUSH2 0x25D3 DUP5 PUSH20 0xFFFFFFFFFFFFFFFFFFFFFFFFFFFFFFFFFFFFFFFF AND PUSH2 0x28E7 JUMP JUMPDEST ISZERO PUSH2 0x272C JUMPI DUP4 PUSH20 0xFFFFFFFFFFFFFFFFFFFFFFFFFFFFFFFFFFFFFFFF AND PUSH4 0x150B7A02 PUSH2 0x25FC PUSH2 0x1779 JUMP JUMPDEST DUP8 DUP7 DUP7 PUSH1 0x40 MLOAD DUP6 PUSH4 0xFFFFFFFF AND PUSH1 0xE0 SHL DUP2 MSTORE PUSH1 0x4 ADD PUSH2 0x261E SWAP5 SWAP4 SWAP3 SWAP2 SWAP1 PUSH2 0x4420 JUMP JUMPDEST PUSH1 0x20 PUSH1 0x40 MLOAD DUP1 DUP4 SUB DUP2 PUSH1 0x0 DUP8 GAS CALL SWAP3 POP POP POP DUP1 ISZERO PUSH2 0x265A JUMPI POP PUSH1 0x40 MLOAD RETURNDATASIZE PUSH1 0x1F NOT PUSH1 0x1F DUP3 ADD AND DUP3 ADD DUP1 PUSH1 0x40 MSTORE POP DUP2 ADD SWAP1 PUSH2 0x2657 SWAP2 SWAP1 PUSH2 0x4481 JUMP JUMPDEST PUSH1 0x1 JUMPDEST PUSH2 0x26DC JUMPI RETURNDATASIZE DUP1 PUSH1 0x0 DUP2 EQ PUSH2 0x268A JUMPI PUSH1 0x40 MLOAD SWAP2 POP PUSH1 0x1F NOT PUSH1 0x3F RETURNDATASIZE ADD AND DUP3 ADD PUSH1 0x40 MSTORE RETURNDATASIZE DUP3 MSTORE RETURNDATASIZE PUSH1 0x0 PUSH1 0x20 DUP5 ADD RETURNDATACOPY PUSH2 0x268F JUMP JUMPDEST PUSH1 0x60 SWAP2 POP JUMPDEST POP PUSH1 0x0 DUP2 MLOAD SUB PUSH2 0x26D4 JUMPI PUSH1 0x40 MLOAD PUSH32 0x8C379A000000000000000000000000000000000000000000000000000000000 DUP2 MSTORE PUSH1 0x4 ADD PUSH2 0x26CB SWAP1 PUSH2 0x403D JUMP JUMPDEST PUSH1 0x40 MLOAD DUP1 SWAP2 SUB SWAP1 REVERT JUMPDEST DUP1 MLOAD DUP2 PUSH1 0x20 ADD REVERT JUMPDEST PUSH4 0x150B7A02 PUSH1 0xE0 SHL PUSH28 0xFFFFFFFFFFFFFFFFFFFFFFFFFFFFFFFFFFFFFFFFFFFFFFFFFFFFFFFF NOT AND DUP2 PUSH28 0xFFFFFFFFFFFFFFFFFFFFFFFFFFFFFFFFFFFFFFFFFFFFFFFFFFFFFFFF NOT AND EQ SWAP2 POP POP PUSH2 0x2731 JUMP JUMPDEST PUSH1 0x1 SWAP1 POP JUMPDEST SWAP5 SWAP4 POP POP POP POP JUMP JUMPDEST PUSH1 0x0 DUP1 PUSH1 0x0 SWAP1 POP PUSH27 0x184F03E93FF9F4DAA797ED6E38ED64BF6A1F010000000000000000 DUP4 LT PUSH2 0x2797 JUMPI PUSH27 0x184F03E93FF9F4DAA797ED6E38ED64BF6A1F010000000000000000 DUP4 DUP2 PUSH2 0x278D JUMPI PUSH2 0x278C PUSH2 0x4137 JUMP JUMPDEST JUMPDEST DIV SWAP3 POP PUSH1 0x40 DUP2 ADD SWAP1 POP JUMPDEST PUSH14 0x4EE2D6D415B85ACEF8100000000 DUP4 LT PUSH2 0x27D4 JUMPI PUSH14 0x4EE2D6D415B85ACEF8100000000 DUP4 DUP2 PUSH2 0x27CA JUMPI PUSH2 0x27C9 PUSH2 0x4137 JUMP JUMPDEST JUMPDEST DIV SWAP3 POP PUSH1 0x20 DUP2 ADD SWAP1 POP JUMPDEST PUSH7 0x2386F26FC10000 DUP4 LT PUSH2 0x2803 JUMPI PUSH7 0x2386F26FC10000 DUP4 DUP2 PUSH2 0x27F9 JUMPI PUSH2 0x27F8 PUSH2 0x4137 JUMP JUMPDEST JUMPDEST DIV SWAP3 POP PUSH1 0x10 DUP2 ADD SWAP1 POP JUMPDEST PUSH4 0x5F5E100 DUP4 LT PUSH2 0x282C JUMPI PUSH4 0x5F5E100 DUP4 DUP2 PUSH2 0x2822 JUMPI PUSH2 0x2821 PUSH2 0x4137 JUMP JUMPDEST JUMPDEST DIV SWAP3 POP PUSH1 0x8 DUP2 ADD SWAP1 POP JUMPDEST PUSH2 0x2710 DUP4 LT PUSH2 0x2851 JUMPI PUSH2 0x2710 DUP4 DUP2 PUSH2 0x2847 JUMPI PUSH2 0x2846 PUSH2 0x4137 JUMP JUMPDEST JUMPDEST DIV SWAP3 POP PUSH1 0x4 DUP2 ADD SWAP1 POP JUMPDEST PUSH1 0x64 DUP4 LT PUSH2 0x2874 JUMPI PUSH1 0x64 DUP4 DUP2 PUSH2 0x286A JUMPI PUSH2 0x2869 PUSH2 0x4137 JUMP JUMPDEST JUMPDEST DIV SWAP3 POP PUSH1 0x2 DUP2 ADD SWAP1 POP JUMPDEST PUSH1 0xA DUP4 LT PUSH2 0x2883 JUMPI PUSH1 0x1 DUP2 ADD SWAP1 POP JUMPDEST DUP1 SWAP2 POP POP SWAP2 SWAP1 POP JUMP JUMPDEST PUSH2 0x2896 DUP4 DUP4 PUSH2 0x290A JUMP JUMPDEST PUSH2 0x28A3 PUSH1 0x0 DUP5 DUP5 DUP5 PUSH2 0x25B2 JUMP JUMPDEST PUSH2 0x28E2 JUMPI PUSH1 0x40 MLOAD PUSH32 0x8C379A000000000000000000000000000000000000000000000000000000000 DUP2 MSTORE PUSH1 0x4 ADD PUSH2 0x28D9 SWAP1 PUSH2 0x403D JUMP JUMPDEST PUSH1 0x40 MLOAD DUP1 SWAP2 SUB SWAP1 REVERT JUMPDEST POP POP POP JUMP JUMPDEST PUSH1 0x0 DUP1 DUP3 PUSH20 0xFFFFFFFFFFFFFFFFFFFFFFFFFFFFFFFFFFFFFFFF AND EXTCODESIZE GT SWAP1 POP SWAP2 SWAP1 POP JUMP JUMPDEST PUSH1 0x0 PUSH20 0xFFFFFFFFFFFFFFFFFFFFFFFFFFFFFFFFFFFFFFFF AND DUP3 PUSH20 0xFFFFFFFFFFFFFFFFFFFFFFFFFFFFFFFFFFFFFFFF AND SUB PUSH2 0x2979 JUMPI PUSH1 0x40 MLOAD PUSH32 0x8C379A000000000000000000000000000000000000000000000000000000000 DUP2 MSTORE PUSH1 0x4 ADD PUSH2 0x2970 SWAP1 PUSH2 0x44FA JUMP JUMPDEST PUSH1 0x40 MLOAD DUP1 SWAP2 SUB SWAP1 REVERT JUMPDEST PUSH2 0x2982 DUP2 PUSH2 0x2445 JUMP JUMPDEST ISZERO PUSH2 0x29C2 JUMPI PUSH1 0x40 MLOAD PUSH32 0x8C379A000000000000000000000000000000000000000000000000000000000 DUP2 MSTORE PUSH1 0x4 ADD PUSH2 0x29B9 SWAP1 PUSH2 0x4566 JUMP JUMPDEST PUSH1 0x40 MLOAD DUP1 SWAP2 SUB SWAP1 REVERT JUMPDEST PUSH2 0x29D0 PUSH1 0x0 DUP4 DUP4 PUSH1 0x1 PUSH2 0x2486 JUMP JUMPDEST PUSH2 0x29D9 DUP2 PUSH2 0x2445 JUMP JUMPDEST ISZERO PUSH2 0x2A19 JUMPI PUSH1 0x40 MLOAD PUSH32 0x8C379A000000000000000000000000000000000000000000000000000000000 DUP2 MSTORE PUSH1 0x4 ADD PUSH2 0x2A10 SWAP1 PUSH2 0x4566 JUMP JUMPDEST PUSH1 0x40 MLOAD DUP1 SWAP2 SUB SWAP1 REVERT JUMPDEST PUSH1 0x1 PUSH1 0x3 PUSH1 0x0 DUP5 PUSH20 0xFFFFFFFFFFFFFFFFFFFFFFFFFFFFFFFFFFFFFFFF AND PUSH20 0xFFFFFFFFFFFFFFFFFFFFFFFFFFFFFFFFFFFFFFFF AND DUP2 MSTORE PUSH1 0x20 ADD SWAP1 DUP2 MSTORE PUSH1 0x20 ADD PUSH1 0x0 KECCAK256 PUSH1 0x0 DUP3 DUP3 SLOAD ADD SWAP3 POP POP DUP2 SWAP1 SSTORE POP DUP2 PUSH1 0x2 PUSH1 0x0 DUP4 DUP2 MSTORE PUSH1 0x20 ADD SWAP1 DUP2 MSTORE PUSH1 0x20 ADD PUSH1 0x0 KECCAK256 PUSH1 0x0 PUSH2 0x100 EXP DUP2 SLOAD DUP2 PUSH20 0xFFFFFFFFFFFFFFFFFFFFFFFFFFFFFFFFFFFFFFFF MUL NOT AND SWAP1 DUP4 PUSH20 0xFFFFFFFFFFFFFFFFFFFFFFFFFFFFFFFFFFFFFFFF AND MUL OR SWAP1 SSTORE POP DUP1 DUP3 PUSH20 0xFFFFFFFFFFFFFFFFFFFFFFFFFFFFFFFFFFFFFFFF AND PUSH1 0x0 PUSH20 0xFFFFFFFFFFFFFFFFFFFFFFFFFFFFFFFFFFFFFFFF AND PUSH32 0xDDF252AD1BE2C89B69C2B068FC378DAA952BA7F163C4A11628F55A4DF523B3EF PUSH1 0x40 MLOAD PUSH1 0x40 MLOAD DUP1 SWAP2 SUB SWAP1 LOG4 PUSH2 0x2B23 PUSH1 0x0 DUP4 DUP4 PUSH1 0x1 PUSH2 0x25AC JUMP JUMPDEST POP POP JUMP JUMPDEST PUSH1 0x0 PUSH1 0x40 MLOAD SWAP1 POP SWAP1 JUMP JUMPDEST PUSH1 0x0 DUP1 REVERT JUMPDEST PUSH1 0x0 DUP1 REVERT JUMPDEST PUSH1 0x0 PUSH32 0xFFFFFFFF00000000000000000000000000000000000000000000000000000000 DUP3 AND SWAP1 POP SWAP2 SWAP1 POP JUMP JUMPDEST PUSH2 0x2B70 DUP2 PUSH2 0x2B3B JUMP JUMPDEST DUP2 EQ PUSH2 0x2B7B JUMPI PUSH1 0x0 DUP1 REVERT JUMPDEST POP JUMP JUMPDEST PUSH1 0x0 DUP2 CALLDATALOAD SWAP1 POP PUSH2 0x2B8D DUP2 PUSH2 0x2B67 JUMP JUMPDEST SWAP3 SWAP2 POP POP JUMP JUMPDEST PUSH1 0x0 PUSH1 0x20 DUP3 DUP5 SUB SLT ISZERO PUSH2 0x2BA9 JUMPI PUSH2 0x2BA8 PUSH2 0x2B31 JUMP JUMPDEST JUMPDEST PUSH1 0x0 PUSH2 0x2BB7 DUP5 DUP3 DUP6 ADD PUSH2 0x2B7E JUMP JUMPDEST SWAP2 POP POP SWAP3 SWAP2 POP POP JUMP JUMPDEST PUSH1 0x0 DUP2 ISZERO ISZERO SWAP1 POP SWAP2 SWAP1 POP JUMP JUMPDEST PUSH2 0x2BD5 DUP2 PUSH2 0x2BC0 JUMP JUMPDEST DUP3 MSTORE POP POP JUMP JUMPDEST PUSH1 0x0 PUSH1 0x20 DUP3 ADD SWAP1 POP PUSH2 0x2BF0 PUSH1 0x0 DUP4 ADD DUP5 PUSH2 0x2BCC JUMP JUMPDEST SWAP3 SWAP2 POP POP JUMP JUMPDEST PUSH1 0x0 DUP2 MLOAD SWAP1 POP SWAP2 SWAP1 POP JUMP JUMPDEST PUSH1 0x0 DUP3 DUP3 MSTORE PUSH1 0x20 DUP3 ADD SWAP1 POP SWAP3 SWAP2 POP POP JUMP JUMPDEST PUSH1 0x0 JUMPDEST DUP4 DUP2 LT ISZERO PUSH2 0x2C30 JUMPI DUP1 DUP3 ADD MLOAD DUP2 DUP5 ADD MSTORE PUSH1 0x20 DUP2 ADD SWAP1 POP PUSH2 0x2C15 JUMP JUMPDEST PUSH1 0x0 DUP5 DUP5 ADD MSTORE POP POP POP POP JUMP JUMPDEST PUSH1 0x0 PUSH1 0x1F NOT PUSH1 0x1F DUP4 ADD AND SWAP1 POP SWAP2 SWAP1 POP JUMP JUMPDEST PUSH1 0x0 PUSH2 0x2C58 DUP3 PUSH2 0x2BF6 JUMP JUMPDEST PUSH2 0x2C62 DUP2 DUP6 PUSH2 0x2C01 JUMP JUMPDEST SWAP4 POP PUSH2 0x2C72 DUP2 DUP6 PUSH1 0x20 DUP7 ADD PUSH2 0x2C12 JUMP JUMPDEST PUSH2 0x2C7B DUP2 PUSH2 0x2C3C JUMP JUMPDEST DUP5 ADD SWAP2 POP POP SWAP3 SWAP2 POP POP JUMP JUMPDEST PUSH1 0x0 PUSH1 0x20 DUP3 ADD SWAP1 POP DUP2 DUP2 SUB PUSH1 0x0 DUP4 ADD MSTORE PUSH2 0x2CA0 DUP2 DUP5 PUSH2 0x2C4D JUMP JUMPDEST SWAP1 POP SWAP3 SWAP2 POP POP JUMP JUMPDEST PUSH1 0x0 DUP2 SWAP1 POP SWAP2 SWAP1 POP JUMP JUMPDEST PUSH2 0x2CBB DUP2 PUSH2 0x2CA8 JUMP JUMPDEST DUP2 EQ PUSH2 0x2CC6 JUMPI PUSH1 0x0 DUP1 REVERT JUMPDEST POP JUMP JUMPDEST PUSH1 0x0 DUP2 CALLDATALOAD SWAP1 POP PUSH2 0x2CD8 DUP2 PUSH2 0x2CB2 JUMP JUMPDEST SWAP3 SWAP2 POP POP JUMP JUMPDEST PUSH1 0x0 PUSH1 0x20 DUP3 DUP5 SUB SLT ISZERO PUSH2 0x2CF4 JUMPI PUSH2 0x2CF3 PUSH2 0x2B31 JUMP JUMPDEST JUMPDEST PUSH1 0x0 PUSH2 0x2D02 DUP5 DUP3 DUP6 ADD PUSH2 0x2CC9 JUMP JUMPDEST SWAP2 POP POP SWAP3 SWAP2 POP POP JUMP JUMPDEST PUSH1 0x0 PUSH20 0xFFFFFFFFFFFFFFFFFFFFFFFFFFFFFFFFFFFFFFFF DUP3 AND SWAP1 POP SWAP2 SWAP1 POP JUMP JUMPDEST PUSH1 0x0 PUSH2 0x2D36 DUP3 PUSH2 0x2D0B JUMP JUMPDEST SWAP1 POP SWAP2 SWAP1 POP JUMP JUMPDEST PUSH2 0x2D46 DUP2 PUSH2 0x2D2B JUMP JUMPDEST DUP3 MSTORE POP POP JUMP JUMPDEST PUSH1 0x0 PUSH1 0x20 DUP3 ADD SWAP1 POP PUSH2 0x2D61 PUSH1 0x0 DUP4 ADD DUP5 PUSH2 0x2D3D JUMP JUMPDEST SWAP3 SWAP2 POP POP JUMP JUMPDEST PUSH2 0x2D70 DUP2 PUSH2 0x2D2B JUMP JUMPDEST DUP2 EQ PUSH2 0x2D7B JUMPI PUSH1 0x0 DUP1 REVERT JUMPDEST POP JUMP JUMPDEST PUSH1 0x0 DUP2 CALLDATALOAD SWAP1 POP PUSH2 0x2D8D DUP2 PUSH2 0x2D67 JUMP JUMPDEST SWAP3 SWAP2 POP POP JUMP JUMPDEST PUSH1 0x0 DUP1 PUSH1 0x40 DUP4 DUP6 SUB SLT ISZERO PUSH2 0x2DAA JUMPI PUSH2 0x2DA9 PUSH2 0x2B31 JUMP JUMPDEST JUMPDEST PUSH1 0x0 PUSH2 0x2DB8 DUP6 DUP3 DUP7 ADD PUSH2 0x2D7E JUMP JUMPDEST SWAP3 POP POP PUSH1 0x20 PUSH2 0x2DC9 DUP6 DUP3 DUP7 ADD PUSH2 0x2CC9 JUMP JUMPDEST SWAP2 POP POP SWAP3 POP SWAP3 SWAP1 POP JUMP JUMPDEST PUSH1 0x0 DUP1 REVERT JUMPDEST PUSH1 0x0 DUP1 REVERT JUMPDEST PUSH1 0x0 DUP1 REVERT JUMPDEST PUSH1 0x0 DUP1 DUP4 PUSH1 0x1F DUP5 ADD SLT PUSH2 0x2DF8 JUMPI PUSH2 0x2DF7 PUSH2 0x2DD3 JUMP JUMPDEST JUMPDEST DUP3 CALLDATALOAD SWAP1 POP PUSH8 0xFFFFFFFFFFFFFFFF DUP2 GT ISZERO PUSH2 0x2E15 JUMPI PUSH2 0x2E14 PUSH2 0x2DD8 JUMP JUMPDEST JUMPDEST PUSH1 0x20 DUP4 ADD SWAP2 POP DUP4 PUSH1 0x1 DUP3 MUL DUP4 ADD GT ISZERO PUSH2 0x2E31 JUMPI PUSH2 0x2E30 PUSH2 0x2DDD JUMP JUMPDEST JUMPDEST SWAP3 POP SWAP3 SWAP1 POP JUMP JUMPDEST PUSH1 0x0 DUP1 PUSH1 0x20 DUP4 DUP6 SUB SLT ISZERO PUSH2 0x2E4F JUMPI PUSH2 0x2E4E PUSH2 0x2B31 JUMP JUMPDEST JUMPDEST PUSH1 0x0 DUP4 ADD CALLDATALOAD PUSH8 0xFFFFFFFFFFFFFFFF DUP2 GT ISZERO PUSH2 0x2E6D JUMPI PUSH2 0x2E6C PUSH2 0x2B36 JUMP JUMPDEST JUMPDEST PUSH2 0x2E79 DUP6 DUP3 DUP7 ADD PUSH2 0x2DE2 JUMP JUMPDEST SWAP3 POP SWAP3 POP POP SWAP3 POP SWAP3 SWAP1 POP JUMP JUMPDEST PUSH1 0x0 DUP1 PUSH1 0x0 PUSH1 0x60 DUP5 DUP7 SUB SLT ISZERO PUSH2 0x2E9E JUMPI PUSH2 0x2E9D PUSH2 0x2B31 JUMP JUMPDEST JUMPDEST PUSH1 0x0 PUSH2 0x2EAC DUP7 DUP3 DUP8 ADD PUSH2 0x2D7E JUMP JUMPDEST SWAP4 POP POP PUSH1 0x20 PUSH2 0x2EBD DUP7 DUP3 DUP8 ADD PUSH2 0x2D7E JUMP JUMPDEST SWAP3 POP POP PUSH1 0x40 PUSH2 0x2ECE DUP7 DUP3 DUP8 ADD PUSH2 0x2CC9 JUMP JUMPDEST SWAP2 POP POP SWAP3 POP SWAP3 POP SWAP3 JUMP JUMPDEST PUSH1 0x0 DUP1 REVERT JUMPDEST PUSH32 0x4E487B7100000000000000000000000000000000000000000000000000000000 PUSH1 0x0 MSTORE PUSH1 0x41 PUSH1 0x4 MSTORE PUSH1 0x24 PUSH1 0x0 REVERT JUMPDEST PUSH2 0x2F15 DUP3 PUSH2 0x2C3C JUMP JUMPDEST DUP2 ADD DUP2 DUP2 LT PUSH8 0xFFFFFFFFFFFFFFFF DUP3 GT OR ISZERO PUSH2 0x2F34 JUMPI PUSH2 0x2F33 PUSH2 0x2EDD JUMP JUMPDEST JUMPDEST DUP1 PUSH1 0x40 MSTORE POP POP POP JUMP JUMPDEST PUSH1 0x0 PUSH2 0x2F47 PUSH2 0x2B27 JUMP JUMPDEST SWAP1 POP PUSH2 0x2F53 DUP3 DUP3 PUSH2 0x2F0C JUMP JUMPDEST SWAP2 SWAP1 POP JUMP JUMPDEST PUSH1 0x0 PUSH8 0xFFFFFFFFFFFFFFFF DUP3 GT ISZERO PUSH2 0x2F73 JUMPI PUSH2 0x2F72 PUSH2 0x2EDD JUMP JUMPDEST JUMPDEST PUSH2 0x2F7C DUP3 PUSH2 0x2C3C JUMP JUMPDEST SWAP1 POP PUSH1 0x20 DUP2 ADD SWAP1 POP SWAP2 SWAP1 POP JUMP JUMPDEST DUP3 DUP2 DUP4 CALLDATACOPY PUSH1 0x0 DUP4 DUP4 ADD MSTORE POP POP POP JUMP JUMPDEST PUSH1 0x0 PUSH2 0x2FAB PUSH2 0x2FA6 DUP5 PUSH2 0x2F58 JUMP JUMPDEST PUSH2 0x2F3D JUMP JUMPDEST SWAP1 POP DUP3 DUP2 MSTORE PUSH1 0x20 DUP2 ADD DUP5 DUP5 DUP5 ADD GT ISZERO PUSH2 0x2FC7 JUMPI PUSH2 0x2FC6 PUSH2 0x2ED8 JUMP JUMPDEST JUMPDEST PUSH2 0x2FD2 DUP5 DUP3 DUP6 PUSH2 0x2F89 JUMP JUMPDEST POP SWAP4 SWAP3 POP POP POP JUMP JUMPDEST PUSH1 0x0 DUP3 PUSH1 0x1F DUP4 ADD SLT PUSH2 0x2FEF JUMPI PUSH2 0x2FEE PUSH2 0x2DD3 JUMP JUMPDEST JUMPDEST DUP2 CALLDATALOAD PUSH2 0x2FFF DUP5 DUP3 PUSH1 0x20 DUP7 ADD PUSH2 0x2F98 JUMP JUMPDEST SWAP2 POP POP SWAP3 SWAP2 POP POP JUMP JUMPDEST PUSH1 0x0 PUSH1 0x20 DUP3 DUP5 SUB SLT ISZERO PUSH2 0x301E JUMPI PUSH2 0x301D PUSH2 0x2B31 JUMP JUMPDEST JUMPDEST PUSH1 0x0 DUP3 ADD CALLDATALOAD PUSH8 0xFFFFFFFFFFFFFFFF DUP2 GT ISZERO PUSH2 0x303C JUMPI PUSH2 0x303B PUSH2 0x2B36 JUMP JUMPDEST JUMPDEST PUSH2 0x3048 DUP5 DUP3 DUP6 ADD PUSH2 0x2FDA JUMP JUMPDEST SWAP2 POP POP SWAP3 SWAP2 POP POP JUMP JUMPDEST PUSH1 0x0 PUSH1 0x20 DUP3 DUP5 SUB SLT ISZERO PUSH2 0x3067 JUMPI PUSH2 0x3066 PUSH2 0x2B31 JUMP JUMPDEST JUMPDEST PUSH1 0x0 PUSH2 0x3075 DUP5 DUP3 DUP6 ADD PUSH2 0x2D7E JUMP JUMPDEST SWAP2 POP POP SWAP3 SWAP2 POP POP JUMP JUMPDEST PUSH2 0x3087 DUP2 PUSH2 0x2CA8 JUMP JUMPDEST DUP3 MSTORE POP POP JUMP JUMPDEST PUSH1 0x0 PUSH1 0x20 DUP3 ADD SWAP1 POP PUSH2 0x30A2 PUSH1 0x0 DUP4 ADD DUP5 PUSH2 0x307E JUMP JUMPDEST SWAP3 SWAP2 POP POP JUMP JUMPDEST PUSH1 0x0 PUSH2 0x30B3 DUP3 PUSH2 0x2D0B JUMP JUMPDEST SWAP1 POP SWAP2 SWAP1 POP JUMP JUMPDEST PUSH2 0x30C3 DUP2 PUSH2 0x30A8 JUMP JUMPDEST DUP3 MSTORE POP POP JUMP JUMPDEST PUSH1 0x0 PUSH1 0x20 DUP3 ADD SWAP1 POP PUSH2 0x30DE PUSH1 0x0 DUP4 ADD DUP5 PUSH2 0x30BA JUMP JUMPDEST SWAP3 SWAP2 POP POP JUMP JUMPDEST PUSH2 0x30ED DUP2 PUSH2 0x2BC0 JUMP JUMPDEST DUP2 EQ PUSH2 0x30F8 JUMPI PUSH1 0x0 DUP1 REVERT JUMPDEST POP JUMP JUMPDEST PUSH1 0x0 DUP2 CALLDATALOAD SWAP1 POP PUSH2 0x310A DUP2 PUSH2 0x30E4 JUMP JUMPDEST SWAP3 SWAP2 POP POP JUMP JUMPDEST PUSH1 0x0 DUP1 PUSH1 0x40 DUP4 DUP6 SUB SLT ISZERO PUSH2 0x3127 JUMPI PUSH2 0x3126 PUSH2 0x2B31 JUMP JUMPDEST JUMPDEST PUSH1 0x0 PUSH2 0x3135 DUP6 DUP3 DUP7 ADD PUSH2 0x2D7E JUMP JUMPDEST SWAP3 POP POP PUSH1 0x20 PUSH2 0x3146 DUP6 DUP3 DUP7 ADD PUSH2 0x30FB JUMP JUMPDEST SWAP2 POP POP SWAP3 POP SWAP3 SWAP1 POP JUMP JUMPDEST PUSH1 0x0 PUSH8 0xFFFFFFFFFFFFFFFF DUP3 GT ISZERO PUSH2 0x316B JUMPI PUSH2 0x316A PUSH2 0x2EDD JUMP JUMPDEST JUMPDEST PUSH2 0x3174 DUP3 PUSH2 0x2C3C JUMP JUMPDEST SWAP1 POP PUSH1 0x20 DUP2 ADD SWAP1 POP SWAP2 SWAP1 POP JUMP JUMPDEST PUSH1 0x0 PUSH2 0x3194 PUSH2 0x318F DUP5 PUSH2 0x3150 JUMP JUMPDEST PUSH2 0x2F3D JUMP JUMPDEST SWAP1 POP DUP3 DUP2 MSTORE PUSH1 0x20 DUP2 ADD DUP5 DUP5 DUP5 ADD GT ISZERO PUSH2 0x31B0 JUMPI PUSH2 0x31AF PUSH2 0x2ED8 JUMP JUMPDEST JUMPDEST PUSH2 0x31BB DUP5 DUP3 DUP6 PUSH2 0x2F89 JUMP JUMPDEST POP SWAP4 SWAP3 POP POP POP JUMP JUMPDEST PUSH1 0x0 DUP3 PUSH1 0x1F DUP4 ADD SLT PUSH2 0x31D8 JUMPI PUSH2 0x31D7 PUSH2 0x2DD3 JUMP JUMPDEST JUMPDEST DUP2 CALLDATALOAD PUSH2 0x31E8 DUP5 DUP3 PUSH1 0x20 DUP7 ADD PUSH2 0x3181 JUMP JUMPDEST SWAP2 POP POP SWAP3 SWAP2 POP POP JUMP JUMPDEST PUSH1 0x0 DUP1 PUSH1 0x0 DUP1 PUSH1 0x80 DUP6 DUP8 SUB SLT ISZERO PUSH2 0x320B JUMPI PUSH2 0x320A PUSH2 0x2B31 JUMP JUMPDEST JUMPDEST PUSH1 0x0 PUSH2 0x3219 DUP8 DUP3 DUP9 ADD PUSH2 0x2D7E JUMP JUMPDEST SWAP5 POP POP PUSH1 0x20 PUSH2 0x322A DUP8 DUP3 DUP9 ADD PUSH2 0x2D7E JUMP JUMPDEST SWAP4 POP POP PUSH1 0x40 PUSH2 0x323B DUP8 DUP3 DUP9 ADD PUSH2 0x2CC9 JUMP JUMPDEST SWAP3 POP POP PUSH1 0x60 DUP6 ADD CALLDATALOAD PUSH8 0xFFFFFFFFFFFFFFFF DUP2 GT ISZERO PUSH2 0x325C JUMPI PUSH2 0x325B PUSH2 0x2B36 JUMP JUMPDEST JUMPDEST PUSH2 0x3268 DUP8 DUP3 DUP9 ADD PUSH2 0x31C3 JUMP JUMPDEST SWAP2 POP POP SWAP3 SWAP6 SWAP2 SWAP5 POP SWAP3 POP JUMP JUMPDEST PUSH1 0x0 DUP1 PUSH1 0x0 DUP1 PUSH1 0x40 DUP6 DUP8 SUB SLT ISZERO PUSH2 0x328E JUMPI PUSH2 0x328D PUSH2 0x2B31 JUMP JUMPDEST JUMPDEST PUSH1 0x0 DUP6 ADD CALLDATALOAD PUSH8 0xFFFFFFFFFFFFFFFF DUP2 GT ISZERO PUSH2 0x32AC JUMPI PUSH2 0x32AB PUSH2 0x2B36 JUMP JUMPDEST JUMPDEST PUSH2 0x32B8 DUP8 DUP3 DUP9 ADD PUSH2 0x2DE2 JUMP JUMPDEST SWAP5 POP SWAP5 POP POP PUSH1 0x20 DUP6 ADD CALLDATALOAD PUSH8 0xFFFFFFFFFFFFFFFF DUP2 GT ISZERO PUSH2 0x32DB JUMPI PUSH2 0x32DA PUSH2 0x2B36 JUMP JUMPDEST JUMPDEST PUSH2 0x32E7 DUP8 DUP3 DUP9 ADD PUSH2 0x2DE2 JUMP JUMPDEST SWAP3 POP SWAP3 POP POP SWAP3 SWAP6 SWAP2 SWAP5 POP SWAP3 POP JUMP JUMPDEST PUSH1 0x0 DUP1 PUSH1 0x40 DUP4 DUP6 SUB SLT ISZERO PUSH2 0x330C JUMPI PUSH2 0x330B PUSH2 0x2B31 JUMP JUMPDEST JUMPDEST PUSH1 0x0 PUSH2 0x331A DUP6 DUP3 DUP7 ADD PUSH2 0x2D7E JUMP JUMPDEST SWAP3 POP POP PUSH1 0x20 PUSH2 0x332B DUP6 DUP3 DUP7 ADD PUSH2 0x2D7E JUMP JUMPDEST SWAP2 POP POP SWAP3 POP SWAP3 SWAP1 POP JUMP JUMPDEST PUSH32 0x4E487B7100000000000000000000000000000000000000000000000000000000 PUSH1 0x0 MSTORE PUSH1 0x22 PUSH1 0x4 MSTORE PUSH1 0x24 PUSH1 0x0 REVERT JUMPDEST PUSH1 0x0 PUSH1 0x2 DUP3 DIV SWAP1 POP PUSH1 0x1 DUP3 AND DUP1 PUSH2 0x337C JUMPI PUSH1 0x7F DUP3 AND SWAP2 POP JUMPDEST PUSH1 0x20 DUP3 LT DUP2 SUB PUSH2 0x338F JUMPI PUSH2 0x338E PUSH2 0x3335 JUMP JUMPDEST JUMPDEST POP SWAP2 SWAP1 POP JUMP JUMPDEST PUSH32 0x4552433732313A20617070726F76616C20746F2063757272656E74206F776E65 PUSH1 0x0 DUP3 ADD MSTORE PUSH32 0x7200000000000000000000000000000000000000000000000000000000000000 PUSH1 0x20 DUP3 ADD MSTORE POP JUMP JUMPDEST PUSH1 0x0 PUSH2 0x33F1 PUSH1 0x21 DUP4 PUSH2 0x2C01 JUMP JUMPDEST SWAP2 POP PUSH2 0x33FC DUP3 PUSH2 0x3395 JUMP JUMPDEST PUSH1 0x40 DUP3 ADD SWAP1 POP SWAP2 SWAP1 POP JUMP JUMPDEST PUSH1 0x0 PUSH1 0x20 DUP3 ADD SWAP1 POP DUP2 DUP2 SUB PUSH1 0x0 DUP4 ADD MSTORE PUSH2 0x3420 DUP2 PUSH2 0x33E4 JUMP JUMPDEST SWAP1 POP SWAP2 SWAP1 POP JUMP JUMPDEST PUSH32 0x4552433732313A20617070726F76652063616C6C6572206973206E6F7420746F PUSH1 0x0 DUP3 ADD MSTORE PUSH32 0x6B656E206F776E6572206F7220617070726F76656420666F7220616C6C000000 PUSH1 0x20 DUP3 ADD MSTORE POP JUMP JUMPDEST PUSH1 0x0 PUSH2 0x3483 PUSH1 0x3D DUP4 PUSH2 0x2C01 JUMP JUMPDEST SWAP2 POP PUSH2 0x348E DUP3 PUSH2 0x3427 JUMP JUMPDEST PUSH1 0x40 DUP3 ADD SWAP1 POP SWAP2 SWAP1 POP JUMP JUMPDEST PUSH1 0x0 PUSH1 0x20 DUP3 ADD SWAP1 POP DUP2 DUP2 SUB PUSH1 0x0 DUP4 ADD MSTORE PUSH2 0x34B2 DUP2 PUSH2 0x3476 JUMP JUMPDEST SWAP1 POP SWAP2 SWAP1 POP JUMP JUMPDEST PUSH1 0x0 DUP2 SWAP1 POP SWAP3 SWAP2 POP POP JUMP JUMPDEST PUSH1 0x0 PUSH2 0x34D0 DUP4 DUP6 PUSH2 0x34B9 JUMP JUMPDEST SWAP4 POP PUSH2 0x34DD DUP4 DUP6 DUP5 PUSH2 0x2F89 JUMP JUMPDEST DUP3 DUP5 ADD SWAP1 POP SWAP4 SWAP3 POP POP POP JUMP JUMPDEST PUSH1 0x0 PUSH2 0x34F6 DUP3 DUP5 DUP7 PUSH2 0x34C4 JUMP JUMPDEST SWAP2 POP DUP2 SWAP1 POP SWAP4 SWAP3 POP POP POP JUMP JUMPDEST PUSH32 0x4552433732313A2063616C6C6572206973206E6F7420746F6B656E206F776E65 PUSH1 0x0 DUP3 ADD MSTORE PUSH32 0x72206F7220617070726F76656400000000000000000000000000000000000000 PUSH1 0x20 DUP3 ADD MSTORE POP JUMP JUMPDEST PUSH1 0x0 PUSH2 0x355E PUSH1 0x2D DUP4 PUSH2 0x2C01 JUMP JUMPDEST SWAP2 POP PUSH2 0x3569 DUP3 PUSH2 0x3502 JUMP JUMPDEST PUSH1 0x40 DUP3 ADD SWAP1 POP SWAP2 SWAP1 POP JUMP JUMPDEST PUSH1 0x0 PUSH1 0x20 DUP3 ADD SWAP1 POP DUP2 DUP2 SUB PUSH1 0x0 DUP4 ADD MSTORE PUSH2 0x358D DUP2 PUSH2 0x3551 JUMP JUMPDEST SWAP1 POP SWAP2 SWAP1 POP JUMP JUMPDEST PUSH1 0x0 DUP2 SWAP1 POP SWAP3 SWAP2 POP POP JUMP JUMPDEST POP JUMP JUMPDEST PUSH1 0x0 PUSH2 0x35AF PUSH1 0x0 DUP4 PUSH2 0x3594 JUMP JUMPDEST SWAP2 POP PUSH2 0x35BA DUP3 PUSH2 0x359F JUMP JUMPDEST PUSH1 0x0 DUP3 ADD SWAP1 POP SWAP2 SWAP1 POP JUMP JUMPDEST PUSH1 0x0 PUSH2 0x35D0 DUP3 PUSH2 0x35A2 JUMP JUMPDEST SWAP2 POP DUP2 SWAP1 POP SWAP2 SWAP1 POP JUMP JUMPDEST PUSH32 0x4661696C656420746F207769746864726177204D617469630000000000000000 PUSH1 0x0 DUP3 ADD MSTORE POP JUMP JUMPDEST PUSH1 0x0 PUSH2 0x3610 PUSH1 0x18 DUP4 PUSH2 0x2C01 JUMP JUMPDEST SWAP2 POP PUSH2 0x361B DUP3 PUSH2 0x35DA JUMP JUMPDEST PUSH1 0x20 DUP3 ADD SWAP1 POP SWAP2 SWAP1 POP JUMP JUMPDEST PUSH1 0x0 PUSH1 0x20 DUP3 ADD SWAP1 POP DUP2 DUP2 SUB PUSH1 0x0 DUP4 ADD MSTORE PUSH2 0x363F DUP2 PUSH2 0x3603 JUMP JUMPDEST SWAP1 POP SWAP2 SWAP1 POP JUMP JUMPDEST PUSH32 0x4552433732313A20696E76616C696420746F6B656E2049440000000000000000 PUSH1 0x0 DUP3 ADD MSTORE POP JUMP JUMPDEST PUSH1 0x0 PUSH2 0x367C PUSH1 0x18 DUP4 PUSH2 0x2C01 JUMP JUMPDEST SWAP2 POP PUSH2 0x3687 DUP3 PUSH2 0x3646 JUMP JUMPDEST PUSH1 0x20 DUP3 ADD SWAP1 POP SWAP2 SWAP1 POP JUMP JUMPDEST PUSH1 0x0 PUSH1 0x20 DUP3 ADD SWAP1 POP DUP2 DUP2 SUB PUSH1 0x0 DUP4 ADD MSTORE PUSH2 0x36AB DUP2 PUSH2 0x366F JUMP JUMPDEST SWAP1 POP SWAP2 SWAP1 POP JUMP JUMPDEST PUSH32 0x4552433732313A2061646472657373207A65726F206973206E6F742061207661 PUSH1 0x0 DUP3 ADD MSTORE PUSH32 0x6C6964206F776E65720000000000000000000000000000000000000000000000 PUSH1 0x20 DUP3 ADD MSTORE POP JUMP JUMPDEST PUSH1 0x0 PUSH2 0x370E PUSH1 0x29 DUP4 PUSH2 0x2C01 JUMP JUMPDEST SWAP2 POP PUSH2 0x3719 DUP3 PUSH2 0x36B2 JUMP JUMPDEST PUSH1 0x40 DUP3 ADD SWAP1 POP SWAP2 SWAP1 POP JUMP JUMPDEST PUSH1 0x0 PUSH1 0x20 DUP3 ADD SWAP1 POP DUP2 DUP2 SUB PUSH1 0x0 DUP4 ADD MSTORE PUSH2 0x373D DUP2 PUSH2 0x3701 JUMP JUMPDEST SWAP1 POP SWAP2 SWAP1 POP JUMP JUMPDEST PUSH1 0x0 DUP3 SWAP1 POP SWAP3 SWAP2 POP POP JUMP JUMPDEST PUSH1 0x0 DUP2 SWAP1 POP DUP2 PUSH1 0x0 MSTORE PUSH1 0x20 PUSH1 0x0 KECCAK256 SWAP1 POP SWAP2 SWAP1 POP JUMP JUMPDEST PUSH1 0x0 PUSH1 0x20 PUSH1 0x1F DUP4 ADD DIV SWAP1 POP SWAP2 SWAP1 POP JUMP JUMPDEST PUSH1 0x0 DUP3 DUP3 SHL SWAP1 POP SWAP3 SWAP2 POP POP JUMP JUMPDEST PUSH1 0x0 PUSH1 0x8 DUP4 MUL PUSH2 0x37B1 PUSH32 0xFFFFFFFFFFFFFFFFFFFFFFFFFFFFFFFFFFFFFFFFFFFFFFFFFFFFFFFFFFFFFFFF DUP3 PUSH2 0x3774 JUMP JUMPDEST PUSH2 0x37BB DUP7 DUP4 PUSH2 0x3774 JUMP JUMPDEST SWAP6 POP DUP1 NOT DUP5 AND SWAP4 POP DUP1 DUP7 AND DUP5 OR SWAP3 POP POP POP SWAP4 SWAP3 POP POP POP JUMP JUMPDEST PUSH1 0x0 DUP2 SWAP1 POP SWAP2 SWAP1 POP JUMP JUMPDEST PUSH1 0x0 PUSH2 0x37F8 PUSH2 0x37F3 PUSH2 0x37EE DUP5 PUSH2 0x2CA8 JUMP JUMPDEST PUSH2 0x37D3 JUMP JUMPDEST PUSH2 0x2CA8 JUMP JUMPDEST SWAP1 POP SWAP2 SWAP1 POP JUMP JUMPDEST PUSH1 0x0 DUP2 SWAP1 POP SWAP2 SWAP1 POP JUMP JUMPDEST PUSH2 0x3812 DUP4 PUSH2 0x37DD JUMP JUMPDEST PUSH2 0x3826 PUSH2 0x381E DUP3 PUSH2 0x37FF JUMP JUMPDEST DUP5 DUP5 SLOAD PUSH2 0x3781 JUMP JUMPDEST DUP3 SSTORE POP POP POP POP JUMP JUMPDEST PUSH1 0x0 SWAP1 JUMP JUMPDEST PUSH2 0x383B PUSH2 0x382E JUMP JUMPDEST PUSH2 0x3846 DUP2 DUP5 DUP5 PUSH2 0x3809 JUMP JUMPDEST POP POP POP JUMP JUMPDEST JUMPDEST DUP2 DUP2 LT ISZERO PUSH2 0x386A JUMPI PUSH2 0x385F PUSH1 0x0 DUP3 PUSH2 0x3833 JUMP JUMPDEST PUSH1 0x1 DUP2 ADD SWAP1 POP PUSH2 0x384C JUMP JUMPDEST POP POP JUMP JUMPDEST PUSH1 0x1F DUP3 GT ISZERO PUSH2 0x38AF JUMPI PUSH2 0x3880 DUP2 PUSH2 0x374F JUMP JUMPDEST PUSH2 0x3889 DUP5 PUSH2 0x3764 JUMP JUMPDEST DUP2 ADD PUSH1 0x20 DUP6 LT ISZERO PUSH2 0x3898 JUMPI DUP2 SWAP1 POP JUMPDEST PUSH2 0x38AC PUSH2 0x38A4 DUP6 PUSH2 0x3764 JUMP JUMPDEST DUP4 ADD DUP3 PUSH2 0x384B JUMP JUMPDEST POP POP JUMPDEST POP POP POP JUMP JUMPDEST PUSH1 0x0 DUP3 DUP3 SHR SWAP1 POP SWAP3 SWAP2 POP POP JUMP JUMPDEST PUSH1 0x0 PUSH2 0x38D2 PUSH1 0x0 NOT DUP5 PUSH1 0x8 MUL PUSH2 0x38B4 JUMP JUMPDEST NOT DUP1 DUP4 AND SWAP2 POP POP SWAP3 SWAP2 POP POP JUMP JUMPDEST PUSH1 0x0 PUSH2 0x38EB DUP4 DUP4 PUSH2 0x38C1 JUMP JUMPDEST SWAP2 POP DUP3 PUSH1 0x2 MUL DUP3 OR SWAP1 POP SWAP3 SWAP2 POP POP JUMP JUMPDEST PUSH2 0x3905 DUP4 DUP4 PUSH2 0x3744 JUMP JUMPDEST PUSH8 0xFFFFFFFFFFFFFFFF DUP2 GT ISZERO PUSH2 0x391E JUMPI PUSH2 0x391D PUSH2 0x2EDD JUMP JUMPDEST JUMPDEST PUSH2 0x3928 DUP3 SLOAD PUSH2 0x3364 JUMP JUMPDEST PUSH2 0x3933 DUP3 DUP3 DUP6 PUSH2 0x386E JUMP JUMPDEST PUSH1 0x0 PUSH1 0x1F DUP4 GT PUSH1 0x1 DUP2 EQ PUSH2 0x3962 JUMPI PUSH1 0x0 DUP5 ISZERO PUSH2 0x3950 JUMPI DUP3 DUP8 ADD CALLDATALOAD SWAP1 POP JUMPDEST PUSH2 0x395A DUP6 DUP3 PUSH2 0x38DF JUMP JUMPDEST DUP7 SSTORE POP PUSH2 0x39C2 JUMP JUMPDEST PUSH1 0x1F NOT DUP5 AND PUSH2 0x3970 DUP7 PUSH2 0x374F JUMP JUMPDEST PUSH1 0x0 JUMPDEST DUP3 DUP2 LT ISZERO PUSH2 0x3998 JUMPI DUP5 DUP10 ADD CALLDATALOAD DUP3 SSTORE PUSH1 0x1 DUP3 ADD SWAP2 POP PUSH1 0x20 DUP6 ADD SWAP5 POP PUSH1 0x20 DUP2 ADD SWAP1 POP PUSH2 0x3973 JUMP JUMPDEST DUP7 DUP4 LT ISZERO PUSH2 0x39B5 JUMPI DUP5 DUP10 ADD CALLDATALOAD PUSH2 0x39B1 PUSH1 0x1F DUP10 AND DUP3 PUSH2 0x38C1 JUMP JUMPDEST DUP4 SSTORE POP JUMPDEST PUSH1 0x1 PUSH1 0x2 DUP9 MUL ADD DUP9 SSTORE POP POP POP JUMPDEST POP POP POP POP POP POP POP JUMP JUMPDEST PUSH1 0x0 PUSH2 0x39D6 DUP3 PUSH2 0x2BF6 JUMP JUMPDEST PUSH2 0x39E0 DUP2 DUP6 PUSH2 0x34B9 JUMP JUMPDEST SWAP4 POP PUSH2 0x39F0 DUP2 DUP6 PUSH1 0x20 DUP7 ADD PUSH2 0x2C12 JUMP JUMPDEST DUP1 DUP5 ADD SWAP2 POP POP SWAP3 SWAP2 POP POP JUMP JUMPDEST PUSH1 0x0 PUSH2 0x3A08 DUP3 DUP6 PUSH2 0x39CB JUMP JUMPDEST SWAP2 POP PUSH2 0x3A14 DUP3 DUP5 PUSH2 0x39CB JUMP JUMPDEST SWAP2 POP DUP2 SWAP1 POP SWAP4 SWAP3 POP POP POP JUMP JUMPDEST PUSH32 0x4E6F7420656E6F756768204D6174696320706169640000000000000000000000 PUSH1 0x0 DUP3 ADD MSTORE POP JUMP JUMPDEST PUSH1 0x0 PUSH2 0x3A56 PUSH1 0x15 DUP4 PUSH2 0x2C01 JUMP JUMPDEST SWAP2 POP PUSH2 0x3A61 DUP3 PUSH2 0x3A20 JUMP JUMPDEST PUSH1 0x20 DUP3 ADD SWAP1 POP SWAP2 SWAP1 POP JUMP JUMPDEST PUSH1 0x0 PUSH1 0x20 DUP3 ADD SWAP1 POP DUP2 DUP2 SUB PUSH1 0x0 DUP4 ADD MSTORE PUSH2 0x3A85 DUP2 PUSH2 0x3A49 JUMP JUMPDEST SWAP1 POP SWAP2 SWAP1 POP JUMP JUMPDEST PUSH32 0x2E00000000000000000000000000000000000000000000000000000000000000 PUSH1 0x0 DUP3 ADD MSTORE POP JUMP JUMPDEST PUSH1 0x0 PUSH2 0x3AC2 PUSH1 0x1 DUP4 PUSH2 0x34B9 JUMP JUMPDEST SWAP2 POP PUSH2 0x3ACD DUP3 PUSH2 0x3A8C JUMP JUMPDEST PUSH1 0x1 DUP3 ADD SWAP1 POP SWAP2 SWAP1 POP JUMP JUMPDEST PUSH1 0x0 DUP2 SLOAD PUSH2 0x3AE5 DUP2 PUSH2 0x3364 JUMP JUMPDEST PUSH2 0x3AEF DUP2 DUP7 PUSH2 0x34B9 JUMP JUMPDEST SWAP5 POP PUSH1 0x1 DUP3 AND PUSH1 0x0 DUP2 EQ PUSH2 0x3B0A JUMPI PUSH1 0x1 DUP2 EQ PUSH2 0x3B1F JUMPI PUSH2 0x3B52 JUMP JUMPDEST PUSH1 0xFF NOT DUP4 AND DUP7 MSTORE DUP2 ISZERO ISZERO DUP3 MUL DUP7 ADD SWAP4 POP PUSH2 0x3B52 JUMP JUMPDEST PUSH2 0x3B28 DUP6 PUSH2 0x374F JUMP JUMPDEST PUSH1 0x0 JUMPDEST DUP4 DUP2 LT ISZERO PUSH2 0x3B4A JUMPI DUP2 SLOAD DUP2 DUP10 ADD MSTORE PUSH1 0x1 DUP3 ADD SWAP2 POP PUSH1 0x20 DUP2 ADD SWAP1 POP PUSH2 0x3B2B JUMP JUMPDEST DUP4 DUP9 ADD SWAP6 POP POP POP JUMPDEST POP POP POP SWAP3 SWAP2 POP POP JUMP JUMPDEST PUSH1 0x0 PUSH2 0x3B68 DUP3 DUP6 DUP8 PUSH2 0x34C4 JUMP JUMPDEST SWAP2 POP PUSH2 0x3B73 DUP3 PUSH2 0x3AB5 JUMP JUMPDEST SWAP2 POP PUSH2 0x3B7F DUP3 DUP5 PUSH2 0x3AD8 JUMP JUMPDEST SWAP2 POP DUP2 SWAP1 POP SWAP5 SWAP4 POP POP POP POP JUMP JUMPDEST PUSH1 0x0 PUSH2 0x3B98 DUP3 DUP7 PUSH2 0x3AD8 JUMP JUMPDEST SWAP2 POP PUSH2 0x3BA4 DUP3 DUP6 PUSH2 0x39CB JUMP JUMPDEST SWAP2 POP PUSH2 0x3BB0 DUP3 DUP5 PUSH2 0x3AD8 JUMP JUMPDEST SWAP2 POP DUP2 SWAP1 POP SWAP5 SWAP4 POP POP POP POP JUMP JUMPDEST PUSH32 0x7B226E616D65223A202200000000000000000000000000000000000000000000 PUSH1 0x0 DUP3 ADD MSTORE POP JUMP JUMPDEST PUSH1 0x0 PUSH2 0x3BF3 PUSH1 0xA DUP4 PUSH2 0x34B9 JUMP JUMPDEST SWAP2 POP PUSH2 0x3BFE DUP3 PUSH2 0x3BBD JUMP JUMPDEST PUSH1 0xA DUP3 ADD SWAP1 POP SWAP2 SWAP1 POP JUMP JUMPDEST PUSH32 0x222C20226465736372697074696F6E223A20224120646F6D61696E206F6E2074 PUSH1 0x0 DUP3 ADD MSTORE PUSH32 0x6865204E696E6A61206E616D652073657276696365222C2022696D616765223A PUSH1 0x20 DUP3 ADD MSTORE PUSH32 0x2022646174613A696D6167652F7376672B786D6C3B6261736536342C00000000 PUSH1 0x40 DUP3 ADD MSTORE POP JUMP JUMPDEST PUSH1 0x0 PUSH2 0x3C8B PUSH1 0x5C DUP4 PUSH2 0x34B9 JUMP JUMPDEST SWAP2 POP PUSH2 0x3C96 DUP3 PUSH2 0x3C09 JUMP JUMPDEST PUSH1 0x5C DUP3 ADD SWAP1 POP SWAP2 SWAP1 POP JUMP JUMPDEST PUSH32 0x222C226C656E677468223A220000000000000000000000000000000000000000 PUSH1 0x0 DUP3 ADD MSTORE POP JUMP JUMPDEST PUSH1 0x0 PUSH2 0x3CD7 PUSH1 0xC DUP4 PUSH2 0x34B9 JUMP JUMPDEST SWAP2 POP PUSH2 0x3CE2 DUP3 PUSH2 0x3CA1 JUMP JUMPDEST PUSH1 0xC DUP3 ADD SWAP1 POP SWAP2 SWAP1 POP JUMP JUMPDEST PUSH32 0x227D000000000000000000000000000000000000000000000000000000000000 PUSH1 0x0 DUP3 ADD MSTORE POP JUMP JUMPDEST PUSH1 0x0 PUSH2 0x3D23 PUSH1 0x2 DUP4 PUSH2 0x34B9 JUMP JUMPDEST SWAP2 POP PUSH2 0x3D2E DUP3 PUSH2 0x3CED JUMP JUMPDEST PUSH1 0x2 DUP3 ADD SWAP1 POP SWAP2 SWAP1 POP JUMP JUMPDEST PUSH1 0x0 PUSH2 0x3D44 DUP3 PUSH2 0x3BE6 JUMP JUMPDEST SWAP2 POP PUSH2 0x3D50 DUP3 DUP7 PUSH2 0x39CB JUMP JUMPDEST SWAP2 POP PUSH2 0x3D5B DUP3 PUSH2 0x3C7E JUMP JUMPDEST SWAP2 POP PUSH2 0x3D67 DUP3 DUP6 PUSH2 0x39CB JUMP JUMPDEST SWAP2 POP PUSH2 0x3D72 DUP3 PUSH2 0x3CCA JUMP JUMPDEST SWAP2 POP PUSH2 0x3D7E DUP3 DUP5 PUSH2 0x39CB JUMP JUMPDEST SWAP2 POP PUSH2 0x3D89 DUP3 PUSH2 0x3D16 JUMP JUMPDEST SWAP2 POP DUP2 SWAP1 POP SWAP5 SWAP4 POP POP POP POP JUMP JUMPDEST PUSH32 0x646174613A6170706C69636174696F6E2F6A736F6E3B6261736536342C000000 PUSH1 0x0 DUP3 ADD MSTORE POP JUMP JUMPDEST PUSH1 0x0 PUSH2 0x3DCC PUSH1 0x1D DUP4 PUSH2 0x34B9 JUMP JUMPDEST SWAP2 POP PUSH2 0x3DD7 DUP3 PUSH2 0x3D96 JUMP JUMPDEST PUSH1 0x1D DUP3 ADD SWAP1 POP SWAP2 SWAP1 POP JUMP JUMPDEST PUSH1 0x0 PUSH2 0x3DED DUP3 PUSH2 0x3DBF JUMP JUMPDEST SWAP2 POP PUSH2 0x3DF9 DUP3 DUP5 PUSH2 0x39CB JUMP JUMPDEST SWAP2 POP DUP2 SWAP1 POP SWAP3 SWAP2 POP POP JUMP JUMPDEST PUSH1 0x0 PUSH1 0x40 DUP3 ADD SWAP1 POP DUP2 DUP2 SUB PUSH1 0x0 DUP4 ADD MSTORE PUSH2 0x3E1E DUP2 DUP6 PUSH2 0x2C4D JUMP JUMPDEST SWAP1 POP DUP2 DUP2 SUB PUSH1 0x20 DUP4 ADD MSTORE PUSH2 0x3E32 DUP2 DUP5 PUSH2 0x2C4D JUMP JUMPDEST SWAP1 POP SWAP4 SWAP3 POP POP POP JUMP JUMPDEST PUSH32 0x4552433732313A207472616E736665722066726F6D20696E636F727265637420 PUSH1 0x0 DUP3 ADD MSTORE PUSH32 0x6F776E6572000000000000000000000000000000000000000000000000000000 PUSH1 0x20 DUP3 ADD MSTORE POP JUMP JUMPDEST PUSH1 0x0 PUSH2 0x3E97 PUSH1 0x25 DUP4 PUSH2 0x2C01 JUMP JUMPDEST SWAP2 POP PUSH2 0x3EA2 DUP3 PUSH2 0x3E3B JUMP JUMPDEST PUSH1 0x40 DUP3 ADD SWAP1 POP SWAP2 SWAP1 POP JUMP JUMPDEST PUSH1 0x0 PUSH1 0x20 DUP3 ADD SWAP1 POP DUP2 DUP2 SUB PUSH1 0x0 DUP4 ADD MSTORE PUSH2 0x3EC6 DUP2 PUSH2 0x3E8A JUMP JUMPDEST SWAP1 POP SWAP2 SWAP1 POP JUMP JUMPDEST PUSH32 0x4552433732313A207472616E7366657220746F20746865207A65726F20616464 PUSH1 0x0 DUP3 ADD MSTORE PUSH32 0x7265737300000000000000000000000000000000000000000000000000000000 PUSH1 0x20 DUP3 ADD MSTORE POP JUMP JUMPDEST PUSH1 0x0 PUSH2 0x3F29 PUSH1 0x24 DUP4 PUSH2 0x2C01 JUMP JUMPDEST SWAP2 POP PUSH2 0x3F34 DUP3 PUSH2 0x3ECD JUMP JUMPDEST PUSH1 0x40 DUP3 ADD SWAP1 POP SWAP2 SWAP1 POP JUMP JUMPDEST PUSH1 0x0 PUSH1 0x20 DUP3 ADD SWAP1 POP DUP2 DUP2 SUB PUSH1 0x0 DUP4 ADD MSTORE PUSH2 0x3F58 DUP2 PUSH2 0x3F1C JUMP JUMPDEST SWAP1 POP SWAP2 SWAP1 POP JUMP JUMPDEST PUSH32 0x4552433732313A20617070726F766520746F2063616C6C657200000000000000 PUSH1 0x0 DUP3 ADD MSTORE POP JUMP JUMPDEST PUSH1 0x0 PUSH2 0x3F95 PUSH1 0x19 DUP4 PUSH2 0x2C01 JUMP JUMPDEST SWAP2 POP PUSH2 0x3FA0 DUP3 PUSH2 0x3F5F JUMP JUMPDEST PUSH1 0x20 DUP3 ADD SWAP1 POP SWAP2 SWAP1 POP JUMP JUMPDEST PUSH1 0x0 PUSH1 0x20 DUP3 ADD SWAP1 POP DUP2 DUP2 SUB PUSH1 0x0 DUP4 ADD MSTORE PUSH2 0x3FC4 DUP2 PUSH2 0x3F88 JUMP JUMPDEST SWAP1 POP SWAP2 SWAP1 POP JUMP JUMPDEST PUSH32 0x4552433732313A207472616E7366657220746F206E6F6E204552433732315265 PUSH1 0x0 DUP3 ADD MSTORE PUSH32 0x63656976657220696D706C656D656E7465720000000000000000000000000000 PUSH1 0x20 DUP3 ADD MSTORE POP JUMP JUMPDEST PUSH1 0x0 PUSH2 0x4027 PUSH1 0x32 DUP4 PUSH2 0x2C01 JUMP JUMPDEST SWAP2 POP PUSH2 0x4032 DUP3 PUSH2 0x3FCB JUMP JUMPDEST PUSH1 0x40 DUP3 ADD SWAP1 POP SWAP2 SWAP1 POP JUMP JUMPDEST PUSH1 0x0 PUSH1 0x20 DUP3 ADD SWAP1 POP DUP2 DUP2 SUB PUSH1 0x0 DUP4 ADD MSTORE PUSH2 0x4056 DUP2 PUSH2 0x401A JUMP JUMPDEST SWAP1 POP SWAP2 SWAP1 POP JUMP JUMPDEST PUSH32 0x4E487B7100000000000000000000000000000000000000000000000000000000 PUSH1 0x0 MSTORE PUSH1 0x32 PUSH1 0x4 MSTORE PUSH1 0x24 PUSH1 0x0 REVERT JUMPDEST PUSH32 0x4E487B7100000000000000000000000000000000000000000000000000000000 PUSH1 0x0 MSTORE PUSH1 0x11 PUSH1 0x4 MSTORE PUSH1 0x24 PUSH1 0x0 REVERT JUMPDEST PUSH1 0x0 PUSH2 0x40C6 DUP3 PUSH2 0x2CA8 JUMP JUMPDEST SWAP2 POP PUSH2 0x40D1 DUP4 PUSH2 0x2CA8 JUMP JUMPDEST SWAP3 POP DUP3 DUP3 ADD SWAP1 POP DUP1 DUP3 GT ISZERO PUSH2 0x40E9 JUMPI PUSH2 0x40E8 PUSH2 0x408C JUMP JUMPDEST JUMPDEST SWAP3 SWAP2 POP POP JUMP JUMPDEST PUSH1 0x0 PUSH2 0x40FA DUP3 PUSH2 0x2CA8 JUMP JUMPDEST SWAP2 POP PUSH32 0xFFFFFFFFFFFFFFFFFFFFFFFFFFFFFFFFFFFFFFFFFFFFFFFFFFFFFFFFFFFFFFFF DUP3 SUB PUSH2 0x412C JUMPI PUSH2 0x412B PUSH2 0x408C JUMP JUMPDEST JUMPDEST PUSH1 0x1 DUP3 ADD SWAP1 POP SWAP2 SWAP1 POP JUMP JUMPDEST PUSH32 0x4E487B7100000000000000000000000000000000000000000000000000000000 PUSH1 0x0 MSTORE PUSH1 0x12 PUSH1 0x4 MSTORE PUSH1 0x24 PUSH1 0x0 REVERT JUMPDEST PUSH1 0x0 PUSH1 0x80 DUP3 ADD SWAP1 POP DUP2 DUP2 SUB PUSH1 0x0 DUP4 ADD MSTORE PUSH2 0x4180 DUP2 DUP8 PUSH2 0x2C4D JUMP JUMPDEST SWAP1 POP DUP2 DUP2 SUB PUSH1 0x20 DUP4 ADD MSTORE PUSH2 0x4194 DUP2 DUP7 PUSH2 0x2C4D JUMP JUMPDEST SWAP1 POP DUP2 DUP2 SUB PUSH1 0x40 DUP4 ADD MSTORE PUSH2 0x41A8 DUP2 DUP6 PUSH2 0x2C4D JUMP JUMPDEST SWAP1 POP PUSH2 0x41B7 PUSH1 0x60 DUP4 ADD DUP5 PUSH2 0x307E JUMP JUMPDEST SWAP6 SWAP5 POP POP POP POP POP JUMP JUMPDEST PUSH1 0x0 PUSH2 0x41CB DUP3 PUSH2 0x2CA8 JUMP JUMPDEST SWAP2 POP PUSH2 0x41D6 DUP4 PUSH2 0x2CA8 JUMP JUMPDEST SWAP3 POP DUP3 PUSH2 0x41E6 JUMPI PUSH2 0x41E5 PUSH2 0x4137 JUMP JUMPDEST JUMPDEST DUP3 DUP3 DIV SWAP1 POP SWAP3 SWAP2 POP POP JUMP JUMPDEST PUSH1 0x0 PUSH2 0x41FC DUP3 PUSH2 0x2CA8 JUMP JUMPDEST SWAP2 POP PUSH2 0x4207 DUP4 PUSH2 0x2CA8 JUMP JUMPDEST SWAP3 POP DUP3 DUP3 MUL PUSH2 0x4215 DUP2 PUSH2 0x2CA8 JUMP JUMPDEST SWAP2 POP DUP3 DUP3 DIV DUP5 EQ DUP4 ISZERO OR PUSH2 0x422C JUMPI PUSH2 0x422B PUSH2 0x408C JUMP JUMPDEST JUMPDEST POP SWAP3 SWAP2 POP POP JUMP JUMPDEST PUSH32 0x45524337323155524953746F726167653A2055524920736574206F66206E6F6E PUSH1 0x0 DUP3 ADD MSTORE PUSH32 0x6578697374656E7420746F6B656E000000000000000000000000000000000000 PUSH1 0x20 DUP3 ADD MSTORE POP JUMP JUMPDEST PUSH1 0x0 PUSH2 0x428F PUSH1 0x2E DUP4 PUSH2 0x2C01 JUMP JUMPDEST SWAP2 POP PUSH2 0x429A DUP3 PUSH2 0x4233 JUMP JUMPDEST PUSH1 0x40 DUP3 ADD SWAP1 POP SWAP2 SWAP1 POP JUMP JUMPDEST PUSH1 0x0 PUSH1 0x20 DUP3 ADD SWAP1 POP DUP2 DUP2 SUB PUSH1 0x0 DUP4 ADD MSTORE PUSH2 0x42BE DUP2 PUSH2 0x4282 JUMP JUMPDEST SWAP1 POP SWAP2 SWAP1 POP JUMP JUMPDEST PUSH2 0x42CE DUP3 PUSH2 0x2BF6 JUMP JUMPDEST PUSH8 0xFFFFFFFFFFFFFFFF DUP2 GT ISZERO PUSH2 0x42E7 JUMPI PUSH2 0x42E6 PUSH2 0x2EDD JUMP JUMPDEST JUMPDEST PUSH2 0x42F1 DUP3 SLOAD PUSH2 0x3364 JUMP JUMPDEST PUSH2 0x42FC DUP3 DUP3 DUP6 PUSH2 0x386E JUMP JUMPDEST PUSH1 0x0 PUSH1 0x20 SWAP1 POP PUSH1 0x1F DUP4 GT PUSH1 0x1 DUP2 EQ PUSH2 0x432F JUMPI PUSH1 0x0 DUP5 ISZERO PUSH2 0x431D JUMPI DUP3 DUP8 ADD MLOAD SWAP1 POP JUMPDEST PUSH2 0x4327 DUP6 DUP3 PUSH2 0x38DF JUMP JUMPDEST DUP7 SSTORE POP PUSH2 0x438F JUMP JUMPDEST PUSH1 0x1F NOT DUP5 AND PUSH2 0x433D DUP7 PUSH2 0x374F JUMP JUMPDEST PUSH1 0x0 JUMPDEST DUP3 DUP2 LT ISZERO PUSH2 0x4365 JUMPI DUP5 DUP10 ADD MLOAD DUP3 SSTORE PUSH1 0x1 DUP3 ADD SWAP2 POP PUSH1 0x20 DUP6 ADD SWAP5 POP PUSH1 0x20 DUP2 ADD SWAP1 POP PUSH2 0x4340 JUMP JUMPDEST DUP7 DUP4 LT ISZERO PUSH2 0x4382 JUMPI DUP5 DUP10 ADD MLOAD PUSH2 0x437E PUSH1 0x1F DUP10 AND DUP3 PUSH2 0x38C1 JUMP JUMPDEST DUP4 SSTORE POP JUMPDEST PUSH1 0x1 PUSH1 0x2 DUP9 MUL ADD DUP9 SSTORE POP POP POP JUMPDEST POP POP POP POP POP POP JUMP JUMPDEST PUSH1 0x0 PUSH2 0x43A2 DUP3 PUSH2 0x2CA8 JUMP JUMPDEST SWAP2 POP PUSH2 0x43AD DUP4 PUSH2 0x2CA8 JUMP JUMPDEST SWAP3 POP DUP3 DUP3 SUB SWAP1 POP DUP2 DUP2 GT ISZERO PUSH2 0x43C5 JUMPI PUSH2 0x43C4 PUSH2 0x408C JUMP JUMPDEST JUMPDEST SWAP3 SWAP2 POP POP JUMP JUMPDEST PUSH1 0x0 DUP2 MLOAD SWAP1 POP SWAP2 SWAP1 POP JUMP JUMPDEST PUSH1 0x0 DUP3 DUP3 MSTORE PUSH1 0x20 DUP3 ADD SWAP1 POP SWAP3 SWAP2 POP POP JUMP JUMPDEST PUSH1 0x0 PUSH2 0x43F2 DUP3 PUSH2 0x43CB JUMP JUMPDEST PUSH2 0x43FC DUP2 DUP6 PUSH2 0x43D6 JUMP JUMPDEST SWAP4 POP PUSH2 0x440C DUP2 DUP6 PUSH1 0x20 DUP7 ADD PUSH2 0x2C12 JUMP JUMPDEST PUSH2 0x4415 DUP2 PUSH2 0x2C3C JUMP JUMPDEST DUP5 ADD SWAP2 POP POP SWAP3 SWAP2 POP POP JUMP JUMPDEST PUSH1 0x0 PUSH1 0x80 DUP3 ADD SWAP1 POP PUSH2 0x4435 PUSH1 0x0 DUP4 ADD DUP8 PUSH2 0x2D3D JUMP JUMPDEST PUSH2 0x4442 PUSH1 0x20 DUP4 ADD DUP7 PUSH2 0x2D3D JUMP JUMPDEST PUSH2 0x444F PUSH1 0x40 DUP4 ADD DUP6 PUSH2 0x307E JUMP JUMPDEST DUP2 DUP2 SUB PUSH1 0x60 DUP4 ADD MSTORE PUSH2 0x4461 DUP2 DUP5 PUSH2 0x43E7 JUMP JUMPDEST SWAP1 POP SWAP6 SWAP5 POP POP POP POP POP JUMP JUMPDEST PUSH1 0x0 DUP2 MLOAD SWAP1 POP PUSH2 0x447B DUP2 PUSH2 0x2B67 JUMP JUMPDEST SWAP3 SWAP2 POP POP JUMP JUMPDEST PUSH1 0x0 PUSH1 0x20 DUP3 DUP5 SUB SLT ISZERO PUSH2 0x4497 JUMPI PUSH2 0x4496 PUSH2 0x2B31 JUMP JUMPDEST JUMPDEST PUSH1 0x0 PUSH2 0x44A5 DUP5 DUP3 DUP6 ADD PUSH2 0x446C JUMP JUMPDEST SWAP2 POP POP SWAP3 SWAP2 POP POP JUMP JUMPDEST PUSH32 0x4552433732313A206D696E7420746F20746865207A65726F2061646472657373 PUSH1 0x0 DUP3 ADD MSTORE POP JUMP JUMPDEST PUSH1 0x0 PUSH2 0x44E4 PUSH1 0x20 DUP4 PUSH2 0x2C01 JUMP JUMPDEST SWAP2 POP PUSH2 0x44EF DUP3 PUSH2 0x44AE JUMP JUMPDEST PUSH1 0x20 DUP3 ADD SWAP1 POP SWAP2 SWAP1 POP JUMP JUMPDEST PUSH1 0x0 PUSH1 0x20 DUP3 ADD SWAP1 POP DUP2 DUP2 SUB PUSH1 0x0 DUP4 ADD MSTORE PUSH2 0x4513 DUP2 PUSH2 0x44D7 JUMP JUMPDEST SWAP1 POP SWAP2 SWAP1 POP JUMP JUMPDEST PUSH32 0x4552433732313A20746F6B656E20616C7265616479206D696E74656400000000 PUSH1 0x0 DUP3 ADD MSTORE POP JUMP JUMPDEST PUSH1 0x0 PUSH2 0x4550 PUSH1 0x1C DUP4 PUSH2 0x2C01 JUMP JUMPDEST SWAP2 POP PUSH2 0x455B DUP3 PUSH2 0x451A JUMP JUMPDEST PUSH1 0x20 DUP3 ADD SWAP1 POP SWAP2 SWAP1 POP JUMP JUMPDEST PUSH1 0x0 PUSH1 0x20 DUP3 ADD SWAP1 POP DUP2 DUP2 SUB PUSH1 0x0 DUP4 ADD MSTORE PUSH2 0x457F DUP2 PUSH2 0x4543 JUMP JUMPDEST SWAP1 POP SWAP2 SWAP1 POP JUMP INVALID EXP 0x2D 0x2D 0x2D 0x2D 0x2D 0x2D 0x2D 0x2D 0x2D 0x2D 0x2D 0x2D 0x2D 0x2D 0x2D 0x2D 0x2D 0x2D 0x2D 0x2D 0x2D 0x2D 0x2D 0x2D 0x2D 0x2D 0x2D 0x2D 0x2D 0x2D 0x2D 0x2D 0x2D 0x2D 0x2D 0x2D 0x2D 0x2D 0x2D 0x2D 0x2D 0x2D 0x2D 0x2D 0x2D 0x2D 0x2D 0x2D 0x2D 0x2D 0x2D 0x2D 0x2D 0x2D 0x2D 0x2D MSTORE PUSH6 0x676973746572 PUSH10 0x6E672025732E2573206F PUSH15 0x2074686520636F6E74726163742077 PUSH10 0x746820746F6B656E4944 KECCAK256 0x25 PUSH5 0x2D2D2D2D2D 0x2D 0x2D 0x2D 0x2D 0x2D 0x2D 0x2D 0x2D 0x2D 0x2D 0x2D 0x2D 0x2D 0x2D 0x2D 0x2D 0x2D 0x2D 0x2D 0x2D 0x2D 0x2D 0x2D 0x2D 0x2D 0x2D 0x2D 0x2D 0x2D 0x2D 0x2D 0x2D 0x2D 0x2D 0x2D 0x2D 0x2D 0x2D 0x2D 0x2D 0x2D 0x2D 0x2D 0x2D 0x2D 0x2D 0x2D 0x2D 0x2D 0x2D 0x2D EXP COINBASE TIMESTAMP NUMBER DIFFICULTY GASLIMIT CHAINID SELFBALANCE BASEFEE 0x49 0x4A 0x4B 0x4C 0x4D 0x4E 0x4F POP MLOAD MSTORE MSTORE8 SLOAD SSTORE JUMP JUMPI PC MSIZE GAS PUSH2 0x6263 PUSH5 0x6566676869 PUSH11 0x6B6C6D6E6F707172737475 PUSH23 0x7778797A303132333435363738392B2FA2646970667358 0x22 SLT KECCAK256 CALL ISZERO MULMOD MSTORE CALLVALUE SLOAD PUSH7 0x3A6A8D8405C47A 0xE4 PUSH20 0x1066A217CA9BEA3964497949BC959E4B64736F6C PUSH4 0x43000811 STOP CALLER EXTCODECOPY PUSH20 0x766720786D6C6E733D22687474703A2F2F777777 0x2E PUSH24 0x332E6F72672F323030302F737667222077696474683D2232 CALLDATACOPY ADDRESS 0x22 KECCAK256 PUSH9 0x65696768743D223237 ADDRESS 0x22 KECCAK256 PUSH7 0x696C6C3D226E6F PUSH15 0x65223E3C706174682066696C6C3D22 PUSH22 0x726C282342292220643D224D30203068323730763237 ADDRESS BASEFEE ADDRESS PUSH27 0x222F3E3C646566733E3C66696C7465722069643D22412220636F6C PUSH16 0x722D696E746572706F6C6174696F6E2D PUSH7 0x696C746572733D 0x22 PUSH20 0x524742222066696C746572556E6974733D227573 PUSH6 0x725370616365 0x4F PUSH15 0x55736522206865696768743D223237 ADDRESS 0x22 KECCAK256 PUSH24 0x696474683D22323730223E3C666544726F70536861646F77 KECCAK256 PUSH5 0x783D223022 KECCAK256 PUSH5 0x793D223122 KECCAK256 PUSH20 0x7464446576696174696F6E3D22322220666C6F6F PUSH5 0x2D6F706163 PUSH10 0x74793D222E3232352220 PUSH24 0x696474683D223230302522206865696768743D2232303025 0x22 0x2F RETURNDATACOPY EXTCODECOPY 0x2F PUSH7 0x696C7465723E3C 0x2F PUSH5 0x6566733E3C PUSH17 0x61746820643D224D37322E383633203432 0x2E CODECOPY CALLVALUE CODECOPY PUSH4 0x2D2E3636 CODESIZE 0x2D 0x2E CALLER CODESIZE CALLDATACOPY 0x2D BALANCE 0x2E CALLVALUE ORIGIN CALLDATASIZE 0x2D 0x2E CALLDATALOAD CODECOPY 0x2D ORIGIN 0x2E BALANCE CODECOPY CALLDATACOPY 0x2D 0x2E CALLDATALOAD CODECOPY PUSH20 0x2D312E3532392E3230342D322E3139372E35396C 0x2D BALANCE ADDRESS 0x2E ADDRESS CODESIZE BALANCE KECCAK256 CALLDATASIZE 0x2E ADDRESS CALLER ORIGIN 0x2D CALLDATASIZE 0x2E CODESIZE CALLDATALOAD KECCAK256 CALLER 0x2E CODECOPY CALLER CALLVALUE 0x2D BALANCE ADDRESS 0x2E ADDRESS CODESIZE BALANCE KECCAK256 CALLDATASIZE 0x2E ADDRESS CALLER ORIGIN PUSH4 0x2D2E3636 CODESIZE 0x2E CALLER CODESIZE CALLDATACOPY 0x2D BALANCE 0x2E CALLVALUE ORIGIN CALLDATASIZE 0x2E CALLDATALOAD CODECOPY 0x2D ORIGIN 0x2E BALANCE CODECOPY CALLDATACOPY 0x2E CALLDATALOAD CODECOPY PUSH20 0x2D312E3532392D2E3230342D322E3139372D2E35 CODECOPY PUSH13 0x2D382E3031332D342E37323161 CALLVALUE 0x2E CALLDATALOAD ORIGIN KECCAK256 CALLVALUE 0x2E CALLDATALOAD ORIGIN KECCAK256 ADDRESS KECCAK256 ADDRESS KECCAK256 BALANCE 0x2D BALANCE 0x2E CALLDATALOAD CODESIZE CODECOPY 0x2D BALANCE 0x2E CALLDATASIZE BALANCE CALLDATASIZE PUSH4 0x2D2E3338 CALLVALUE 0x2D 0x2E CALLDATASIZE CALLDATASIZE CALLDATALOAD 0x2D 0x2E CALLDATALOAD CODECOPY CALLVALUE 0x2D BALANCE 0x2E CALLVALUE BALANCE CODESIZE 0x2D 0x2E CALLDATASIZE ADDRESS CODESIZE 0x2D ORIGIN 0x2E BALANCE CODESIZE CALLDATACOPY PUSH23 0x2D392E3331632D2E3031332D2E3737352E3138352D312E CALLDATALOAD CALLER CODESIZE 0x2E CALLDATALOAD CALLDATACOPY ORIGIN 0x2D ORIGIN 0x2E ORIGIN ADDRESS CODESIZE PUSH2 0x342E ORIGIN CALLDATALOAD KECCAK256 CALLVALUE 0x2E ORIGIN CALLDATALOAD KECCAK256 ADDRESS KECCAK256 ADDRESS KECCAK256 BALANCE KECCAK256 BALANCE 0x2E CALLDATASIZE ORIGIN CALLDATALOAD 0x2D BALANCE 0x2E CALLDATALOAD CODECOPY CALLDATALOAD PUSH13 0x372E3838342D342E3539632E36 CALLDATASIZE CODESIZE 0x2D 0x2E CALLER CODESIZE CALLDATACOPY KECCAK256 BALANCE 0x2E CALLVALUE ORIGIN CALLDATASIZE 0x2D 0x2E CALLDATALOAD CODECOPY KECCAK256 ORIGIN 0x2E BALANCE CODECOPY CALLDATACOPY 0x2D 0x2E CALLDATALOAD CODECOPY PUSH20 0x312E3532392E32303420322E3139372E35396C37 0x2E CODESIZE CODESIZE CALLVALUE KECCAK256 CALLVALUE 0x2E CALLDATALOAD CODECOPY PUSH2 0x342E CALLDATALOAD ORIGIN KECCAK256 CALLVALUE 0x2E CALLDATALOAD ORIGIN KECCAK256 ADDRESS KECCAK256 ADDRESS KECCAK256 BALANCE KECCAK256 BALANCE 0x2E CALLDATALOAD CODESIZE CODECOPY KECCAK256 BALANCE 0x2E CALLDATASIZE BALANCE CALLDATASIZE PUSH4 0x2E333834 0x2E CALLDATASIZE CALLDATASIZE CALLDATALOAD 0x2E CALLDATALOAD CODECOPY CALLVALUE KECCAK256 BALANCE 0x2E CALLVALUE BALANCE CODESIZE 0x2E CALLDATASIZE ADDRESS CODESIZE KECCAK256 ORIGIN 0x2E BALANCE CODESIZE CALLDATACOPY PUSH23 0x362E3033326C362E38352D342E303635762D362E303332 PUSH4 0x2E303133 0x2D 0x2E CALLDATACOPY CALLDATACOPY CALLDATALOAD 0x2D 0x2E BALANCE CODESIZE CALLDATALOAD 0x2D BALANCE 0x2E CALLDATALOAD CALLER CODESIZE 0x2D 0x2E CALLDATALOAD CALLDATACOPY ORIGIN 0x2D ORIGIN 0x2E ORIGIN ADDRESS CODESIZE PUSH2 0x342E ORIGIN CALLDATALOAD KECCAK256 CALLVALUE 0x2E ORIGIN CALLDATALOAD KECCAK256 ADDRESS KECCAK256 ADDRESS KECCAK256 ADDRESS 0x2D BALANCE 0x2E CALLDATASIZE ORIGIN CALLDATALOAD 0x2D BALANCE 0x2E CALLDATALOAD CODECOPY CALLDATALOAD 0x4C CALLVALUE BALANCE 0x2E CALLVALUE CALLDATALOAD CALLDATASIZE KECCAK256 ORIGIN CALLVALUE 0x2E CALLDATALOAD CODECOPY PUSH4 0x2D2E3636 CODESIZE 0x2D 0x2E CALLER CODESIZE CALLDATACOPY 0x2D BALANCE 0x2E CALLVALUE ORIGIN CALLDATASIZE 0x2D 0x2E CALLDATALOAD CODECOPY 0x2D ORIGIN 0x2E BALANCE CODECOPY CALLDATACOPY 0x2D 0x2E CALLDATALOAD CODECOPY PUSH20 0x2D312E3532392E3230342D322E3139372E35396C 0x2D BALANCE CALLVALUE 0x2E CODESIZE CALLDATASIZE CALLVALUE KECCAK256 CODESIZE 0x2E CALLDATASIZE CALLDATALOAD CALLDATALOAD PUSH2 0x342E ORIGIN CALLDATALOAD KECCAK256 CALLVALUE 0x2E ORIGIN CALLDATALOAD KECCAK256 ADDRESS KECCAK256 ADDRESS KECCAK256 ADDRESS 0x2D BALANCE 0x2E CALLDATASIZE ORIGIN CALLDATALOAD KECCAK256 BALANCE 0x2E CALLDATALOAD CODECOPY CALLDATALOAD PUSH4 0x2D2E3338 CALLDATACOPY 0x2E CALLDATASIZE CALLDATACOPY 0x2D 0x2E CALLDATALOAD CODESIZE CALLDATALOAD KECCAK256 BALANCE 0x2E CALLVALUE CALLER CALLVALUE 0x2D 0x2E CALLDATALOAD CALLDATACOPY ORIGIN KECCAK256 ORIGIN 0x2E ORIGIN ADDRESS CODESIZE PUSH23 0x31372E343431632D2E3031332E3737352E31383520312E CALLDATALOAD CALLER CODESIZE 0x2E CALLDATALOAD CALLDATACOPY ORIGIN KECCAK256 ORIGIN 0x2E ORIGIN ADDRESS CODESIZE PUSH2 0x342E ORIGIN CALLDATALOAD KECCAK256 CALLVALUE 0x2E ORIGIN CALLDATALOAD KECCAK256 ADDRESS KECCAK256 ADDRESS KECCAK256 ADDRESS KECCAK256 BALANCE 0x2E CALLDATASIZE ORIGIN CALLDATALOAD KECCAK256 BALANCE 0x2E CALLDATALOAD CODECOPY CALLDATALOAD PUSH13 0x31342E38363420382E36353563 0x2E CALLDATASIZE CALLDATASIZE CODESIZE 0x2E CALLER CODESIZE CALLDATACOPY KECCAK256 BALANCE 0x2E CALLVALUE ORIGIN CALLDATASIZE 0x2E CALLDATALOAD CODECOPY KECCAK256 ORIGIN 0x2E BALANCE CODECOPY CALLDATACOPY 0x2E CALLDATALOAD CODECOPY PUSH20 0x312E3532392D2E32303420322E3139372D2E3539 PUSH13 0x31302E3038312D352E39303120 CALLDATASIZE 0x2E CODESIZE CALLDATALOAD 0x2D CALLVALUE 0x2E ADDRESS CALLDATASIZE CALLDATALOAD KECCAK256 BALANCE ADDRESS 0x2E ADDRESS CODESIZE BALANCE 0x2D CALLDATALOAD 0x2E CODECOPY ADDRESS BALANCE PUSH4 0x2E363638 0x2D 0x2E CALLER CODESIZE CALLDATACOPY KECCAK256 BALANCE 0x2E CALLVALUE ORIGIN CALLDATASIZE 0x2D 0x2E CALLDATALOAD CODECOPY KECCAK256 ORIGIN 0x2E BALANCE CODECOPY CALLDATACOPY 0x2D 0x2E CALLDATALOAD CODECOPY PUSH20 0x312E3532392E32303420322E3139372E35396C37 0x2E CODESIZE CODESIZE CALLVALUE KECCAK256 CALLVALUE 0x2E CALLDATALOAD CODECOPY PUSH2 0x342E CALLDATALOAD ORIGIN KECCAK256 CALLVALUE 0x2E CALLDATALOAD ORIGIN KECCAK256 ADDRESS KECCAK256 ADDRESS KECCAK256 BALANCE KECCAK256 BALANCE 0x2E CALLDATALOAD CODESIZE CODECOPY KECCAK256 BALANCE 0x2E CALLDATASIZE BALANCE CALLDATASIZE PUSH4 0x2E333834 0x2E CALLDATASIZE CALLDATASIZE CALLDATALOAD 0x2E CALLDATALOAD CODECOPY CALLVALUE KECCAK256 BALANCE 0x2E CALLVALUE BALANCE CODESIZE 0x2E CALLDATASIZE ADDRESS CODESIZE KECCAK256 ORIGIN 0x2E BALANCE CODESIZE CALLDATACOPY PUSH23 0x392E333131632E3031332E3737352D2E31383520312E35 CALLER CODESIZE 0x2D 0x2E CALLDATALOAD CALLDATACOPY ORIGIN KECCAK256 ORIGIN 0x2E ORIGIN ADDRESS CODESIZE PUSH2 0x342E ORIGIN CALLDATALOAD KECCAK256 CALLVALUE 0x2E ORIGIN CALLDATALOAD KECCAK256 ADDRESS KECCAK256 ADDRESS KECCAK256 BALANCE 0x2D BALANCE 0x2E CALLDATASIZE ORIGIN CALLDATALOAD KECCAK256 BALANCE 0x2E CALLDATALOAD CODECOPY CALLDATALOAD PUSH13 0x2D372E38383420342E37323163 0x2D 0x2E CALLDATASIZE CALLDATASIZE CODESIZE 0x2E CALLER CODESIZE CALLDATACOPY 0x2D BALANCE 0x2E CALLVALUE ORIGIN CALLDATASIZE 0x2E CALLDATALOAD CODECOPY 0x2D ORIGIN 0x2E BALANCE CODECOPY CALLDATACOPY 0x2E CALLDATALOAD CODECOPY PUSH20 0x2D312E3532392D2E3230342D322E3139372D2E35 CODECOPY PUSH13 0x2D372E3838342D342E35396134 0x2E CALLDATALOAD ORIGIN KECCAK256 CALLVALUE 0x2E CALLDATALOAD ORIGIN KECCAK256 ADDRESS KECCAK256 ADDRESS KECCAK256 BALANCE 0x2D BALANCE 0x2E CALLDATALOAD CODESIZE CODECOPY 0x2D BALANCE 0x2E CALLDATASIZE BALANCE CALLDATASIZE PUSH4 0x2D2E3338 CALLDATALOAD 0x2D 0x2E CALLDATASIZE CALLDATASIZE CALLDATALOAD 0x2D 0x2E CALLDATALOAD CODECOPY CALLVALUE 0x2D BALANCE 0x2E CALLVALUE BALANCE CODESIZE 0x2D 0x2E CALLDATASIZE ADDRESS CODESIZE 0x2D ORIGIN 0x2E BALANCE CODESIZE CALLDATACOPY PUSH23 0x2D362E3033326C2D362E383520342E30363576362E3033 ORIGIN PUSH4 0x2D2E3031 CALLER 0x2E CALLDATACOPY CALLDATACOPY CALLDATALOAD 0x2E BALANCE CODESIZE CALLDATALOAD KECCAK256 BALANCE 0x2E CALLDATALOAD CALLER CODESIZE 0x2E CALLDATALOAD CALLDATACOPY ORIGIN KECCAK256 ORIGIN 0x2E ORIGIN ADDRESS CODESIZE PUSH2 0x342E ORIGIN CALLDATALOAD KECCAK256 CALLVALUE 0x2E ORIGIN CALLDATALOAD KECCAK256 ADDRESS KECCAK256 ADDRESS KECCAK256 ADDRESS KECCAK256 BALANCE 0x2E CALLDATASIZE ORIGIN CALLDATALOAD KECCAK256 BALANCE 0x2E CALLDATALOAD CODECOPY CALLDATALOAD PUSH13 0x31342E38363420382E36353563 0x2E CALLDATASIZE CALLDATASIZE CODESIZE 0x2E CALLER CODESIZE CALLDATACOPY KECCAK256 BALANCE 0x2E CALLVALUE ORIGIN CALLDATASIZE 0x2E CALLDATALOAD CODECOPY KECCAK256 ORIGIN 0x2E BALANCE CODECOPY CALLDATACOPY 0x2E CALLDATALOAD CODECOPY PUSH20 0x312E3532392D2E32303420322E3139372D2E3539 PUSH13 0x31342E3836342D382E36353563 0x2E CALLDATASIZE CALLDATALOAD CALLDATACOPY 0x2D 0x2E CALLER CODECOPY CALLVALUE KECCAK256 BALANCE 0x2E ORIGIN ADDRESS CALLVALUE 0x2D 0x2E CODECOPY CALLDATALOAD KECCAK256 BALANCE 0x2E CALLDATALOAD CODESIZE CODECOPY 0x2D BALANCE 0x2E CALLDATASIZE BALANCE CALLDATASIZE PUSH20 0x2E3539342D312E3431382E3630392D322E313837 JUMP CALLDATALOAD CALLDATALOAD 0x2E CALLDATALOAD CALLER CODESIZE PUSH4 0x2E303133 0x2D 0x2E CALLDATACOPY CALLDATACOPY CALLDATALOAD 0x2D 0x2E BALANCE CODESIZE CALLDATALOAD 0x2D BALANCE 0x2E CALLDATALOAD CALLER CODESIZE 0x2D 0x2E CALLDATALOAD CALLDATACOPY ORIGIN 0x2D ORIGIN 0x2E ORIGIN ADDRESS CODESIZE PUSH2 0x342E ORIGIN CALLDATALOAD KECCAK256 CALLVALUE 0x2E ORIGIN CALLDATALOAD KECCAK256 ADDRESS KECCAK256 ADDRESS KECCAK256 ADDRESS 0x2D BALANCE 0x2E CALLDATASIZE ORIGIN CALLDATALOAD 0x2D BALANCE 0x2E CALLDATALOAD CODECOPY CALLDATALOAD PUSH13 0x2D31342E3939332D382E373836 PUSH27 0x222066696C6C3D2223666666222F3E3C646566733E3C6C696E6561 PUSH19 0x4772616469656E742069643D2242222078313D 0x22 ADDRESS 0x22 KECCAK256 PUSH26 0x313D2230222078323D22323730222079323D2232373022206772 PUSH2 0x6469 PUSH6 0x6E74556E6974 PUSH20 0x3D227573657253706163654F6E557365223E3C73 PUSH21 0x6F702073746F702D636F6C6F723D22236362356565 PUSH6 0x222F3E3C7374 PUSH16 0x70206F66667365743D2231222073746F PUSH17 0x2D636F6C6F723D22233063643765342220 PUSH20 0x746F702D6F7061636974793D222E3939222F3E3C 0x2F PUSH13 0x696E6561724772616469656E74 RETURNDATACOPY EXTCODECOPY 0x2F PUSH5 0x6566733E3C PUSH21 0x65787420783D2233322E352220793D223233312220 PUSH7 0x6F6E742D73697A PUSH6 0x3D2232372220 PUSH7 0x696C6C3D222366 PUSH7 0x66222066696C74 PUSH6 0x723D2275726C 0x28 0x23 COINBASE 0x29 0x22 KECCAK256 PUSH7 0x6F6E742D66616D PUSH10 0x6C793D22506C7573204A PUSH2 0x6B61 PUSH19 0x74612053616E732C44656A6156752053616E73 0x2C 0x4E PUSH16 0x746F20436F6C6F7220456D6F6A692C41 PUSH17 0x706C6520436F6C6F7220456D6F6A692C73 PUSH2 0x6E73 0x2D PUSH20 0x657269662220666F6E742D7765696768743D2262 PUSH16 0x6C64223E000000000000000000000000 "},"methodIdentifiers":{"approve(address,uint256)":"095ea7b3","balanceOf(address)":"70a08231","domains(string)":"26449235","getAddress(string)":"bf40fac1","getApproved(uint256)":"081812fc","getRecord(string)":"11dd8845","isApprovedForAll(address,address)":"e985e9c5","isOwner()":"8f32d59b","name()":"06fdde03","owner()":"8da5cb5b","ownerOf(uint256)":"6352211e","price(string)":"fe2c6198","records(string)":"541e771d","register(string)":"f2c298be","safeTransferFrom(address,address,uint256)":"42842e0e","safeTransferFrom(address,address,uint256,bytes)":"b88d4fde","setApprovalForAll(address,bool)":"a22cb465","setRecord(string,string)":"c1880a98","supportsInterface(bytes4)":"01ffc9a7","symbol()":"95d89b41","tld()":"2d551432","tokenURI(uint256)":"c87b56dd","transferFrom(address,address,uint256)":"23b872dd","withdraw()":"3ccfd60b"}}}}}