{"contracts/Domains.sol":{"Domains":{"abi":[{"inputs":[{"internalType":"string","name":"_tld","type":"string"}],"stateMutability":"payable","type":"constructor"},{"anonymous":false,"inputs":[{"indexed":true,"internalType":"address","name":"owner","type":"address"},{"indexed":true,"internalType":"address","name":"approved","type":"address"},{"indexed":true,"internalType":"uint256","name":"tokenId","type":"uint256"}],"name":"Approval","type":"event"},{"anonymous":false,"inputs":[{"indexed":true,"internalType":"address","name":"owner","type":"address"},{"indexed":true,"internalType":"address","name":"operator","type":"address"},{"indexed":false,"internalType":"bool","name":"approved","type":"bool"}],"name":"ApprovalForAll","type":"event"},{"anonymous":false,"inputs":[{"indexed":true,"internalType":"address","name":"from","type":"address"},{"indexed":true,"internalType":"address","name":"to","type":"address"},{"indexed":true,"internalType":"uint256","name":"tokenId","type":"uint256"}],"name":"Transfer","type":"event"},{"inputs":[{"internalType":"address","name":"to","type":"address"},{"internalType":"uint256","name":"tokenId","type":"uint256"}],"name":"approve","outputs":[],"stateMutability":"nonpayable","type":"function"},{"inputs":[{"internalType":"address","name":"owner","type":"address"}],"name":"balanceOf","outputs":[{"internalType":"uint256","name":"","type":"uint256"}],"stateMutability":"view","type":"function"},{"inputs":[{"internalType":"string","name":"","type":"string"}],"name":"domains","outputs":[{"internalType":"address","name":"","type":"address"}],"stateMutability":"view","type":"function"},{"inputs":[{"internalType":"string","name":"name","type":"string"}],"name":"getAddress","outputs":[{"internalType":"address","name":"","type":"address"}],"stateMutability":"view","type":"function"},{"inputs":[{"internalType":"uint256","name":"tokenId","type":"uint256"}],"name":"getApproved","outputs":[{"internalType":"address","name":"","type":"address"}],"stateMutability":"view","type":"function"},{"inputs":[{"internalType":"string","name":"name","type":"string"}],"name":"getRecord","outputs":[{"internalType":"string","name":"","type":"string"}],"stateMutability":"view","type":"function"},{"inputs":[{"internalType":"address","name":"owner","type":"address"},{"internalType":"address","name":"operator","type":"address"}],"name":"isApprovedForAll","outputs":[{"internalType":"bool","name":"","type":"bool"}],"stateMutability":"view","type":"function"},{"inputs":[],"name":"name","outputs":[{"internalType":"string","name":"","type":"string"}],"stateMutability":"view","type":"function"},{"inputs":[{"internalType":"uint256","name":"tokenId","type":"uint256"}],"name":"ownerOf","outputs":[{"internalType":"address","name":"","type":"address"}],"stateMutability":"view","type":"function"},{"inputs":[{"internalType":"string","name":"name","type":"string"}],"name":"price","outputs":[{"internalType":"uint256","name":"","type":"uint256"}],"stateMutability":"pure","type":"function"},{"inputs":[{"internalType":"string","name":"","type":"string"}],"name":"records","outputs":[{"internalType":"string","name":"","type":"string"}],"stateMutability":"view","type":"function"},{"inputs":[{"internalType":"string","name":"name","type":"string"}],"name":"register","outputs":[],"stateMutability":"payable","type":"function"},{"inputs":[{"internalType":"address","name":"from","type":"address"},{"internalType":"address","name":"to","type":"address"},{"internalType":"uint256","name":"tokenId","type":"uint256"}],"name":"safeTransferFrom","outputs":[],"stateMutability":"nonpayable","type":"function"},{"inputs":[{"internalType":"address","name":"from","type":"address"},{"internalType":"address","name":"to","type":"address"},{"internalType":"uint256","name":"tokenId","type":"uint256"},{"internalType":"bytes","name":"data","type":"bytes"}],"name":"safeTransferFrom","outputs":[],"stateMutability":"nonpayable","type":"function"},{"inputs":[{"internalType":"address","name":"operator","type":"address"},{"internalType":"bool","name":"approved","type":"bool"}],"name":"setApprovalForAll","outputs":[],"stateMutability":"nonpayable","type":"function"},{"inputs":[{"internalType":"string","name":"name","type":"string"},{"internalType":"string","name":"record","type":"string"}],"name":"setRecord","outputs":[],"stateMutability":"nonpayable","type":"function"},{"inputs":[{"internalType":"bytes4","name":"interfaceId","type":"bytes4"}],"name":"supportsInterface","outputs":[{"internalType":"bool","name":"","type":"bool"}],"stateMutability":"view","type":"function"},{"inputs":[],"name":"symbol","outputs":[{"internalType":"string","name":"","type":"string"}],"stateMutability":"view","type":"function"},{"inputs":[],"name":"tld","outputs":[{"internalType":"string","name":"","type":"string"}],"stateMutability":"view","type":"function"},{"inputs":[{"internalType":"uint256","name":"tokenId","type":"uint256"}],"name":"tokenURI","outputs":[{"internalType":"string","name":"","type":"string"}],"stateMutability":"view","type":"function"},{"inputs":[{"internalType":"address","name":"from","type":"address"},{"internalType":"address","name":"to","type":"address"},{"internalType":"uint256","name":"tokenId","type":"uint256"}],"name":"transferFrom","outputs":[],"stateMutability":"nonpayable","type":"function"}],"evm":{"bytecode":{"linkReferences":{},"object":"6080604052604051806108a0016040528061086b815260200162004bfd61086b913960099081620000319190620004de565b506040518060400160405280600d81526020017f3c2f746578743e3c2f7376673e00000000000000000000000000000000000000815250600a9081620000789190620004de565b50604051620054683803806200546883398181016040528101906200009e919062000729565b6040518060400160405280601281526020017f4e696e6a61204e616d65205365727669636500000000000000000000000000008152506040518060400160405280600381526020017f4e4e53000000000000000000000000000000000000000000000000000000000081525081600090816200011b9190620004de565b5080600190816200012d9190620004de565b5050508060089081620001419190620004de565b506200018e6040518060400160405280601881526020017f2573206e616d652073657276696365206465706c6f7965640000000000000000815250826200019560201b6200145d1760201c565b5062000807565b620002378282604051602401620001ae929190620007cc565b6040516020818303038152906040527f4b5c4277000000000000000000000000000000000000000000000000000000007bffffffffffffffffffffffffffffffffffffffffffffffffffffffff19166020820180517bffffffffffffffffffffffffffffffffffffffffffffffffffffffff83818316178352505050506200023b60201b60201c565b5050565b60008151905060006a636f6e736f6c652e6c6f679050602083016000808483855afa5050505050565b600081519050919050565b7f4e487b7100000000000000000000000000000000000000000000000000000000600052604160045260246000fd5b7f4e487b7100000000000000000000000000000000000000000000000000000000600052602260045260246000fd5b60006002820490506001821680620002e657607f821691505b602082108103620002fc57620002fb6200029e565b5b50919050565b60008190508160005260206000209050919050565b60006020601f8301049050919050565b600082821b905092915050565b600060088302620003667fffffffffffffffffffffffffffffffffffffffffffffffffffffffffffffffff8262000327565b62000372868362000327565b95508019841693508086168417925050509392505050565b6000819050919050565b6000819050919050565b6000620003bf620003b9620003b3846200038a565b62000394565b6200038a565b9050919050565b6000819050919050565b620003db836200039e565b620003f3620003ea82620003c6565b84845462000334565b825550505050565b600090565b6200040a620003fb565b62000417818484620003d0565b505050565b5b818110156200043f576200043360008262000400565b6001810190506200041d565b5050565b601f8211156200048e57620004588162000302565b620004638462000317565b8101602085101562000473578190505b6200048b620004828562000317565b8301826200041c565b50505b505050565b600082821c905092915050565b6000620004b36000198460080262000493565b1980831691505092915050565b6000620004ce8383620004a0565b9150826002028217905092915050565b620004e98262000264565b67ffffffffffffffff8111156200050557620005046200026f565b5b620005118254620002cd565b6200051e82828562000443565b600060209050601f83116001811462000556576000841562000541578287015190505b6200054d8582620004c0565b865550620005bd565b601f198416620005668662000302565b60005b82811015620005905784890151825560018201915060208501945060208101905062000569565b86831015620005b05784890151620005ac601f891682620004a0565b8355505b6001600288020188555050505b505050505050565b6000604051905090565b600080fd5b600080fd5b600080fd5b600080fd5b6000601f19601f8301169050919050565b620005ff82620005e3565b810181811067ffffffffffffffff821117156200062157620006206200026f565b5b80604052505050565b600062000636620005c5565b9050620006448282620005f4565b919050565b600067ffffffffffffffff8211156200066757620006666200026f565b5b6200067282620005e3565b9050602081019050919050565b60005b838110156200069f57808201518184015260208101905062000682565b60008484015250505050565b6000620006c2620006bc8462000649565b6200062a565b905082815260208101848484011115620006e157620006e0620005de565b5b620006ee8482856200067f565b509392505050565b600082601f8301126200070e576200070d620005d9565b5b815162000720848260208601620006ab565b91505092915050565b600060208284031215620007425762000741620005cf565b5b600082015167ffffffffffffffff811115620007635762000762620005d4565b5b6200077184828501620006f6565b91505092915050565b600082825260208201905092915050565b6000620007988262000264565b620007a481856200077a565b9350620007b68185602086016200067f565b620007c181620005e3565b840191505092915050565b60006040820190508181036000830152620007e881856200078b565b90508181036020830152620007fe81846200078b565b90509392505050565b6143e680620008176000396000f3fe60806040526004361061012a5760003560e01c80636352211e116100ab578063bf40fac11161006f578063bf40fac114610428578063c1880a9814610465578063c87b56dd1461048e578063e985e9c5146104cb578063f2c298be14610508578063fe2c6198146105245761012a565b80636352211e1461033157806370a082311461036e57806395d89b41146103ab578063a22cb465146103d6578063b88d4fde146103ff5761012a565b806323b872dd116100f257806323b872dd1461023a57806326449235146102635780632d551432146102a057806342842e0e146102cb578063541e771d146102f45761012a565b806301ffc9a71461012f57806306fdde031461016c578063081812fc14610197578063095ea7b3146101d457806311dd8845146101fd575b600080fd5b34801561013b57600080fd5b50610156600480360381019061015191906129c8565b610561565b6040516101639190612a10565b60405180910390f35b34801561017857600080fd5b50610181610643565b60405161018e9190612abb565b60405180910390f35b3480156101a357600080fd5b506101be60048036038101906101b99190612b13565b6106d5565b6040516101cb9190612b81565b60405180910390f35b3480156101e057600080fd5b506101fb60048036038101906101f69190612bc8565b61071b565b005b34801561020957600080fd5b50610224600480360381019061021f9190612c6d565b610832565b6040516102319190612abb565b60405180910390f35b34801561024657600080fd5b50610261600480360381019061025c9190612cba565b6108e5565b005b34801561026f57600080fd5b5061028a60048036038101906102859190612e3d565b610945565b6040516102979190612b81565b60405180910390f35b3480156102ac57600080fd5b506102b561098e565b6040516102c29190612abb565b60405180910390f35b3480156102d757600080fd5b506102f260048036038101906102ed9190612cba565b610a1c565b005b34801561030057600080fd5b5061031b60048036038101906103169190612e3d565b610a3c565b6040516103289190612abb565b60405180910390f35b34801561033d57600080fd5b5061035860048036038101906103539190612b13565b610af2565b6040516103659190612b81565b60405180910390f35b34801561037a57600080fd5b5061039560048036038101906103909190612e86565b610b78565b6040516103a29190612ec2565b60405180910390f35b3480156103b757600080fd5b506103c0610c2f565b6040516103cd9190612abb565b60405180910390f35b3480156103e257600080fd5b506103fd60048036038101906103f89190612f09565b610cc1565b005b34801561040b57600080fd5b5061042660048036038101906104219190612fea565b610cd7565b005b34801561043457600080fd5b5061044f600480360381019061044a9190612c6d565b610d39565b60405161045c9190612b81565b60405180910390f35b34801561047157600080fd5b5061048c6004803603810190610487919061306d565b610d84565b005b34801561049a57600080fd5b506104b560048036038101906104b09190612b13565b610e32565b6040516104c29190612abb565b60405180910390f35b3480156104d757600080fd5b506104f260048036038101906104ed91906130ee565b610f44565b6040516104ff9190612a10565b60405180910390f35b610522600480360381019061051d9190612c6d565b610fd8565b005b34801561053057600080fd5b5061054b60048036038101906105469190612c6d565b6113b9565b6040516105589190612ec2565b60405180910390f35b60007f80ac58cd000000000000000000000000000000000000000000000000000000007bffffffffffffffffffffffffffffffffffffffffffffffffffffffff1916827bffffffffffffffffffffffffffffffffffffffffffffffffffffffff1916148061062c57507f5b5e139f000000000000000000000000000000000000000000000000000000007bffffffffffffffffffffffffffffffffffffffffffffffffffffffff1916827bffffffffffffffffffffffffffffffffffffffffffffffffffffffff1916145b8061063c575061063b826114f9565b5b9050919050565b6060600080546106529061315d565b80601f016020809104026020016040519081016040528092919081815260200182805461067e9061315d565b80156106cb5780601f106106a0576101008083540402835291602001916106cb565b820191906000526020600020905b8154815290600101906020018083116106ae57829003601f168201915b5050505050905090565b60006106e082611563565b6004600083815260200190815260200160002060009054906101000a900473ffffffffffffffffffffffffffffffffffffffff169050919050565b600061072682610af2565b90508073ffffffffffffffffffffffffffffffffffffffff168373ffffffffffffffffffffffffffffffffffffffff1603610796576040517f08c379a000000000000000000000000000000000000000000000000000000000815260040161078d90613200565b60405180910390fd5b8073ffffffffffffffffffffffffffffffffffffffff166107b56115ae565b73ffffffffffffffffffffffffffffffffffffffff1614806107e457506107e3816107de6115ae565b610f44565b5b610823576040517f08c379a000000000000000000000000000000000000000000000000000000000815260040161081a90613292565b60405180910390fd5b61082d83836115b6565b505050565b6060600c83836040516108469291906132e2565b9081526020016040518091039020805461085f9061315d565b80601f016020809104026020016040519081016040528092919081815260200182805461088b9061315d565b80156108d85780601f106108ad576101008083540402835291602001916108d8565b820191906000526020600020905b8154815290600101906020018083116108bb57829003601f168201915b5050505050905092915050565b6108f66108f06115ae565b8261166f565b610935576040517f08c379a000000000000000000000000000000000000000000000000000000000815260040161092c9061336d565b60405180910390fd5b610940838383611704565b505050565b600b818051602081018201805184825260208301602085012081835280955050505050506000915054906101000a900473ffffffffffffffffffffffffffffffffffffffff1681565b6008805461099b9061315d565b80601f01602080910402602001604051908101604052809291908181526020018280546109c79061315d565b8015610a145780601f106109e957610100808354040283529160200191610a14565b820191906000526020600020905b8154815290600101906020018083116109f757829003601f168201915b505050505081565b610a3783838360405180602001604052806000815250610cd7565b505050565b600c818051602081018201805184825260208301602085012081835280955050505050506000915090508054610a719061315d565b80601f0160208091040260200160405190810160405280929190818152602001828054610a9d9061315d565b8015610aea5780601f10610abf57610100808354040283529160200191610aea565b820191906000526020600020905b815481529060010190602001808311610acd57829003601f168201915b505050505081565b600080610afe836119fd565b9050600073ffffffffffffffffffffffffffffffffffffffff168173ffffffffffffffffffffffffffffffffffffffff1603610b6f576040517f08c379a0000000000000000000000000000000000000000000000000000000008152600401610b66906133d9565b60405180910390fd5b80915050919050565b60008073ffffffffffffffffffffffffffffffffffffffff168273ffffffffffffffffffffffffffffffffffffffff1603610be8576040517f08c379a0000000000000000000000000000000000000000000000000000000008152600401610bdf9061346b565b60405180910390fd5b600360008373ffffffffffffffffffffffffffffffffffffffff1673ffffffffffffffffffffffffffffffffffffffff168152602001908152602001600020549050919050565b606060018054610c3e9061315d565b80601f0160208091040260200160405190810160405280929190818152602001828054610c6a9061315d565b8015610cb75780601f10610c8c57610100808354040283529160200191610cb7565b820191906000526020600020905b815481529060010190602001808311610c9a57829003601f168201915b5050505050905090565b610cd3610ccc6115ae565b8383611a3a565b5050565b610ce8610ce26115ae565b8361166f565b610d27576040517f08c379a0000000000000000000000000000000000000000000000000000000008152600401610d1e9061336d565b60405180910390fd5b610d3384848484611ba6565b50505050565b6000600b8383604051610d4d9291906132e2565b908152602001604051809103902060009054906101000a900473ffffffffffffffffffffffffffffffffffffffff16905092915050565b3373ffffffffffffffffffffffffffffffffffffffff16600b8585604051610dad9291906132e2565b908152602001604051809103902060009054906101000a900473ffffffffffffffffffffffffffffffffffffffff1673ffffffffffffffffffffffffffffffffffffffff1614610dfc57600080fd5b8181600c8686604051610e109291906132e2565b90815260200160405180910390209182610e2b929190613642565b5050505050565b6060610e3d82611563565b6000600660008481526020019081526020016000208054610e5d9061315d565b80601f0160208091040260200160405190810160405280929190818152602001828054610e899061315d565b8015610ed65780601f10610eab57610100808354040283529160200191610ed6565b820191906000526020600020905b815481529060010190602001808311610eb957829003601f168201915b505050505090506000610ee7611c02565b90506000815103610efc578192505050610f3f565b600082511115610f31578082604051602001610f19929190613743565b60405160208183030381529060405292505050610f3f565b610f3a84611c19565b925050505b919050565b6000600560008473ffffffffffffffffffffffffffffffffffffffff1673ffffffffffffffffffffffffffffffffffffffff16815260200190815260200160002060008373ffffffffffffffffffffffffffffffffffffffff1673ffffffffffffffffffffffffffffffffffffffff16815260200190815260200160002060009054906101000a900460ff16905092915050565b600073ffffffffffffffffffffffffffffffffffffffff16600b83836040516110029291906132e2565b908152602001604051809103902060009054906101000a900473ffffffffffffffffffffffffffffffffffffffff1673ffffffffffffffffffffffffffffffffffffffff161461105157600080fd5b600061105d83836113b9565b9050803410156110a2576040517f08c379a0000000000000000000000000000000000000000000000000000000008152600401611099906137b3565b60405180910390fd5b6000838360086040516020016110ba939291906138a2565b60405160208183030381529060405290506000600982600a6040516020016110e4939291906138d3565b604051602081830303815290604052905060006111016007611c81565b9050600061115287878080601f016020809104026020016040519081016040528093929190818152602001838380828437600081840152601f19601f82011690508083019250505050505050611c8f565b9050600061115f82611e44565b90506112536040518060600160405280603181526020016143076031913989898080601f016020809104026020016040519081016040528093929190818152602001838380828437600081840152601f19601f82011690508083019250505050505050600880546111cf9061315d565b80601f01602080910402602001604051908101604052809291908181526020018280546111fb9061315d565b80156112485780601f1061121d57610100808354040283529160200191611248565b820191906000526020600020905b81548152906001019060200180831161122b57829003601f168201915b505050505086611f12565b60006112898661126287611fb4565b8460405160200161127593929190613a80565b604051602081830303815290604052611fb4565b905060008160405160200161129e9190613b29565b60405160208183030381529060405290506112d06040518060600160405280603981526020016142ce60399139612117565b61130f6040518060400160405280600e81526020017f46696e616c20746f6b656e5552490000000000000000000000000000000000008152508261145d565b61133060405180606001604052806039815260200161433860399139612117565b61133a33866121b0565b61134485826121ce565b33600b8b8b6040516113579291906132e2565b908152602001604051809103902060006101000a81548173ffffffffffffffffffffffffffffffffffffffff021916908373ffffffffffffffffffffffffffffffffffffffff1602179055506113ad600761223b565b50505050505050505050565b60008061140984848080601f016020809104026020016040519081016040528093929190818152602001838380828437600081840152601f19601f82011690508083019250505050505050611c8f565b90506000811161141857600080fd5b60038103611431576706f05b59d3b20000915050611457565b6004810361144a57670429d069189e0000915050611457565b67016345785d8a00009150505b92915050565b6114f58282604051602401611473929190613b4b565b6040516020818303038152906040527f4b5c4277000000000000000000000000000000000000000000000000000000007bffffffffffffffffffffffffffffffffffffffffffffffffffffffff19166020820180517bffffffffffffffffffffffffffffffffffffffffffffffffffffffff8381831617835250505050612251565b5050565b60007f01ffc9a7000000000000000000000000000000000000000000000000000000007bffffffffffffffffffffffffffffffffffffffffffffffffffffffff1916827bffffffffffffffffffffffffffffffffffffffffffffffffffffffff1916149050919050565b61156c8161227a565b6115ab576040517f08c379a00000000000000000000000000000000000000000000000000000000081526004016115a2906133d9565b60405180910390fd5b50565b600033905090565b816004600083815260200190815260200160002060006101000a81548173ffffffffffffffffffffffffffffffffffffffff021916908373ffffffffffffffffffffffffffffffffffffffff160217905550808273ffffffffffffffffffffffffffffffffffffffff1661162983610af2565b73ffffffffffffffffffffffffffffffffffffffff167f8c5be1e5ebec7d5bd14f71427d1e84f3dd0314c0f7b2291e5b200ac8c7c3b92560405160405180910390a45050565b60008061167b83610af2565b90508073ffffffffffffffffffffffffffffffffffffffff168473ffffffffffffffffffffffffffffffffffffffff1614806116bd57506116bc8185610f44565b5b806116fb57508373ffffffffffffffffffffffffffffffffffffffff166116e3846106d5565b73ffffffffffffffffffffffffffffffffffffffff16145b91505092915050565b8273ffffffffffffffffffffffffffffffffffffffff1661172482610af2565b73ffffffffffffffffffffffffffffffffffffffff161461177a576040517f08c379a000000000000000000000000000000000000000000000000000000000815260040161177190613bf4565b60405180910390fd5b600073ffffffffffffffffffffffffffffffffffffffff168273ffffffffffffffffffffffffffffffffffffffff16036117e9576040517f08c379a00000000000000000000000000000000000000000000000000000000081526004016117e090613c86565b60405180910390fd5b6117f683838360016122bb565b8273ffffffffffffffffffffffffffffffffffffffff1661181682610af2565b73ffffffffffffffffffffffffffffffffffffffff161461186c576040517f08c379a000000000000000000000000000000000000000000000000000000000815260040161186390613bf4565b60405180910390fd5b6004600082815260200190815260200160002060006101000a81549073ffffffffffffffffffffffffffffffffffffffff02191690556001600360008573ffffffffffffffffffffffffffffffffffffffff1673ffffffffffffffffffffffffffffffffffffffff168152602001908152602001600020600082825403925050819055506001600360008473ffffffffffffffffffffffffffffffffffffffff1673ffffffffffffffffffffffffffffffffffffffff16815260200190815260200160002060008282540192505081905550816002600083815260200190815260200160002060006101000a81548173ffffffffffffffffffffffffffffffffffffffff021916908373ffffffffffffffffffffffffffffffffffffffff160217905550808273ffffffffffffffffffffffffffffffffffffffff168473ffffffffffffffffffffffffffffffffffffffff167fddf252ad1be2c89b69c2b068fc378daa952ba7f163c4a11628f55a4df523b3ef60405160405180910390a46119f883838360016123e1565b505050565b60006002600083815260200190815260200160002060009054906101000a900473ffffffffffffffffffffffffffffffffffffffff169050919050565b8173ffffffffffffffffffffffffffffffffffffffff168373ffffffffffffffffffffffffffffffffffffffff1603611aa8576040517f08c379a0000000000000000000000000000000000000000000000000000000008152600401611a9f90613cf2565b60405180910390fd5b80600560008573ffffffffffffffffffffffffffffffffffffffff1673ffffffffffffffffffffffffffffffffffffffff16815260200190815260200160002060008473ffffffffffffffffffffffffffffffffffffffff1673ffffffffffffffffffffffffffffffffffffffff16815260200190815260200160002060006101000a81548160ff0219169083151502179055508173ffffffffffffffffffffffffffffffffffffffff168373ffffffffffffffffffffffffffffffffffffffff167f17307eab39ab6107e8899845ad3d59bd9653f200f220920489ca2b5937696c3183604051611b999190612a10565b60405180910390a3505050565b611bb1848484611704565b611bbd848484846123e7565b611bfc576040517f08c379a0000000000000000000000000000000000000000000000000000000008152600401611bf390613d84565b60405180910390fd5b50505050565b606060405180602001604052806000815250905090565b6060611c2482611563565b6000611c2e611c02565b90506000815111611c4e5760405180602001604052806000815250611c79565b80611c5884611e44565b604051602001611c69929190613743565b6040516020818303038152906040525b915050919050565b600081600001549050919050565b60008060008084519050600092505b80821015611e39576000858381518110611cbb57611cba613da4565b5b602001015160f81c60f81b9050608060f81b817effffffffffffffffffffffffffffffffffffffffffffffffffffffffffffff19161015611d0a57600183611d039190613e02565b9250611e25565b60e060f81b817effffffffffffffffffffffffffffffffffffffffffffffffffffffffffffff19161015611d4c57600283611d459190613e02565b9250611e24565b60f060f81b817effffffffffffffffffffffffffffffffffffffffffffffffffffffffffffff19161015611d8e57600383611d879190613e02565b9250611e23565b60f8801b817effffffffffffffffffffffffffffffffffffffffffffffffffffffffffffff19161015611dcf57600483611dc89190613e02565b9250611e22565b60fc60f81b817effffffffffffffffffffffffffffffffffffffffffffffffffffffffffffff19161015611e1157600583611e0a9190613e02565b9250611e21565b600683611e1e9190613e02565b92505b5b5b5b5b508280611e3190613e36565b935050611c9e565b829350505050919050565b606060006001611e538461256e565b01905060008167ffffffffffffffff811115611e7257611e71612d12565b5b6040519080825280601f01601f191660200182016040528015611ea45781602001600182028036833780820191505090505b509050600082602001820190505b600115611f07578080600190039150507f3031323334353637383961626364656600000000000000000000000000000000600a86061a8153600a8581611efb57611efa613e7e565b5b04945060008503611eb2575b819350505050919050565b611fae84848484604051602401611f2c9493929190613ead565b6040516020818303038152906040527f8eafb02b000000000000000000000000000000000000000000000000000000007bffffffffffffffffffffffffffffffffffffffffffffffffffffffff19166020820180517bffffffffffffffffffffffffffffffffffffffffffffffffffffffff8381831617835250505050612251565b50505050565b60606000825103611fd657604051806020016040528060008152509050612112565b600060405180606001604052806040815260200161437160409139905060006003600285516120059190613e02565b61200f9190613f07565b600461201b9190613f38565b67ffffffffffffffff81111561203457612033612d12565b5b6040519080825280601f01601f1916602001820160405280156120665781602001600182028036833780820191505090505b509050600182016020820185865187015b808210156120d2576003820191508151603f8160121c168501518453600184019350603f81600c1c168501518453600184019350603f8160061c168501518453600184019350603f8116850151845360018401935050612077565b50506003865106600181146120ee576002811461210157612109565b603d6001830353603d6002830353612109565b603d60018303535b50505080925050505b919050565b6121ad8160405160240161212b9190612abb565b6040516020818303038152906040527f41304fac000000000000000000000000000000000000000000000000000000007bffffffffffffffffffffffffffffffffffffffffffffffffffffffff19166020820180517bffffffffffffffffffffffffffffffffffffffffffffffffffffffff8381831617835250505050612251565b50565b6121ca8282604051806020016040528060008152506126c1565b5050565b6121d78261227a565b612216576040517f08c379a000000000000000000000000000000000000000000000000000000000815260040161220d90613fec565b60405180910390fd5b80600660008481526020019081526020016000209081612236919061400c565b505050565b6001816000016000828254019250508190555050565b60008151905060006a636f6e736f6c652e6c6f679050602083016000808483855afa5050505050565b60008073ffffffffffffffffffffffffffffffffffffffff1661229c836119fd565b73ffffffffffffffffffffffffffffffffffffffff1614159050919050565b60018111156123db57600073ffffffffffffffffffffffffffffffffffffffff168473ffffffffffffffffffffffffffffffffffffffff161461234f5780600360008673ffffffffffffffffffffffffffffffffffffffff1673ffffffffffffffffffffffffffffffffffffffff168152602001908152602001600020600082825461234791906140de565b925050819055505b600073ffffffffffffffffffffffffffffffffffffffff168373ffffffffffffffffffffffffffffffffffffffff16146123da5780600360008573ffffffffffffffffffffffffffffffffffffffff1673ffffffffffffffffffffffffffffffffffffffff16815260200190815260200160002060008282546123d29190613e02565b925050819055505b5b50505050565b50505050565b60006124088473ffffffffffffffffffffffffffffffffffffffff1661271c565b15612561578373ffffffffffffffffffffffffffffffffffffffff1663150b7a026124316115ae565b8786866040518563ffffffff1660e01b81526004016124539493929190614167565b6020604051808303816000875af192505050801561248f57506040513d601f19601f8201168201806040525081019061248c91906141c8565b60015b612511573d80600081146124bf576040519150601f19603f3d011682016040523d82523d6000602084013e6124c4565b606091505b506000815103612509576040517f08c379a000000000000000000000000000000000000000000000000000000000815260040161250090613d84565b60405180910390fd5b805181602001fd5b63150b7a0260e01b7bffffffffffffffffffffffffffffffffffffffffffffffffffffffff1916817bffffffffffffffffffffffffffffffffffffffffffffffffffffffff191614915050612566565b600190505b949350505050565b600080600090507a184f03e93ff9f4daa797ed6e38ed64bf6a1f01000000000000000083106125cc577a184f03e93ff9f4daa797ed6e38ed64bf6a1f01000000000000000083816125c2576125c1613e7e565b5b0492506040810190505b6d04ee2d6d415b85acef81000000008310612609576d04ee2d6d415b85acef810000000083816125ff576125fe613e7e565b5b0492506020810190505b662386f26fc10000831061263857662386f26fc10000838161262e5761262d613e7e565b5b0492506010810190505b6305f5e1008310612661576305f5e100838161265757612656613e7e565b5b0492506008810190505b612710831061268657612710838161267c5761267b613e7e565b5b0492506004810190505b606483106126a9576064838161269f5761269e613e7e565b5b0492506002810190505b600a83106126b8576001810190505b80915050919050565b6126cb838361273f565b6126d860008484846123e7565b612717576040517f08c379a000000000000000000000000000000000000000000000000000000000815260040161270e90613d84565b60405180910390fd5b505050565b6000808273ffffffffffffffffffffffffffffffffffffffff163b119050919050565b600073ffffffffffffffffffffffffffffffffffffffff168273ffffffffffffffffffffffffffffffffffffffff16036127ae576040517f08c379a00000000000000000000000000000000000000000000000000000000081526004016127a590614241565b60405180910390fd5b6127b78161227a565b156127f7576040517f08c379a00000000000000000000000000000000000000000000000000000000081526004016127ee906142ad565b60405180910390fd5b6128056000838360016122bb565b61280e8161227a565b1561284e576040517f08c379a0000000000000000000000000000000000000000000000000000000008152600401612845906142ad565b60405180910390fd5b6001600360008473ffffffffffffffffffffffffffffffffffffffff1673ffffffffffffffffffffffffffffffffffffffff16815260200190815260200160002060008282540192505081905550816002600083815260200190815260200160002060006101000a81548173ffffffffffffffffffffffffffffffffffffffff021916908373ffffffffffffffffffffffffffffffffffffffff160217905550808273ffffffffffffffffffffffffffffffffffffffff16600073ffffffffffffffffffffffffffffffffffffffff167fddf252ad1be2c89b69c2b068fc378daa952ba7f163c4a11628f55a4df523b3ef60405160405180910390a46129586000838360016123e1565b5050565b6000604051905090565b600080fd5b600080fd5b60007fffffffff0000000000000000000000000000000000000000000000000000000082169050919050565b6129a581612970565b81146129b057600080fd5b50565b6000813590506129c28161299c565b92915050565b6000602082840312156129de576129dd612966565b5b60006129ec848285016129b3565b91505092915050565b60008115159050919050565b612a0a816129f5565b82525050565b6000602082019050612a256000830184612a01565b92915050565b600081519050919050565b600082825260208201905092915050565b60005b83811015612a65578082015181840152602081019050612a4a565b60008484015250505050565b6000601f19601f8301169050919050565b6000612a8d82612a2b565b612a978185612a36565b9350612aa7818560208601612a47565b612ab081612a71565b840191505092915050565b60006020820190508181036000830152612ad58184612a82565b905092915050565b6000819050919050565b612af081612add565b8114612afb57600080fd5b50565b600081359050612b0d81612ae7565b92915050565b600060208284031215612b2957612b28612966565b5b6000612b3784828501612afe565b91505092915050565b600073ffffffffffffffffffffffffffffffffffffffff82169050919050565b6000612b6b82612b40565b9050919050565b612b7b81612b60565b82525050565b6000602082019050612b966000830184612b72565b92915050565b612ba581612b60565b8114612bb057600080fd5b50565b600081359050612bc281612b9c565b92915050565b60008060408385031215612bdf57612bde612966565b5b6000612bed85828601612bb3565b9250506020612bfe85828601612afe565b9150509250929050565b600080fd5b600080fd5b600080fd5b60008083601f840112612c2d57612c2c612c08565b5b8235905067ffffffffffffffff811115612c4a57612c49612c0d565b5b602083019150836001820283011115612c6657612c65612c12565b5b9250929050565b60008060208385031215612c8457612c83612966565b5b600083013567ffffffffffffffff811115612ca257612ca161296b565b5b612cae85828601612c17565b92509250509250929050565b600080600060608486031215612cd357612cd2612966565b5b6000612ce186828701612bb3565b9350506020612cf286828701612bb3565b9250506040612d0386828701612afe565b9150509250925092565b600080fd5b7f4e487b7100000000000000000000000000000000000000000000000000000000600052604160045260246000fd5b612d4a82612a71565b810181811067ffffffffffffffff82111715612d6957612d68612d12565b5b80604052505050565b6000612d7c61295c565b9050612d888282612d41565b919050565b600067ffffffffffffffff821115612da857612da7612d12565b5b612db182612a71565b9050602081019050919050565b82818337600083830152505050565b6000612de0612ddb84612d8d565b612d72565b905082815260208101848484011115612dfc57612dfb612d0d565b5b612e07848285612dbe565b509392505050565b600082601f830112612e2457612e23612c08565b5b8135612e34848260208601612dcd565b91505092915050565b600060208284031215612e5357612e52612966565b5b600082013567ffffffffffffffff811115612e7157612e7061296b565b5b612e7d84828501612e0f565b91505092915050565b600060208284031215612e9c57612e9b612966565b5b6000612eaa84828501612bb3565b91505092915050565b612ebc81612add565b82525050565b6000602082019050612ed76000830184612eb3565b92915050565b612ee6816129f5565b8114612ef157600080fd5b50565b600081359050612f0381612edd565b92915050565b60008060408385031215612f2057612f1f612966565b5b6000612f2e85828601612bb3565b9250506020612f3f85828601612ef4565b9150509250929050565b600067ffffffffffffffff821115612f6457612f63612d12565b5b612f6d82612a71565b9050602081019050919050565b6000612f8d612f8884612f49565b612d72565b905082815260208101848484011115612fa957612fa8612d0d565b5b612fb4848285612dbe565b509392505050565b600082601f830112612fd157612fd0612c08565b5b8135612fe1848260208601612f7a565b91505092915050565b6000806000806080858703121561300457613003612966565b5b600061301287828801612bb3565b945050602061302387828801612bb3565b935050604061303487828801612afe565b925050606085013567ffffffffffffffff8111156130555761305461296b565b5b61306187828801612fbc565b91505092959194509250565b6000806000806040858703121561308757613086612966565b5b600085013567ffffffffffffffff8111156130a5576130a461296b565b5b6130b187828801612c17565b9450945050602085013567ffffffffffffffff8111156130d4576130d361296b565b5b6130e087828801612c17565b925092505092959194509250565b6000806040838503121561310557613104612966565b5b600061311385828601612bb3565b925050602061312485828601612bb3565b9150509250929050565b7f4e487b7100000000000000000000000000000000000000000000000000000000600052602260045260246000fd5b6000600282049050600182168061317557607f821691505b6020821081036131885761318761312e565b5b50919050565b7f4552433732313a20617070726f76616c20746f2063757272656e74206f776e6560008201527f7200000000000000000000000000000000000000000000000000000000000000602082015250565b60006131ea602183612a36565b91506131f58261318e565b604082019050919050565b60006020820190508181036000830152613219816131dd565b9050919050565b7f4552433732313a20617070726f76652063616c6c6572206973206e6f7420746f60008201527f6b656e206f776e6572206f7220617070726f76656420666f7220616c6c000000602082015250565b600061327c603d83612a36565b915061328782613220565b604082019050919050565b600060208201905081810360008301526132ab8161326f565b9050919050565b600081905092915050565b60006132c983856132b2565b93506132d6838584612dbe565b82840190509392505050565b60006132ef8284866132bd565b91508190509392505050565b7f4552433732313a2063616c6c6572206973206e6f7420746f6b656e206f776e6560008201527f72206f7220617070726f76656400000000000000000000000000000000000000602082015250565b6000613357602d83612a36565b9150613362826132fb565b604082019050919050565b600060208201905081810360008301526133868161334a565b9050919050565b7f4552433732313a20696e76616c696420746f6b656e2049440000000000000000600082015250565b60006133c3601883612a36565b91506133ce8261338d565b602082019050919050565b600060208201905081810360008301526133f2816133b6565b9050919050565b7f4552433732313a2061646472657373207a65726f206973206e6f74206120766160008201527f6c6964206f776e65720000000000000000000000000000000000000000000000602082015250565b6000613455602983612a36565b9150613460826133f9565b604082019050919050565b6000602082019050818103600083015261348481613448565b9050919050565b600082905092915050565b60008190508160005260206000209050919050565b60006020601f8301049050919050565b600082821b905092915050565b6000600883026134f87fffffffffffffffffffffffffffffffffffffffffffffffffffffffffffffffff826134bb565b61350286836134bb565b95508019841693508086168417925050509392505050565b6000819050919050565b600061353f61353a61353584612add565b61351a565b612add565b9050919050565b6000819050919050565b61355983613524565b61356d61356582613546565b8484546134c8565b825550505050565b600090565b613582613575565b61358d818484613550565b505050565b5b818110156135b1576135a660008261357a565b600181019050613593565b5050565b601f8211156135f6576135c781613496565b6135d0846134ab565b810160208510156135df578190505b6135f36135eb856134ab565b830182613592565b50505b505050565b600082821c905092915050565b6000613619600019846008026135fb565b1980831691505092915050565b60006136328383613608565b9150826002028217905092915050565b61364c838361348b565b67ffffffffffffffff81111561366557613664612d12565b5b61366f825461315d565b61367a8282856135b5565b6000601f8311600181146136a95760008415613697578287013590505b6136a18582613626565b865550613709565b601f1984166136b786613496565b60005b828110156136df578489013582556001820191506020850194506020810190506136ba565b868310156136fc57848901356136f8601f891682613608565b8355505b6001600288020188555050505b50505050505050565b600061371d82612a2b565b61372781856132b2565b9350613737818560208601612a47565b80840191505092915050565b600061374f8285613712565b915061375b8284613712565b91508190509392505050565b7f4e6f7420656e6f756768204d6174696320706169640000000000000000000000600082015250565b600061379d601583612a36565b91506137a882613767565b602082019050919050565b600060208201905081810360008301526137cc81613790565b9050919050565b7f2e00000000000000000000000000000000000000000000000000000000000000600082015250565b60006138096001836132b2565b9150613814826137d3565b600182019050919050565b6000815461382c8161315d565b61383681866132b2565b94506001821660008114613851576001811461386657613899565b60ff1983168652811515820286019350613899565b61386f85613496565b60005b8381101561389157815481890152600182019150602081019050613872565b838801955050505b50505092915050565b60006138af8285876132bd565b91506138ba826137fc565b91506138c6828461381f565b9150819050949350505050565b60006138df828661381f565b91506138eb8285613712565b91506138f7828461381f565b9150819050949350505050565b7f7b226e616d65223a202200000000000000000000000000000000000000000000600082015250565b600061393a600a836132b2565b915061394582613904565b600a82019050919050565b7f222c20226465736372697074696f6e223a20224120646f6d61696e206f6e207460008201527f6865204e696e6a61206e616d652073657276696365222c2022696d616765223a60208201527f2022646174613a696d6167652f7376672b786d6c3b6261736536342c00000000604082015250565b60006139d2605c836132b2565b91506139dd82613950565b605c82019050919050565b7f222c226c656e677468223a220000000000000000000000000000000000000000600082015250565b6000613a1e600c836132b2565b9150613a29826139e8565b600c82019050919050565b7f227d000000000000000000000000000000000000000000000000000000000000600082015250565b6000613a6a6002836132b2565b9150613a7582613a34565b600282019050919050565b6000613a8b8261392d565b9150613a978286613712565b9150613aa2826139c5565b9150613aae8285613712565b9150613ab982613a11565b9150613ac58284613712565b9150613ad082613a5d565b9150819050949350505050565b7f646174613a6170706c69636174696f6e2f6a736f6e3b6261736536342c000000600082015250565b6000613b13601d836132b2565b9150613b1e82613add565b601d82019050919050565b6000613b3482613b06565b9150613b408284613712565b915081905092915050565b60006040820190508181036000830152613b658185612a82565b90508181036020830152613b798184612a82565b90509392505050565b7f4552433732313a207472616e736665722066726f6d20696e636f72726563742060008201527f6f776e6572000000000000000000000000000000000000000000000000000000602082015250565b6000613bde602583612a36565b9150613be982613b82565b604082019050919050565b60006020820190508181036000830152613c0d81613bd1565b9050919050565b7f4552433732313a207472616e7366657220746f20746865207a65726f2061646460008201527f7265737300000000000000000000000000000000000000000000000000000000602082015250565b6000613c70602483612a36565b9150613c7b82613c14565b604082019050919050565b60006020820190508181036000830152613c9f81613c63565b9050919050565b7f4552433732313a20617070726f766520746f2063616c6c657200000000000000600082015250565b6000613cdc601983612a36565b9150613ce782613ca6565b602082019050919050565b60006020820190508181036000830152613d0b81613ccf565b9050919050565b7f4552433732313a207472616e7366657220746f206e6f6e20455243373231526560008201527f63656976657220696d706c656d656e7465720000000000000000000000000000602082015250565b6000613d6e603283612a36565b9150613d7982613d12565b604082019050919050565b60006020820190508181036000830152613d9d81613d61565b9050919050565b7f4e487b7100000000000000000000000000000000000000000000000000000000600052603260045260246000fd5b7f4e487b7100000000000000000000000000000000000000000000000000000000600052601160045260246000fd5b6000613e0d82612add565b9150613e1883612add565b9250828201905080821115613e3057613e2f613dd3565b5b92915050565b6000613e4182612add565b91507fffffffffffffffffffffffffffffffffffffffffffffffffffffffffffffffff8203613e7357613e72613dd3565b5b600182019050919050565b7f4e487b7100000000000000000000000000000000000000000000000000000000600052601260045260246000fd5b60006080820190508181036000830152613ec78187612a82565b90508181036020830152613edb8186612a82565b90508181036040830152613eef8185612a82565b9050613efe6060830184612eb3565b95945050505050565b6000613f1282612add565b9150613f1d83612add565b925082613f2d57613f2c613e7e565b5b828204905092915050565b6000613f4382612add565b9150613f4e83612add565b9250828202613f5c81612add565b91508282048414831517613f7357613f72613dd3565b5b5092915050565b7f45524337323155524953746f726167653a2055524920736574206f66206e6f6e60008201527f6578697374656e7420746f6b656e000000000000000000000000000000000000602082015250565b6000613fd6602e83612a36565b9150613fe182613f7a565b604082019050919050565b6000602082019050818103600083015261400581613fc9565b9050919050565b61401582612a2b565b67ffffffffffffffff81111561402e5761402d612d12565b5b614038825461315d565b6140438282856135b5565b600060209050601f8311600181146140765760008415614064578287015190505b61406e8582613626565b8655506140d6565b601f19841661408486613496565b60005b828110156140ac57848901518255600182019150602085019450602081019050614087565b868310156140c957848901516140c5601f891682613608565b8355505b6001600288020188555050505b505050505050565b60006140e982612add565b91506140f483612add565b925082820390508181111561410c5761410b613dd3565b5b92915050565b600081519050919050565b600082825260208201905092915050565b600061413982614112565b614143818561411d565b9350614153818560208601612a47565b61415c81612a71565b840191505092915050565b600060808201905061417c6000830187612b72565b6141896020830186612b72565b6141966040830185612eb3565b81810360608301526141a8818461412e565b905095945050505050565b6000815190506141c28161299c565b92915050565b6000602082840312156141de576141dd612966565b5b60006141ec848285016141b3565b91505092915050565b7f4552433732313a206d696e7420746f20746865207a65726f2061646472657373600082015250565b600061422b602083612a36565b9150614236826141f5565b602082019050919050565b6000602082019050818103600083015261425a8161421e565b9050919050565b7f4552433732313a20746f6b656e20616c7265616479206d696e74656400000000600082015250565b6000614297601c83612a36565b91506142a282614261565b602082019050919050565b600060208201905081810360008301526142c68161428a565b905091905056fe0a2d2d2d2d2d2d2d2d2d2d2d2d2d2d2d2d2d2d2d2d2d2d2d2d2d2d2d2d2d2d2d2d2d2d2d2d2d2d2d2d2d2d2d2d2d2d2d2d2d2d2d2d2d2d2d2d5265676973746572696e672025732e2573206f6e2074686520636f6e7472616374207769746820746f6b656e49442025642d2d2d2d2d2d2d2d2d2d2d2d2d2d2d2d2d2d2d2d2d2d2d2d2d2d2d2d2d2d2d2d2d2d2d2d2d2d2d2d2d2d2d2d2d2d2d2d2d2d2d2d2d2d2d2d0a4142434445464748494a4b4c4d4e4f505152535455565758595a6162636465666768696a6b6c6d6e6f707172737475767778797a303132333435363738392b2fa26469706673582212205bbdc6119b0cca5e4c0cb423339d4cc91c1aad3af7d73ab8b7244616240596c664736f6c634300081100333c73766720786d6c6e733d22687474703a2f2f7777772e77332e6f72672f323030302f737667222077696474683d2232373022206865696768743d22323730222066696c6c3d226e6f6e65223e3c706174682066696c6c3d2275726c282342292220643d224d302030683237307632373048307a222f3e3c646566733e3c66696c7465722069643d22412220636f6c6f722d696e746572706f6c6174696f6e2d66696c746572733d2273524742222066696c746572556e6974733d227573657253706163654f6e55736522206865696768743d22323730222077696474683d22323730223e3c666544726f70536861646f772064783d2230222064793d22312220737464446576696174696f6e3d22322220666c6f6f642d6f7061636974793d222e323235222077696474683d223230302522206865696768743d2232303025222f3e3c2f66696c7465723e3c2f646566733e3c7061746820643d224d37322e3836332034322e393439632d2e3636382d2e3338372d312e3432362d2e35392d322e3139372d2e3539732d312e3532392e3230342d322e3139372e35396c2d31302e30383120362e3033322d362e383520332e3933342d31302e30383120362e303332632d2e3636382e3338372d312e3432362e35392d322e3139372e3539732d312e3532392d2e3230342d322e3139372d2e35396c2d382e3031332d342e37323161342e353220342e35322030203020312d312e3538392d312e363136632d2e3338342d2e3636352d2e3539342d312e3431382d2e3630382d322e313837762d392e3331632d2e3031332d2e3737352e3138352d312e3533382e3537322d322e32303861342e323520342e323520302030203120312e3632352d312e3539356c372e3838342d342e3539632e3636382d2e33383720312e3432362d2e353920322e3139372d2e353973312e3532392e32303420322e3139372e35396c372e38383420342e353961342e353220342e353220302030203120312e35383920312e363136632e3338342e3636352e35393420312e3431382e36303820322e31383776362e3033326c362e38352d342e303635762d362e303332632e3031332d2e3737352d2e3138352d312e3533382d2e3537322d322e32303861342e323520342e32352030203020302d312e3632352d312e3539354c34312e3435362032342e3539632d2e3636382d2e3338372d312e3432362d2e35392d322e3139372d2e3539732d312e3532392e3230342d322e3139372e35396c2d31342e38363420382e36353561342e323520342e32352030203020302d312e36323520312e353935632d2e3338372e36372d2e35383520312e3433342d2e35373220322e3230387631372e343431632d2e3031332e3737352e31383520312e3533382e35373220322e32303861342e323520342e323520302030203020312e36323520312e3539356c31342e38363420382e363535632e3636382e33383720312e3432362e353920322e3139372e353973312e3532392d2e32303420322e3139372d2e35396c31302e3038312d352e39303120362e38352d342e3036352031302e3038312d352e393031632e3636382d2e33383720312e3432362d2e353920322e3139372d2e353973312e3532392e32303420322e3139372e35396c372e38383420342e353961342e353220342e353220302030203120312e35383920312e363136632e3338342e3636352e35393420312e3431382e36303820322e31383776392e333131632e3031332e3737352d2e31383520312e3533382d2e35373220322e32303861342e323520342e32352030203020312d312e36323520312e3539356c2d372e38383420342e373231632d2e3636382e3338372d312e3432362e35392d322e3139372e3539732d312e3532392d2e3230342d322e3139372d2e35396c2d372e3838342d342e353961342e353220342e35322030203020312d312e3538392d312e363136632d2e3338352d2e3636352d2e3539342d312e3431382d2e3630382d322e313837762d362e3033326c2d362e383520342e30363576362e303332632d2e3031332e3737352e31383520312e3533382e35373220322e32303861342e323520342e323520302030203020312e36323520312e3539356c31342e38363420382e363535632e3636382e33383720312e3432362e353920322e3139372e353973312e3532392d2e32303420322e3139372d2e35396c31342e3836342d382e363535632e3635372d2e33393420312e3230342d2e393520312e3538392d312e363136732e3539342d312e3431382e3630392d322e3138375635352e353338632e3031332d2e3737352d2e3138352d312e3533382d2e3537322d322e32303861342e323520342e32352030203020302d312e3632352d312e3539356c2d31342e3939332d382e3738367a222066696c6c3d2223666666222f3e3c646566733e3c6c696e6561724772616469656e742069643d2242222078313d2230222079313d2230222078323d22323730222079323d2232373022206772616469656e74556e6974733d227573657253706163654f6e557365223e3c73746f702073746f702d636f6c6f723d2223636235656565222f3e3c73746f70206f66667365743d2231222073746f702d636f6c6f723d2223306364376534222073746f702d6f7061636974793d222e3939222f3e3c2f6c696e6561724772616469656e743e3c2f646566733e3c7465787420783d2233322e352220793d223233312220666f6e742d73697a653d223237222066696c6c3d2223666666222066696c7465723d2275726c282341292220666f6e742d66616d696c793d22506c7573204a616b617274612053616e732c44656a6156752053616e732c4e6f746f20436f6c6f7220456d6f6a692c4170706c6520436f6c6f7220456d6f6a692c73616e732d73657269662220666f6e742d7765696768743d22626f6c64223e","opcodes":"PUSH1 0x80 PUSH1 0x40 MSTORE PUSH1 0x40 MLOAD DUP1 PUSH2 0x8A0 ADD PUSH1 0x40 MSTORE DUP1 PUSH2 0x86B DUP2 MSTORE PUSH1 0x20 ADD PUSH3 0x4BFD PUSH2 0x86B SWAP2 CODECOPY PUSH1 0x9 SWAP1 DUP2 PUSH3 0x31 SWAP2 SWAP1 PUSH3 0x4DE JUMP JUMPDEST POP PUSH1 0x40 MLOAD DUP1 PUSH1 0x40 ADD PUSH1 0x40 MSTORE DUP1 PUSH1 0xD DUP2 MSTORE PUSH1 0x20 ADD PUSH32 0x3C2F746578743E3C2F7376673E00000000000000000000000000000000000000 DUP2 MSTORE POP PUSH1 0xA SWAP1 DUP2 PUSH3 0x78 SWAP2 SWAP1 PUSH3 0x4DE JUMP JUMPDEST POP PUSH1 0x40 MLOAD PUSH3 0x5468 CODESIZE SUB DUP1 PUSH3 0x5468 DUP4 CODECOPY DUP2 DUP2 ADD PUSH1 0x40 MSTORE DUP2 ADD SWAP1 PUSH3 0x9E SWAP2 SWAP1 PUSH3 0x729 JUMP JUMPDEST PUSH1 0x40 MLOAD DUP1 PUSH1 0x40 ADD PUSH1 0x40 MSTORE DUP1 PUSH1 0x12 DUP2 MSTORE PUSH1 0x20 ADD PUSH32 0x4E696E6A61204E616D6520536572766963650000000000000000000000000000 DUP2 MSTORE POP PUSH1 0x40 MLOAD DUP1 PUSH1 0x40 ADD PUSH1 0x40 MSTORE DUP1 PUSH1 0x3 DUP2 MSTORE PUSH1 0x20 ADD PUSH32 0x4E4E530000000000000000000000000000000000000000000000000000000000 DUP2 MSTORE POP DUP2 PUSH1 0x0 SWAP1 DUP2 PUSH3 0x11B SWAP2 SWAP1 PUSH3 0x4DE JUMP JUMPDEST POP DUP1 PUSH1 0x1 SWAP1 DUP2 PUSH3 0x12D SWAP2 SWAP1 PUSH3 0x4DE JUMP JUMPDEST POP POP POP DUP1 PUSH1 0x8 SWAP1 DUP2 PUSH3 0x141 SWAP2 SWAP1 PUSH3 0x4DE JUMP JUMPDEST POP PUSH3 0x18E PUSH1 0x40 MLOAD DUP1 PUSH1 0x40 ADD PUSH1 0x40 MSTORE DUP1 PUSH1 0x18 DUP2 MSTORE PUSH1 0x20 ADD PUSH32 0x2573206E616D652073657276696365206465706C6F7965640000000000000000 DUP2 MSTORE POP DUP3 PUSH3 0x195 PUSH1 0x20 SHL PUSH3 0x145D OR PUSH1 0x20 SHR JUMP JUMPDEST POP PUSH3 0x807 JUMP JUMPDEST PUSH3 0x237 DUP3 DUP3 PUSH1 0x40 MLOAD PUSH1 0x24 ADD PUSH3 0x1AE SWAP3 SWAP2 SWAP1 PUSH3 0x7CC JUMP JUMPDEST PUSH1 0x40 MLOAD PUSH1 0x20 DUP2 DUP4 SUB SUB DUP2 MSTORE SWAP1 PUSH1 0x40 MSTORE PUSH32 0x4B5C427700000000000000000000000000000000000000000000000000000000 PUSH28 0xFFFFFFFFFFFFFFFFFFFFFFFFFFFFFFFFFFFFFFFFFFFFFFFFFFFFFFFF NOT AND PUSH1 0x20 DUP3 ADD DUP1 MLOAD PUSH28 0xFFFFFFFFFFFFFFFFFFFFFFFFFFFFFFFFFFFFFFFFFFFFFFFFFFFFFFFF DUP4 DUP2 DUP4 AND OR DUP4 MSTORE POP POP POP POP PUSH3 0x23B PUSH1 0x20 SHL PUSH1 0x20 SHR JUMP JUMPDEST POP POP JUMP JUMPDEST PUSH1 0x0 DUP2 MLOAD SWAP1 POP PUSH1 0x0 PUSH11 0x636F6E736F6C652E6C6F67 SWAP1 POP PUSH1 0x20 DUP4 ADD PUSH1 0x0 DUP1 DUP5 DUP4 DUP6 GAS STATICCALL POP POP POP POP POP JUMP JUMPDEST PUSH1 0x0 DUP2 MLOAD SWAP1 POP SWAP2 SWAP1 POP JUMP JUMPDEST PUSH32 0x4E487B7100000000000000000000000000000000000000000000000000000000 PUSH1 0x0 MSTORE PUSH1 0x41 PUSH1 0x4 MSTORE PUSH1 0x24 PUSH1 0x0 REVERT JUMPDEST PUSH32 0x4E487B7100000000000000000000000000000000000000000000000000000000 PUSH1 0x0 MSTORE PUSH1 0x22 PUSH1 0x4 MSTORE PUSH1 0x24 PUSH1 0x0 REVERT JUMPDEST PUSH1 0x0 PUSH1 0x2 DUP3 DIV SWAP1 POP PUSH1 0x1 DUP3 AND DUP1 PUSH3 0x2E6 JUMPI PUSH1 0x7F DUP3 AND SWAP2 POP JUMPDEST PUSH1 0x20 DUP3 LT DUP2 SUB PUSH3 0x2FC JUMPI PUSH3 0x2FB PUSH3 0x29E JUMP JUMPDEST JUMPDEST POP SWAP2 SWAP1 POP JUMP JUMPDEST PUSH1 0x0 DUP2 SWAP1 POP DUP2 PUSH1 0x0 MSTORE PUSH1 0x20 PUSH1 0x0 KECCAK256 SWAP1 POP SWAP2 SWAP1 POP JUMP JUMPDEST PUSH1 0x0 PUSH1 0x20 PUSH1 0x1F DUP4 ADD DIV SWAP1 POP SWAP2 SWAP1 POP JUMP JUMPDEST PUSH1 0x0 DUP3 DUP3 SHL SWAP1 POP SWAP3 SWAP2 POP POP JUMP JUMPDEST PUSH1 0x0 PUSH1 0x8 DUP4 MUL PUSH3 0x366 PUSH32 0xFFFFFFFFFFFFFFFFFFFFFFFFFFFFFFFFFFFFFFFFFFFFFFFFFFFFFFFFFFFFFFFF DUP3 PUSH3 0x327 JUMP JUMPDEST PUSH3 0x372 DUP7 DUP4 PUSH3 0x327 JUMP JUMPDEST SWAP6 POP DUP1 NOT DUP5 AND SWAP4 POP DUP1 DUP7 AND DUP5 OR SWAP3 POP POP POP SWAP4 SWAP3 POP POP POP JUMP JUMPDEST PUSH1 0x0 DUP2 SWAP1 POP SWAP2 SWAP1 POP JUMP JUMPDEST PUSH1 0x0 DUP2 SWAP1 POP SWAP2 SWAP1 POP JUMP JUMPDEST PUSH1 0x0 PUSH3 0x3BF PUSH3 0x3B9 PUSH3 0x3B3 DUP5 PUSH3 0x38A JUMP JUMPDEST PUSH3 0x394 JUMP JUMPDEST PUSH3 0x38A JUMP JUMPDEST SWAP1 POP SWAP2 SWAP1 POP JUMP JUMPDEST PUSH1 0x0 DUP2 SWAP1 POP SWAP2 SWAP1 POP JUMP JUMPDEST PUSH3 0x3DB DUP4 PUSH3 0x39E JUMP JUMPDEST PUSH3 0x3F3 PUSH3 0x3EA DUP3 PUSH3 0x3C6 JUMP JUMPDEST DUP5 DUP5 SLOAD PUSH3 0x334 JUMP JUMPDEST DUP3 SSTORE POP POP POP POP JUMP JUMPDEST PUSH1 0x0 SWAP1 JUMP JUMPDEST PUSH3 0x40A PUSH3 0x3FB JUMP JUMPDEST PUSH3 0x417 DUP2 DUP5 DUP5 PUSH3 0x3D0 JUMP JUMPDEST POP POP POP JUMP JUMPDEST JUMPDEST DUP2 DUP2 LT ISZERO PUSH3 0x43F JUMPI PUSH3 0x433 PUSH1 0x0 DUP3 PUSH3 0x400 JUMP JUMPDEST PUSH1 0x1 DUP2 ADD SWAP1 POP PUSH3 0x41D JUMP JUMPDEST POP POP JUMP JUMPDEST PUSH1 0x1F DUP3 GT ISZERO PUSH3 0x48E JUMPI PUSH3 0x458 DUP2 PUSH3 0x302 JUMP JUMPDEST PUSH3 0x463 DUP5 PUSH3 0x317 JUMP JUMPDEST DUP2 ADD PUSH1 0x20 DUP6 LT ISZERO PUSH3 0x473 JUMPI DUP2 SWAP1 POP JUMPDEST PUSH3 0x48B PUSH3 0x482 DUP6 PUSH3 0x317 JUMP JUMPDEST DUP4 ADD DUP3 PUSH3 0x41C JUMP JUMPDEST POP POP JUMPDEST POP POP POP JUMP JUMPDEST PUSH1 0x0 DUP3 DUP3 SHR SWAP1 POP SWAP3 SWAP2 POP POP JUMP JUMPDEST PUSH1 0x0 PUSH3 0x4B3 PUSH1 0x0 NOT DUP5 PUSH1 0x8 MUL PUSH3 0x493 JUMP JUMPDEST NOT DUP1 DUP4 AND SWAP2 POP POP SWAP3 SWAP2 POP POP JUMP JUMPDEST PUSH1 0x0 PUSH3 0x4CE DUP4 DUP4 PUSH3 0x4A0 JUMP JUMPDEST SWAP2 POP DUP3 PUSH1 0x2 MUL DUP3 OR SWAP1 POP SWAP3 SWAP2 POP POP JUMP JUMPDEST PUSH3 0x4E9 DUP3 PUSH3 0x264 JUMP JUMPDEST PUSH8 0xFFFFFFFFFFFFFFFF DUP2 GT ISZERO PUSH3 0x505 JUMPI PUSH3 0x504 PUSH3 0x26F JUMP JUMPDEST JUMPDEST PUSH3 0x511 DUP3 SLOAD PUSH3 0x2CD JUMP JUMPDEST PUSH3 0x51E DUP3 DUP3 DUP6 PUSH3 0x443 JUMP JUMPDEST PUSH1 0x0 PUSH1 0x20 SWAP1 POP PUSH1 0x1F DUP4 GT PUSH1 0x1 DUP2 EQ PUSH3 0x556 JUMPI PUSH1 0x0 DUP5 ISZERO PUSH3 0x541 JUMPI DUP3 DUP8 ADD MLOAD SWAP1 POP JUMPDEST PUSH3 0x54D DUP6 DUP3 PUSH3 0x4C0 JUMP JUMPDEST DUP7 SSTORE POP PUSH3 0x5BD JUMP JUMPDEST PUSH1 0x1F NOT DUP5 AND PUSH3 0x566 DUP7 PUSH3 0x302 JUMP JUMPDEST PUSH1 0x0 JUMPDEST DUP3 DUP2 LT ISZERO PUSH3 0x590 JUMPI DUP5 DUP10 ADD MLOAD DUP3 SSTORE PUSH1 0x1 DUP3 ADD SWAP2 POP PUSH1 0x20 DUP6 ADD SWAP5 POP PUSH1 0x20 DUP2 ADD SWAP1 POP PUSH3 0x569 JUMP JUMPDEST DUP7 DUP4 LT ISZERO PUSH3 0x5B0 JUMPI DUP5 DUP10 ADD MLOAD PUSH3 0x5AC PUSH1 0x1F DUP10 AND DUP3 PUSH3 0x4A0 JUMP JUMPDEST DUP4 SSTORE POP JUMPDEST PUSH1 0x1 PUSH1 0x2 DUP9 MUL ADD DUP9 SSTORE POP POP POP JUMPDEST POP POP POP POP POP POP JUMP JUMPDEST PUSH1 0x0 PUSH1 0x40 MLOAD SWAP1 POP SWAP1 JUMP JUMPDEST PUSH1 0x0 DUP1 REVERT JUMPDEST PUSH1 0x0 DUP1 REVERT JUMPDEST PUSH1 0x0 DUP1 REVERT JUMPDEST PUSH1 0x0 DUP1 REVERT JUMPDEST PUSH1 0x0 PUSH1 0x1F NOT PUSH1 0x1F DUP4 ADD AND SWAP1 POP SWAP2 SWAP1 POP JUMP JUMPDEST PUSH3 0x5FF DUP3 PUSH3 0x5E3 JUMP JUMPDEST DUP2 ADD DUP2 DUP2 LT PUSH8 0xFFFFFFFFFFFFFFFF DUP3 GT OR ISZERO PUSH3 0x621 JUMPI PUSH3 0x620 PUSH3 0x26F JUMP JUMPDEST JUMPDEST DUP1 PUSH1 0x40 MSTORE POP POP POP JUMP JUMPDEST PUSH1 0x0 PUSH3 0x636 PUSH3 0x5C5 JUMP JUMPDEST SWAP1 POP PUSH3 0x644 DUP3 DUP3 PUSH3 0x5F4 JUMP JUMPDEST SWAP2 SWAP1 POP JUMP JUMPDEST PUSH1 0x0 PUSH8 0xFFFFFFFFFFFFFFFF DUP3 GT ISZERO PUSH3 0x667 JUMPI PUSH3 0x666 PUSH3 0x26F JUMP JUMPDEST JUMPDEST PUSH3 0x672 DUP3 PUSH3 0x5E3 JUMP JUMPDEST SWAP1 POP PUSH1 0x20 DUP2 ADD SWAP1 POP SWAP2 SWAP1 POP JUMP JUMPDEST PUSH1 0x0 JUMPDEST DUP4 DUP2 LT ISZERO PUSH3 0x69F JUMPI DUP1 DUP3 ADD MLOAD DUP2 DUP5 ADD MSTORE PUSH1 0x20 DUP2 ADD SWAP1 POP PUSH3 0x682 JUMP JUMPDEST PUSH1 0x0 DUP5 DUP5 ADD MSTORE POP POP POP POP JUMP JUMPDEST PUSH1 0x0 PUSH3 0x6C2 PUSH3 0x6BC DUP5 PUSH3 0x649 JUMP JUMPDEST PUSH3 0x62A JUMP JUMPDEST SWAP1 POP DUP3 DUP2 MSTORE PUSH1 0x20 DUP2 ADD DUP5 DUP5 DUP5 ADD GT ISZERO PUSH3 0x6E1 JUMPI PUSH3 0x6E0 PUSH3 0x5DE JUMP JUMPDEST JUMPDEST PUSH3 0x6EE DUP5 DUP3 DUP6 PUSH3 0x67F JUMP JUMPDEST POP SWAP4 SWAP3 POP POP POP JUMP JUMPDEST PUSH1 0x0 DUP3 PUSH1 0x1F DUP4 ADD SLT PUSH3 0x70E JUMPI PUSH3 0x70D PUSH3 0x5D9 JUMP JUMPDEST JUMPDEST DUP2 MLOAD PUSH3 0x720 DUP5 DUP3 PUSH1 0x20 DUP7 ADD PUSH3 0x6AB JUMP JUMPDEST SWAP2 POP POP SWAP3 SWAP2 POP POP JUMP JUMPDEST PUSH1 0x0 PUSH1 0x20 DUP3 DUP5 SUB SLT ISZERO PUSH3 0x742 JUMPI PUSH3 0x741 PUSH3 0x5CF JUMP JUMPDEST JUMPDEST PUSH1 0x0 DUP3 ADD MLOAD PUSH8 0xFFFFFFFFFFFFFFFF DUP2 GT ISZERO PUSH3 0x763 JUMPI PUSH3 0x762 PUSH3 0x5D4 JUMP JUMPDEST JUMPDEST PUSH3 0x771 DUP5 DUP3 DUP6 ADD PUSH3 0x6F6 JUMP JUMPDEST SWAP2 POP POP SWAP3 SWAP2 POP POP JUMP JUMPDEST PUSH1 0x0 DUP3 DUP3 MSTORE PUSH1 0x20 DUP3 ADD SWAP1 POP SWAP3 SWAP2 POP POP JUMP JUMPDEST PUSH1 0x0 PUSH3 0x798 DUP3 PUSH3 0x264 JUMP JUMPDEST PUSH3 0x7A4 DUP2 DUP6 PUSH3 0x77A JUMP JUMPDEST SWAP4 POP PUSH3 0x7B6 DUP2 DUP6 PUSH1 0x20 DUP7 ADD PUSH3 0x67F JUMP JUMPDEST PUSH3 0x7C1 DUP2 PUSH3 0x5E3 JUMP JUMPDEST DUP5 ADD SWAP2 POP POP SWAP3 SWAP2 POP POP JUMP JUMPDEST PUSH1 0x0 PUSH1 0x40 DUP3 ADD SWAP1 POP DUP2 DUP2 SUB PUSH1 0x0 DUP4 ADD MSTORE PUSH3 0x7E8 DUP2 DUP6 PUSH3 0x78B JUMP JUMPDEST SWAP1 POP DUP2 DUP2 SUB PUSH1 0x20 DUP4 ADD MSTORE PUSH3 0x7FE DUP2 DUP5 PUSH3 0x78B JUMP JUMPDEST SWAP1 POP SWAP4 SWAP3 POP POP POP JUMP JUMPDEST PUSH2 0x43E6 DUP1 PUSH3 0x817 PUSH1 0x0 CODECOPY PUSH1 0x0 RETURN INVALID PUSH1 0x80 PUSH1 0x40 MSTORE PUSH1 0x4 CALLDATASIZE LT PUSH2 0x12A JUMPI PUSH1 0x0 CALLDATALOAD PUSH1 0xE0 SHR DUP1 PUSH4 0x6352211E GT PUSH2 0xAB JUMPI DUP1 PUSH4 0xBF40FAC1 GT PUSH2 0x6F JUMPI DUP1 PUSH4 0xBF40FAC1 EQ PUSH2 0x428 JUMPI DUP1 PUSH4 0xC1880A98 EQ PUSH2 0x465 JUMPI DUP1 PUSH4 0xC87B56DD EQ PUSH2 0x48E JUMPI DUP1 PUSH4 0xE985E9C5 EQ PUSH2 0x4CB JUMPI DUP1 PUSH4 0xF2C298BE EQ PUSH2 0x508 JUMPI DUP1 PUSH4 0xFE2C6198 EQ PUSH2 0x524 JUMPI PUSH2 0x12A JUMP JUMPDEST DUP1 PUSH4 0x6352211E EQ PUSH2 0x331 JUMPI DUP1 PUSH4 0x70A08231 EQ PUSH2 0x36E JUMPI DUP1 PUSH4 0x95D89B41 EQ PUSH2 0x3AB JUMPI DUP1 PUSH4 0xA22CB465 EQ PUSH2 0x3D6 JUMPI DUP1 PUSH4 0xB88D4FDE EQ PUSH2 0x3FF JUMPI PUSH2 0x12A JUMP JUMPDEST DUP1 PUSH4 0x23B872DD GT PUSH2 0xF2 JUMPI DUP1 PUSH4 0x23B872DD EQ PUSH2 0x23A JUMPI DUP1 PUSH4 0x26449235 EQ PUSH2 0x263 JUMPI DUP1 PUSH4 0x2D551432 EQ PUSH2 0x2A0 JUMPI DUP1 PUSH4 0x42842E0E EQ PUSH2 0x2CB JUMPI DUP1 PUSH4 0x541E771D EQ PUSH2 0x2F4 JUMPI PUSH2 0x12A JUMP JUMPDEST DUP1 PUSH4 0x1FFC9A7 EQ PUSH2 0x12F JUMPI DUP1 PUSH4 0x6FDDE03 EQ PUSH2 0x16C JUMPI DUP1 PUSH4 0x81812FC EQ PUSH2 0x197 JUMPI DUP1 PUSH4 0x95EA7B3 EQ PUSH2 0x1D4 JUMPI DUP1 PUSH4 0x11DD8845 EQ PUSH2 0x1FD JUMPI JUMPDEST PUSH1 0x0 DUP1 REVERT JUMPDEST CALLVALUE DUP1 ISZERO PUSH2 0x13B JUMPI PUSH1 0x0 DUP1 REVERT JUMPDEST POP PUSH2 0x156 PUSH1 0x4 DUP1 CALLDATASIZE SUB DUP2 ADD SWAP1 PUSH2 0x151 SWAP2 SWAP1 PUSH2 0x29C8 JUMP JUMPDEST PUSH2 0x561 JUMP JUMPDEST PUSH1 0x40 MLOAD PUSH2 0x163 SWAP2 SWAP1 PUSH2 0x2A10 JUMP JUMPDEST PUSH1 0x40 MLOAD DUP1 SWAP2 SUB SWAP1 RETURN JUMPDEST CALLVALUE DUP1 ISZERO PUSH2 0x178 JUMPI PUSH1 0x0 DUP1 REVERT JUMPDEST POP PUSH2 0x181 PUSH2 0x643 JUMP JUMPDEST PUSH1 0x40 MLOAD PUSH2 0x18E SWAP2 SWAP1 PUSH2 0x2ABB JUMP JUMPDEST PUSH1 0x40 MLOAD DUP1 SWAP2 SUB SWAP1 RETURN JUMPDEST CALLVALUE DUP1 ISZERO PUSH2 0x1A3 JUMPI PUSH1 0x0 DUP1 REVERT JUMPDEST POP PUSH2 0x1BE PUSH1 0x4 DUP1 CALLDATASIZE SUB DUP2 ADD SWAP1 PUSH2 0x1B9 SWAP2 SWAP1 PUSH2 0x2B13 JUMP JUMPDEST PUSH2 0x6D5 JUMP JUMPDEST PUSH1 0x40 MLOAD PUSH2 0x1CB SWAP2 SWAP1 PUSH2 0x2B81 JUMP JUMPDEST PUSH1 0x40 MLOAD DUP1 SWAP2 SUB SWAP1 RETURN JUMPDEST CALLVALUE DUP1 ISZERO PUSH2 0x1E0 JUMPI PUSH1 0x0 DUP1 REVERT JUMPDEST POP PUSH2 0x1FB PUSH1 0x4 DUP1 CALLDATASIZE SUB DUP2 ADD SWAP1 PUSH2 0x1F6 SWAP2 SWAP1 PUSH2 0x2BC8 JUMP JUMPDEST PUSH2 0x71B JUMP JUMPDEST STOP JUMPDEST CALLVALUE DUP1 ISZERO PUSH2 0x209 JUMPI PUSH1 0x0 DUP1 REVERT JUMPDEST POP PUSH2 0x224 PUSH1 0x4 DUP1 CALLDATASIZE SUB DUP2 ADD SWAP1 PUSH2 0x21F SWAP2 SWAP1 PUSH2 0x2C6D JUMP JUMPDEST PUSH2 0x832 JUMP JUMPDEST PUSH1 0x40 MLOAD PUSH2 0x231 SWAP2 SWAP1 PUSH2 0x2ABB JUMP JUMPDEST PUSH1 0x40 MLOAD DUP1 SWAP2 SUB SWAP1 RETURN JUMPDEST CALLVALUE DUP1 ISZERO PUSH2 0x246 JUMPI PUSH1 0x0 DUP1 REVERT JUMPDEST POP PUSH2 0x261 PUSH1 0x4 DUP1 CALLDATASIZE SUB DUP2 ADD SWAP1 PUSH2 0x25C SWAP2 SWAP1 PUSH2 0x2CBA JUMP JUMPDEST PUSH2 0x8E5 JUMP JUMPDEST STOP JUMPDEST CALLVALUE DUP1 ISZERO PUSH2 0x26F JUMPI PUSH1 0x0 DUP1 REVERT JUMPDEST POP PUSH2 0x28A PUSH1 0x4 DUP1 CALLDATASIZE SUB DUP2 ADD SWAP1 PUSH2 0x285 SWAP2 SWAP1 PUSH2 0x2E3D JUMP JUMPDEST PUSH2 0x945 JUMP JUMPDEST PUSH1 0x40 MLOAD PUSH2 0x297 SWAP2 SWAP1 PUSH2 0x2B81 JUMP JUMPDEST PUSH1 0x40 MLOAD DUP1 SWAP2 SUB SWAP1 RETURN JUMPDEST CALLVALUE DUP1 ISZERO PUSH2 0x2AC JUMPI PUSH1 0x0 DUP1 REVERT JUMPDEST POP PUSH2 0x2B5 PUSH2 0x98E JUMP JUMPDEST PUSH1 0x40 MLOAD PUSH2 0x2C2 SWAP2 SWAP1 PUSH2 0x2ABB JUMP JUMPDEST PUSH1 0x40 MLOAD DUP1 SWAP2 SUB SWAP1 RETURN JUMPDEST CALLVALUE DUP1 ISZERO PUSH2 0x2D7 JUMPI PUSH1 0x0 DUP1 REVERT JUMPDEST POP PUSH2 0x2F2 PUSH1 0x4 DUP1 CALLDATASIZE SUB DUP2 ADD SWAP1 PUSH2 0x2ED SWAP2 SWAP1 PUSH2 0x2CBA JUMP JUMPDEST PUSH2 0xA1C JUMP JUMPDEST STOP JUMPDEST CALLVALUE DUP1 ISZERO PUSH2 0x300 JUMPI PUSH1 0x0 DUP1 REVERT JUMPDEST POP PUSH2 0x31B PUSH1 0x4 DUP1 CALLDATASIZE SUB DUP2 ADD SWAP1 PUSH2 0x316 SWAP2 SWAP1 PUSH2 0x2E3D JUMP JUMPDEST PUSH2 0xA3C JUMP JUMPDEST PUSH1 0x40 MLOAD PUSH2 0x328 SWAP2 SWAP1 PUSH2 0x2ABB JUMP JUMPDEST PUSH1 0x40 MLOAD DUP1 SWAP2 SUB SWAP1 RETURN JUMPDEST CALLVALUE DUP1 ISZERO PUSH2 0x33D JUMPI PUSH1 0x0 DUP1 REVERT JUMPDEST POP PUSH2 0x358 PUSH1 0x4 DUP1 CALLDATASIZE SUB DUP2 ADD SWAP1 PUSH2 0x353 SWAP2 SWAP1 PUSH2 0x2B13 JUMP JUMPDEST PUSH2 0xAF2 JUMP JUMPDEST PUSH1 0x40 MLOAD PUSH2 0x365 SWAP2 SWAP1 PUSH2 0x2B81 JUMP JUMPDEST PUSH1 0x40 MLOAD DUP1 SWAP2 SUB SWAP1 RETURN JUMPDEST CALLVALUE DUP1 ISZERO PUSH2 0x37A JUMPI PUSH1 0x0 DUP1 REVERT JUMPDEST POP PUSH2 0x395 PUSH1 0x4 DUP1 CALLDATASIZE SUB DUP2 ADD SWAP1 PUSH2 0x390 SWAP2 SWAP1 PUSH2 0x2E86 JUMP JUMPDEST PUSH2 0xB78 JUMP JUMPDEST PUSH1 0x40 MLOAD PUSH2 0x3A2 SWAP2 SWAP1 PUSH2 0x2EC2 JUMP JUMPDEST PUSH1 0x40 MLOAD DUP1 SWAP2 SUB SWAP1 RETURN JUMPDEST CALLVALUE DUP1 ISZERO PUSH2 0x3B7 JUMPI PUSH1 0x0 DUP1 REVERT JUMPDEST POP PUSH2 0x3C0 PUSH2 0xC2F JUMP JUMPDEST PUSH1 0x40 MLOAD PUSH2 0x3CD SWAP2 SWAP1 PUSH2 0x2ABB JUMP JUMPDEST PUSH1 0x40 MLOAD DUP1 SWAP2 SUB SWAP1 RETURN JUMPDEST CALLVALUE DUP1 ISZERO PUSH2 0x3E2 JUMPI PUSH1 0x0 DUP1 REVERT JUMPDEST POP PUSH2 0x3FD PUSH1 0x4 DUP1 CALLDATASIZE SUB DUP2 ADD SWAP1 PUSH2 0x3F8 SWAP2 SWAP1 PUSH2 0x2F09 JUMP JUMPDEST PUSH2 0xCC1 JUMP JUMPDEST STOP JUMPDEST CALLVALUE DUP1 ISZERO PUSH2 0x40B JUMPI PUSH1 0x0 DUP1 REVERT JUMPDEST POP PUSH2 0x426 PUSH1 0x4 DUP1 CALLDATASIZE SUB DUP2 ADD SWAP1 PUSH2 0x421 SWAP2 SWAP1 PUSH2 0x2FEA JUMP JUMPDEST PUSH2 0xCD7 JUMP JUMPDEST STOP JUMPDEST CALLVALUE DUP1 ISZERO PUSH2 0x434 JUMPI PUSH1 0x0 DUP1 REVERT JUMPDEST POP PUSH2 0x44F PUSH1 0x4 DUP1 CALLDATASIZE SUB DUP2 ADD SWAP1 PUSH2 0x44A SWAP2 SWAP1 PUSH2 0x2C6D JUMP JUMPDEST PUSH2 0xD39 JUMP JUMPDEST PUSH1 0x40 MLOAD PUSH2 0x45C SWAP2 SWAP1 PUSH2 0x2B81 JUMP JUMPDEST PUSH1 0x40 MLOAD DUP1 SWAP2 SUB SWAP1 RETURN JUMPDEST CALLVALUE DUP1 ISZERO PUSH2 0x471 JUMPI PUSH1 0x0 DUP1 REVERT JUMPDEST POP PUSH2 0x48C PUSH1 0x4 DUP1 CALLDATASIZE SUB DUP2 ADD SWAP1 PUSH2 0x487 SWAP2 SWAP1 PUSH2 0x306D JUMP JUMPDEST PUSH2 0xD84 JUMP JUMPDEST STOP JUMPDEST CALLVALUE DUP1 ISZERO PUSH2 0x49A JUMPI PUSH1 0x0 DUP1 REVERT JUMPDEST POP PUSH2 0x4B5 PUSH1 0x4 DUP1 CALLDATASIZE SUB DUP2 ADD SWAP1 PUSH2 0x4B0 SWAP2 SWAP1 PUSH2 0x2B13 JUMP JUMPDEST PUSH2 0xE32 JUMP JUMPDEST PUSH1 0x40 MLOAD PUSH2 0x4C2 SWAP2 SWAP1 PUSH2 0x2ABB JUMP JUMPDEST PUSH1 0x40 MLOAD DUP1 SWAP2 SUB SWAP1 RETURN JUMPDEST CALLVALUE DUP1 ISZERO PUSH2 0x4D7 JUMPI PUSH1 0x0 DUP1 REVERT JUMPDEST POP PUSH2 0x4F2 PUSH1 0x4 DUP1 CALLDATASIZE SUB DUP2 ADD SWAP1 PUSH2 0x4ED SWAP2 SWAP1 PUSH2 0x30EE JUMP JUMPDEST PUSH2 0xF44 JUMP JUMPDEST PUSH1 0x40 MLOAD PUSH2 0x4FF SWAP2 SWAP1 PUSH2 0x2A10 JUMP JUMPDEST PUSH1 0x40 MLOAD DUP1 SWAP2 SUB SWAP1 RETURN JUMPDEST PUSH2 0x522 PUSH1 0x4 DUP1 CALLDATASIZE SUB DUP2 ADD SWAP1 PUSH2 0x51D SWAP2 SWAP1 PUSH2 0x2C6D JUMP JUMPDEST PUSH2 0xFD8 JUMP JUMPDEST STOP JUMPDEST CALLVALUE DUP1 ISZERO PUSH2 0x530 JUMPI PUSH1 0x0 DUP1 REVERT JUMPDEST POP PUSH2 0x54B PUSH1 0x4 DUP1 CALLDATASIZE SUB DUP2 ADD SWAP1 PUSH2 0x546 SWAP2 SWAP1 PUSH2 0x2C6D JUMP JUMPDEST PUSH2 0x13B9 JUMP JUMPDEST PUSH1 0x40 MLOAD PUSH2 0x558 SWAP2 SWAP1 PUSH2 0x2EC2 JUMP JUMPDEST PUSH1 0x40 MLOAD DUP1 SWAP2 SUB SWAP1 RETURN JUMPDEST PUSH1 0x0 PUSH32 0x80AC58CD00000000000000000000000000000000000000000000000000000000 PUSH28 0xFFFFFFFFFFFFFFFFFFFFFFFFFFFFFFFFFFFFFFFFFFFFFFFFFFFFFFFF NOT AND DUP3 PUSH28 0xFFFFFFFFFFFFFFFFFFFFFFFFFFFFFFFFFFFFFFFFFFFFFFFFFFFFFFFF NOT AND EQ DUP1 PUSH2 0x62C JUMPI POP PUSH32 0x5B5E139F00000000000000000000000000000000000000000000000000000000 PUSH28 0xFFFFFFFFFFFFFFFFFFFFFFFFFFFFFFFFFFFFFFFFFFFFFFFFFFFFFFFF NOT AND DUP3 PUSH28 0xFFFFFFFFFFFFFFFFFFFFFFFFFFFFFFFFFFFFFFFFFFFFFFFFFFFFFFFF NOT AND EQ JUMPDEST DUP1 PUSH2 0x63C JUMPI POP PUSH2 0x63B DUP3 PUSH2 0x14F9 JUMP JUMPDEST JUMPDEST SWAP1 POP SWAP2 SWAP1 POP JUMP JUMPDEST PUSH1 0x60 PUSH1 0x0 DUP1 SLOAD PUSH2 0x652 SWAP1 PUSH2 0x315D JUMP JUMPDEST DUP1 PUSH1 0x1F ADD PUSH1 0x20 DUP1 SWAP2 DIV MUL PUSH1 0x20 ADD PUSH1 0x40 MLOAD SWAP1 DUP2 ADD PUSH1 0x40 MSTORE DUP1 SWAP3 SWAP2 SWAP1 DUP2 DUP2 MSTORE PUSH1 0x20 ADD DUP3 DUP1 SLOAD PUSH2 0x67E SWAP1 PUSH2 0x315D JUMP JUMPDEST DUP1 ISZERO PUSH2 0x6CB JUMPI DUP1 PUSH1 0x1F LT PUSH2 0x6A0 JUMPI PUSH2 0x100 DUP1 DUP4 SLOAD DIV MUL DUP4 MSTORE SWAP2 PUSH1 0x20 ADD SWAP2 PUSH2 0x6CB JUMP JUMPDEST DUP3 ADD SWAP2 SWAP1 PUSH1 0x0 MSTORE PUSH1 0x20 PUSH1 0x0 KECCAK256 SWAP1 JUMPDEST DUP2 SLOAD DUP2 MSTORE SWAP1 PUSH1 0x1 ADD SWAP1 PUSH1 0x20 ADD DUP1 DUP4 GT PUSH2 0x6AE JUMPI DUP3 SWAP1 SUB PUSH1 0x1F AND DUP3 ADD SWAP2 JUMPDEST POP POP POP POP POP SWAP1 POP SWAP1 JUMP JUMPDEST PUSH1 0x0 PUSH2 0x6E0 DUP3 PUSH2 0x1563 JUMP JUMPDEST PUSH1 0x4 PUSH1 0x0 DUP4 DUP2 MSTORE PUSH1 0x20 ADD SWAP1 DUP2 MSTORE PUSH1 0x20 ADD PUSH1 0x0 KECCAK256 PUSH1 0x0 SWAP1 SLOAD SWAP1 PUSH2 0x100 EXP SWAP1 DIV PUSH20 0xFFFFFFFFFFFFFFFFFFFFFFFFFFFFFFFFFFFFFFFF AND SWAP1 POP SWAP2 SWAP1 POP JUMP JUMPDEST PUSH1 0x0 PUSH2 0x726 DUP3 PUSH2 0xAF2 JUMP JUMPDEST SWAP1 POP DUP1 PUSH20 0xFFFFFFFFFFFFFFFFFFFFFFFFFFFFFFFFFFFFFFFF AND DUP4 PUSH20 0xFFFFFFFFFFFFFFFFFFFFFFFFFFFFFFFFFFFFFFFF AND SUB PUSH2 0x796 JUMPI PUSH1 0x40 MLOAD PUSH32 0x8C379A000000000000000000000000000000000000000000000000000000000 DUP2 MSTORE PUSH1 0x4 ADD PUSH2 0x78D SWAP1 PUSH2 0x3200 JUMP JUMPDEST PUSH1 0x40 MLOAD DUP1 SWAP2 SUB SWAP1 REVERT JUMPDEST DUP1 PUSH20 0xFFFFFFFFFFFFFFFFFFFFFFFFFFFFFFFFFFFFFFFF AND PUSH2 0x7B5 PUSH2 0x15AE JUMP JUMPDEST PUSH20 0xFFFFFFFFFFFFFFFFFFFFFFFFFFFFFFFFFFFFFFFF AND EQ DUP1 PUSH2 0x7E4 JUMPI POP PUSH2 0x7E3 DUP2 PUSH2 0x7DE PUSH2 0x15AE JUMP JUMPDEST PUSH2 0xF44 JUMP JUMPDEST JUMPDEST PUSH2 0x823 JUMPI PUSH1 0x40 MLOAD PUSH32 0x8C379A000000000000000000000000000000000000000000000000000000000 DUP2 MSTORE PUSH1 0x4 ADD PUSH2 0x81A SWAP1 PUSH2 0x3292 JUMP JUMPDEST PUSH1 0x40 MLOAD DUP1 SWAP2 SUB SWAP1 REVERT JUMPDEST PUSH2 0x82D DUP4 DUP4 PUSH2 0x15B6 JUMP JUMPDEST POP POP POP JUMP JUMPDEST PUSH1 0x60 PUSH1 0xC DUP4 DUP4 PUSH1 0x40 MLOAD PUSH2 0x846 SWAP3 SWAP2 SWAP1 PUSH2 0x32E2 JUMP JUMPDEST SWAP1 DUP2 MSTORE PUSH1 0x20 ADD PUSH1 0x40 MLOAD DUP1 SWAP2 SUB SWAP1 KECCAK256 DUP1 SLOAD PUSH2 0x85F SWAP1 PUSH2 0x315D JUMP JUMPDEST DUP1 PUSH1 0x1F ADD PUSH1 0x20 DUP1 SWAP2 DIV MUL PUSH1 0x20 ADD PUSH1 0x40 MLOAD SWAP1 DUP2 ADD PUSH1 0x40 MSTORE DUP1 SWAP3 SWAP2 SWAP1 DUP2 DUP2 MSTORE PUSH1 0x20 ADD DUP3 DUP1 SLOAD PUSH2 0x88B SWAP1 PUSH2 0x315D JUMP JUMPDEST DUP1 ISZERO PUSH2 0x8D8 JUMPI DUP1 PUSH1 0x1F LT PUSH2 0x8AD JUMPI PUSH2 0x100 DUP1 DUP4 SLOAD DIV MUL DUP4 MSTORE SWAP2 PUSH1 0x20 ADD SWAP2 PUSH2 0x8D8 JUMP JUMPDEST DUP3 ADD SWAP2 SWAP1 PUSH1 0x0 MSTORE PUSH1 0x20 PUSH1 0x0 KECCAK256 SWAP1 JUMPDEST DUP2 SLOAD DUP2 MSTORE SWAP1 PUSH1 0x1 ADD SWAP1 PUSH1 0x20 ADD DUP1 DUP4 GT PUSH2 0x8BB JUMPI DUP3 SWAP1 SUB PUSH1 0x1F AND DUP3 ADD SWAP2 JUMPDEST POP POP POP POP POP SWAP1 POP SWAP3 SWAP2 POP POP JUMP JUMPDEST PUSH2 0x8F6 PUSH2 0x8F0 PUSH2 0x15AE JUMP JUMPDEST DUP3 PUSH2 0x166F JUMP JUMPDEST PUSH2 0x935 JUMPI PUSH1 0x40 MLOAD PUSH32 0x8C379A000000000000000000000000000000000000000000000000000000000 DUP2 MSTORE PUSH1 0x4 ADD PUSH2 0x92C SWAP1 PUSH2 0x336D JUMP JUMPDEST PUSH1 0x40 MLOAD DUP1 SWAP2 SUB SWAP1 REVERT JUMPDEST PUSH2 0x940 DUP4 DUP4 DUP4 PUSH2 0x1704 JUMP JUMPDEST POP POP POP JUMP JUMPDEST PUSH1 0xB DUP2 DUP1 MLOAD PUSH1 0x20 DUP2 ADD DUP3 ADD DUP1 MLOAD DUP5 DUP3 MSTORE PUSH1 0x20 DUP4 ADD PUSH1 0x20 DUP6 ADD KECCAK256 DUP2 DUP4 MSTORE DUP1 SWAP6 POP POP POP POP POP POP PUSH1 0x0 SWAP2 POP SLOAD SWAP1 PUSH2 0x100 EXP SWAP1 DIV PUSH20 0xFFFFFFFFFFFFFFFFFFFFFFFFFFFFFFFFFFFFFFFF AND DUP2 JUMP JUMPDEST PUSH1 0x8 DUP1 SLOAD PUSH2 0x99B SWAP1 PUSH2 0x315D JUMP JUMPDEST DUP1 PUSH1 0x1F ADD PUSH1 0x20 DUP1 SWAP2 DIV MUL PUSH1 0x20 ADD PUSH1 0x40 MLOAD SWAP1 DUP2 ADD PUSH1 0x40 MSTORE DUP1 SWAP3 SWAP2 SWAP1 DUP2 DUP2 MSTORE PUSH1 0x20 ADD DUP3 DUP1 SLOAD PUSH2 0x9C7 SWAP1 PUSH2 0x315D JUMP JUMPDEST DUP1 ISZERO PUSH2 0xA14 JUMPI DUP1 PUSH1 0x1F LT PUSH2 0x9E9 JUMPI PUSH2 0x100 DUP1 DUP4 SLOAD DIV MUL DUP4 MSTORE SWAP2 PUSH1 0x20 ADD SWAP2 PUSH2 0xA14 JUMP JUMPDEST DUP3 ADD SWAP2 SWAP1 PUSH1 0x0 MSTORE PUSH1 0x20 PUSH1 0x0 KECCAK256 SWAP1 JUMPDEST DUP2 SLOAD DUP2 MSTORE SWAP1 PUSH1 0x1 ADD SWAP1 PUSH1 0x20 ADD DUP1 DUP4 GT PUSH2 0x9F7 JUMPI DUP3 SWAP1 SUB PUSH1 0x1F AND DUP3 ADD SWAP2 JUMPDEST POP POP POP POP POP DUP2 JUMP JUMPDEST PUSH2 0xA37 DUP4 DUP4 DUP4 PUSH1 0x40 MLOAD DUP1 PUSH1 0x20 ADD PUSH1 0x40 MSTORE DUP1 PUSH1 0x0 DUP2 MSTORE POP PUSH2 0xCD7 JUMP JUMPDEST POP POP POP JUMP JUMPDEST PUSH1 0xC DUP2 DUP1 MLOAD PUSH1 0x20 DUP2 ADD DUP3 ADD DUP1 MLOAD DUP5 DUP3 MSTORE PUSH1 0x20 DUP4 ADD PUSH1 0x20 DUP6 ADD KECCAK256 DUP2 DUP4 MSTORE DUP1 SWAP6 POP POP POP POP POP POP PUSH1 0x0 SWAP2 POP SWAP1 POP DUP1 SLOAD PUSH2 0xA71 SWAP1 PUSH2 0x315D JUMP JUMPDEST DUP1 PUSH1 0x1F ADD PUSH1 0x20 DUP1 SWAP2 DIV MUL PUSH1 0x20 ADD PUSH1 0x40 MLOAD SWAP1 DUP2 ADD PUSH1 0x40 MSTORE DUP1 SWAP3 SWAP2 SWAP1 DUP2 DUP2 MSTORE PUSH1 0x20 ADD DUP3 DUP1 SLOAD PUSH2 0xA9D SWAP1 PUSH2 0x315D JUMP JUMPDEST DUP1 ISZERO PUSH2 0xAEA JUMPI DUP1 PUSH1 0x1F LT PUSH2 0xABF JUMPI PUSH2 0x100 DUP1 DUP4 SLOAD DIV MUL DUP4 MSTORE SWAP2 PUSH1 0x20 ADD SWAP2 PUSH2 0xAEA JUMP JUMPDEST DUP3 ADD SWAP2 SWAP1 PUSH1 0x0 MSTORE PUSH1 0x20 PUSH1 0x0 KECCAK256 SWAP1 JUMPDEST DUP2 SLOAD DUP2 MSTORE SWAP1 PUSH1 0x1 ADD SWAP1 PUSH1 0x20 ADD DUP1 DUP4 GT PUSH2 0xACD JUMPI DUP3 SWAP1 SUB PUSH1 0x1F AND DUP3 ADD SWAP2 JUMPDEST POP POP POP POP POP DUP2 JUMP JUMPDEST PUSH1 0x0 DUP1 PUSH2 0xAFE DUP4 PUSH2 0x19FD JUMP JUMPDEST SWAP1 POP PUSH1 0x0 PUSH20 0xFFFFFFFFFFFFFFFFFFFFFFFFFFFFFFFFFFFFFFFF AND DUP2 PUSH20 0xFFFFFFFFFFFFFFFFFFFFFFFFFFFFFFFFFFFFFFFF AND SUB PUSH2 0xB6F JUMPI PUSH1 0x40 MLOAD PUSH32 0x8C379A000000000000000000000000000000000000000000000000000000000 DUP2 MSTORE PUSH1 0x4 ADD PUSH2 0xB66 SWAP1 PUSH2 0x33D9 JUMP JUMPDEST PUSH1 0x40 MLOAD DUP1 SWAP2 SUB SWAP1 REVERT JUMPDEST DUP1 SWAP2 POP POP SWAP2 SWAP1 POP JUMP JUMPDEST PUSH1 0x0 DUP1 PUSH20 0xFFFFFFFFFFFFFFFFFFFFFFFFFFFFFFFFFFFFFFFF AND DUP3 PUSH20 0xFFFFFFFFFFFFFFFFFFFFFFFFFFFFFFFFFFFFFFFF AND SUB PUSH2 0xBE8 JUMPI PUSH1 0x40 MLOAD PUSH32 0x8C379A000000000000000000000000000000000000000000000000000000000 DUP2 MSTORE PUSH1 0x4 ADD PUSH2 0xBDF SWAP1 PUSH2 0x346B JUMP JUMPDEST PUSH1 0x40 MLOAD DUP1 SWAP2 SUB SWAP1 REVERT JUMPDEST PUSH1 0x3 PUSH1 0x0 DUP4 PUSH20 0xFFFFFFFFFFFFFFFFFFFFFFFFFFFFFFFFFFFFFFFF AND PUSH20 0xFFFFFFFFFFFFFFFFFFFFFFFFFFFFFFFFFFFFFFFF AND DUP2 MSTORE PUSH1 0x20 ADD SWAP1 DUP2 MSTORE PUSH1 0x20 ADD PUSH1 0x0 KECCAK256 SLOAD SWAP1 POP SWAP2 SWAP1 POP JUMP JUMPDEST PUSH1 0x60 PUSH1 0x1 DUP1 SLOAD PUSH2 0xC3E SWAP1 PUSH2 0x315D JUMP JUMPDEST DUP1 PUSH1 0x1F ADD PUSH1 0x20 DUP1 SWAP2 DIV MUL PUSH1 0x20 ADD PUSH1 0x40 MLOAD SWAP1 DUP2 ADD PUSH1 0x40 MSTORE DUP1 SWAP3 SWAP2 SWAP1 DUP2 DUP2 MSTORE PUSH1 0x20 ADD DUP3 DUP1 SLOAD PUSH2 0xC6A SWAP1 PUSH2 0x315D JUMP JUMPDEST DUP1 ISZERO PUSH2 0xCB7 JUMPI DUP1 PUSH1 0x1F LT PUSH2 0xC8C JUMPI PUSH2 0x100 DUP1 DUP4 SLOAD DIV MUL DUP4 MSTORE SWAP2 PUSH1 0x20 ADD SWAP2 PUSH2 0xCB7 JUMP JUMPDEST DUP3 ADD SWAP2 SWAP1 PUSH1 0x0 MSTORE PUSH1 0x20 PUSH1 0x0 KECCAK256 SWAP1 JUMPDEST DUP2 SLOAD DUP2 MSTORE SWAP1 PUSH1 0x1 ADD SWAP1 PUSH1 0x20 ADD DUP1 DUP4 GT PUSH2 0xC9A JUMPI DUP3 SWAP1 SUB PUSH1 0x1F AND DUP3 ADD SWAP2 JUMPDEST POP POP POP POP POP SWAP1 POP SWAP1 JUMP JUMPDEST PUSH2 0xCD3 PUSH2 0xCCC PUSH2 0x15AE JUMP JUMPDEST DUP4 DUP4 PUSH2 0x1A3A JUMP JUMPDEST POP POP JUMP JUMPDEST PUSH2 0xCE8 PUSH2 0xCE2 PUSH2 0x15AE JUMP JUMPDEST DUP4 PUSH2 0x166F JUMP JUMPDEST PUSH2 0xD27 JUMPI PUSH1 0x40 MLOAD PUSH32 0x8C379A000000000000000000000000000000000000000000000000000000000 DUP2 MSTORE PUSH1 0x4 ADD PUSH2 0xD1E SWAP1 PUSH2 0x336D JUMP JUMPDEST PUSH1 0x40 MLOAD DUP1 SWAP2 SUB SWAP1 REVERT JUMPDEST PUSH2 0xD33 DUP5 DUP5 DUP5 DUP5 PUSH2 0x1BA6 JUMP JUMPDEST POP POP POP POP JUMP JUMPDEST PUSH1 0x0 PUSH1 0xB DUP4 DUP4 PUSH1 0x40 MLOAD PUSH2 0xD4D SWAP3 SWAP2 SWAP1 PUSH2 0x32E2 JUMP JUMPDEST SWAP1 DUP2 MSTORE PUSH1 0x20 ADD PUSH1 0x40 MLOAD DUP1 SWAP2 SUB SWAP1 KECCAK256 PUSH1 0x0 SWAP1 SLOAD SWAP1 PUSH2 0x100 EXP SWAP1 DIV PUSH20 0xFFFFFFFFFFFFFFFFFFFFFFFFFFFFFFFFFFFFFFFF AND SWAP1 POP SWAP3 SWAP2 POP POP JUMP JUMPDEST CALLER PUSH20 0xFFFFFFFFFFFFFFFFFFFFFFFFFFFFFFFFFFFFFFFF AND PUSH1 0xB DUP6 DUP6 PUSH1 0x40 MLOAD PUSH2 0xDAD SWAP3 SWAP2 SWAP1 PUSH2 0x32E2 JUMP JUMPDEST SWAP1 DUP2 MSTORE PUSH1 0x20 ADD PUSH1 0x40 MLOAD DUP1 SWAP2 SUB SWAP1 KECCAK256 PUSH1 0x0 SWAP1 SLOAD SWAP1 PUSH2 0x100 EXP SWAP1 DIV PUSH20 0xFFFFFFFFFFFFFFFFFFFFFFFFFFFFFFFFFFFFFFFF AND PUSH20 0xFFFFFFFFFFFFFFFFFFFFFFFFFFFFFFFFFFFFFFFF AND EQ PUSH2 0xDFC JUMPI PUSH1 0x0 DUP1 REVERT JUMPDEST DUP2 DUP2 PUSH1 0xC DUP7 DUP7 PUSH1 0x40 MLOAD PUSH2 0xE10 SWAP3 SWAP2 SWAP1 PUSH2 0x32E2 JUMP JUMPDEST SWAP1 DUP2 MSTORE PUSH1 0x20 ADD PUSH1 0x40 MLOAD DUP1 SWAP2 SUB SWAP1 KECCAK256 SWAP2 DUP3 PUSH2 0xE2B SWAP3 SWAP2 SWAP1 PUSH2 0x3642 JUMP JUMPDEST POP POP POP POP POP JUMP JUMPDEST PUSH1 0x60 PUSH2 0xE3D DUP3 PUSH2 0x1563 JUMP JUMPDEST PUSH1 0x0 PUSH1 0x6 PUSH1 0x0 DUP5 DUP2 MSTORE PUSH1 0x20 ADD SWAP1 DUP2 MSTORE PUSH1 0x20 ADD PUSH1 0x0 KECCAK256 DUP1 SLOAD PUSH2 0xE5D SWAP1 PUSH2 0x315D JUMP JUMPDEST DUP1 PUSH1 0x1F ADD PUSH1 0x20 DUP1 SWAP2 DIV MUL PUSH1 0x20 ADD PUSH1 0x40 MLOAD SWAP1 DUP2 ADD PUSH1 0x40 MSTORE DUP1 SWAP3 SWAP2 SWAP1 DUP2 DUP2 MSTORE PUSH1 0x20 ADD DUP3 DUP1 SLOAD PUSH2 0xE89 SWAP1 PUSH2 0x315D JUMP JUMPDEST DUP1 ISZERO PUSH2 0xED6 JUMPI DUP1 PUSH1 0x1F LT PUSH2 0xEAB JUMPI PUSH2 0x100 DUP1 DUP4 SLOAD DIV MUL DUP4 MSTORE SWAP2 PUSH1 0x20 ADD SWAP2 PUSH2 0xED6 JUMP JUMPDEST DUP3 ADD SWAP2 SWAP1 PUSH1 0x0 MSTORE PUSH1 0x20 PUSH1 0x0 KECCAK256 SWAP1 JUMPDEST DUP2 SLOAD DUP2 MSTORE SWAP1 PUSH1 0x1 ADD SWAP1 PUSH1 0x20 ADD DUP1 DUP4 GT PUSH2 0xEB9 JUMPI DUP3 SWAP1 SUB PUSH1 0x1F AND DUP3 ADD SWAP2 JUMPDEST POP POP POP POP POP SWAP1 POP PUSH1 0x0 PUSH2 0xEE7 PUSH2 0x1C02 JUMP JUMPDEST SWAP1 POP PUSH1 0x0 DUP2 MLOAD SUB PUSH2 0xEFC JUMPI DUP2 SWAP3 POP POP POP PUSH2 0xF3F JUMP JUMPDEST PUSH1 0x0 DUP3 MLOAD GT ISZERO PUSH2 0xF31 JUMPI DUP1 DUP3 PUSH1 0x40 MLOAD PUSH1 0x20 ADD PUSH2 0xF19 SWAP3 SWAP2 SWAP1 PUSH2 0x3743 JUMP JUMPDEST PUSH1 0x40 MLOAD PUSH1 0x20 DUP2 DUP4 SUB SUB DUP2 MSTORE SWAP1 PUSH1 0x40 MSTORE SWAP3 POP POP POP PUSH2 0xF3F JUMP JUMPDEST PUSH2 0xF3A DUP5 PUSH2 0x1C19 JUMP JUMPDEST SWAP3 POP POP POP JUMPDEST SWAP2 SWAP1 POP JUMP JUMPDEST PUSH1 0x0 PUSH1 0x5 PUSH1 0x0 DUP5 PUSH20 0xFFFFFFFFFFFFFFFFFFFFFFFFFFFFFFFFFFFFFFFF AND PUSH20 0xFFFFFFFFFFFFFFFFFFFFFFFFFFFFFFFFFFFFFFFF AND DUP2 MSTORE PUSH1 0x20 ADD SWAP1 DUP2 MSTORE PUSH1 0x20 ADD PUSH1 0x0 KECCAK256 PUSH1 0x0 DUP4 PUSH20 0xFFFFFFFFFFFFFFFFFFFFFFFFFFFFFFFFFFFFFFFF AND PUSH20 0xFFFFFFFFFFFFFFFFFFFFFFFFFFFFFFFFFFFFFFFF AND DUP2 MSTORE PUSH1 0x20 ADD SWAP1 DUP2 MSTORE PUSH1 0x20 ADD PUSH1 0x0 KECCAK256 PUSH1 0x0 SWAP1 SLOAD SWAP1 PUSH2 0x100 EXP SWAP1 DIV PUSH1 0xFF AND SWAP1 POP SWAP3 SWAP2 POP POP JUMP JUMPDEST PUSH1 0x0 PUSH20 0xFFFFFFFFFFFFFFFFFFFFFFFFFFFFFFFFFFFFFFFF AND PUSH1 0xB DUP4 DUP4 PUSH1 0x40 MLOAD PUSH2 0x1002 SWAP3 SWAP2 SWAP1 PUSH2 0x32E2 JUMP JUMPDEST SWAP1 DUP2 MSTORE PUSH1 0x20 ADD PUSH1 0x40 MLOAD DUP1 SWAP2 SUB SWAP1 KECCAK256 PUSH1 0x0 SWAP1 SLOAD SWAP1 PUSH2 0x100 EXP SWAP1 DIV PUSH20 0xFFFFFFFFFFFFFFFFFFFFFFFFFFFFFFFFFFFFFFFF AND PUSH20 0xFFFFFFFFFFFFFFFFFFFFFFFFFFFFFFFFFFFFFFFF AND EQ PUSH2 0x1051 JUMPI PUSH1 0x0 DUP1 REVERT JUMPDEST PUSH1 0x0 PUSH2 0x105D DUP4 DUP4 PUSH2 0x13B9 JUMP JUMPDEST SWAP1 POP DUP1 CALLVALUE LT ISZERO PUSH2 0x10A2 JUMPI PUSH1 0x40 MLOAD PUSH32 0x8C379A000000000000000000000000000000000000000000000000000000000 DUP2 MSTORE PUSH1 0x4 ADD PUSH2 0x1099 SWAP1 PUSH2 0x37B3 JUMP JUMPDEST PUSH1 0x40 MLOAD DUP1 SWAP2 SUB SWAP1 REVERT JUMPDEST PUSH1 0x0 DUP4 DUP4 PUSH1 0x8 PUSH1 0x40 MLOAD PUSH1 0x20 ADD PUSH2 0x10BA SWAP4 SWAP3 SWAP2 SWAP1 PUSH2 0x38A2 JUMP JUMPDEST PUSH1 0x40 MLOAD PUSH1 0x20 DUP2 DUP4 SUB SUB DUP2 MSTORE SWAP1 PUSH1 0x40 MSTORE SWAP1 POP PUSH1 0x0 PUSH1 0x9 DUP3 PUSH1 0xA PUSH1 0x40 MLOAD PUSH1 0x20 ADD PUSH2 0x10E4 SWAP4 SWAP3 SWAP2 SWAP1 PUSH2 0x38D3 JUMP JUMPDEST PUSH1 0x40 MLOAD PUSH1 0x20 DUP2 DUP4 SUB SUB DUP2 MSTORE SWAP1 PUSH1 0x40 MSTORE SWAP1 POP PUSH1 0x0 PUSH2 0x1101 PUSH1 0x7 PUSH2 0x1C81 JUMP JUMPDEST SWAP1 POP PUSH1 0x0 PUSH2 0x1152 DUP8 DUP8 DUP1 DUP1 PUSH1 0x1F ADD PUSH1 0x20 DUP1 SWAP2 DIV MUL PUSH1 0x20 ADD PUSH1 0x40 MLOAD SWAP1 DUP2 ADD PUSH1 0x40 MSTORE DUP1 SWAP4 SWAP3 SWAP2 SWAP1 DUP2 DUP2 MSTORE PUSH1 0x20 ADD DUP4 DUP4 DUP1 DUP3 DUP5 CALLDATACOPY PUSH1 0x0 DUP2 DUP5 ADD MSTORE PUSH1 0x1F NOT PUSH1 0x1F DUP3 ADD AND SWAP1 POP DUP1 DUP4 ADD SWAP3 POP POP POP POP POP POP POP PUSH2 0x1C8F JUMP JUMPDEST SWAP1 POP PUSH1 0x0 PUSH2 0x115F DUP3 PUSH2 0x1E44 JUMP JUMPDEST SWAP1 POP PUSH2 0x1253 PUSH1 0x40 MLOAD DUP1 PUSH1 0x60 ADD PUSH1 0x40 MSTORE DUP1 PUSH1 0x31 DUP2 MSTORE PUSH1 0x20 ADD PUSH2 0x4307 PUSH1 0x31 SWAP2 CODECOPY DUP10 DUP10 DUP1 DUP1 PUSH1 0x1F ADD PUSH1 0x20 DUP1 SWAP2 DIV MUL PUSH1 0x20 ADD PUSH1 0x40 MLOAD SWAP1 DUP2 ADD PUSH1 0x40 MSTORE DUP1 SWAP4 SWAP3 SWAP2 SWAP1 DUP2 DUP2 MSTORE PUSH1 0x20 ADD DUP4 DUP4 DUP1 DUP3 DUP5 CALLDATACOPY PUSH1 0x0 DUP2 DUP5 ADD MSTORE PUSH1 0x1F NOT PUSH1 0x1F DUP3 ADD AND SWAP1 POP DUP1 DUP4 ADD SWAP3 POP POP POP POP POP POP POP PUSH1 0x8 DUP1 SLOAD PUSH2 0x11CF SWAP1 PUSH2 0x315D JUMP JUMPDEST DUP1 PUSH1 0x1F ADD PUSH1 0x20 DUP1 SWAP2 DIV MUL PUSH1 0x20 ADD PUSH1 0x40 MLOAD SWAP1 DUP2 ADD PUSH1 0x40 MSTORE DUP1 SWAP3 SWAP2 SWAP1 DUP2 DUP2 MSTORE PUSH1 0x20 ADD DUP3 DUP1 SLOAD PUSH2 0x11FB SWAP1 PUSH2 0x315D JUMP JUMPDEST DUP1 ISZERO PUSH2 0x1248 JUMPI DUP1 PUSH1 0x1F LT PUSH2 0x121D JUMPI PUSH2 0x100 DUP1 DUP4 SLOAD DIV MUL DUP4 MSTORE SWAP2 PUSH1 0x20 ADD SWAP2 PUSH2 0x1248 JUMP JUMPDEST DUP3 ADD SWAP2 SWAP1 PUSH1 0x0 MSTORE PUSH1 0x20 PUSH1 0x0 KECCAK256 SWAP1 JUMPDEST DUP2 SLOAD DUP2 MSTORE SWAP1 PUSH1 0x1 ADD SWAP1 PUSH1 0x20 ADD DUP1 DUP4 GT PUSH2 0x122B JUMPI DUP3 SWAP1 SUB PUSH1 0x1F AND DUP3 ADD SWAP2 JUMPDEST POP POP POP POP POP DUP7 PUSH2 0x1F12 JUMP JUMPDEST PUSH1 0x0 PUSH2 0x1289 DUP7 PUSH2 0x1262 DUP8 PUSH2 0x1FB4 JUMP JUMPDEST DUP5 PUSH1 0x40 MLOAD PUSH1 0x20 ADD PUSH2 0x1275 SWAP4 SWAP3 SWAP2 SWAP1 PUSH2 0x3A80 JUMP JUMPDEST PUSH1 0x40 MLOAD PUSH1 0x20 DUP2 DUP4 SUB SUB DUP2 MSTORE SWAP1 PUSH1 0x40 MSTORE PUSH2 0x1FB4 JUMP JUMPDEST SWAP1 POP PUSH1 0x0 DUP2 PUSH1 0x40 MLOAD PUSH1 0x20 ADD PUSH2 0x129E SWAP2 SWAP1 PUSH2 0x3B29 JUMP JUMPDEST PUSH1 0x40 MLOAD PUSH1 0x20 DUP2 DUP4 SUB SUB DUP2 MSTORE SWAP1 PUSH1 0x40 MSTORE SWAP1 POP PUSH2 0x12D0 PUSH1 0x40 MLOAD DUP1 PUSH1 0x60 ADD PUSH1 0x40 MSTORE DUP1 PUSH1 0x39 DUP2 MSTORE PUSH1 0x20 ADD PUSH2 0x42CE PUSH1 0x39 SWAP2 CODECOPY PUSH2 0x2117 JUMP JUMPDEST PUSH2 0x130F PUSH1 0x40 MLOAD DUP1 PUSH1 0x40 ADD PUSH1 0x40 MSTORE DUP1 PUSH1 0xE DUP2 MSTORE PUSH1 0x20 ADD PUSH32 0x46696E616C20746F6B656E555249000000000000000000000000000000000000 DUP2 MSTORE POP DUP3 PUSH2 0x145D JUMP JUMPDEST PUSH2 0x1330 PUSH1 0x40 MLOAD DUP1 PUSH1 0x60 ADD PUSH1 0x40 MSTORE DUP1 PUSH1 0x39 DUP2 MSTORE PUSH1 0x20 ADD PUSH2 0x4338 PUSH1 0x39 SWAP2 CODECOPY PUSH2 0x2117 JUMP JUMPDEST PUSH2 0x133A CALLER DUP7 PUSH2 0x21B0 JUMP JUMPDEST PUSH2 0x1344 DUP6 DUP3 PUSH2 0x21CE JUMP JUMPDEST CALLER PUSH1 0xB DUP12 DUP12 PUSH1 0x40 MLOAD PUSH2 0x1357 SWAP3 SWAP2 SWAP1 PUSH2 0x32E2 JUMP JUMPDEST SWAP1 DUP2 MSTORE PUSH1 0x20 ADD PUSH1 0x40 MLOAD DUP1 SWAP2 SUB SWAP1 KECCAK256 PUSH1 0x0 PUSH2 0x100 EXP DUP2 SLOAD DUP2 PUSH20 0xFFFFFFFFFFFFFFFFFFFFFFFFFFFFFFFFFFFFFFFF MUL NOT AND SWAP1 DUP4 PUSH20 0xFFFFFFFFFFFFFFFFFFFFFFFFFFFFFFFFFFFFFFFF AND MUL OR SWAP1 SSTORE POP PUSH2 0x13AD PUSH1 0x7 PUSH2 0x223B JUMP JUMPDEST POP POP POP POP POP POP POP POP POP POP JUMP JUMPDEST PUSH1 0x0 DUP1 PUSH2 0x1409 DUP5 DUP5 DUP1 DUP1 PUSH1 0x1F ADD PUSH1 0x20 DUP1 SWAP2 DIV MUL PUSH1 0x20 ADD PUSH1 0x40 MLOAD SWAP1 DUP2 ADD PUSH1 0x40 MSTORE DUP1 SWAP4 SWAP3 SWAP2 SWAP1 DUP2 DUP2 MSTORE PUSH1 0x20 ADD DUP4 DUP4 DUP1 DUP3 DUP5 CALLDATACOPY PUSH1 0x0 DUP2 DUP5 ADD MSTORE PUSH1 0x1F NOT PUSH1 0x1F DUP3 ADD AND SWAP1 POP DUP1 DUP4 ADD SWAP3 POP POP POP POP POP POP POP PUSH2 0x1C8F JUMP JUMPDEST SWAP1 POP PUSH1 0x0 DUP2 GT PUSH2 0x1418 JUMPI PUSH1 0x0 DUP1 REVERT JUMPDEST PUSH1 0x3 DUP2 SUB PUSH2 0x1431 JUMPI PUSH8 0x6F05B59D3B20000 SWAP2 POP POP PUSH2 0x1457 JUMP JUMPDEST PUSH1 0x4 DUP2 SUB PUSH2 0x144A JUMPI PUSH8 0x429D069189E0000 SWAP2 POP POP PUSH2 0x1457 JUMP JUMPDEST PUSH8 0x16345785D8A0000 SWAP2 POP POP JUMPDEST SWAP3 SWAP2 POP POP JUMP JUMPDEST PUSH2 0x14F5 DUP3 DUP3 PUSH1 0x40 MLOAD PUSH1 0x24 ADD PUSH2 0x1473 SWAP3 SWAP2 SWAP1 PUSH2 0x3B4B JUMP JUMPDEST PUSH1 0x40 MLOAD PUSH1 0x20 DUP2 DUP4 SUB SUB DUP2 MSTORE SWAP1 PUSH1 0x40 MSTORE PUSH32 0x4B5C427700000000000000000000000000000000000000000000000000000000 PUSH28 0xFFFFFFFFFFFFFFFFFFFFFFFFFFFFFFFFFFFFFFFFFFFFFFFFFFFFFFFF NOT AND PUSH1 0x20 DUP3 ADD DUP1 MLOAD PUSH28 0xFFFFFFFFFFFFFFFFFFFFFFFFFFFFFFFFFFFFFFFFFFFFFFFFFFFFFFFF DUP4 DUP2 DUP4 AND OR DUP4 MSTORE POP POP POP POP PUSH2 0x2251 JUMP JUMPDEST POP POP JUMP JUMPDEST PUSH1 0x0 PUSH32 0x1FFC9A700000000000000000000000000000000000000000000000000000000 PUSH28 0xFFFFFFFFFFFFFFFFFFFFFFFFFFFFFFFFFFFFFFFFFFFFFFFFFFFFFFFF NOT AND DUP3 PUSH28 0xFFFFFFFFFFFFFFFFFFFFFFFFFFFFFFFFFFFFFFFFFFFFFFFFFFFFFFFF NOT AND EQ SWAP1 POP SWAP2 SWAP1 POP JUMP JUMPDEST PUSH2 0x156C DUP2 PUSH2 0x227A JUMP JUMPDEST PUSH2 0x15AB JUMPI PUSH1 0x40 MLOAD PUSH32 0x8C379A000000000000000000000000000000000000000000000000000000000 DUP2 MSTORE PUSH1 0x4 ADD PUSH2 0x15A2 SWAP1 PUSH2 0x33D9 JUMP JUMPDEST PUSH1 0x40 MLOAD DUP1 SWAP2 SUB SWAP1 REVERT JUMPDEST POP JUMP JUMPDEST PUSH1 0x0 CALLER SWAP1 POP SWAP1 JUMP JUMPDEST DUP2 PUSH1 0x4 PUSH1 0x0 DUP4 DUP2 MSTORE PUSH1 0x20 ADD SWAP1 DUP2 MSTORE PUSH1 0x20 ADD PUSH1 0x0 KECCAK256 PUSH1 0x0 PUSH2 0x100 EXP DUP2 SLOAD DUP2 PUSH20 0xFFFFFFFFFFFFFFFFFFFFFFFFFFFFFFFFFFFFFFFF MUL NOT AND SWAP1 DUP4 PUSH20 0xFFFFFFFFFFFFFFFFFFFFFFFFFFFFFFFFFFFFFFFF AND MUL OR SWAP1 SSTORE POP DUP1 DUP3 PUSH20 0xFFFFFFFFFFFFFFFFFFFFFFFFFFFFFFFFFFFFFFFF AND PUSH2 0x1629 DUP4 PUSH2 0xAF2 JUMP JUMPDEST PUSH20 0xFFFFFFFFFFFFFFFFFFFFFFFFFFFFFFFFFFFFFFFF AND PUSH32 0x8C5BE1E5EBEC7D5BD14F71427D1E84F3DD0314C0F7B2291E5B200AC8C7C3B925 PUSH1 0x40 MLOAD PUSH1 0x40 MLOAD DUP1 SWAP2 SUB SWAP1 LOG4 POP POP JUMP JUMPDEST PUSH1 0x0 DUP1 PUSH2 0x167B DUP4 PUSH2 0xAF2 JUMP JUMPDEST SWAP1 POP DUP1 PUSH20 0xFFFFFFFFFFFFFFFFFFFFFFFFFFFFFFFFFFFFFFFF AND DUP5 PUSH20 0xFFFFFFFFFFFFFFFFFFFFFFFFFFFFFFFFFFFFFFFF AND EQ DUP1 PUSH2 0x16BD JUMPI POP PUSH2 0x16BC DUP2 DUP6 PUSH2 0xF44 JUMP JUMPDEST JUMPDEST DUP1 PUSH2 0x16FB JUMPI POP DUP4 PUSH20 0xFFFFFFFFFFFFFFFFFFFFFFFFFFFFFFFFFFFFFFFF AND PUSH2 0x16E3 DUP5 PUSH2 0x6D5 JUMP JUMPDEST PUSH20 0xFFFFFFFFFFFFFFFFFFFFFFFFFFFFFFFFFFFFFFFF AND EQ JUMPDEST SWAP2 POP POP SWAP3 SWAP2 POP POP JUMP JUMPDEST DUP3 PUSH20 0xFFFFFFFFFFFFFFFFFFFFFFFFFFFFFFFFFFFFFFFF AND PUSH2 0x1724 DUP3 PUSH2 0xAF2 JUMP JUMPDEST PUSH20 0xFFFFFFFFFFFFFFFFFFFFFFFFFFFFFFFFFFFFFFFF AND EQ PUSH2 0x177A JUMPI PUSH1 0x40 MLOAD PUSH32 0x8C379A000000000000000000000000000000000000000000000000000000000 DUP2 MSTORE PUSH1 0x4 ADD PUSH2 0x1771 SWAP1 PUSH2 0x3BF4 JUMP JUMPDEST PUSH1 0x40 MLOAD DUP1 SWAP2 SUB SWAP1 REVERT JUMPDEST PUSH1 0x0 PUSH20 0xFFFFFFFFFFFFFFFFFFFFFFFFFFFFFFFFFFFFFFFF AND DUP3 PUSH20 0xFFFFFFFFFFFFFFFFFFFFFFFFFFFFFFFFFFFFFFFF AND SUB PUSH2 0x17E9 JUMPI PUSH1 0x40 MLOAD PUSH32 0x8C379A000000000000000000000000000000000000000000000000000000000 DUP2 MSTORE PUSH1 0x4 ADD PUSH2 0x17E0 SWAP1 PUSH2 0x3C86 JUMP JUMPDEST PUSH1 0x40 MLOAD DUP1 SWAP2 SUB SWAP1 REVERT JUMPDEST PUSH2 0x17F6 DUP4 DUP4 DUP4 PUSH1 0x1 PUSH2 0x22BB JUMP JUMPDEST DUP3 PUSH20 0xFFFFFFFFFFFFFFFFFFFFFFFFFFFFFFFFFFFFFFFF AND PUSH2 0x1816 DUP3 PUSH2 0xAF2 JUMP JUMPDEST PUSH20 0xFFFFFFFFFFFFFFFFFFFFFFFFFFFFFFFFFFFFFFFF AND EQ PUSH2 0x186C JUMPI PUSH1 0x40 MLOAD PUSH32 0x8C379A000000000000000000000000000000000000000000000000000000000 DUP2 MSTORE PUSH1 0x4 ADD PUSH2 0x1863 SWAP1 PUSH2 0x3BF4 JUMP JUMPDEST PUSH1 0x40 MLOAD DUP1 SWAP2 SUB SWAP1 REVERT JUMPDEST PUSH1 0x4 PUSH1 0x0 DUP3 DUP2 MSTORE PUSH1 0x20 ADD SWAP1 DUP2 MSTORE PUSH1 0x20 ADD PUSH1 0x0 KECCAK256 PUSH1 0x0 PUSH2 0x100 EXP DUP2 SLOAD SWAP1 PUSH20 0xFFFFFFFFFFFFFFFFFFFFFFFFFFFFFFFFFFFFFFFF MUL NOT AND SWAP1 SSTORE PUSH1 0x1 PUSH1 0x3 PUSH1 0x0 DUP6 PUSH20 0xFFFFFFFFFFFFFFFFFFFFFFFFFFFFFFFFFFFFFFFF AND PUSH20 0xFFFFFFFFFFFFFFFFFFFFFFFFFFFFFFFFFFFFFFFF AND DUP2 MSTORE PUSH1 0x20 ADD SWAP1 DUP2 MSTORE PUSH1 0x20 ADD PUSH1 0x0 KECCAK256 PUSH1 0x0 DUP3 DUP3 SLOAD SUB SWAP3 POP POP DUP2 SWAP1 SSTORE POP PUSH1 0x1 PUSH1 0x3 PUSH1 0x0 DUP5 PUSH20 0xFFFFFFFFFFFFFFFFFFFFFFFFFFFFFFFFFFFFFFFF AND PUSH20 0xFFFFFFFFFFFFFFFFFFFFFFFFFFFFFFFFFFFFFFFF AND DUP2 MSTORE PUSH1 0x20 ADD SWAP1 DUP2 MSTORE PUSH1 0x20 ADD PUSH1 0x0 KECCAK256 PUSH1 0x0 DUP3 DUP3 SLOAD ADD SWAP3 POP POP DUP2 SWAP1 SSTORE POP DUP2 PUSH1 0x2 PUSH1 0x0 DUP4 DUP2 MSTORE PUSH1 0x20 ADD SWAP1 DUP2 MSTORE PUSH1 0x20 ADD PUSH1 0x0 KECCAK256 PUSH1 0x0 PUSH2 0x100 EXP DUP2 SLOAD DUP2 PUSH20 0xFFFFFFFFFFFFFFFFFFFFFFFFFFFFFFFFFFFFFFFF MUL NOT AND SWAP1 DUP4 PUSH20 0xFFFFFFFFFFFFFFFFFFFFFFFFFFFFFFFFFFFFFFFF AND MUL OR SWAP1 SSTORE POP DUP1 DUP3 PUSH20 0xFFFFFFFFFFFFFFFFFFFFFFFFFFFFFFFFFFFFFFFF AND DUP5 PUSH20 0xFFFFFFFFFFFFFFFFFFFFFFFFFFFFFFFFFFFFFFFF AND PUSH32 0xDDF252AD1BE2C89B69C2B068FC378DAA952BA7F163C4A11628F55A4DF523B3EF PUSH1 0x40 MLOAD PUSH1 0x40 MLOAD DUP1 SWAP2 SUB SWAP1 LOG4 PUSH2 0x19F8 DUP4 DUP4 DUP4 PUSH1 0x1 PUSH2 0x23E1 JUMP JUMPDEST POP POP POP JUMP JUMPDEST PUSH1 0x0 PUSH1 0x2 PUSH1 0x0 DUP4 DUP2 MSTORE PUSH1 0x20 ADD SWAP1 DUP2 MSTORE PUSH1 0x20 ADD PUSH1 0x0 KECCAK256 PUSH1 0x0 SWAP1 SLOAD SWAP1 PUSH2 0x100 EXP SWAP1 DIV PUSH20 0xFFFFFFFFFFFFFFFFFFFFFFFFFFFFFFFFFFFFFFFF AND SWAP1 POP SWAP2 SWAP1 POP JUMP JUMPDEST DUP2 PUSH20 0xFFFFFFFFFFFFFFFFFFFFFFFFFFFFFFFFFFFFFFFF AND DUP4 PUSH20 0xFFFFFFFFFFFFFFFFFFFFFFFFFFFFFFFFFFFFFFFF AND SUB PUSH2 0x1AA8 JUMPI PUSH1 0x40 MLOAD PUSH32 0x8C379A000000000000000000000000000000000000000000000000000000000 DUP2 MSTORE PUSH1 0x4 ADD PUSH2 0x1A9F SWAP1 PUSH2 0x3CF2 JUMP JUMPDEST PUSH1 0x40 MLOAD DUP1 SWAP2 SUB SWAP1 REVERT JUMPDEST DUP1 PUSH1 0x5 PUSH1 0x0 DUP6 PUSH20 0xFFFFFFFFFFFFFFFFFFFFFFFFFFFFFFFFFFFFFFFF AND PUSH20 0xFFFFFFFFFFFFFFFFFFFFFFFFFFFFFFFFFFFFFFFF AND DUP2 MSTORE PUSH1 0x20 ADD SWAP1 DUP2 MSTORE PUSH1 0x20 ADD PUSH1 0x0 KECCAK256 PUSH1 0x0 DUP5 PUSH20 0xFFFFFFFFFFFFFFFFFFFFFFFFFFFFFFFFFFFFFFFF AND PUSH20 0xFFFFFFFFFFFFFFFFFFFFFFFFFFFFFFFFFFFFFFFF AND DUP2 MSTORE PUSH1 0x20 ADD SWAP1 DUP2 MSTORE PUSH1 0x20 ADD PUSH1 0x0 KECCAK256 PUSH1 0x0 PUSH2 0x100 EXP DUP2 SLOAD DUP2 PUSH1 0xFF MUL NOT AND SWAP1 DUP4 ISZERO ISZERO MUL OR SWAP1 SSTORE POP DUP2 PUSH20 0xFFFFFFFFFFFFFFFFFFFFFFFFFFFFFFFFFFFFFFFF AND DUP4 PUSH20 0xFFFFFFFFFFFFFFFFFFFFFFFFFFFFFFFFFFFFFFFF AND PUSH32 0x17307EAB39AB6107E8899845AD3D59BD9653F200F220920489CA2B5937696C31 DUP4 PUSH1 0x40 MLOAD PUSH2 0x1B99 SWAP2 SWAP1 PUSH2 0x2A10 JUMP JUMPDEST PUSH1 0x40 MLOAD DUP1 SWAP2 SUB SWAP1 LOG3 POP POP POP JUMP JUMPDEST PUSH2 0x1BB1 DUP5 DUP5 DUP5 PUSH2 0x1704 JUMP JUMPDEST PUSH2 0x1BBD DUP5 DUP5 DUP5 DUP5 PUSH2 0x23E7 JUMP JUMPDEST PUSH2 0x1BFC JUMPI PUSH1 0x40 MLOAD PUSH32 0x8C379A000000000000000000000000000000000000000000000000000000000 DUP2 MSTORE PUSH1 0x4 ADD PUSH2 0x1BF3 SWAP1 PUSH2 0x3D84 JUMP JUMPDEST PUSH1 0x40 MLOAD DUP1 SWAP2 SUB SWAP1 REVERT JUMPDEST POP POP POP POP JUMP JUMPDEST PUSH1 0x60 PUSH1 0x40 MLOAD DUP1 PUSH1 0x20 ADD PUSH1 0x40 MSTORE DUP1 PUSH1 0x0 DUP2 MSTORE POP SWAP1 POP SWAP1 JUMP JUMPDEST PUSH1 0x60 PUSH2 0x1C24 DUP3 PUSH2 0x1563 JUMP JUMPDEST PUSH1 0x0 PUSH2 0x1C2E PUSH2 0x1C02 JUMP JUMPDEST SWAP1 POP PUSH1 0x0 DUP2 MLOAD GT PUSH2 0x1C4E JUMPI PUSH1 0x40 MLOAD DUP1 PUSH1 0x20 ADD PUSH1 0x40 MSTORE DUP1 PUSH1 0x0 DUP2 MSTORE POP PUSH2 0x1C79 JUMP JUMPDEST DUP1 PUSH2 0x1C58 DUP5 PUSH2 0x1E44 JUMP JUMPDEST PUSH1 0x40 MLOAD PUSH1 0x20 ADD PUSH2 0x1C69 SWAP3 SWAP2 SWAP1 PUSH2 0x3743 JUMP JUMPDEST PUSH1 0x40 MLOAD PUSH1 0x20 DUP2 DUP4 SUB SUB DUP2 MSTORE SWAP1 PUSH1 0x40 MSTORE JUMPDEST SWAP2 POP POP SWAP2 SWAP1 POP JUMP JUMPDEST PUSH1 0x0 DUP2 PUSH1 0x0 ADD SLOAD SWAP1 POP SWAP2 SWAP1 POP JUMP JUMPDEST PUSH1 0x0 DUP1 PUSH1 0x0 DUP1 DUP5 MLOAD SWAP1 POP PUSH1 0x0 SWAP3 POP JUMPDEST DUP1 DUP3 LT ISZERO PUSH2 0x1E39 JUMPI PUSH1 0x0 DUP6 DUP4 DUP2 MLOAD DUP2 LT PUSH2 0x1CBB JUMPI PUSH2 0x1CBA PUSH2 0x3DA4 JUMP JUMPDEST JUMPDEST PUSH1 0x20 ADD ADD MLOAD PUSH1 0xF8 SHR PUSH1 0xF8 SHL SWAP1 POP PUSH1 0x80 PUSH1 0xF8 SHL DUP2 PUSH31 0xFFFFFFFFFFFFFFFFFFFFFFFFFFFFFFFFFFFFFFFFFFFFFFFFFFFFFFFFFFFFFF NOT AND LT ISZERO PUSH2 0x1D0A JUMPI PUSH1 0x1 DUP4 PUSH2 0x1D03 SWAP2 SWAP1 PUSH2 0x3E02 JUMP JUMPDEST SWAP3 POP PUSH2 0x1E25 JUMP JUMPDEST PUSH1 0xE0 PUSH1 0xF8 SHL DUP2 PUSH31 0xFFFFFFFFFFFFFFFFFFFFFFFFFFFFFFFFFFFFFFFFFFFFFFFFFFFFFFFFFFFFFF NOT AND LT ISZERO PUSH2 0x1D4C JUMPI PUSH1 0x2 DUP4 PUSH2 0x1D45 SWAP2 SWAP1 PUSH2 0x3E02 JUMP JUMPDEST SWAP3 POP PUSH2 0x1E24 JUMP JUMPDEST PUSH1 0xF0 PUSH1 0xF8 SHL DUP2 PUSH31 0xFFFFFFFFFFFFFFFFFFFFFFFFFFFFFFFFFFFFFFFFFFFFFFFFFFFFFFFFFFFFFF NOT AND LT ISZERO PUSH2 0x1D8E JUMPI PUSH1 0x3 DUP4 PUSH2 0x1D87 SWAP2 SWAP1 PUSH2 0x3E02 JUMP JUMPDEST SWAP3 POP PUSH2 0x1E23 JUMP JUMPDEST PUSH1 0xF8 DUP1 SHL DUP2 PUSH31 0xFFFFFFFFFFFFFFFFFFFFFFFFFFFFFFFFFFFFFFFFFFFFFFFFFFFFFFFFFFFFFF NOT AND LT ISZERO PUSH2 0x1DCF JUMPI PUSH1 0x4 DUP4 PUSH2 0x1DC8 SWAP2 SWAP1 PUSH2 0x3E02 JUMP JUMPDEST SWAP3 POP PUSH2 0x1E22 JUMP JUMPDEST PUSH1 0xFC PUSH1 0xF8 SHL DUP2 PUSH31 0xFFFFFFFFFFFFFFFFFFFFFFFFFFFFFFFFFFFFFFFFFFFFFFFFFFFFFFFFFFFFFF NOT AND LT ISZERO PUSH2 0x1E11 JUMPI PUSH1 0x5 DUP4 PUSH2 0x1E0A SWAP2 SWAP1 PUSH2 0x3E02 JUMP JUMPDEST SWAP3 POP PUSH2 0x1E21 JUMP JUMPDEST PUSH1 0x6 DUP4 PUSH2 0x1E1E SWAP2 SWAP1 PUSH2 0x3E02 JUMP JUMPDEST SWAP3 POP JUMPDEST JUMPDEST JUMPDEST JUMPDEST JUMPDEST POP DUP3 DUP1 PUSH2 0x1E31 SWAP1 PUSH2 0x3E36 JUMP JUMPDEST SWAP4 POP POP PUSH2 0x1C9E JUMP JUMPDEST DUP3 SWAP4 POP POP POP POP SWAP2 SWAP1 POP JUMP JUMPDEST PUSH1 0x60 PUSH1 0x0 PUSH1 0x1 PUSH2 0x1E53 DUP5 PUSH2 0x256E JUMP JUMPDEST ADD SWAP1 POP PUSH1 0x0 DUP2 PUSH8 0xFFFFFFFFFFFFFFFF DUP2 GT ISZERO PUSH2 0x1E72 JUMPI PUSH2 0x1E71 PUSH2 0x2D12 JUMP JUMPDEST JUMPDEST PUSH1 0x40 MLOAD SWAP1 DUP1 DUP3 MSTORE DUP1 PUSH1 0x1F ADD PUSH1 0x1F NOT AND PUSH1 0x20 ADD DUP3 ADD PUSH1 0x40 MSTORE DUP1 ISZERO PUSH2 0x1EA4 JUMPI DUP2 PUSH1 0x20 ADD PUSH1 0x1 DUP3 MUL DUP1 CALLDATASIZE DUP4 CALLDATACOPY DUP1 DUP3 ADD SWAP2 POP POP SWAP1 POP JUMPDEST POP SWAP1 POP PUSH1 0x0 DUP3 PUSH1 0x20 ADD DUP3 ADD SWAP1 POP JUMPDEST PUSH1 0x1 ISZERO PUSH2 0x1F07 JUMPI DUP1 DUP1 PUSH1 0x1 SWAP1 SUB SWAP2 POP POP PUSH32 0x3031323334353637383961626364656600000000000000000000000000000000 PUSH1 0xA DUP7 MOD BYTE DUP2 MSTORE8 PUSH1 0xA DUP6 DUP2 PUSH2 0x1EFB JUMPI PUSH2 0x1EFA PUSH2 0x3E7E JUMP JUMPDEST JUMPDEST DIV SWAP5 POP PUSH1 0x0 DUP6 SUB PUSH2 0x1EB2 JUMPI JUMPDEST DUP2 SWAP4 POP POP POP POP SWAP2 SWAP1 POP JUMP JUMPDEST PUSH2 0x1FAE DUP5 DUP5 DUP5 DUP5 PUSH1 0x40 MLOAD PUSH1 0x24 ADD PUSH2 0x1F2C SWAP5 SWAP4 SWAP3 SWAP2 SWAP1 PUSH2 0x3EAD JUMP JUMPDEST PUSH1 0x40 MLOAD PUSH1 0x20 DUP2 DUP4 SUB SUB DUP2 MSTORE SWAP1 PUSH1 0x40 MSTORE PUSH32 0x8EAFB02B00000000000000000000000000000000000000000000000000000000 PUSH28 0xFFFFFFFFFFFFFFFFFFFFFFFFFFFFFFFFFFFFFFFFFFFFFFFFFFFFFFFF NOT AND PUSH1 0x20 DUP3 ADD DUP1 MLOAD PUSH28 0xFFFFFFFFFFFFFFFFFFFFFFFFFFFFFFFFFFFFFFFFFFFFFFFFFFFFFFFF DUP4 DUP2 DUP4 AND OR DUP4 MSTORE POP POP POP POP PUSH2 0x2251 JUMP JUMPDEST POP POP POP POP JUMP JUMPDEST PUSH1 0x60 PUSH1 0x0 DUP3 MLOAD SUB PUSH2 0x1FD6 JUMPI PUSH1 0x40 MLOAD DUP1 PUSH1 0x20 ADD PUSH1 0x40 MSTORE DUP1 PUSH1 0x0 DUP2 MSTORE POP SWAP1 POP PUSH2 0x2112 JUMP JUMPDEST PUSH1 0x0 PUSH1 0x40 MLOAD DUP1 PUSH1 0x60 ADD PUSH1 0x40 MSTORE DUP1 PUSH1 0x40 DUP2 MSTORE PUSH1 0x20 ADD PUSH2 0x4371 PUSH1 0x40 SWAP2 CODECOPY SWAP1 POP PUSH1 0x0 PUSH1 0x3 PUSH1 0x2 DUP6 MLOAD PUSH2 0x2005 SWAP2 SWAP1 PUSH2 0x3E02 JUMP JUMPDEST PUSH2 0x200F SWAP2 SWAP1 PUSH2 0x3F07 JUMP JUMPDEST PUSH1 0x4 PUSH2 0x201B SWAP2 SWAP1 PUSH2 0x3F38 JUMP JUMPDEST PUSH8 0xFFFFFFFFFFFFFFFF DUP2 GT ISZERO PUSH2 0x2034 JUMPI PUSH2 0x2033 PUSH2 0x2D12 JUMP JUMPDEST JUMPDEST PUSH1 0x40 MLOAD SWAP1 DUP1 DUP3 MSTORE DUP1 PUSH1 0x1F ADD PUSH1 0x1F NOT AND PUSH1 0x20 ADD DUP3 ADD PUSH1 0x40 MSTORE DUP1 ISZERO PUSH2 0x2066 JUMPI DUP2 PUSH1 0x20 ADD PUSH1 0x1 DUP3 MUL DUP1 CALLDATASIZE DUP4 CALLDATACOPY DUP1 DUP3 ADD SWAP2 POP POP SWAP1 POP JUMPDEST POP SWAP1 POP PUSH1 0x1 DUP3 ADD PUSH1 0x20 DUP3 ADD DUP6 DUP7 MLOAD DUP8 ADD JUMPDEST DUP1 DUP3 LT ISZERO PUSH2 0x20D2 JUMPI PUSH1 0x3 DUP3 ADD SWAP2 POP DUP2 MLOAD PUSH1 0x3F DUP2 PUSH1 0x12 SHR AND DUP6 ADD MLOAD DUP5 MSTORE8 PUSH1 0x1 DUP5 ADD SWAP4 POP PUSH1 0x3F DUP2 PUSH1 0xC SHR AND DUP6 ADD MLOAD DUP5 MSTORE8 PUSH1 0x1 DUP5 ADD SWAP4 POP PUSH1 0x3F DUP2 PUSH1 0x6 SHR AND DUP6 ADD MLOAD DUP5 MSTORE8 PUSH1 0x1 DUP5 ADD SWAP4 POP PUSH1 0x3F DUP2 AND DUP6 ADD MLOAD DUP5 MSTORE8 PUSH1 0x1 DUP5 ADD SWAP4 POP POP PUSH2 0x2077 JUMP JUMPDEST POP POP PUSH1 0x3 DUP7 MLOAD MOD PUSH1 0x1 DUP2 EQ PUSH2 0x20EE JUMPI PUSH1 0x2 DUP2 EQ PUSH2 0x2101 JUMPI PUSH2 0x2109 JUMP JUMPDEST PUSH1 0x3D PUSH1 0x1 DUP4 SUB MSTORE8 PUSH1 0x3D PUSH1 0x2 DUP4 SUB MSTORE8 PUSH2 0x2109 JUMP JUMPDEST PUSH1 0x3D PUSH1 0x1 DUP4 SUB MSTORE8 JUMPDEST POP POP POP DUP1 SWAP3 POP POP POP JUMPDEST SWAP2 SWAP1 POP JUMP JUMPDEST PUSH2 0x21AD DUP2 PUSH1 0x40 MLOAD PUSH1 0x24 ADD PUSH2 0x212B SWAP2 SWAP1 PUSH2 0x2ABB JUMP JUMPDEST PUSH1 0x40 MLOAD PUSH1 0x20 DUP2 DUP4 SUB SUB DUP2 MSTORE SWAP1 PUSH1 0x40 MSTORE PUSH32 0x41304FAC00000000000000000000000000000000000000000000000000000000 PUSH28 0xFFFFFFFFFFFFFFFFFFFFFFFFFFFFFFFFFFFFFFFFFFFFFFFFFFFFFFFF NOT AND PUSH1 0x20 DUP3 ADD DUP1 MLOAD PUSH28 0xFFFFFFFFFFFFFFFFFFFFFFFFFFFFFFFFFFFFFFFFFFFFFFFFFFFFFFFF DUP4 DUP2 DUP4 AND OR DUP4 MSTORE POP POP POP POP PUSH2 0x2251 JUMP JUMPDEST POP JUMP JUMPDEST PUSH2 0x21CA DUP3 DUP3 PUSH1 0x40 MLOAD DUP1 PUSH1 0x20 ADD PUSH1 0x40 MSTORE DUP1 PUSH1 0x0 DUP2 MSTORE POP PUSH2 0x26C1 JUMP JUMPDEST POP POP JUMP JUMPDEST PUSH2 0x21D7 DUP3 PUSH2 0x227A JUMP JUMPDEST PUSH2 0x2216 JUMPI PUSH1 0x40 MLOAD PUSH32 0x8C379A000000000000000000000000000000000000000000000000000000000 DUP2 MSTORE PUSH1 0x4 ADD PUSH2 0x220D SWAP1 PUSH2 0x3FEC JUMP JUMPDEST PUSH1 0x40 MLOAD DUP1 SWAP2 SUB SWAP1 REVERT JUMPDEST DUP1 PUSH1 0x6 PUSH1 0x0 DUP5 DUP2 MSTORE PUSH1 0x20 ADD SWAP1 DUP2 MSTORE PUSH1 0x20 ADD PUSH1 0x0 KECCAK256 SWAP1 DUP2 PUSH2 0x2236 SWAP2 SWAP1 PUSH2 0x400C JUMP JUMPDEST POP POP POP JUMP JUMPDEST PUSH1 0x1 DUP2 PUSH1 0x0 ADD PUSH1 0x0 DUP3 DUP3 SLOAD ADD SWAP3 POP POP DUP2 SWAP1 SSTORE POP POP JUMP JUMPDEST PUSH1 0x0 DUP2 MLOAD SWAP1 POP PUSH1 0x0 PUSH11 0x636F6E736F6C652E6C6F67 SWAP1 POP PUSH1 0x20 DUP4 ADD PUSH1 0x0 DUP1 DUP5 DUP4 DUP6 GAS STATICCALL POP POP POP POP POP JUMP JUMPDEST PUSH1 0x0 DUP1 PUSH20 0xFFFFFFFFFFFFFFFFFFFFFFFFFFFFFFFFFFFFFFFF AND PUSH2 0x229C DUP4 PUSH2 0x19FD JUMP JUMPDEST PUSH20 0xFFFFFFFFFFFFFFFFFFFFFFFFFFFFFFFFFFFFFFFF AND EQ ISZERO SWAP1 POP SWAP2 SWAP1 POP JUMP JUMPDEST PUSH1 0x1 DUP2 GT ISZERO PUSH2 0x23DB JUMPI PUSH1 0x0 PUSH20 0xFFFFFFFFFFFFFFFFFFFFFFFFFFFFFFFFFFFFFFFF AND DUP5 PUSH20 0xFFFFFFFFFFFFFFFFFFFFFFFFFFFFFFFFFFFFFFFF AND EQ PUSH2 0x234F JUMPI DUP1 PUSH1 0x3 PUSH1 0x0 DUP7 PUSH20 0xFFFFFFFFFFFFFFFFFFFFFFFFFFFFFFFFFFFFFFFF AND PUSH20 0xFFFFFFFFFFFFFFFFFFFFFFFFFFFFFFFFFFFFFFFF AND DUP2 MSTORE PUSH1 0x20 ADD SWAP1 DUP2 MSTORE PUSH1 0x20 ADD PUSH1 0x0 KECCAK256 PUSH1 0x0 DUP3 DUP3 SLOAD PUSH2 0x2347 SWAP2 SWAP1 PUSH2 0x40DE JUMP JUMPDEST SWAP3 POP POP DUP2 SWAP1 SSTORE POP JUMPDEST PUSH1 0x0 PUSH20 0xFFFFFFFFFFFFFFFFFFFFFFFFFFFFFFFFFFFFFFFF AND DUP4 PUSH20 0xFFFFFFFFFFFFFFFFFFFFFFFFFFFFFFFFFFFFFFFF AND EQ PUSH2 0x23DA JUMPI DUP1 PUSH1 0x3 PUSH1 0x0 DUP6 PUSH20 0xFFFFFFFFFFFFFFFFFFFFFFFFFFFFFFFFFFFFFFFF AND PUSH20 0xFFFFFFFFFFFFFFFFFFFFFFFFFFFFFFFFFFFFFFFF AND DUP2 MSTORE PUSH1 0x20 ADD SWAP1 DUP2 MSTORE PUSH1 0x20 ADD PUSH1 0x0 KECCAK256 PUSH1 0x0 DUP3 DUP3 SLOAD PUSH2 0x23D2 SWAP2 SWAP1 PUSH2 0x3E02 JUMP JUMPDEST SWAP3 POP POP DUP2 SWAP1 SSTORE POP JUMPDEST JUMPDEST POP POP POP POP JUMP JUMPDEST POP POP POP POP JUMP JUMPDEST PUSH1 0x0 PUSH2 0x2408 DUP5 PUSH20 0xFFFFFFFFFFFFFFFFFFFFFFFFFFFFFFFFFFFFFFFF AND PUSH2 0x271C JUMP JUMPDEST ISZERO PUSH2 0x2561 JUMPI DUP4 PUSH20 0xFFFFFFFFFFFFFFFFFFFFFFFFFFFFFFFFFFFFFFFF AND PUSH4 0x150B7A02 PUSH2 0x2431 PUSH2 0x15AE JUMP JUMPDEST DUP8 DUP7 DUP7 PUSH1 0x40 MLOAD DUP6 PUSH4 0xFFFFFFFF AND PUSH1 0xE0 SHL DUP2 MSTORE PUSH1 0x4 ADD PUSH2 0x2453 SWAP5 SWAP4 SWAP3 SWAP2 SWAP1 PUSH2 0x4167 JUMP JUMPDEST PUSH1 0x20 PUSH1 0x40 MLOAD DUP1 DUP4 SUB DUP2 PUSH1 0x0 DUP8 GAS CALL SWAP3 POP POP POP DUP1 ISZERO PUSH2 0x248F JUMPI POP PUSH1 0x40 MLOAD RETURNDATASIZE PUSH1 0x1F NOT PUSH1 0x1F DUP3 ADD AND DUP3 ADD DUP1 PUSH1 0x40 MSTORE POP DUP2 ADD SWAP1 PUSH2 0x248C SWAP2 SWAP1 PUSH2 0x41C8 JUMP JUMPDEST PUSH1 0x1 JUMPDEST PUSH2 0x2511 JUMPI RETURNDATASIZE DUP1 PUSH1 0x0 DUP2 EQ PUSH2 0x24BF JUMPI PUSH1 0x40 MLOAD SWAP2 POP PUSH1 0x1F NOT PUSH1 0x3F RETURNDATASIZE ADD AND DUP3 ADD PUSH1 0x40 MSTORE RETURNDATASIZE DUP3 MSTORE RETURNDATASIZE PUSH1 0x0 PUSH1 0x20 DUP5 ADD RETURNDATACOPY PUSH2 0x24C4 JUMP JUMPDEST PUSH1 0x60 SWAP2 POP JUMPDEST POP PUSH1 0x0 DUP2 MLOAD SUB PUSH2 0x2509 JUMPI PUSH1 0x40 MLOAD PUSH32 0x8C379A000000000000000000000000000000000000000000000000000000000 DUP2 MSTORE PUSH1 0x4 ADD PUSH2 0x2500 SWAP1 PUSH2 0x3D84 JUMP JUMPDEST PUSH1 0x40 MLOAD DUP1 SWAP2 SUB SWAP1 REVERT JUMPDEST DUP1 MLOAD DUP2 PUSH1 0x20 ADD REVERT JUMPDEST PUSH4 0x150B7A02 PUSH1 0xE0 SHL PUSH28 0xFFFFFFFFFFFFFFFFFFFFFFFFFFFFFFFFFFFFFFFFFFFFFFFFFFFFFFFF NOT AND DUP2 PUSH28 0xFFFFFFFFFFFFFFFFFFFFFFFFFFFFFFFFFFFFFFFFFFFFFFFFFFFFFFFF NOT AND EQ SWAP2 POP POP PUSH2 0x2566 JUMP JUMPDEST PUSH1 0x1 SWAP1 POP JUMPDEST SWAP5 SWAP4 POP POP POP POP JUMP JUMPDEST PUSH1 0x0 DUP1 PUSH1 0x0 SWAP1 POP PUSH27 0x184F03E93FF9F4DAA797ED6E38ED64BF6A1F010000000000000000 DUP4 LT PUSH2 0x25CC JUMPI PUSH27 0x184F03E93FF9F4DAA797ED6E38ED64BF6A1F010000000000000000 DUP4 DUP2 PUSH2 0x25C2 JUMPI PUSH2 0x25C1 PUSH2 0x3E7E JUMP JUMPDEST JUMPDEST DIV SWAP3 POP PUSH1 0x40 DUP2 ADD SWAP1 POP JUMPDEST PUSH14 0x4EE2D6D415B85ACEF8100000000 DUP4 LT PUSH2 0x2609 JUMPI PUSH14 0x4EE2D6D415B85ACEF8100000000 DUP4 DUP2 PUSH2 0x25FF JUMPI PUSH2 0x25FE PUSH2 0x3E7E JUMP JUMPDEST JUMPDEST DIV SWAP3 POP PUSH1 0x20 DUP2 ADD SWAP1 POP JUMPDEST PUSH7 0x2386F26FC10000 DUP4 LT PUSH2 0x2638 JUMPI PUSH7 0x2386F26FC10000 DUP4 DUP2 PUSH2 0x262E JUMPI PUSH2 0x262D PUSH2 0x3E7E JUMP JUMPDEST JUMPDEST DIV SWAP3 POP PUSH1 0x10 DUP2 ADD SWAP1 POP JUMPDEST PUSH4 0x5F5E100 DUP4 LT PUSH2 0x2661 JUMPI PUSH4 0x5F5E100 DUP4 DUP2 PUSH2 0x2657 JUMPI PUSH2 0x2656 PUSH2 0x3E7E JUMP JUMPDEST JUMPDEST DIV SWAP3 POP PUSH1 0x8 DUP2 ADD SWAP1 POP JUMPDEST PUSH2 0x2710 DUP4 LT PUSH2 0x2686 JUMPI PUSH2 0x2710 DUP4 DUP2 PUSH2 0x267C JUMPI PUSH2 0x267B PUSH2 0x3E7E JUMP JUMPDEST JUMPDEST DIV SWAP3 POP PUSH1 0x4 DUP2 ADD SWAP1 POP JUMPDEST PUSH1 0x64 DUP4 LT PUSH2 0x26A9 JUMPI PUSH1 0x64 DUP4 DUP2 PUSH2 0x269F JUMPI PUSH2 0x269E PUSH2 0x3E7E JUMP JUMPDEST JUMPDEST DIV SWAP3 POP PUSH1 0x2 DUP2 ADD SWAP1 POP JUMPDEST PUSH1 0xA DUP4 LT PUSH2 0x26B8 JUMPI PUSH1 0x1 DUP2 ADD SWAP1 POP JUMPDEST DUP1 SWAP2 POP POP SWAP2 SWAP1 POP JUMP JUMPDEST PUSH2 0x26CB DUP4 DUP4 PUSH2 0x273F JUMP JUMPDEST PUSH2 0x26D8 PUSH1 0x0 DUP5 DUP5 DUP5 PUSH2 0x23E7 JUMP JUMPDEST PUSH2 0x2717 JUMPI PUSH1 0x40 MLOAD PUSH32 0x8C379A000000000000000000000000000000000000000000000000000000000 DUP2 MSTORE PUSH1 0x4 ADD PUSH2 0x270E SWAP1 PUSH2 0x3D84 JUMP JUMPDEST PUSH1 0x40 MLOAD DUP1 SWAP2 SUB SWAP1 REVERT JUMPDEST POP POP POP JUMP JUMPDEST PUSH1 0x0 DUP1 DUP3 PUSH20 0xFFFFFFFFFFFFFFFFFFFFFFFFFFFFFFFFFFFFFFFF AND EXTCODESIZE GT SWAP1 POP SWAP2 SWAP1 POP JUMP JUMPDEST PUSH1 0x0 PUSH20 0xFFFFFFFFFFFFFFFFFFFFFFFFFFFFFFFFFFFFFFFF AND DUP3 PUSH20 0xFFFFFFFFFFFFFFFFFFFFFFFFFFFFFFFFFFFFFFFF AND SUB PUSH2 0x27AE JUMPI PUSH1 0x40 MLOAD PUSH32 0x8C379A000000000000000000000000000000000000000000000000000000000 DUP2 MSTORE PUSH1 0x4 ADD PUSH2 0x27A5 SWAP1 PUSH2 0x4241 JUMP JUMPDEST PUSH1 0x40 MLOAD DUP1 SWAP2 SUB SWAP1 REVERT JUMPDEST PUSH2 0x27B7 DUP2 PUSH2 0x227A JUMP JUMPDEST ISZERO PUSH2 0x27F7 JUMPI PUSH1 0x40 MLOAD PUSH32 0x8C379A000000000000000000000000000000000000000000000000000000000 DUP2 MSTORE PUSH1 0x4 ADD PUSH2 0x27EE SWAP1 PUSH2 0x42AD JUMP JUMPDEST PUSH1 0x40 MLOAD DUP1 SWAP2 SUB SWAP1 REVERT JUMPDEST PUSH2 0x2805 PUSH1 0x0 DUP4 DUP4 PUSH1 0x1 PUSH2 0x22BB JUMP JUMPDEST PUSH2 0x280E DUP2 PUSH2 0x227A JUMP JUMPDEST ISZERO PUSH2 0x284E JUMPI PUSH1 0x40 MLOAD PUSH32 0x8C379A000000000000000000000000000000000000000000000000000000000 DUP2 MSTORE PUSH1 0x4 ADD PUSH2 0x2845 SWAP1 PUSH2 0x42AD JUMP JUMPDEST PUSH1 0x40 MLOAD DUP1 SWAP2 SUB SWAP1 REVERT JUMPDEST PUSH1 0x1 PUSH1 0x3 PUSH1 0x0 DUP5 PUSH20 0xFFFFFFFFFFFFFFFFFFFFFFFFFFFFFFFFFFFFFFFF AND PUSH20 0xFFFFFFFFFFFFFFFFFFFFFFFFFFFFFFFFFFFFFFFF AND DUP2 MSTORE PUSH1 0x20 ADD SWAP1 DUP2 MSTORE PUSH1 0x20 ADD PUSH1 0x0 KECCAK256 PUSH1 0x0 DUP3 DUP3 SLOAD ADD SWAP3 POP POP DUP2 SWAP1 SSTORE POP DUP2 PUSH1 0x2 PUSH1 0x0 DUP4 DUP2 MSTORE PUSH1 0x20 ADD SWAP1 DUP2 MSTORE PUSH1 0x20 ADD PUSH1 0x0 KECCAK256 PUSH1 0x0 PUSH2 0x100 EXP DUP2 SLOAD DUP2 PUSH20 0xFFFFFFFFFFFFFFFFFFFFFFFFFFFFFFFFFFFFFFFF MUL NOT AND SWAP1 DUP4 PUSH20 0xFFFFFFFFFFFFFFFFFFFFFFFFFFFFFFFFFFFFFFFF AND MUL OR SWAP1 SSTORE POP DUP1 DUP3 PUSH20 0xFFFFFFFFFFFFFFFFFFFFFFFFFFFFFFFFFFFFFFFF AND PUSH1 0x0 PUSH20 0xFFFFFFFFFFFFFFFFFFFFFFFFFFFFFFFFFFFFFFFF AND PUSH32 0xDDF252AD1BE2C89B69C2B068FC378DAA952BA7F163C4A11628F55A4DF523B3EF PUSH1 0x40 MLOAD PUSH1 0x40 MLOAD DUP1 SWAP2 SUB SWAP1 LOG4 PUSH2 0x2958 PUSH1 0x0 DUP4 DUP4 PUSH1 0x1 PUSH2 0x23E1 JUMP JUMPDEST POP POP JUMP JUMPDEST PUSH1 0x0 PUSH1 0x40 MLOAD SWAP1 POP SWAP1 JUMP JUMPDEST PUSH1 0x0 DUP1 REVERT JUMPDEST PUSH1 0x0 DUP1 REVERT JUMPDEST PUSH1 0x0 PUSH32 0xFFFFFFFF00000000000000000000000000000000000000000000000000000000 DUP3 AND SWAP1 POP SWAP2 SWAP1 POP JUMP JUMPDEST PUSH2 0x29A5 DUP2 PUSH2 0x2970 JUMP JUMPDEST DUP2 EQ PUSH2 0x29B0 JUMPI PUSH1 0x0 DUP1 REVERT JUMPDEST POP JUMP JUMPDEST PUSH1 0x0 DUP2 CALLDATALOAD SWAP1 POP PUSH2 0x29C2 DUP2 PUSH2 0x299C JUMP JUMPDEST SWAP3 SWAP2 POP POP JUMP JUMPDEST PUSH1 0x0 PUSH1 0x20 DUP3 DUP5 SUB SLT ISZERO PUSH2 0x29DE JUMPI PUSH2 0x29DD PUSH2 0x2966 JUMP JUMPDEST JUMPDEST PUSH1 0x0 PUSH2 0x29EC DUP5 DUP3 DUP6 ADD PUSH2 0x29B3 JUMP JUMPDEST SWAP2 POP POP SWAP3 SWAP2 POP POP JUMP JUMPDEST PUSH1 0x0 DUP2 ISZERO ISZERO SWAP1 POP SWAP2 SWAP1 POP JUMP JUMPDEST PUSH2 0x2A0A DUP2 PUSH2 0x29F5 JUMP JUMPDEST DUP3 MSTORE POP POP JUMP JUMPDEST PUSH1 0x0 PUSH1 0x20 DUP3 ADD SWAP1 POP PUSH2 0x2A25 PUSH1 0x0 DUP4 ADD DUP5 PUSH2 0x2A01 JUMP JUMPDEST SWAP3 SWAP2 POP POP JUMP JUMPDEST PUSH1 0x0 DUP2 MLOAD SWAP1 POP SWAP2 SWAP1 POP JUMP JUMPDEST PUSH1 0x0 DUP3 DUP3 MSTORE PUSH1 0x20 DUP3 ADD SWAP1 POP SWAP3 SWAP2 POP POP JUMP JUMPDEST PUSH1 0x0 JUMPDEST DUP4 DUP2 LT ISZERO PUSH2 0x2A65 JUMPI DUP1 DUP3 ADD MLOAD DUP2 DUP5 ADD MSTORE PUSH1 0x20 DUP2 ADD SWAP1 POP PUSH2 0x2A4A JUMP JUMPDEST PUSH1 0x0 DUP5 DUP5 ADD MSTORE POP POP POP POP JUMP JUMPDEST PUSH1 0x0 PUSH1 0x1F NOT PUSH1 0x1F DUP4 ADD AND SWAP1 POP SWAP2 SWAP1 POP JUMP JUMPDEST PUSH1 0x0 PUSH2 0x2A8D DUP3 PUSH2 0x2A2B JUMP JUMPDEST PUSH2 0x2A97 DUP2 DUP6 PUSH2 0x2A36 JUMP JUMPDEST SWAP4 POP PUSH2 0x2AA7 DUP2 DUP6 PUSH1 0x20 DUP7 ADD PUSH2 0x2A47 JUMP JUMPDEST PUSH2 0x2AB0 DUP2 PUSH2 0x2A71 JUMP JUMPDEST DUP5 ADD SWAP2 POP POP SWAP3 SWAP2 POP POP JUMP JUMPDEST PUSH1 0x0 PUSH1 0x20 DUP3 ADD SWAP1 POP DUP2 DUP2 SUB PUSH1 0x0 DUP4 ADD MSTORE PUSH2 0x2AD5 DUP2 DUP5 PUSH2 0x2A82 JUMP JUMPDEST SWAP1 POP SWAP3 SWAP2 POP POP JUMP JUMPDEST PUSH1 0x0 DUP2 SWAP1 POP SWAP2 SWAP1 POP JUMP JUMPDEST PUSH2 0x2AF0 DUP2 PUSH2 0x2ADD JUMP JUMPDEST DUP2 EQ PUSH2 0x2AFB JUMPI PUSH1 0x0 DUP1 REVERT JUMPDEST POP JUMP JUMPDEST PUSH1 0x0 DUP2 CALLDATALOAD SWAP1 POP PUSH2 0x2B0D DUP2 PUSH2 0x2AE7 JUMP JUMPDEST SWAP3 SWAP2 POP POP JUMP JUMPDEST PUSH1 0x0 PUSH1 0x20 DUP3 DUP5 SUB SLT ISZERO PUSH2 0x2B29 JUMPI PUSH2 0x2B28 PUSH2 0x2966 JUMP JUMPDEST JUMPDEST PUSH1 0x0 PUSH2 0x2B37 DUP5 DUP3 DUP6 ADD PUSH2 0x2AFE JUMP JUMPDEST SWAP2 POP POP SWAP3 SWAP2 POP POP JUMP JUMPDEST PUSH1 0x0 PUSH20 0xFFFFFFFFFFFFFFFFFFFFFFFFFFFFFFFFFFFFFFFF DUP3 AND SWAP1 POP SWAP2 SWAP1 POP JUMP JUMPDEST PUSH1 0x0 PUSH2 0x2B6B DUP3 PUSH2 0x2B40 JUMP JUMPDEST SWAP1 POP SWAP2 SWAP1 POP JUMP JUMPDEST PUSH2 0x2B7B DUP2 PUSH2 0x2B60 JUMP JUMPDEST DUP3 MSTORE POP POP JUMP JUMPDEST PUSH1 0x0 PUSH1 0x20 DUP3 ADD SWAP1 POP PUSH2 0x2B96 PUSH1 0x0 DUP4 ADD DUP5 PUSH2 0x2B72 JUMP JUMPDEST SWAP3 SWAP2 POP POP JUMP JUMPDEST PUSH2 0x2BA5 DUP2 PUSH2 0x2B60 JUMP JUMPDEST DUP2 EQ PUSH2 0x2BB0 JUMPI PUSH1 0x0 DUP1 REVERT JUMPDEST POP JUMP JUMPDEST PUSH1 0x0 DUP2 CALLDATALOAD SWAP1 POP PUSH2 0x2BC2 DUP2 PUSH2 0x2B9C JUMP JUMPDEST SWAP3 SWAP2 POP POP JUMP JUMPDEST PUSH1 0x0 DUP1 PUSH1 0x40 DUP4 DUP6 SUB SLT ISZERO PUSH2 0x2BDF JUMPI PUSH2 0x2BDE PUSH2 0x2966 JUMP JUMPDEST JUMPDEST PUSH1 0x0 PUSH2 0x2BED DUP6 DUP3 DUP7 ADD PUSH2 0x2BB3 JUMP JUMPDEST SWAP3 POP POP PUSH1 0x20 PUSH2 0x2BFE DUP6 DUP3 DUP7 ADD PUSH2 0x2AFE JUMP JUMPDEST SWAP2 POP POP SWAP3 POP SWAP3 SWAP1 POP JUMP JUMPDEST PUSH1 0x0 DUP1 REVERT JUMPDEST PUSH1 0x0 DUP1 REVERT JUMPDEST PUSH1 0x0 DUP1 REVERT JUMPDEST PUSH1 0x0 DUP1 DUP4 PUSH1 0x1F DUP5 ADD SLT PUSH2 0x2C2D JUMPI PUSH2 0x2C2C PUSH2 0x2C08 JUMP JUMPDEST JUMPDEST DUP3 CALLDATALOAD SWAP1 POP PUSH8 0xFFFFFFFFFFFFFFFF DUP2 GT ISZERO PUSH2 0x2C4A JUMPI PUSH2 0x2C49 PUSH2 0x2C0D JUMP JUMPDEST JUMPDEST PUSH1 0x20 DUP4 ADD SWAP2 POP DUP4 PUSH1 0x1 DUP3 MUL DUP4 ADD GT ISZERO PUSH2 0x2C66 JUMPI PUSH2 0x2C65 PUSH2 0x2C12 JUMP JUMPDEST JUMPDEST SWAP3 POP SWAP3 SWAP1 POP JUMP JUMPDEST PUSH1 0x0 DUP1 PUSH1 0x20 DUP4 DUP6 SUB SLT ISZERO PUSH2 0x2C84 JUMPI PUSH2 0x2C83 PUSH2 0x2966 JUMP JUMPDEST JUMPDEST PUSH1 0x0 DUP4 ADD CALLDATALOAD PUSH8 0xFFFFFFFFFFFFFFFF DUP2 GT ISZERO PUSH2 0x2CA2 JUMPI PUSH2 0x2CA1 PUSH2 0x296B JUMP JUMPDEST JUMPDEST PUSH2 0x2CAE DUP6 DUP3 DUP7 ADD PUSH2 0x2C17 JUMP JUMPDEST SWAP3 POP SWAP3 POP POP SWAP3 POP SWAP3 SWAP1 POP JUMP JUMPDEST PUSH1 0x0 DUP1 PUSH1 0x0 PUSH1 0x60 DUP5 DUP7 SUB SLT ISZERO PUSH2 0x2CD3 JUMPI PUSH2 0x2CD2 PUSH2 0x2966 JUMP JUMPDEST JUMPDEST PUSH1 0x0 PUSH2 0x2CE1 DUP7 DUP3 DUP8 ADD PUSH2 0x2BB3 JUMP JUMPDEST SWAP4 POP POP PUSH1 0x20 PUSH2 0x2CF2 DUP7 DUP3 DUP8 ADD PUSH2 0x2BB3 JUMP JUMPDEST SWAP3 POP POP PUSH1 0x40 PUSH2 0x2D03 DUP7 DUP3 DUP8 ADD PUSH2 0x2AFE JUMP JUMPDEST SWAP2 POP POP SWAP3 POP SWAP3 POP SWAP3 JUMP JUMPDEST PUSH1 0x0 DUP1 REVERT JUMPDEST PUSH32 0x4E487B7100000000000000000000000000000000000000000000000000000000 PUSH1 0x0 MSTORE PUSH1 0x41 PUSH1 0x4 MSTORE PUSH1 0x24 PUSH1 0x0 REVERT JUMPDEST PUSH2 0x2D4A DUP3 PUSH2 0x2A71 JUMP JUMPDEST DUP2 ADD DUP2 DUP2 LT PUSH8 0xFFFFFFFFFFFFFFFF DUP3 GT OR ISZERO PUSH2 0x2D69 JUMPI PUSH2 0x2D68 PUSH2 0x2D12 JUMP JUMPDEST JUMPDEST DUP1 PUSH1 0x40 MSTORE POP POP POP JUMP JUMPDEST PUSH1 0x0 PUSH2 0x2D7C PUSH2 0x295C JUMP JUMPDEST SWAP1 POP PUSH2 0x2D88 DUP3 DUP3 PUSH2 0x2D41 JUMP JUMPDEST SWAP2 SWAP1 POP JUMP JUMPDEST PUSH1 0x0 PUSH8 0xFFFFFFFFFFFFFFFF DUP3 GT ISZERO PUSH2 0x2DA8 JUMPI PUSH2 0x2DA7 PUSH2 0x2D12 JUMP JUMPDEST JUMPDEST PUSH2 0x2DB1 DUP3 PUSH2 0x2A71 JUMP JUMPDEST SWAP1 POP PUSH1 0x20 DUP2 ADD SWAP1 POP SWAP2 SWAP1 POP JUMP JUMPDEST DUP3 DUP2 DUP4 CALLDATACOPY PUSH1 0x0 DUP4 DUP4 ADD MSTORE POP POP POP JUMP JUMPDEST PUSH1 0x0 PUSH2 0x2DE0 PUSH2 0x2DDB DUP5 PUSH2 0x2D8D JUMP JUMPDEST PUSH2 0x2D72 JUMP JUMPDEST SWAP1 POP DUP3 DUP2 MSTORE PUSH1 0x20 DUP2 ADD DUP5 DUP5 DUP5 ADD GT ISZERO PUSH2 0x2DFC JUMPI PUSH2 0x2DFB PUSH2 0x2D0D JUMP JUMPDEST JUMPDEST PUSH2 0x2E07 DUP5 DUP3 DUP6 PUSH2 0x2DBE JUMP JUMPDEST POP SWAP4 SWAP3 POP POP POP JUMP JUMPDEST PUSH1 0x0 DUP3 PUSH1 0x1F DUP4 ADD SLT PUSH2 0x2E24 JUMPI PUSH2 0x2E23 PUSH2 0x2C08 JUMP JUMPDEST JUMPDEST DUP2 CALLDATALOAD PUSH2 0x2E34 DUP5 DUP3 PUSH1 0x20 DUP7 ADD PUSH2 0x2DCD JUMP JUMPDEST SWAP2 POP POP SWAP3 SWAP2 POP POP JUMP JUMPDEST PUSH1 0x0 PUSH1 0x20 DUP3 DUP5 SUB SLT ISZERO PUSH2 0x2E53 JUMPI PUSH2 0x2E52 PUSH2 0x2966 JUMP JUMPDEST JUMPDEST PUSH1 0x0 DUP3 ADD CALLDATALOAD PUSH8 0xFFFFFFFFFFFFFFFF DUP2 GT ISZERO PUSH2 0x2E71 JUMPI PUSH2 0x2E70 PUSH2 0x296B JUMP JUMPDEST JUMPDEST PUSH2 0x2E7D DUP5 DUP3 DUP6 ADD PUSH2 0x2E0F JUMP JUMPDEST SWAP2 POP POP SWAP3 SWAP2 POP POP JUMP JUMPDEST PUSH1 0x0 PUSH1 0x20 DUP3 DUP5 SUB SLT ISZERO PUSH2 0x2E9C JUMPI PUSH2 0x2E9B PUSH2 0x2966 JUMP JUMPDEST JUMPDEST PUSH1 0x0 PUSH2 0x2EAA DUP5 DUP3 DUP6 ADD PUSH2 0x2BB3 JUMP JUMPDEST SWAP2 POP POP SWAP3 SWAP2 POP POP JUMP JUMPDEST PUSH2 0x2EBC DUP2 PUSH2 0x2ADD JUMP JUMPDEST DUP3 MSTORE POP POP JUMP JUMPDEST PUSH1 0x0 PUSH1 0x20 DUP3 ADD SWAP1 POP PUSH2 0x2ED7 PUSH1 0x0 DUP4 ADD DUP5 PUSH2 0x2EB3 JUMP JUMPDEST SWAP3 SWAP2 POP POP JUMP JUMPDEST PUSH2 0x2EE6 DUP2 PUSH2 0x29F5 JUMP JUMPDEST DUP2 EQ PUSH2 0x2EF1 JUMPI PUSH1 0x0 DUP1 REVERT JUMPDEST POP JUMP JUMPDEST PUSH1 0x0 DUP2 CALLDATALOAD SWAP1 POP PUSH2 0x2F03 DUP2 PUSH2 0x2EDD JUMP JUMPDEST SWAP3 SWAP2 POP POP JUMP JUMPDEST PUSH1 0x0 DUP1 PUSH1 0x40 DUP4 DUP6 SUB SLT ISZERO PUSH2 0x2F20 JUMPI PUSH2 0x2F1F PUSH2 0x2966 JUMP JUMPDEST JUMPDEST PUSH1 0x0 PUSH2 0x2F2E DUP6 DUP3 DUP7 ADD PUSH2 0x2BB3 JUMP JUMPDEST SWAP3 POP POP PUSH1 0x20 PUSH2 0x2F3F DUP6 DUP3 DUP7 ADD PUSH2 0x2EF4 JUMP JUMPDEST SWAP2 POP POP SWAP3 POP SWAP3 SWAP1 POP JUMP JUMPDEST PUSH1 0x0 PUSH8 0xFFFFFFFFFFFFFFFF DUP3 GT ISZERO PUSH2 0x2F64 JUMPI PUSH2 0x2F63 PUSH2 0x2D12 JUMP JUMPDEST JUMPDEST PUSH2 0x2F6D DUP3 PUSH2 0x2A71 JUMP JUMPDEST SWAP1 POP PUSH1 0x20 DUP2 ADD SWAP1 POP SWAP2 SWAP1 POP JUMP JUMPDEST PUSH1 0x0 PUSH2 0x2F8D PUSH2 0x2F88 DUP5 PUSH2 0x2F49 JUMP JUMPDEST PUSH2 0x2D72 JUMP JUMPDEST SWAP1 POP DUP3 DUP2 MSTORE PUSH1 0x20 DUP2 ADD DUP5 DUP5 DUP5 ADD GT ISZERO PUSH2 0x2FA9 JUMPI PUSH2 0x2FA8 PUSH2 0x2D0D JUMP JUMPDEST JUMPDEST PUSH2 0x2FB4 DUP5 DUP3 DUP6 PUSH2 0x2DBE JUMP JUMPDEST POP SWAP4 SWAP3 POP POP POP JUMP JUMPDEST PUSH1 0x0 DUP3 PUSH1 0x1F DUP4 ADD SLT PUSH2 0x2FD1 JUMPI PUSH2 0x2FD0 PUSH2 0x2C08 JUMP JUMPDEST JUMPDEST DUP2 CALLDATALOAD PUSH2 0x2FE1 DUP5 DUP3 PUSH1 0x20 DUP7 ADD PUSH2 0x2F7A JUMP JUMPDEST SWAP2 POP POP SWAP3 SWAP2 POP POP JUMP JUMPDEST PUSH1 0x0 DUP1 PUSH1 0x0 DUP1 PUSH1 0x80 DUP6 DUP8 SUB SLT ISZERO PUSH2 0x3004 JUMPI PUSH2 0x3003 PUSH2 0x2966 JUMP JUMPDEST JUMPDEST PUSH1 0x0 PUSH2 0x3012 DUP8 DUP3 DUP9 ADD PUSH2 0x2BB3 JUMP JUMPDEST SWAP5 POP POP PUSH1 0x20 PUSH2 0x3023 DUP8 DUP3 DUP9 ADD PUSH2 0x2BB3 JUMP JUMPDEST SWAP4 POP POP PUSH1 0x40 PUSH2 0x3034 DUP8 DUP3 DUP9 ADD PUSH2 0x2AFE JUMP JUMPDEST SWAP3 POP POP PUSH1 0x60 DUP6 ADD CALLDATALOAD PUSH8 0xFFFFFFFFFFFFFFFF DUP2 GT ISZERO PUSH2 0x3055 JUMPI PUSH2 0x3054 PUSH2 0x296B JUMP JUMPDEST JUMPDEST PUSH2 0x3061 DUP8 DUP3 DUP9 ADD PUSH2 0x2FBC JUMP JUMPDEST SWAP2 POP POP SWAP3 SWAP6 SWAP2 SWAP5 POP SWAP3 POP JUMP JUMPDEST PUSH1 0x0 DUP1 PUSH1 0x0 DUP1 PUSH1 0x40 DUP6 DUP8 SUB SLT ISZERO PUSH2 0x3087 JUMPI PUSH2 0x3086 PUSH2 0x2966 JUMP JUMPDEST JUMPDEST PUSH1 0x0 DUP6 ADD CALLDATALOAD PUSH8 0xFFFFFFFFFFFFFFFF DUP2 GT ISZERO PUSH2 0x30A5 JUMPI PUSH2 0x30A4 PUSH2 0x296B JUMP JUMPDEST JUMPDEST PUSH2 0x30B1 DUP8 DUP3 DUP9 ADD PUSH2 0x2C17 JUMP JUMPDEST SWAP5 POP SWAP5 POP POP PUSH1 0x20 DUP6 ADD CALLDATALOAD PUSH8 0xFFFFFFFFFFFFFFFF DUP2 GT ISZERO PUSH2 0x30D4 JUMPI PUSH2 0x30D3 PUSH2 0x296B JUMP JUMPDEST JUMPDEST PUSH2 0x30E0 DUP8 DUP3 DUP9 ADD PUSH2 0x2C17 JUMP JUMPDEST SWAP3 POP SWAP3 POP POP SWAP3 SWAP6 SWAP2 SWAP5 POP SWAP3 POP JUMP JUMPDEST PUSH1 0x0 DUP1 PUSH1 0x40 DUP4 DUP6 SUB SLT ISZERO PUSH2 0x3105 JUMPI PUSH2 0x3104 PUSH2 0x2966 JUMP JUMPDEST JUMPDEST PUSH1 0x0 PUSH2 0x3113 DUP6 DUP3 DUP7 ADD PUSH2 0x2BB3 JUMP JUMPDEST SWAP3 POP POP PUSH1 0x20 PUSH2 0x3124 DUP6 DUP3 DUP7 ADD PUSH2 0x2BB3 JUMP JUMPDEST SWAP2 POP POP SWAP3 POP SWAP3 SWAP1 POP JUMP JUMPDEST PUSH32 0x4E487B7100000000000000000000000000000000000000000000000000000000 PUSH1 0x0 MSTORE PUSH1 0x22 PUSH1 0x4 MSTORE PUSH1 0x24 PUSH1 0x0 REVERT JUMPDEST PUSH1 0x0 PUSH1 0x2 DUP3 DIV SWAP1 POP PUSH1 0x1 DUP3 AND DUP1 PUSH2 0x3175 JUMPI PUSH1 0x7F DUP3 AND SWAP2 POP JUMPDEST PUSH1 0x20 DUP3 LT DUP2 SUB PUSH2 0x3188 JUMPI PUSH2 0x3187 PUSH2 0x312E JUMP JUMPDEST JUMPDEST POP SWAP2 SWAP1 POP JUMP JUMPDEST PUSH32 0x4552433732313A20617070726F76616C20746F2063757272656E74206F776E65 PUSH1 0x0 DUP3 ADD MSTORE PUSH32 0x7200000000000000000000000000000000000000000000000000000000000000 PUSH1 0x20 DUP3 ADD MSTORE POP JUMP JUMPDEST PUSH1 0x0 PUSH2 0x31EA PUSH1 0x21 DUP4 PUSH2 0x2A36 JUMP JUMPDEST SWAP2 POP PUSH2 0x31F5 DUP3 PUSH2 0x318E JUMP JUMPDEST PUSH1 0x40 DUP3 ADD SWAP1 POP SWAP2 SWAP1 POP JUMP JUMPDEST PUSH1 0x0 PUSH1 0x20 DUP3 ADD SWAP1 POP DUP2 DUP2 SUB PUSH1 0x0 DUP4 ADD MSTORE PUSH2 0x3219 DUP2 PUSH2 0x31DD JUMP JUMPDEST SWAP1 POP SWAP2 SWAP1 POP JUMP JUMPDEST PUSH32 0x4552433732313A20617070726F76652063616C6C6572206973206E6F7420746F PUSH1 0x0 DUP3 ADD MSTORE PUSH32 0x6B656E206F776E6572206F7220617070726F76656420666F7220616C6C000000 PUSH1 0x20 DUP3 ADD MSTORE POP JUMP JUMPDEST PUSH1 0x0 PUSH2 0x327C PUSH1 0x3D DUP4 PUSH2 0x2A36 JUMP JUMPDEST SWAP2 POP PUSH2 0x3287 DUP3 PUSH2 0x3220 JUMP JUMPDEST PUSH1 0x40 DUP3 ADD SWAP1 POP SWAP2 SWAP1 POP JUMP JUMPDEST PUSH1 0x0 PUSH1 0x20 DUP3 ADD SWAP1 POP DUP2 DUP2 SUB PUSH1 0x0 DUP4 ADD MSTORE PUSH2 0x32AB DUP2 PUSH2 0x326F JUMP JUMPDEST SWAP1 POP SWAP2 SWAP1 POP JUMP JUMPDEST PUSH1 0x0 DUP2 SWAP1 POP SWAP3 SWAP2 POP POP JUMP JUMPDEST PUSH1 0x0 PUSH2 0x32C9 DUP4 DUP6 PUSH2 0x32B2 JUMP JUMPDEST SWAP4 POP PUSH2 0x32D6 DUP4 DUP6 DUP5 PUSH2 0x2DBE JUMP JUMPDEST DUP3 DUP5 ADD SWAP1 POP SWAP4 SWAP3 POP POP POP JUMP JUMPDEST PUSH1 0x0 PUSH2 0x32EF DUP3 DUP5 DUP7 PUSH2 0x32BD JUMP JUMPDEST SWAP2 POP DUP2 SWAP1 POP SWAP4 SWAP3 POP POP POP JUMP JUMPDEST PUSH32 0x4552433732313A2063616C6C6572206973206E6F7420746F6B656E206F776E65 PUSH1 0x0 DUP3 ADD MSTORE PUSH32 0x72206F7220617070726F76656400000000000000000000000000000000000000 PUSH1 0x20 DUP3 ADD MSTORE POP JUMP JUMPDEST PUSH1 0x0 PUSH2 0x3357 PUSH1 0x2D DUP4 PUSH2 0x2A36 JUMP JUMPDEST SWAP2 POP PUSH2 0x3362 DUP3 PUSH2 0x32FB JUMP JUMPDEST PUSH1 0x40 DUP3 ADD SWAP1 POP SWAP2 SWAP1 POP JUMP JUMPDEST PUSH1 0x0 PUSH1 0x20 DUP3 ADD SWAP1 POP DUP2 DUP2 SUB PUSH1 0x0 DUP4 ADD MSTORE PUSH2 0x3386 DUP2 PUSH2 0x334A JUMP JUMPDEST SWAP1 POP SWAP2 SWAP1 POP JUMP JUMPDEST PUSH32 0x4552433732313A20696E76616C696420746F6B656E2049440000000000000000 PUSH1 0x0 DUP3 ADD MSTORE POP JUMP JUMPDEST PUSH1 0x0 PUSH2 0x33C3 PUSH1 0x18 DUP4 PUSH2 0x2A36 JUMP JUMPDEST SWAP2 POP PUSH2 0x33CE DUP3 PUSH2 0x338D JUMP JUMPDEST PUSH1 0x20 DUP3 ADD SWAP1 POP SWAP2 SWAP1 POP JUMP JUMPDEST PUSH1 0x0 PUSH1 0x20 DUP3 ADD SWAP1 POP DUP2 DUP2 SUB PUSH1 0x0 DUP4 ADD MSTORE PUSH2 0x33F2 DUP2 PUSH2 0x33B6 JUMP JUMPDEST SWAP1 POP SWAP2 SWAP1 POP JUMP JUMPDEST PUSH32 0x4552433732313A2061646472657373207A65726F206973206E6F742061207661 PUSH1 0x0 DUP3 ADD MSTORE PUSH32 0x6C6964206F776E65720000000000000000000000000000000000000000000000 PUSH1 0x20 DUP3 ADD MSTORE POP JUMP JUMPDEST PUSH1 0x0 PUSH2 0x3455 PUSH1 0x29 DUP4 PUSH2 0x2A36 JUMP JUMPDEST SWAP2 POP PUSH2 0x3460 DUP3 PUSH2 0x33F9 JUMP JUMPDEST PUSH1 0x40 DUP3 ADD SWAP1 POP SWAP2 SWAP1 POP JUMP JUMPDEST PUSH1 0x0 PUSH1 0x20 DUP3 ADD SWAP1 POP DUP2 DUP2 SUB PUSH1 0x0 DUP4 ADD MSTORE PUSH2 0x3484 DUP2 PUSH2 0x3448 JUMP JUMPDEST SWAP1 POP SWAP2 SWAP1 POP JUMP JUMPDEST PUSH1 0x0 DUP3 SWAP1 POP SWAP3 SWAP2 POP POP JUMP JUMPDEST PUSH1 0x0 DUP2 SWAP1 POP DUP2 PUSH1 0x0 MSTORE PUSH1 0x20 PUSH1 0x0 KECCAK256 SWAP1 POP SWAP2 SWAP1 POP JUMP JUMPDEST PUSH1 0x0 PUSH1 0x20 PUSH1 0x1F DUP4 ADD DIV SWAP1 POP SWAP2 SWAP1 POP JUMP JUMPDEST PUSH1 0x0 DUP3 DUP3 SHL SWAP1 POP SWAP3 SWAP2 POP POP JUMP JUMPDEST PUSH1 0x0 PUSH1 0x8 DUP4 MUL PUSH2 0x34F8 PUSH32 0xFFFFFFFFFFFFFFFFFFFFFFFFFFFFFFFFFFFFFFFFFFFFFFFFFFFFFFFFFFFFFFFF DUP3 PUSH2 0x34BB JUMP JUMPDEST PUSH2 0x3502 DUP7 DUP4 PUSH2 0x34BB JUMP JUMPDEST SWAP6 POP DUP1 NOT DUP5 AND SWAP4 POP DUP1 DUP7 AND DUP5 OR SWAP3 POP POP POP SWAP4 SWAP3 POP POP POP JUMP JUMPDEST PUSH1 0x0 DUP2 SWAP1 POP SWAP2 SWAP1 POP JUMP JUMPDEST PUSH1 0x0 PUSH2 0x353F PUSH2 0x353A PUSH2 0x3535 DUP5 PUSH2 0x2ADD JUMP JUMPDEST PUSH2 0x351A JUMP JUMPDEST PUSH2 0x2ADD JUMP JUMPDEST SWAP1 POP SWAP2 SWAP1 POP JUMP JUMPDEST PUSH1 0x0 DUP2 SWAP1 POP SWAP2 SWAP1 POP JUMP JUMPDEST PUSH2 0x3559 DUP4 PUSH2 0x3524 JUMP JUMPDEST PUSH2 0x356D PUSH2 0x3565 DUP3 PUSH2 0x3546 JUMP JUMPDEST DUP5 DUP5 SLOAD PUSH2 0x34C8 JUMP JUMPDEST DUP3 SSTORE POP POP POP POP JUMP JUMPDEST PUSH1 0x0 SWAP1 JUMP JUMPDEST PUSH2 0x3582 PUSH2 0x3575 JUMP JUMPDEST PUSH2 0x358D DUP2 DUP5 DUP5 PUSH2 0x3550 JUMP JUMPDEST POP POP POP JUMP JUMPDEST JUMPDEST DUP2 DUP2 LT ISZERO PUSH2 0x35B1 JUMPI PUSH2 0x35A6 PUSH1 0x0 DUP3 PUSH2 0x357A JUMP JUMPDEST PUSH1 0x1 DUP2 ADD SWAP1 POP PUSH2 0x3593 JUMP JUMPDEST POP POP JUMP JUMPDEST PUSH1 0x1F DUP3 GT ISZERO PUSH2 0x35F6 JUMPI PUSH2 0x35C7 DUP2 PUSH2 0x3496 JUMP JUMPDEST PUSH2 0x35D0 DUP5 PUSH2 0x34AB JUMP JUMPDEST DUP2 ADD PUSH1 0x20 DUP6 LT ISZERO PUSH2 0x35DF JUMPI DUP2 SWAP1 POP JUMPDEST PUSH2 0x35F3 PUSH2 0x35EB DUP6 PUSH2 0x34AB JUMP JUMPDEST DUP4 ADD DUP3 PUSH2 0x3592 JUMP JUMPDEST POP POP JUMPDEST POP POP POP JUMP JUMPDEST PUSH1 0x0 DUP3 DUP3 SHR SWAP1 POP SWAP3 SWAP2 POP POP JUMP JUMPDEST PUSH1 0x0 PUSH2 0x3619 PUSH1 0x0 NOT DUP5 PUSH1 0x8 MUL PUSH2 0x35FB JUMP JUMPDEST NOT DUP1 DUP4 AND SWAP2 POP POP SWAP3 SWAP2 POP POP JUMP JUMPDEST PUSH1 0x0 PUSH2 0x3632 DUP4 DUP4 PUSH2 0x3608 JUMP JUMPDEST SWAP2 POP DUP3 PUSH1 0x2 MUL DUP3 OR SWAP1 POP SWAP3 SWAP2 POP POP JUMP JUMPDEST PUSH2 0x364C DUP4 DUP4 PUSH2 0x348B JUMP JUMPDEST PUSH8 0xFFFFFFFFFFFFFFFF DUP2 GT ISZERO PUSH2 0x3665 JUMPI PUSH2 0x3664 PUSH2 0x2D12 JUMP JUMPDEST JUMPDEST PUSH2 0x366F DUP3 SLOAD PUSH2 0x315D JUMP JUMPDEST PUSH2 0x367A DUP3 DUP3 DUP6 PUSH2 0x35B5 JUMP JUMPDEST PUSH1 0x0 PUSH1 0x1F DUP4 GT PUSH1 0x1 DUP2 EQ PUSH2 0x36A9 JUMPI PUSH1 0x0 DUP5 ISZERO PUSH2 0x3697 JUMPI DUP3 DUP8 ADD CALLDATALOAD SWAP1 POP JUMPDEST PUSH2 0x36A1 DUP6 DUP3 PUSH2 0x3626 JUMP JUMPDEST DUP7 SSTORE POP PUSH2 0x3709 JUMP JUMPDEST PUSH1 0x1F NOT DUP5 AND PUSH2 0x36B7 DUP7 PUSH2 0x3496 JUMP JUMPDEST PUSH1 0x0 JUMPDEST DUP3 DUP2 LT ISZERO PUSH2 0x36DF JUMPI DUP5 DUP10 ADD CALLDATALOAD DUP3 SSTORE PUSH1 0x1 DUP3 ADD SWAP2 POP PUSH1 0x20 DUP6 ADD SWAP5 POP PUSH1 0x20 DUP2 ADD SWAP1 POP PUSH2 0x36BA JUMP JUMPDEST DUP7 DUP4 LT ISZERO PUSH2 0x36FC JUMPI DUP5 DUP10 ADD CALLDATALOAD PUSH2 0x36F8 PUSH1 0x1F DUP10 AND DUP3 PUSH2 0x3608 JUMP JUMPDEST DUP4 SSTORE POP JUMPDEST PUSH1 0x1 PUSH1 0x2 DUP9 MUL ADD DUP9 SSTORE POP POP POP JUMPDEST POP POP POP POP POP POP POP JUMP JUMPDEST PUSH1 0x0 PUSH2 0x371D DUP3 PUSH2 0x2A2B JUMP JUMPDEST PUSH2 0x3727 DUP2 DUP6 PUSH2 0x32B2 JUMP JUMPDEST SWAP4 POP PUSH2 0x3737 DUP2 DUP6 PUSH1 0x20 DUP7 ADD PUSH2 0x2A47 JUMP JUMPDEST DUP1 DUP5 ADD SWAP2 POP POP SWAP3 SWAP2 POP POP JUMP JUMPDEST PUSH1 0x0 PUSH2 0x374F DUP3 DUP6 PUSH2 0x3712 JUMP JUMPDEST SWAP2 POP PUSH2 0x375B DUP3 DUP5 PUSH2 0x3712 JUMP JUMPDEST SWAP2 POP DUP2 SWAP1 POP SWAP4 SWAP3 POP POP POP JUMP JUMPDEST PUSH32 0x4E6F7420656E6F756768204D6174696320706169640000000000000000000000 PUSH1 0x0 DUP3 ADD MSTORE POP JUMP JUMPDEST PUSH1 0x0 PUSH2 0x379D PUSH1 0x15 DUP4 PUSH2 0x2A36 JUMP JUMPDEST SWAP2 POP PUSH2 0x37A8 DUP3 PUSH2 0x3767 JUMP JUMPDEST PUSH1 0x20 DUP3 ADD SWAP1 POP SWAP2 SWAP1 POP JUMP JUMPDEST PUSH1 0x0 PUSH1 0x20 DUP3 ADD SWAP1 POP DUP2 DUP2 SUB PUSH1 0x0 DUP4 ADD MSTORE PUSH2 0x37CC DUP2 PUSH2 0x3790 JUMP JUMPDEST SWAP1 POP SWAP2 SWAP1 POP JUMP JUMPDEST PUSH32 0x2E00000000000000000000000000000000000000000000000000000000000000 PUSH1 0x0 DUP3 ADD MSTORE POP JUMP JUMPDEST PUSH1 0x0 PUSH2 0x3809 PUSH1 0x1 DUP4 PUSH2 0x32B2 JUMP JUMPDEST SWAP2 POP PUSH2 0x3814 DUP3 PUSH2 0x37D3 JUMP JUMPDEST PUSH1 0x1 DUP3 ADD SWAP1 POP SWAP2 SWAP1 POP JUMP JUMPDEST PUSH1 0x0 DUP2 SLOAD PUSH2 0x382C DUP2 PUSH2 0x315D JUMP JUMPDEST PUSH2 0x3836 DUP2 DUP7 PUSH2 0x32B2 JUMP JUMPDEST SWAP5 POP PUSH1 0x1 DUP3 AND PUSH1 0x0 DUP2 EQ PUSH2 0x3851 JUMPI PUSH1 0x1 DUP2 EQ PUSH2 0x3866 JUMPI PUSH2 0x3899 JUMP JUMPDEST PUSH1 0xFF NOT DUP4 AND DUP7 MSTORE DUP2 ISZERO ISZERO DUP3 MUL DUP7 ADD SWAP4 POP PUSH2 0x3899 JUMP JUMPDEST PUSH2 0x386F DUP6 PUSH2 0x3496 JUMP JUMPDEST PUSH1 0x0 JUMPDEST DUP4 DUP2 LT ISZERO PUSH2 0x3891 JUMPI DUP2 SLOAD DUP2 DUP10 ADD MSTORE PUSH1 0x1 DUP3 ADD SWAP2 POP PUSH1 0x20 DUP2 ADD SWAP1 POP PUSH2 0x3872 JUMP JUMPDEST DUP4 DUP9 ADD SWAP6 POP POP POP JUMPDEST POP POP POP SWAP3 SWAP2 POP POP JUMP JUMPDEST PUSH1 0x0 PUSH2 0x38AF DUP3 DUP6 DUP8 PUSH2 0x32BD JUMP JUMPDEST SWAP2 POP PUSH2 0x38BA DUP3 PUSH2 0x37FC JUMP JUMPDEST SWAP2 POP PUSH2 0x38C6 DUP3 DUP5 PUSH2 0x381F JUMP JUMPDEST SWAP2 POP DUP2 SWAP1 POP SWAP5 SWAP4 POP POP POP POP JUMP JUMPDEST PUSH1 0x0 PUSH2 0x38DF DUP3 DUP7 PUSH2 0x381F JUMP JUMPDEST SWAP2 POP PUSH2 0x38EB DUP3 DUP6 PUSH2 0x3712 JUMP JUMPDEST SWAP2 POP PUSH2 0x38F7 DUP3 DUP5 PUSH2 0x381F JUMP JUMPDEST SWAP2 POP DUP2 SWAP1 POP SWAP5 SWAP4 POP POP POP POP JUMP JUMPDEST PUSH32 0x7B226E616D65223A202200000000000000000000000000000000000000000000 PUSH1 0x0 DUP3 ADD MSTORE POP JUMP JUMPDEST PUSH1 0x0 PUSH2 0x393A PUSH1 0xA DUP4 PUSH2 0x32B2 JUMP JUMPDEST SWAP2 POP PUSH2 0x3945 DUP3 PUSH2 0x3904 JUMP JUMPDEST PUSH1 0xA DUP3 ADD SWAP1 POP SWAP2 SWAP1 POP JUMP JUMPDEST PUSH32 0x222C20226465736372697074696F6E223A20224120646F6D61696E206F6E2074 PUSH1 0x0 DUP3 ADD MSTORE PUSH32 0x6865204E696E6A61206E616D652073657276696365222C2022696D616765223A PUSH1 0x20 DUP3 ADD MSTORE PUSH32 0x2022646174613A696D6167652F7376672B786D6C3B6261736536342C00000000 PUSH1 0x40 DUP3 ADD MSTORE POP JUMP JUMPDEST PUSH1 0x0 PUSH2 0x39D2 PUSH1 0x5C DUP4 PUSH2 0x32B2 JUMP JUMPDEST SWAP2 POP PUSH2 0x39DD DUP3 PUSH2 0x3950 JUMP JUMPDEST PUSH1 0x5C DUP3 ADD SWAP1 POP SWAP2 SWAP1 POP JUMP JUMPDEST PUSH32 0x222C226C656E677468223A220000000000000000000000000000000000000000 PUSH1 0x0 DUP3 ADD MSTORE POP JUMP JUMPDEST PUSH1 0x0 PUSH2 0x3A1E PUSH1 0xC DUP4 PUSH2 0x32B2 JUMP JUMPDEST SWAP2 POP PUSH2 0x3A29 DUP3 PUSH2 0x39E8 JUMP JUMPDEST PUSH1 0xC DUP3 ADD SWAP1 POP SWAP2 SWAP1 POP JUMP JUMPDEST PUSH32 0x227D000000000000000000000000000000000000000000000000000000000000 PUSH1 0x0 DUP3 ADD MSTORE POP JUMP JUMPDEST PUSH1 0x0 PUSH2 0x3A6A PUSH1 0x2 DUP4 PUSH2 0x32B2 JUMP JUMPDEST SWAP2 POP PUSH2 0x3A75 DUP3 PUSH2 0x3A34 JUMP JUMPDEST PUSH1 0x2 DUP3 ADD SWAP1 POP SWAP2 SWAP1 POP JUMP JUMPDEST PUSH1 0x0 PUSH2 0x3A8B DUP3 PUSH2 0x392D JUMP JUMPDEST SWAP2 POP PUSH2 0x3A97 DUP3 DUP7 PUSH2 0x3712 JUMP JUMPDEST SWAP2 POP PUSH2 0x3AA2 DUP3 PUSH2 0x39C5 JUMP JUMPDEST SWAP2 POP PUSH2 0x3AAE DUP3 DUP6 PUSH2 0x3712 JUMP JUMPDEST SWAP2 POP PUSH2 0x3AB9 DUP3 PUSH2 0x3A11 JUMP JUMPDEST SWAP2 POP PUSH2 0x3AC5 DUP3 DUP5 PUSH2 0x3712 JUMP JUMPDEST SWAP2 POP PUSH2 0x3AD0 DUP3 PUSH2 0x3A5D JUMP JUMPDEST SWAP2 POP DUP2 SWAP1 POP SWAP5 SWAP4 POP POP POP POP JUMP JUMPDEST PUSH32 0x646174613A6170706C69636174696F6E2F6A736F6E3B6261736536342C000000 PUSH1 0x0 DUP3 ADD MSTORE POP JUMP JUMPDEST PUSH1 0x0 PUSH2 0x3B13 PUSH1 0x1D DUP4 PUSH2 0x32B2 JUMP JUMPDEST SWAP2 POP PUSH2 0x3B1E DUP3 PUSH2 0x3ADD JUMP JUMPDEST PUSH1 0x1D DUP3 ADD SWAP1 POP SWAP2 SWAP1 POP JUMP JUMPDEST PUSH1 0x0 PUSH2 0x3B34 DUP3 PUSH2 0x3B06 JUMP JUMPDEST SWAP2 POP PUSH2 0x3B40 DUP3 DUP5 PUSH2 0x3712 JUMP JUMPDEST SWAP2 POP DUP2 SWAP1 POP SWAP3 SWAP2 POP POP JUMP JUMPDEST PUSH1 0x0 PUSH1 0x40 DUP3 ADD SWAP1 POP DUP2 DUP2 SUB PUSH1 0x0 DUP4 ADD MSTORE PUSH2 0x3B65 DUP2 DUP6 PUSH2 0x2A82 JUMP JUMPDEST SWAP1 POP DUP2 DUP2 SUB PUSH1 0x20 DUP4 ADD MSTORE PUSH2 0x3B79 DUP2 DUP5 PUSH2 0x2A82 JUMP JUMPDEST SWAP1 POP SWAP4 SWAP3 POP POP POP JUMP JUMPDEST PUSH32 0x4552433732313A207472616E736665722066726F6D20696E636F727265637420 PUSH1 0x0 DUP3 ADD MSTORE PUSH32 0x6F776E6572000000000000000000000000000000000000000000000000000000 PUSH1 0x20 DUP3 ADD MSTORE POP JUMP JUMPDEST PUSH1 0x0 PUSH2 0x3BDE PUSH1 0x25 DUP4 PUSH2 0x2A36 JUMP JUMPDEST SWAP2 POP PUSH2 0x3BE9 DUP3 PUSH2 0x3B82 JUMP JUMPDEST PUSH1 0x40 DUP3 ADD SWAP1 POP SWAP2 SWAP1 POP JUMP JUMPDEST PUSH1 0x0 PUSH1 0x20 DUP3 ADD SWAP1 POP DUP2 DUP2 SUB PUSH1 0x0 DUP4 ADD MSTORE PUSH2 0x3C0D DUP2 PUSH2 0x3BD1 JUMP JUMPDEST SWAP1 POP SWAP2 SWAP1 POP JUMP JUMPDEST PUSH32 0x4552433732313A207472616E7366657220746F20746865207A65726F20616464 PUSH1 0x0 DUP3 ADD MSTORE PUSH32 0x7265737300000000000000000000000000000000000000000000000000000000 PUSH1 0x20 DUP3 ADD MSTORE POP JUMP JUMPDEST PUSH1 0x0 PUSH2 0x3C70 PUSH1 0x24 DUP4 PUSH2 0x2A36 JUMP JUMPDEST SWAP2 POP PUSH2 0x3C7B DUP3 PUSH2 0x3C14 JUMP JUMPDEST PUSH1 0x40 DUP3 ADD SWAP1 POP SWAP2 SWAP1 POP JUMP JUMPDEST PUSH1 0x0 PUSH1 0x20 DUP3 ADD SWAP1 POP DUP2 DUP2 SUB PUSH1 0x0 DUP4 ADD MSTORE PUSH2 0x3C9F DUP2 PUSH2 0x3C63 JUMP JUMPDEST SWAP1 POP SWAP2 SWAP1 POP JUMP JUMPDEST PUSH32 0x4552433732313A20617070726F766520746F2063616C6C657200000000000000 PUSH1 0x0 DUP3 ADD MSTORE POP JUMP JUMPDEST PUSH1 0x0 PUSH2 0x3CDC PUSH1 0x19 DUP4 PUSH2 0x2A36 JUMP JUMPDEST SWAP2 POP PUSH2 0x3CE7 DUP3 PUSH2 0x3CA6 JUMP JUMPDEST PUSH1 0x20 DUP3 ADD SWAP1 POP SWAP2 SWAP1 POP JUMP JUMPDEST PUSH1 0x0 PUSH1 0x20 DUP3 ADD SWAP1 POP DUP2 DUP2 SUB PUSH1 0x0 DUP4 ADD MSTORE PUSH2 0x3D0B DUP2 PUSH2 0x3CCF JUMP JUMPDEST SWAP1 POP SWAP2 SWAP1 POP JUMP JUMPDEST PUSH32 0x4552433732313A207472616E7366657220746F206E6F6E204552433732315265 PUSH1 0x0 DUP3 ADD MSTORE PUSH32 0x63656976657220696D706C656D656E7465720000000000000000000000000000 PUSH1 0x20 DUP3 ADD MSTORE POP JUMP JUMPDEST PUSH1 0x0 PUSH2 0x3D6E PUSH1 0x32 DUP4 PUSH2 0x2A36 JUMP JUMPDEST SWAP2 POP PUSH2 0x3D79 DUP3 PUSH2 0x3D12 JUMP JUMPDEST PUSH1 0x40 DUP3 ADD SWAP1 POP SWAP2 SWAP1 POP JUMP JUMPDEST PUSH1 0x0 PUSH1 0x20 DUP3 ADD SWAP1 POP DUP2 DUP2 SUB PUSH1 0x0 DUP4 ADD MSTORE PUSH2 0x3D9D DUP2 PUSH2 0x3D61 JUMP JUMPDEST SWAP1 POP SWAP2 SWAP1 POP JUMP JUMPDEST PUSH32 0x4E487B7100000000000000000000000000000000000000000000000000000000 PUSH1 0x0 MSTORE PUSH1 0x32 PUSH1 0x4 MSTORE PUSH1 0x24 PUSH1 0x0 REVERT JUMPDEST PUSH32 0x4E487B7100000000000000000000000000000000000000000000000000000000 PUSH1 0x0 MSTORE PUSH1 0x11 PUSH1 0x4 MSTORE PUSH1 0x24 PUSH1 0x0 REVERT JUMPDEST PUSH1 0x0 PUSH2 0x3E0D DUP3 PUSH2 0x2ADD JUMP JUMPDEST SWAP2 POP PUSH2 0x3E18 DUP4 PUSH2 0x2ADD JUMP JUMPDEST SWAP3 POP DUP3 DUP3 ADD SWAP1 POP DUP1 DUP3 GT ISZERO PUSH2 0x3E30 JUMPI PUSH2 0x3E2F PUSH2 0x3DD3 JUMP JUMPDEST JUMPDEST SWAP3 SWAP2 POP POP JUMP JUMPDEST PUSH1 0x0 PUSH2 0x3E41 DUP3 PUSH2 0x2ADD JUMP JUMPDEST SWAP2 POP PUSH32 0xFFFFFFFFFFFFFFFFFFFFFFFFFFFFFFFFFFFFFFFFFFFFFFFFFFFFFFFFFFFFFFFF DUP3 SUB PUSH2 0x3E73 JUMPI PUSH2 0x3E72 PUSH2 0x3DD3 JUMP JUMPDEST JUMPDEST PUSH1 0x1 DUP3 ADD SWAP1 POP SWAP2 SWAP1 POP JUMP JUMPDEST PUSH32 0x4E487B7100000000000000000000000000000000000000000000000000000000 PUSH1 0x0 MSTORE PUSH1 0x12 PUSH1 0x4 MSTORE PUSH1 0x24 PUSH1 0x0 REVERT JUMPDEST PUSH1 0x0 PUSH1 0x80 DUP3 ADD SWAP1 POP DUP2 DUP2 SUB PUSH1 0x0 DUP4 ADD MSTORE PUSH2 0x3EC7 DUP2 DUP8 PUSH2 0x2A82 JUMP JUMPDEST SWAP1 POP DUP2 DUP2 SUB PUSH1 0x20 DUP4 ADD MSTORE PUSH2 0x3EDB DUP2 DUP7 PUSH2 0x2A82 JUMP JUMPDEST SWAP1 POP DUP2 DUP2 SUB PUSH1 0x40 DUP4 ADD MSTORE PUSH2 0x3EEF DUP2 DUP6 PUSH2 0x2A82 JUMP JUMPDEST SWAP1 POP PUSH2 0x3EFE PUSH1 0x60 DUP4 ADD DUP5 PUSH2 0x2EB3 JUMP JUMPDEST SWAP6 SWAP5 POP POP POP POP POP JUMP JUMPDEST PUSH1 0x0 PUSH2 0x3F12 DUP3 PUSH2 0x2ADD JUMP JUMPDEST SWAP2 POP PUSH2 0x3F1D DUP4 PUSH2 0x2ADD JUMP JUMPDEST SWAP3 POP DUP3 PUSH2 0x3F2D JUMPI PUSH2 0x3F2C PUSH2 0x3E7E JUMP JUMPDEST JUMPDEST DUP3 DUP3 DIV SWAP1 POP SWAP3 SWAP2 POP POP JUMP JUMPDEST PUSH1 0x0 PUSH2 0x3F43 DUP3 PUSH2 0x2ADD JUMP JUMPDEST SWAP2 POP PUSH2 0x3F4E DUP4 PUSH2 0x2ADD JUMP JUMPDEST SWAP3 POP DUP3 DUP3 MUL PUSH2 0x3F5C DUP2 PUSH2 0x2ADD JUMP JUMPDEST SWAP2 POP DUP3 DUP3 DIV DUP5 EQ DUP4 ISZERO OR PUSH2 0x3F73 JUMPI PUSH2 0x3F72 PUSH2 0x3DD3 JUMP JUMPDEST JUMPDEST POP SWAP3 SWAP2 POP POP JUMP JUMPDEST PUSH32 0x45524337323155524953746F726167653A2055524920736574206F66206E6F6E PUSH1 0x0 DUP3 ADD MSTORE PUSH32 0x6578697374656E7420746F6B656E000000000000000000000000000000000000 PUSH1 0x20 DUP3 ADD MSTORE POP JUMP JUMPDEST PUSH1 0x0 PUSH2 0x3FD6 PUSH1 0x2E DUP4 PUSH2 0x2A36 JUMP JUMPDEST SWAP2 POP PUSH2 0x3FE1 DUP3 PUSH2 0x3F7A JUMP JUMPDEST PUSH1 0x40 DUP3 ADD SWAP1 POP SWAP2 SWAP1 POP JUMP JUMPDEST PUSH1 0x0 PUSH1 0x20 DUP3 ADD SWAP1 POP DUP2 DUP2 SUB PUSH1 0x0 DUP4 ADD MSTORE PUSH2 0x4005 DUP2 PUSH2 0x3FC9 JUMP JUMPDEST SWAP1 POP SWAP2 SWAP1 POP JUMP JUMPDEST PUSH2 0x4015 DUP3 PUSH2 0x2A2B JUMP JUMPDEST PUSH8 0xFFFFFFFFFFFFFFFF DUP2 GT ISZERO PUSH2 0x402E JUMPI PUSH2 0x402D PUSH2 0x2D12 JUMP JUMPDEST JUMPDEST PUSH2 0x4038 DUP3 SLOAD PUSH2 0x315D JUMP JUMPDEST PUSH2 0x4043 DUP3 DUP3 DUP6 PUSH2 0x35B5 JUMP JUMPDEST PUSH1 0x0 PUSH1 0x20 SWAP1 POP PUSH1 0x1F DUP4 GT PUSH1 0x1 DUP2 EQ PUSH2 0x4076 JUMPI PUSH1 0x0 DUP5 ISZERO PUSH2 0x4064 JUMPI DUP3 DUP8 ADD MLOAD SWAP1 POP JUMPDEST PUSH2 0x406E DUP6 DUP3 PUSH2 0x3626 JUMP JUMPDEST DUP7 SSTORE POP PUSH2 0x40D6 JUMP JUMPDEST PUSH1 0x1F NOT DUP5 AND PUSH2 0x4084 DUP7 PUSH2 0x3496 JUMP JUMPDEST PUSH1 0x0 JUMPDEST DUP3 DUP2 LT ISZERO PUSH2 0x40AC JUMPI DUP5 DUP10 ADD MLOAD DUP3 SSTORE PUSH1 0x1 DUP3 ADD SWAP2 POP PUSH1 0x20 DUP6 ADD SWAP5 POP PUSH1 0x20 DUP2 ADD SWAP1 POP PUSH2 0x4087 JUMP JUMPDEST DUP7 DUP4 LT ISZERO PUSH2 0x40C9 JUMPI DUP5 DUP10 ADD MLOAD PUSH2 0x40C5 PUSH1 0x1F DUP10 AND DUP3 PUSH2 0x3608 JUMP JUMPDEST DUP4 SSTORE POP JUMPDEST PUSH1 0x1 PUSH1 0x2 DUP9 MUL ADD DUP9 SSTORE POP POP POP JUMPDEST POP POP POP POP POP POP JUMP JUMPDEST PUSH1 0x0 PUSH2 0x40E9 DUP3 PUSH2 0x2ADD JUMP JUMPDEST SWAP2 POP PUSH2 0x40F4 DUP4 PUSH2 0x2ADD JUMP JUMPDEST SWAP3 POP DUP3 DUP3 SUB SWAP1 POP DUP2 DUP2 GT ISZERO PUSH2 0x410C JUMPI PUSH2 0x410B PUSH2 0x3DD3 JUMP JUMPDEST JUMPDEST SWAP3 SWAP2 POP POP JUMP JUMPDEST PUSH1 0x0 DUP2 MLOAD SWAP1 POP SWAP2 SWAP1 POP JUMP JUMPDEST PUSH1 0x0 DUP3 DUP3 MSTORE PUSH1 0x20 DUP3 ADD SWAP1 POP SWAP3 SWAP2 POP POP JUMP JUMPDEST PUSH1 0x0 PUSH2 0x4139 DUP3 PUSH2 0x4112 JUMP JUMPDEST PUSH2 0x4143 DUP2 DUP6 PUSH2 0x411D JUMP JUMPDEST SWAP4 POP PUSH2 0x4153 DUP2 DUP6 PUSH1 0x20 DUP7 ADD PUSH2 0x2A47 JUMP JUMPDEST PUSH2 0x415C DUP2 PUSH2 0x2A71 JUMP JUMPDEST DUP5 ADD SWAP2 POP POP SWAP3 SWAP2 POP POP JUMP JUMPDEST PUSH1 0x0 PUSH1 0x80 DUP3 ADD SWAP1 POP PUSH2 0x417C PUSH1 0x0 DUP4 ADD DUP8 PUSH2 0x2B72 JUMP JUMPDEST PUSH2 0x4189 PUSH1 0x20 DUP4 ADD DUP7 PUSH2 0x2B72 JUMP JUMPDEST PUSH2 0x4196 PUSH1 0x40 DUP4 ADD DUP6 PUSH2 0x2EB3 JUMP JUMPDEST DUP2 DUP2 SUB PUSH1 0x60 DUP4 ADD MSTORE PUSH2 0x41A8 DUP2 DUP5 PUSH2 0x412E JUMP JUMPDEST SWAP1 POP SWAP6 SWAP5 POP POP POP POP POP JUMP JUMPDEST PUSH1 0x0 DUP2 MLOAD SWAP1 POP PUSH2 0x41C2 DUP2 PUSH2 0x299C JUMP JUMPDEST SWAP3 SWAP2 POP POP JUMP JUMPDEST PUSH1 0x0 PUSH1 0x20 DUP3 DUP5 SUB SLT ISZERO PUSH2 0x41DE JUMPI PUSH2 0x41DD PUSH2 0x2966 JUMP JUMPDEST JUMPDEST PUSH1 0x0 PUSH2 0x41EC DUP5 DUP3 DUP6 ADD PUSH2 0x41B3 JUMP JUMPDEST SWAP2 POP POP SWAP3 SWAP2 POP POP JUMP JUMPDEST PUSH32 0x4552433732313A206D696E7420746F20746865207A65726F2061646472657373 PUSH1 0x0 DUP3 ADD MSTORE POP JUMP JUMPDEST PUSH1 0x0 PUSH2 0x422B PUSH1 0x20 DUP4 PUSH2 0x2A36 JUMP JUMPDEST SWAP2 POP PUSH2 0x4236 DUP3 PUSH2 0x41F5 JUMP JUMPDEST PUSH1 0x20 DUP3 ADD SWAP1 POP SWAP2 SWAP1 POP JUMP JUMPDEST PUSH1 0x0 PUSH1 0x20 DUP3 ADD SWAP1 POP DUP2 DUP2 SUB PUSH1 0x0 DUP4 ADD MSTORE PUSH2 0x425A DUP2 PUSH2 0x421E JUMP JUMPDEST SWAP1 POP SWAP2 SWAP1 POP JUMP JUMPDEST PUSH32 0x4552433732313A20746F6B656E20616C7265616479206D696E74656400000000 PUSH1 0x0 DUP3 ADD MSTORE POP JUMP JUMPDEST PUSH1 0x0 PUSH2 0x4297 PUSH1 0x1C DUP4 PUSH2 0x2A36 JUMP JUMPDEST SWAP2 POP PUSH2 0x42A2 DUP3 PUSH2 0x4261 JUMP JUMPDEST PUSH1 0x20 DUP3 ADD SWAP1 POP SWAP2 SWAP1 POP JUMP JUMPDEST PUSH1 0x0 PUSH1 0x20 DUP3 ADD SWAP1 POP DUP2 DUP2 SUB PUSH1 0x0 DUP4 ADD MSTORE PUSH2 0x42C6 DUP2 PUSH2 0x428A JUMP JUMPDEST SWAP1 POP SWAP2 SWAP1 POP JUMP INVALID EXP 0x2D 0x2D 0x2D 0x2D 0x2D 0x2D 0x2D 0x2D 0x2D 0x2D 0x2D 0x2D 0x2D 0x2D 0x2D 0x2D 0x2D 0x2D 0x2D 0x2D 0x2D 0x2D 0x2D 0x2D 0x2D 0x2D 0x2D 0x2D 0x2D 0x2D 0x2D 0x2D 0x2D 0x2D 0x2D 0x2D 0x2D 0x2D 0x2D 0x2D 0x2D 0x2D 0x2D 0x2D 0x2D 0x2D 0x2D 0x2D 0x2D 0x2D 0x2D 0x2D 0x2D 0x2D 0x2D 0x2D MSTORE PUSH6 0x676973746572 PUSH10 0x6E672025732E2573206F PUSH15 0x2074686520636F6E74726163742077 PUSH10 0x746820746F6B656E4944 KECCAK256 0x25 PUSH5 0x2D2D2D2D2D 0x2D 0x2D 0x2D 0x2D 0x2D 0x2D 0x2D 0x2D 0x2D 0x2D 0x2D 0x2D 0x2D 0x2D 0x2D 0x2D 0x2D 0x2D 0x2D 0x2D 0x2D 0x2D 0x2D 0x2D 0x2D 0x2D 0x2D 0x2D 0x2D 0x2D 0x2D 0x2D 0x2D 0x2D 0x2D 0x2D 0x2D 0x2D 0x2D 0x2D 0x2D 0x2D 0x2D 0x2D 0x2D 0x2D 0x2D 0x2D 0x2D 0x2D 0x2D EXP COINBASE TIMESTAMP NUMBER DIFFICULTY GASLIMIT CHAINID SELFBALANCE BASEFEE 0x49 0x4A 0x4B 0x4C 0x4D 0x4E 0x4F POP MLOAD MSTORE MSTORE8 SLOAD SSTORE JUMP JUMPI PC MSIZE GAS PUSH2 0x6263 PUSH5 0x6566676869 PUSH11 0x6B6C6D6E6F707172737475 PUSH23 0x7778797A303132333435363738392B2FA2646970667358 0x22 SLT KECCAK256 JUMPDEST 0xBD 0xC6 GT SWAP12 0xC 0xCA 0x5E 0x4C 0xC 0xB4 0x23 CALLER SWAP14 0x4C 0xC9 SHR BYTE 0xAD GASPRICE 0xF7 0xD7 GASPRICE 0xB8 0xB7 0x24 CHAINID AND 0x24 SDIV SWAP7 0xC6 PUSH5 0x736F6C6343 STOP ADDMOD GT STOP CALLER EXTCODECOPY PUSH20 0x766720786D6C6E733D22687474703A2F2F777777 0x2E PUSH24 0x332E6F72672F323030302F737667222077696474683D2232 CALLDATACOPY ADDRESS 0x22 KECCAK256 PUSH9 0x65696768743D223237 ADDRESS 0x22 KECCAK256 PUSH7 0x696C6C3D226E6F PUSH15 0x65223E3C706174682066696C6C3D22 PUSH22 0x726C282342292220643D224D30203068323730763237 ADDRESS BASEFEE ADDRESS PUSH27 0x222F3E3C646566733E3C66696C7465722069643D22412220636F6C PUSH16 0x722D696E746572706F6C6174696F6E2D PUSH7 0x696C746572733D 0x22 PUSH20 0x524742222066696C746572556E6974733D227573 PUSH6 0x725370616365 0x4F PUSH15 0x55736522206865696768743D223237 ADDRESS 0x22 KECCAK256 PUSH24 0x696474683D22323730223E3C666544726F70536861646F77 KECCAK256 PUSH5 0x783D223022 KECCAK256 PUSH5 0x793D223122 KECCAK256 PUSH20 0x7464446576696174696F6E3D22322220666C6F6F PUSH5 0x2D6F706163 PUSH10 0x74793D222E3232352220 PUSH24 0x696474683D223230302522206865696768743D2232303025 0x22 0x2F RETURNDATACOPY EXTCODECOPY 0x2F PUSH7 0x696C7465723E3C 0x2F PUSH5 0x6566733E3C PUSH17 0x61746820643D224D37322E383633203432 0x2E CODECOPY CALLVALUE CODECOPY PUSH4 0x2D2E3636 CODESIZE 0x2D 0x2E CALLER CODESIZE CALLDATACOPY 0x2D BALANCE 0x2E CALLVALUE ORIGIN CALLDATASIZE 0x2D 0x2E CALLDATALOAD CODECOPY 0x2D ORIGIN 0x2E BALANCE CODECOPY CALLDATACOPY 0x2D 0x2E CALLDATALOAD CODECOPY PUSH20 0x2D312E3532392E3230342D322E3139372E35396C 0x2D BALANCE ADDRESS 0x2E ADDRESS CODESIZE BALANCE KECCAK256 CALLDATASIZE 0x2E ADDRESS CALLER ORIGIN 0x2D CALLDATASIZE 0x2E CODESIZE CALLDATALOAD KECCAK256 CALLER 0x2E CODECOPY CALLER CALLVALUE 0x2D BALANCE ADDRESS 0x2E ADDRESS CODESIZE BALANCE KECCAK256 CALLDATASIZE 0x2E ADDRESS CALLER ORIGIN PUSH4 0x2D2E3636 CODESIZE 0x2E CALLER CODESIZE CALLDATACOPY 0x2D BALANCE 0x2E CALLVALUE ORIGIN CALLDATASIZE 0x2E CALLDATALOAD CODECOPY 0x2D ORIGIN 0x2E BALANCE CODECOPY CALLDATACOPY 0x2E CALLDATALOAD CODECOPY PUSH20 0x2D312E3532392D2E3230342D322E3139372D2E35 CODECOPY PUSH13 0x2D382E3031332D342E37323161 CALLVALUE 0x2E CALLDATALOAD ORIGIN KECCAK256 CALLVALUE 0x2E CALLDATALOAD ORIGIN KECCAK256 ADDRESS KECCAK256 ADDRESS KECCAK256 BALANCE 0x2D BALANCE 0x2E CALLDATALOAD CODESIZE CODECOPY 0x2D BALANCE 0x2E CALLDATASIZE BALANCE CALLDATASIZE PUSH4 0x2D2E3338 CALLVALUE 0x2D 0x2E CALLDATASIZE CALLDATASIZE CALLDATALOAD 0x2D 0x2E CALLDATALOAD CODECOPY CALLVALUE 0x2D BALANCE 0x2E CALLVALUE BALANCE CODESIZE 0x2D 0x2E CALLDATASIZE ADDRESS CODESIZE 0x2D ORIGIN 0x2E BALANCE CODESIZE CALLDATACOPY PUSH23 0x2D392E3331632D2E3031332D2E3737352E3138352D312E CALLDATALOAD CALLER CODESIZE 0x2E CALLDATALOAD CALLDATACOPY ORIGIN 0x2D ORIGIN 0x2E ORIGIN ADDRESS CODESIZE PUSH2 0x342E ORIGIN CALLDATALOAD KECCAK256 CALLVALUE 0x2E ORIGIN CALLDATALOAD KECCAK256 ADDRESS KECCAK256 ADDRESS KECCAK256 BALANCE KECCAK256 BALANCE 0x2E CALLDATASIZE ORIGIN CALLDATALOAD 0x2D BALANCE 0x2E CALLDATALOAD CODECOPY CALLDATALOAD PUSH13 0x372E3838342D342E3539632E36 CALLDATASIZE CODESIZE 0x2D 0x2E CALLER CODESIZE CALLDATACOPY KECCAK256 BALANCE 0x2E CALLVALUE ORIGIN CALLDATASIZE 0x2D 0x2E CALLDATALOAD CODECOPY KECCAK256 ORIGIN 0x2E BALANCE CODECOPY CALLDATACOPY 0x2D 0x2E CALLDATALOAD CODECOPY PUSH20 0x312E3532392E32303420322E3139372E35396C37 0x2E CODESIZE CODESIZE CALLVALUE KECCAK256 CALLVALUE 0x2E CALLDATALOAD CODECOPY PUSH2 0x342E CALLDATALOAD ORIGIN KECCAK256 CALLVALUE 0x2E CALLDATALOAD ORIGIN KECCAK256 ADDRESS KECCAK256 ADDRESS KECCAK256 BALANCE KECCAK256 BALANCE 0x2E CALLDATALOAD CODESIZE CODECOPY KECCAK256 BALANCE 0x2E CALLDATASIZE BALANCE CALLDATASIZE PUSH4 0x2E333834 0x2E CALLDATASIZE CALLDATASIZE CALLDATALOAD 0x2E CALLDATALOAD CODECOPY CALLVALUE KECCAK256 BALANCE 0x2E CALLVALUE BALANCE CODESIZE 0x2E CALLDATASIZE ADDRESS CODESIZE KECCAK256 ORIGIN 0x2E BALANCE CODESIZE CALLDATACOPY PUSH23 0x362E3033326C362E38352D342E303635762D362E303332 PUSH4 0x2E303133 0x2D 0x2E CALLDATACOPY CALLDATACOPY CALLDATALOAD 0x2D 0x2E BALANCE CODESIZE CALLDATALOAD 0x2D BALANCE 0x2E CALLDATALOAD CALLER CODESIZE 0x2D 0x2E CALLDATALOAD CALLDATACOPY ORIGIN 0x2D ORIGIN 0x2E ORIGIN ADDRESS CODESIZE PUSH2 0x342E ORIGIN CALLDATALOAD KECCAK256 CALLVALUE 0x2E ORIGIN CALLDATALOAD KECCAK256 ADDRESS KECCAK256 ADDRESS KECCAK256 ADDRESS 0x2D BALANCE 0x2E CALLDATASIZE ORIGIN CALLDATALOAD 0x2D BALANCE 0x2E CALLDATALOAD CODECOPY CALLDATALOAD 0x4C CALLVALUE BALANCE 0x2E CALLVALUE CALLDATALOAD CALLDATASIZE KECCAK256 ORIGIN CALLVALUE 0x2E CALLDATALOAD CODECOPY PUSH4 0x2D2E3636 CODESIZE 0x2D 0x2E CALLER CODESIZE CALLDATACOPY 0x2D BALANCE 0x2E CALLVALUE ORIGIN CALLDATASIZE 0x2D 0x2E CALLDATALOAD CODECOPY 0x2D ORIGIN 0x2E BALANCE CODECOPY CALLDATACOPY 0x2D 0x2E CALLDATALOAD CODECOPY PUSH20 0x2D312E3532392E3230342D322E3139372E35396C 0x2D BALANCE CALLVALUE 0x2E CODESIZE CALLDATASIZE CALLVALUE KECCAK256 CODESIZE 0x2E CALLDATASIZE CALLDATALOAD CALLDATALOAD PUSH2 0x342E ORIGIN CALLDATALOAD KECCAK256 CALLVALUE 0x2E ORIGIN CALLDATALOAD KECCAK256 ADDRESS KECCAK256 ADDRESS KECCAK256 ADDRESS 0x2D BALANCE 0x2E CALLDATASIZE ORIGIN CALLDATALOAD KECCAK256 BALANCE 0x2E CALLDATALOAD CODECOPY CALLDATALOAD PUSH4 0x2D2E3338 CALLDATACOPY 0x2E CALLDATASIZE CALLDATACOPY 0x2D 0x2E CALLDATALOAD CODESIZE CALLDATALOAD KECCAK256 BALANCE 0x2E CALLVALUE CALLER CALLVALUE 0x2D 0x2E CALLDATALOAD CALLDATACOPY ORIGIN KECCAK256 ORIGIN 0x2E ORIGIN ADDRESS CODESIZE PUSH23 0x31372E343431632D2E3031332E3737352E31383520312E CALLDATALOAD CALLER CODESIZE 0x2E CALLDATALOAD CALLDATACOPY ORIGIN KECCAK256 ORIGIN 0x2E ORIGIN ADDRESS CODESIZE PUSH2 0x342E ORIGIN CALLDATALOAD KECCAK256 CALLVALUE 0x2E ORIGIN CALLDATALOAD KECCAK256 ADDRESS KECCAK256 ADDRESS KECCAK256 ADDRESS KECCAK256 BALANCE 0x2E CALLDATASIZE ORIGIN CALLDATALOAD KECCAK256 BALANCE 0x2E CALLDATALOAD CODECOPY CALLDATALOAD PUSH13 0x31342E38363420382E36353563 0x2E CALLDATASIZE CALLDATASIZE CODESIZE 0x2E CALLER CODESIZE CALLDATACOPY KECCAK256 BALANCE 0x2E CALLVALUE ORIGIN CALLDATASIZE 0x2E CALLDATALOAD CODECOPY KECCAK256 ORIGIN 0x2E BALANCE CODECOPY CALLDATACOPY 0x2E CALLDATALOAD CODECOPY PUSH20 0x312E3532392D2E32303420322E3139372D2E3539 PUSH13 0x31302E3038312D352E39303120 CALLDATASIZE 0x2E CODESIZE CALLDATALOAD 0x2D CALLVALUE 0x2E ADDRESS CALLDATASIZE CALLDATALOAD KECCAK256 BALANCE ADDRESS 0x2E ADDRESS CODESIZE BALANCE 0x2D CALLDATALOAD 0x2E CODECOPY ADDRESS BALANCE PUSH4 0x2E363638 0x2D 0x2E CALLER CODESIZE CALLDATACOPY KECCAK256 BALANCE 0x2E CALLVALUE ORIGIN CALLDATASIZE 0x2D 0x2E CALLDATALOAD CODECOPY KECCAK256 ORIGIN 0x2E BALANCE CODECOPY CALLDATACOPY 0x2D 0x2E CALLDATALOAD CODECOPY PUSH20 0x312E3532392E32303420322E3139372E35396C37 0x2E CODESIZE CODESIZE CALLVALUE KECCAK256 CALLVALUE 0x2E CALLDATALOAD CODECOPY PUSH2 0x342E CALLDATALOAD ORIGIN KECCAK256 CALLVALUE 0x2E CALLDATALOAD ORIGIN KECCAK256 ADDRESS KECCAK256 ADDRESS KECCAK256 BALANCE KECCAK256 BALANCE 0x2E CALLDATALOAD CODESIZE CODECOPY KECCAK256 BALANCE 0x2E CALLDATASIZE BALANCE CALLDATASIZE PUSH4 0x2E333834 0x2E CALLDATASIZE CALLDATASIZE CALLDATALOAD 0x2E CALLDATALOAD CODECOPY CALLVALUE KECCAK256 BALANCE 0x2E CALLVALUE BALANCE CODESIZE 0x2E CALLDATASIZE ADDRESS CODESIZE KECCAK256 ORIGIN 0x2E BALANCE CODESIZE CALLDATACOPY PUSH23 0x392E333131632E3031332E3737352D2E31383520312E35 CALLER CODESIZE 0x2D 0x2E CALLDATALOAD CALLDATACOPY ORIGIN KECCAK256 ORIGIN 0x2E ORIGIN ADDRESS CODESIZE PUSH2 0x342E ORIGIN CALLDATALOAD KECCAK256 CALLVALUE 0x2E ORIGIN CALLDATALOAD KECCAK256 ADDRESS KECCAK256 ADDRESS KECCAK256 BALANCE 0x2D BALANCE 0x2E CALLDATASIZE ORIGIN CALLDATALOAD KECCAK256 BALANCE 0x2E CALLDATALOAD CODECOPY CALLDATALOAD PUSH13 0x2D372E38383420342E37323163 0x2D 0x2E CALLDATASIZE CALLDATASIZE CODESIZE 0x2E CALLER CODESIZE CALLDATACOPY 0x2D BALANCE 0x2E CALLVALUE ORIGIN CALLDATASIZE 0x2E CALLDATALOAD CODECOPY 0x2D ORIGIN 0x2E BALANCE CODECOPY CALLDATACOPY 0x2E CALLDATALOAD CODECOPY PUSH20 0x2D312E3532392D2E3230342D322E3139372D2E35 CODECOPY PUSH13 0x2D372E3838342D342E35396134 0x2E CALLDATALOAD ORIGIN KECCAK256 CALLVALUE 0x2E CALLDATALOAD ORIGIN KECCAK256 ADDRESS KECCAK256 ADDRESS KECCAK256 BALANCE 0x2D BALANCE 0x2E CALLDATALOAD CODESIZE CODECOPY 0x2D BALANCE 0x2E CALLDATASIZE BALANCE CALLDATASIZE PUSH4 0x2D2E3338 CALLDATALOAD 0x2D 0x2E CALLDATASIZE CALLDATASIZE CALLDATALOAD 0x2D 0x2E CALLDATALOAD CODECOPY CALLVALUE 0x2D BALANCE 0x2E CALLVALUE BALANCE CODESIZE 0x2D 0x2E CALLDATASIZE ADDRESS CODESIZE 0x2D ORIGIN 0x2E BALANCE CODESIZE CALLDATACOPY PUSH23 0x2D362E3033326C2D362E383520342E30363576362E3033 ORIGIN PUSH4 0x2D2E3031 CALLER 0x2E CALLDATACOPY CALLDATACOPY CALLDATALOAD 0x2E BALANCE CODESIZE CALLDATALOAD KECCAK256 BALANCE 0x2E CALLDATALOAD CALLER CODESIZE 0x2E CALLDATALOAD CALLDATACOPY ORIGIN KECCAK256 ORIGIN 0x2E ORIGIN ADDRESS CODESIZE PUSH2 0x342E ORIGIN CALLDATALOAD KECCAK256 CALLVALUE 0x2E ORIGIN CALLDATALOAD KECCAK256 ADDRESS KECCAK256 ADDRESS KECCAK256 ADDRESS KECCAK256 BALANCE 0x2E CALLDATASIZE ORIGIN CALLDATALOAD KECCAK256 BALANCE 0x2E CALLDATALOAD CODECOPY CALLDATALOAD PUSH13 0x31342E38363420382E36353563 0x2E CALLDATASIZE CALLDATASIZE CODESIZE 0x2E CALLER CODESIZE CALLDATACOPY KECCAK256 BALANCE 0x2E CALLVALUE ORIGIN CALLDATASIZE 0x2E CALLDATALOAD CODECOPY KECCAK256 ORIGIN 0x2E BALANCE CODECOPY CALLDATACOPY 0x2E CALLDATALOAD CODECOPY PUSH20 0x312E3532392D2E32303420322E3139372D2E3539 PUSH13 0x31342E3836342D382E36353563 0x2E CALLDATASIZE CALLDATALOAD CALLDATACOPY 0x2D 0x2E CALLER CODECOPY CALLVALUE KECCAK256 BALANCE 0x2E ORIGIN ADDRESS CALLVALUE 0x2D 0x2E CODECOPY CALLDATALOAD KECCAK256 BALANCE 0x2E CALLDATALOAD CODESIZE CODECOPY 0x2D BALANCE 0x2E CALLDATASIZE BALANCE CALLDATASIZE PUSH20 0x2E3539342D312E3431382E3630392D322E313837 JUMP CALLDATALOAD CALLDATALOAD 0x2E CALLDATALOAD CALLER CODESIZE PUSH4 0x2E303133 0x2D 0x2E CALLDATACOPY CALLDATACOPY CALLDATALOAD 0x2D 0x2E BALANCE CODESIZE CALLDATALOAD 0x2D BALANCE 0x2E CALLDATALOAD CALLER CODESIZE 0x2D 0x2E CALLDATALOAD CALLDATACOPY ORIGIN 0x2D ORIGIN 0x2E ORIGIN ADDRESS CODESIZE PUSH2 0x342E ORIGIN CALLDATALOAD KECCAK256 CALLVALUE 0x2E ORIGIN CALLDATALOAD KECCAK256 ADDRESS KECCAK256 ADDRESS KECCAK256 ADDRESS 0x2D BALANCE 0x2E CALLDATASIZE ORIGIN CALLDATALOAD 0x2D BALANCE 0x2E CALLDATALOAD CODECOPY CALLDATALOAD PUSH13 0x2D31342E3939332D382E373836 PUSH27 0x222066696C6C3D2223666666222F3E3C646566733E3C6C696E6561 PUSH19 0x4772616469656E742069643D2242222078313D 0x22 ADDRESS 0x22 KECCAK256 PUSH26 0x313D2230222078323D22323730222079323D2232373022206772 PUSH2 0x6469 PUSH6 0x6E74556E6974 PUSH20 0x3D227573657253706163654F6E557365223E3C73 PUSH21 0x6F702073746F702D636F6C6F723D22236362356565 PUSH6 0x222F3E3C7374 PUSH16 0x70206F66667365743D2231222073746F PUSH17 0x2D636F6C6F723D22233063643765342220 PUSH20 0x746F702D6F7061636974793D222E3939222F3E3C 0x2F PUSH13 0x696E6561724772616469656E74 RETURNDATACOPY EXTCODECOPY 0x2F PUSH5 0x6566733E3C PUSH21 0x65787420783D2233322E352220793D223233312220 PUSH7 0x6F6E742D73697A PUSH6 0x3D2232372220 PUSH7 0x696C6C3D222366 PUSH7 0x66222066696C74 PUSH6 0x723D2275726C 0x28 0x23 COINBASE 0x29 0x22 KECCAK256 PUSH7 0x6F6E742D66616D PUSH10 0x6C793D22506C7573204A PUSH2 0x6B61 PUSH19 0x74612053616E732C44656A6156752053616E73 0x2C 0x4E PUSH16 0x746F20436F6C6F7220456D6F6A692C41 PUSH17 0x706C6520436F6C6F7220456D6F6A692C73 PUSH2 0x6E73 0x2D PUSH20 0x657269662220666F6E742D7765696768743D2262 PUSH16 0x6C64223E000000000000000000000000 "},"methodIdentifiers":{"approve(address,uint256)":"095ea7b3","balanceOf(address)":"70a08231","domains(string)":"26449235","getAddress(string)":"bf40fac1","getApproved(uint256)":"081812fc","getRecord(string)":"11dd8845","isApprovedForAll(address,address)":"e985e9c5","name()":"06fdde03","ownerOf(uint256)":"6352211e","price(string)":"fe2c6198","records(string)":"541e771d","register(string)":"f2c298be","safeTransferFrom(address,address,uint256)":"42842e0e","safeTransferFrom(address,address,uint256,bytes)":"b88d4fde","setApprovalForAll(address,bool)":"a22cb465","setRecord(string,string)":"c1880a98","supportsInterface(bytes4)":"01ffc9a7","symbol()":"95d89b41","tld()":"2d551432","tokenURI(uint256)":"c87b56dd","transferFrom(address,address,uint256)":"23b872dd"}}}}}